:100000000C94E5010C940D020C940D020C94960DC9
:100010000C94710D0C944C0D0C940D020C940D026B
:100020000C940D020C940D020C940D020C940D0214
:100030000C940D020C940D020C940D020C940D0204
:100040000C9496050C940D020C9478030C945203B6
:100050000C940D020C940D020C940D020C940D02E4
:100060000C940D020C940D028F129A149A14A11282
:10007000D1139A149A14CE13FB129A1485149A145D
:100080009A149A149A149A149A140D1310139A1419
:100090009A14AF134572726F723A20004D61792045
:1000A000313420323031382031393A31313A303937
:1000B0000020636F6D70696C65642000554E4F00C1
:1000C000206F6E200041726475436F756E746572A7
:1000D0002056322E33360020002000200049002018
:1000E0006D696E20002070756C6C757000202D009D
:1000F0002066616C6C696E670020726973696E6757
:1001000000500040002F0073002C20002000480009
:100110002041002053002058002C00204E00205485
:10012000002F0020440020430052002C00204200F9
:100130002C0020540020617661696C61626C65005E
:100140002C002048656C6C6F2C2070696E73200049
:100150004D20726573746F72696E6720636F6E668F
:1001600069672066726F6D20454550524F4D004DB6
:1001700020696C6C6567616C20636F6E66696720CF
:10018000696E20454550524F4D004D206E6F2063E3
:100190006F6E66696720696E20454550524F4D006D
:1001A0000000000800020100000304070000000036
:1001B00000000000616C697665002C2000636F6EA2
:1001C0006669672073617665642C20002C002C0022
:1001D0002C0020004D20536C6F743A20004D206994
:1001E0006C6C6567616C20636F6E66696720696E11
:1001F00020454550524F4D004D206E6F20636F6E6D
:1002000066696720696E20454550524F4D00205366
:100210006C6F74733A20004D20454550524F4D206D
:10022000436F6E6669673A2000206D696C6C697374
:1002300065636F6E6473004D204E6578742072653F
:10024000706F727420696E20002C20004D20537452
:10025000617475733A20004D2072656D6F76656428
:10026000200052656D496E7400496C6C6567616C65
:100270002070696E20737065636966696361746973
:100280006F6E20004D20696C6C6567616C20766133
:100290006C75652070617373656420666F7220648D
:1002A0006576566572626F7365004D20646576569B
:1002B0006572626F73652073657420746F2000200F
:1002C00073697A6520002C004420676F7420002039
:1002D0002072656A65637420002020636F756E74F8
:1002E0002000202068697374496478200020746FAE
:1002F000200020292000202820696E7465726E611C
:100300006C20004D2070696E200000000000250068
:1003100028002B0000000000240027002A00010212
:100320000408102040800102040810200102040883
:1003300010204D20646566696E6564200041646428
:10034000496E7400496C6C6567616C2070756C73E4
:1003500065206C6576656C2073706563696669639A
:100360006174696F6E20666F722070696E20000084
:1003700000000023002600290004040404040404EF
:1003800004020202020202030303030303496C6C2A
:100390006567616C2070696E20737065636966695A
:1003A000636174696F6E20002000200020004D20E2
:1003B000696E74657276616C732073657420746FF6
:1003C000200073697A650000D91011241FBECFEF99
:1003D000D8E0DEBFCDBF11E0A0E0B1E0E4EAFEE28C
:1003E00002C005900D92A438B107D9F726E0A4E821
:1003F000B1E001C01D92AA3CB207E1F711E0C5EEE1
:10040000D1E004C02197FE010E942217C43ED1070B
:10041000C9F70E9406110C9450170C940000CF925B
:10042000DF92EF92FF920F931F93CF93DF936C01B4
:100430007A018B01C0E0D0E0CE15DF0589F0D8014C
:100440006D918D01D601ED91FC910190F081E02D2F
:10045000C6010995892B11F47E0102C02196ECCFCB
:10046000C701DF91CF911F910F91FF90EF90DF9027
:10047000CF900895089580E090E00895FC01538D99
:10048000448D252F30E0842F90E0821B930B54176E
:1004900010F0CF96089501970895FC01918D828DFB
:1004A000981761F0828DDF01A80FB11D5D968C91C8
:1004B000928D9F5F9F73928F90E008958FEF9FEFD3
:1004C0000895FC01918D828D981731F0828DE80F8F
:1004D000F11D858D90E008958FEF9FEF0895FC0149
:1004E000918D228D892F90E0805C9F4F821B910916
:1004F0008F739927089588E995E00E946F0221E0A3
:10050000892B09F420E0822F0895FC01848DDF01FE
:10051000A80FB11DA35ABF4F2C91848D90E0019676
:100520008F739927848FA689B7892C93A089B18965
:100530008C9180648C93938D848D981306C002886F
:10054000F389E02D80818F7D80830895EF92FF9263
:100550000F931F93CF93DF93EC0181E0888F9B8DE6
:100560008C8D981305C0E889F989808185FD24C0A8
:10057000F62E0B8D10E00F5F1F4F0F731127E02E2B
:100580008C8DE8120CC00FB607FCFACFE889F98908
:10059000808185FFF5CFCE010E948502F1CF8B8D42
:1005A000FE01E80FF11DE35AFF4FF0820B8FEA893D
:1005B000FB898081806207C0EE89FF896083E889BA
:1005C000F98980818064808381E090E0DF91CF9120
:1005D0001F910F91FF90EF900895CF93DF93EC015F
:1005E000888D8823C9F0EA89FB89808185FD05C053
:1005F000A889B9898C9186FD0FC00FB607FCF5CF8D
:10060000808185FFF2CFA889B9898C9185FFEDCFD4
:10061000CE010E948502E7CFDF91CF91089580E05F
:1006200090E0892B29F00E947B0281110C9400003C
:100630000895EF92FF920F931F93CF93DF938C0156
:100640007B01C0E0D0E0F701EC0FFD1F6491662351
:1006500061F0D801ED91FC910190F081E02DC8018D
:100660000995892B11F02196EECFCE01DF91CF9124
:100670001F910F91FF90EF9008956115710579F02A
:10068000FB0101900020E9F73197AF01461B570BA2
:10069000DC01ED91FC910280F381E02D099480E072
:1006A00090E008951F920F920FB60F9211242F938E
:1006B0003F934F935F936F937F938F939F93AF93EA
:1006C000BF93EF93FF9388E995E00E948502FF9125
:1006D000EF91BF91AF919F918F917F916F915F91BA
:1006E0004F913F912F910F900FBE0F901F90189533
:1006F0001F920F920FB60F9211242F938F939F93F7
:10070000EF93FF93E091A805F091A9058081E09116
:10071000AE05F091AF0582FD12C090818091B105C8
:100720008F5F8F732091B205821751F0E091B10570
:10073000F0E0E856FA4F958F8093B10501C08081B3
:10074000FF91EF919F918F912F910F900FBE0F907E
:100750001F90189590E0FC01E056FE4F2491FC019B
:10076000E25EFC4F3491FC01E758FC4FE491EE232C
:10077000B9F1222339F1233091F038F42130A9F076
:10078000223001F584B58F7D12C0273091F02830DA
:10079000A1F02430B9F4809180008F7D03C0809156
:1007A00080008F77809380000DC084B58F7784BDE3
:1007B00009C08091B0008F7703C08091B0008F7D19
:1007C0008093B000F0E0EE0FFF1FE159FC4FA591C0
:1007D000B491EC913E2381E090E021F480E0089513
:1007E00080E090E008953FB7F8948091B104909133
:1007F000B204A091B304B091B40426B5A89B05C07F
:100800002F3F19F00196A11DB11D3FBFBA2FA92F8F
:10081000982F8827820F911DA11DB11DBC01CD010C
:1008200042E0660F771F881F991F4A95D1F70895F8
:100830002FB7F8946091AD047091AE048091AF042D
:100840009091B0042FBF08952F923F924F925F92E4
:100850006F927F928F929F92AF92BF92CF92DF92D0
:10086000EF92FF920F931F93CF93DF93C82F0E94B5
:100870001804AB01BC018C2F90E0FC01EE0FFF1FB0
:10088000ED58FC4FA591B4919C90DC01A757B94F4E
:100890003C90FC01EE0FFF1FEA5DFE4F0190F081DE
:1008A000E02D2081392432229C92332009F42BC17F
:1008B000FC01EF5EFE4FA080FC01E25FFE4F208056
:1008C000BB24B3942A1408F41EC18B2D832109F490
:1008D00017C1EA2DF0E0EE0FFF1FEC5AFE4FA0818A
:1008E000B1811A161B060CF00BC1882483948B2D42
:1008F000892109F4812C9D013327C901880F991F93
:10090000880F991FFC01EA5EFC4FC080D180E28015
:10091000F3802A013B014C185D086E087F087301C3
:100920006201E0913205EF5FE0933205E09132051C
:10093000E43110F010923205E0913205F0E0C09100
:100940009801D09199018E010F5F1F4F109399016B
:1009500000939801EE0FFF1FEE53FE4FD183C0832B
:10096000E0913205F0E0E657FD4FA083E0913205BB
:10097000DC01AA5EBC4F4D905D906D907C9013970A
:10098000C4E0EC9FF0011124E65CFD4F40825182EF
:1009900062827382E0913205D4E0ED9FF001112470
:1009A000E651FE4FC082D182E282F382E0913205AD
:1009B000F0E0890102511D4FE8017880E255FE4FB9
:1009C0007082E901CC0FDD1FFE01E75CF94F019059
:1009D000F081E02D2F01612C712CF901EB58F94FBA
:1009E000C414D504E604F704A0F44D935D936D930D
:1009F0007C931397D8013C912081321371C0C65467
:100A0000DB4F288139812F5F3F4F3983288322E5CF
:100A100068C0E801A881B081F901EC57FE4FAB1323
:100A20005AC0B081BA1709F443C0DC01AE51BB4FC4
:100A30004D905D906D907C901397DFEF4D1A5D0A9D
:100A40006D0A7D0A4D925D926D927C921397DC0146
:100A5000AA59BC4F4D935D936D937C931397D90125
:100A6000AE56BB4FCC91C11110C0EC01CA54DC4F43
:100A7000488359836A837B83442443944C92D901ED
:100A8000A258BB4F2C912F5F2C93DC01A256BD4F77
:100A90004D905D906D907C901397C40CD51CE61C16
:100AA000F71CCD92DD92ED92FC92139723E414C0D3
:100AB000DC01A256BD4F4D905D906D907C901397D8
:100AC000C40CD51CE61CF71CCD92DD92ED92FC9275
:100AD000139720E501C027E4D8013C91308301C081
:100AE00028E5E0913205F0E0E656FE4F2083FC0158
:100AF000EA5EFC4F4083518362837383E8018882FE
:100B0000BB0CA394DFCEDF91CF911F910F91FF908B
:100B1000EF90DF90CF90BF90AF909F908F907F909D
:100B20006F905F904F903F902F9008951F920F927B
:100B30000FB60F9211242F933F938F939F93AF93F0
:100B4000BF938091AD049091AE04A091AF04B09199
:100B5000B0043091AC0423E0230F2D3720F401962C
:100B6000A11DB11D05C026E8230F0296A11DB11DD0
:100B70002093AC048093AD049093AE04A093AF0493
:100B8000B093B0048091B1049091B204A091B304E9
:100B9000B091B4040196A11DB11D8093B10490934E
:100BA000B204A093B304B093B404BF91AF919F91EA
:100BB0008F913F912F910F900FBE0F901F9018951E
:100BC0000C94D616CF93DF93EC019C01220F331FB8
:100BD000F901E457F94F8FEF9FEF91838083FE0176
:100BE000EE56FB4F1082F901E75CF94F118210823B
:100BF000CE01880F991F880F991FFC01EE51FB4F02
:100C00001082118212821382FE01E258FB4F108281
:100C1000FC01E25DFB4F1082118212821382F90106
:100C2000E654FB4F11821082F901EA5FFB4F1182FB
:100C30001082FC01EA54FC4F40835183628373832A
:100C4000FC01EA59FC4F4083518362837383FC01AA
:100C5000EA5EFC4F4083518362837383FC01E95B4E
:100C6000FA4F4083518362837383FE01EE5FFC4F32
:100C70001082F901E45DFE4F80810E94AA03FE010B
:100C8000E251FD4F8083CD5CDA4F8883DF91CF91B5
:100C90000895CF92DF92EF92FF920F931F93CF931D
:100CA000DF931F92CDB7DEB70E9418046B017C0161
:100CB00000E010E0B701A601C8010E94E2050F5F45
:100CC0001F4F04311105B1F780910A0190910B017A
:100CD000A0910C01B0910D018C0D9D1DAE1DBF1D8D
:100CE0008093C4069093C506A093C606B093C7062A
:100CF00010929705E3E7F3E0A591B4918C9180936E
:100D00008906E5E7F3E0A591B4918C9180938A067A
:100D1000E7E7F3E0A591B4918C9180938B0680E096
:100D200090E00E94E005833461F481E090E00E944D
:100D3000E005863631F482E090E00E94E0058736D7
:100D400011F16AE871E088E995E00E940A0E0E94BC
:100D500018046093A8047093A9048093AA04909344
:100D6000AB048091B5049091B6049093A70480934E
:100D7000A6040F90DF91CF911F910F91FF90EF90FC
:100D8000DF90CF90089583E090E00E94E005082F67
:100D90008FEF800F853118F06FE671E0D4CF60E5FA
:100DA00071E088E995E00E940A0E10E064E0C62E2A
:100DB000D12C74E0F72EC6010E94E005482FC60131
:100DC000019649830E94E005E82EC60102960E9422
:100DD000E005282F30E0322F2227C9018E0D911D0A
:100DE0009093B5068093B406C60103960E94E00571
:100DF000E82EC60104960E94E005282F30E0322F2D
:100E000022272E0D311D3093B7062093B606C6015A
:100E100005960E94E005E82EC60106960E94E005B0
:100E2000282F30E0322F22272E0D311D3093B906A6
:100E30002093B806C60107960E94E005E82EC60179
:100E400008960E94E005282F30E0322F22272E0D31
:100E5000311D3093BB062093BA0689E0C80ED11C21
:100E6000F092B9044981493421F484E00E94420E91
:100E700005C0413419F484E00E94870F1F5F1013EE
:100E80009ACF1092B9041092B8041092B704E4EB10
:100E9000F6E01192119286E0E43CF807D1F757CFC3
:100EA000EF92FF920F931F93CF93DF931F92CDB7D3
:100EB000DEB77C01FC0100811181C80169830E94B9
:100EC000E0056981861719F0C8010E94DE16F70156
:100ED000808191810196918380830F90DF91CF91E2
:100EE0001F910F91FF90EF900895CF92DF92EF92B4
:100EF000FF920F931F93CF93DF9300D000D0CDB715
:100F0000DEB76C012B833C8349835A830E945007D0
:100F10004981642FC6010E9450075A81652FC6017E
:100F20000E9450072B81622FC6010E9450073C810E
:100F3000632FC6010E945007602FC6010E94500710
:100F4000612FC6010E9450076E2DC6010E945007F6
:100F50006F2DC6010F900F900F900F90DF91CF91E2
:100F60001F910F91FF90EF90DF90CF900C9450075E
:100F70002F923F924F925F926F927F928F929F92A9
:100F8000AF92BF92CF92DF92EF92FF920F931F9397
:100F9000CF93DF93CDB7DEB7A1970FB6F894DEBF3E
:100FA0000FBECDBF1C016D8BDA01C901F894710130
:100FB000EE0CFF1CEE0CFF1CF9A2E8A287010A54FC
:100FC0001C4F1E830D83F8012081318142815381A2
:100FD0002F83388749875A87F701EA59FC4F4080A9
:100FE000518062807380B7016E517B4FFB01E080BE
:100FF000F18002811381E982FA820B831C839101C3
:10100000220F331FB90166547B4FFB010190F08121
:10101000E02DFC87EB87F101E258FB4FE080E98A85
:1010200048A159A142565D4FFA01E080F18002814A
:101030001381EE8AFF8A088F198F78945301420139
:10104000EF80F88409851A858E189F08A00AB10AD6
:10105000E8A1F9A1E25DFB4FC080D180E280F3807E
:1010600049815A816B817C814C195D096E097F0928
:101070004D875E876F87788B6A017B015989C51A16
:10108000D108E108F108F901EA5FFB4F20813181C5
:101090000B851C85021B130B1B8F0A8F1D891111D9
:1010A000E3C0E8A1F9A1E95BFA4F208131814281D7
:1010B00053812C8F3D8F4E8F5F8F40910601509151
:1010C00007016091080170910901498B5A8B6B8B64
:1010D0007C8BAC01BD0109891A892B893C89401B95
:1010E000510B620B730B0C8D1D8D2E8D3F8D401B94
:1010F000510B620B730B77FD47C04091000150917B
:10110000010160E070E0C416D506E606F706F8F0C7
:101110004091020150910301609104017091050119
:10112000481559056A057B0590F440910A015091D4
:101130000B0160910C0170910D0109891A892B89AD
:101140003C89401751076207730709F051C0F894B2
:10115000E8A1F9A1EA54FC4F80839183A283B38371
:10116000E8A1F9A1EA59FC4F80839183A283B3835C
:1011700078944C015D010F81188529853A85801A84
:10118000910AA20AB30A3CC040910A0150910B0196
:1011900060910C0170910D018C019D01041B150BD8
:1011A000260B370BB901A8010C8D1D8D2E8D3F8D9F
:1011B000401B510B620B730B77FD3BC1409100014B
:1011C0005091010160E070E0C416D506E606F7060E
:1011D00008F42FC140910201509103016091040174
:1011E00070910501481559056A057B0508F021C174
:1011F000F894ED81FE8140825182628273827894FC
:10120000F894F101E258FB4F1082E8A1F9A1E256EF
:10121000FD4F1082118212821382789468A179A105
:10122000625D7B4F29813A814B815C81FB01208388
:10123000318342835383F101EE0FFF1FAF014A5FF9
:101240005B4F0B851C85FA0111830083E8A1F9A18E
:10125000E95BFA4F80839183A283B383F101EE5F50
:10126000FC4F20812F5F20832C013D011D8969E205
:1012700071E08091C8069091C9060E941903F1019E
:10128000EE0FFF1FE457F94F40815181052E000CEE
:10129000660B770B8091C8069091C9060E943E0F9D
:1012A00066E271E08091C8069091C9060E94190318
:1012B00049815A816B817C818091C8069091C906D1
:1012C0000E94230E63E271E08091C8069091C906E6
:1012D0000E941903B701A6018091C8069091C90622
:1012E0000E94230E61E271E08091C8069091C906C8
:1012F0000E9419034D855E856F8578898091C806A7
:101300009091C9060E94230E6EE171E08091C8069B
:101310009091C9060E941903B501A4018091C806E5
:101320009091C9060E94230E6BE171E08091C8067E
:101330009091C9060E941903B301A2018091C806C9
:101340009091C9060E943E0F69E171E08091C80644
:101350009091C9060E9419036091B5047091B6047A
:101360008091C8069091C9060E943C0E66E171E02A
:101370008091C8069091C9060E9419036A8D7B8DE1
:101380008091C8069091C9060E943C0E111116C0AA
:1013900063E171E08091C8069091C9060E9419032B
:1013A000F101EE5FFC4F408150E060E070E02AE028
:1013B0008091C8069091C9060E94BD0DC114D10448
:1013C000E104F104C1F060E171E08091C806909100
:1013D000C9060E9419036E897F89888D998DA7019E
:1013E00096010E940017BA01A9018091C806909148
:1013F000C9060E94230E8091C8069091C906A19645
:101400000FB6F894DEBF0FBECDBFDF91CF911F9115
:101410000F91FF90EF90DF90CF90BF90AF909F9093
:101420008F907F906F905F904F903F902F900C9493
:10143000060EA1960FB6F894DEBF0FBECDBFDF91AA
:10144000CF911F910F91FF90EF90DF90CF90BF90C1
:10145000AF909F908F907F906F905F904F903F9054
:101460002F9008952F923F924F925F926F927F92AA
:101470008F929F92AF92BF92CF92DF92EF92FF92A4
:101480000F931F93CF93DF937C012A013B0180913F
:10149000320590E0029664E170E00E94EC16EC01E7
:1014A00020E030E040E004E110E0C9018C0F9D1F16
:1014B000B8010E94EC16FC01E657FD4FE081F0E018
:1014C000EE15FF0509F44F5F2F5F3F4F24313105C3
:1014D00061F7442309F4DFC01E016EE071E08091E2
:1014E000C8069091C9060E941903F701EE0FFF1F6D
:1014F000E457F94F40815181052E000C660B770BA4
:101500008091C8069091C9060E943E0F6CE071E080
:101510008091C8069091C9060E941903C12CD12C54
:1015200021E0C601820D931D64E170E00E94EC167B
:101530008C01FC01E657FD4F808190E08E159F05E0
:1015400009F089C0E801CC0FDD1FCC0FDD1F211190
:1015500020C0FE01E65CFD4F80819181A281B381B4
:10156000FE01E651FE4F4081518162817381840FFB
:10157000951FA61FB71F88159905AA05BB0508F476
:1015800063C069E071E08091C8069091C9060E942D
:101590001903F801EE0FFF1FEE53FE4F60817181BA
:1015A0008091C8069091C9060E943C0E67E071E0E8
:1015B0008091C8069091C9060E941903FE01E65C5D
:1015C000FD4F40815181628173814419550966093B
:1015D00077098091C8069091C9060E943E0F65E088
:1015E00071E08091C8069091C9060E941903FE011E
:1015F000E651FE4F40815181628173818091C8061E
:101600009091C9060E94230E63E071E08091C806A4
:101610009091C9060E941903F801E255FE4F4081DE
:1016200050E060E070E02AE08091C8069091C90621
:101630000E94BD0DF801E656FE4F60818091C806FC
:101640009091C9060E941C0EC65CDD4F888099806F
:10165000AA80BB8020E08FEFC81AD80A84E1C816A0
:10166000D10409F05ECF8091C8069091C906DF9140
:10167000CF911F910F91FF90EF90DF90CF90BF908F
:10168000AF909F908F907F906F905F904F903F9022
:101690002F900C94060EDF91CF911F910F91FF9028
:1016A000EF90DF90CF90BF90AF909F908F907F9002
:1016B0006F905F904F903F902F9008950F931F93DE
:1016C000CF93DF93EC0161E071E08091C8069091C7
:1016D000C9060E9419038E01000F111FF801E4577B
:1016E000F94F40815181052E000C660B770B8091DC
:1016F000C8069091C9060E943E0FFE01EB58F94FB3
:1017000020818091C8069091C906222329F02130BA
:1017100031F469EF70E005C060EF70E002C06DEE7B
:1017200070E00E941903CF59D94F8881882341F076
:1017300065EE70E08091C8069091C9060E94190379
:101740006FED70E08091C8069091C9060E94190360
:10175000F801E75CF94F608171818091C806909132
:10176000C906DF91CF911F910F910C943C0ECF923F
:10177000DF92EF92FF926DED70E08091C80690913C
:10178000C9060E94190360910A0170910B018091B2
:101790000C0190910D0128EEC22E23E0D22EE12CF7
:1017A000F12CA70196010E940017BA01A9018091AE
:1017B000C8069091C9060E94230E6BED70E08091DF
:1017C000C8069091C9060E941903609106017091A4
:1017D00007018091080190910901A70196010E94DB
:1017E0000017BA01A9018091C8069091C9060E940C
:1017F000230E69ED70E08091C8069091C9060E94A1
:10180000190360910201709103018091040190918C
:101810000501A70196010E940017BA01A901809154
:10182000C8069091C9060E94230E67ED70E0809172
:10183000C8069091C9060E94190360910001709139
:1018400001018091C8069091C906FF90EF90DF904A
:10185000CF900C94260E1F93CF93DF93C5ECD0E06E
:101860001C2F1F5EFE0164918091C8069091C906ED
:101870000E941C0E21961C13F5CF60EC70E0809145
:10188000C8069091C9060E941903CCEBD0E01C2F2A
:101890001D5FFE0164918091C8069091C9060E9467
:1018A0001C0E21961C13F5CF61EB70E08091C806E9
:1018B0009091C9060E941903CCE9D0E01C2F1C5E50
:1018C000FE0164918091C8069091C9060E941C0E89
:1018D00021961C13F5CFDF91CF911F9108958F9220
:1018E0009F92AF92BF92CF92DF92EF92FF920F93AF
:1018F0001F93CF93DF930E9418044B015C018091EA
:10190000C8069091C9060E94060E0E942B0C62E444
:1019100071E08091C8069091C9060E941903C4E540
:10192000D1E0C12CD12C760181E02991399137FD8C
:1019300014C0811108C060E471E08091C8069091E4
:10194000C9060E9419032AE0B701A6018091C806C2
:101950009091C9060E94BD0D80E09FEFC91AD90A77
:10196000E90AF90AE6E1CE16D104E104F104E9F648
:1019700065E371E08091C8069091C9060E94190341
:1019800062E371E08091C8069091C9060E94190334
:10199000B501A4018091C8069091C9060E94230E4A
:1019A00060E371E08091C8069091C9060E94190316
:1019B0006091B5047091B6048091C8069091C906F3
:1019C0000E943C0E6DE271E08091C8069091C906BC
:1019D0000E9419034091A8045091A9046091AA049F
:1019E0007091AB048091C8069091C9060E94230EA5
:1019F0006BE271E08091C8069091C9060E941903BC
:101A00006091A6047091A7048091C8069091C906C0
:101A10000E943C0E8091C8069091C9060E94060E55
:101A20000E94B70B0CE816E0C0E0D0E0F80181910D
:101A300091918F0197FD09C0CE010E945E0B8091AC
:101A4000C8069091C9060E94060E2196C431D105A0
:101A500069F7DF91CF911F910F91FF90EF90DF9089
:101A6000CF90BF90AF909F908F9008951F93CF938A
:101A7000DF93C4E9D0E01C2F195FFE0164918091CF
:101A8000C8069091C9060E941C0E21961C13F5CF22
:101A9000DF91CF911F9108951F920F920FB60F9271
:101AA00011242F933F934F935F936F937F938F9363
:101AB0009F93AF93BF93EF93FF9382E00E94240420
:101AC000FF91EF91BF91AF919F918F917F916F9116
:101AD0005F914F913F912F910F900FBE0F901F90EC
:101AE00018951F920F920FB60F9211242F933F93C8
:101AF0004F935F936F937F938F939F93AF93BF9316
:101B0000EF93FF9381E00E942404FF91EF91BF9136
:101B1000AF919F918F917F916F915F914F913F9185
:101B20002F910F900FBE0F901F9018951F920F923C
:101B30000FB60F9211242F933F934F935F936F93A0
:101B40007F938F939F93AF93BF93EF93FF9380E027
:101B50000E942404FF91EF91BF91AF919F918F91CB
:101B60007F916F915F914F913F912F910F900FBE99
:101B70000F901F9018950E944B174F925F926F9293
:101B80007F92EF92FF920F931F93CF93DF93CDB786
:101B9000DEB7A1970FB6F894DEBF0FBECDBF7C01B4
:101BA000FA01CB0119A2223008F42AE08E010F5D60
:101BB0001F4F422E512C612C712CBF01A3019201A9
:101BC0000E940017F901CA01015011096A3014F48A
:101BD000605D01C0695CD8016C93232B242B252BFD
:101BE00061F7B801C7010E943D03A1960FB6F894B2
:101BF000DEBF0FBECDBFDF91CF911F910F91FF9040
:101C0000EF907F906F905F904F90089560E871E043
:101C10000C943D030F931F93CF93DF93EC010E942D
:101C200019038C01CE010E94060E800F911FDF91D7
:101C3000CF911F910F910895DC01ED91FC910190DE
:101C4000F081E02D09942AE00C94BD0D0F931F93B1
:101C5000CF93DF93EC01AB0160E070E02AE00E94DB
:101C6000BD0D8C01CE010E94060E800F911FDF91E9
:101C7000CF911F910F910895AB0160E070E02AE0D1
:101C80000C94BD0DCF92DF92EF92FF920F931F93B2
:101C9000843058F40E94360D62EC73E08091C806DF
:101CA0009091C9060E941903DDC02091B4063091BD
:101CB000B506C901019780319E4038F00E94360D6B
:101CC0006091B4067091B50675C0A8EEB3E00E94AD
:101CD00028176B017C0160930A0170930B018093BC
:101CE0000C0190930D010E941804DC01CB018C0DB6
:101CF0009D1DAE1DBF1D0091C4061091C50620910B
:101D0000C6063091C70680179107A207B30770F483
:101D10000E941804C60ED71EE81EF91EC092C40603
:101D2000D092C506E092C606F092C7062091B6068C
:101D30003091B706C901019780319E4038F00E946A
:101D4000360D6091B6067091B70634C0A8EEB3E0C8
:101D50000E94281760930601709307018093080181
:101D6000909309012091B8063091B90621318EE097
:101D7000380738F00E94360D6091B8067091B906A8
:101D800019C0A8EEB3E00E94281760930201709377
:101D9000030180930401909305018091BA0690910C
:101DA000BB068536910590F00E94360D6091BA060B
:101DB0007091BB068091C8069091C9061F910F9142
:101DC000FF90EF90DF90CF900C94260E909301013E
:101DD000809300016EEA73E08091C8069091C90675
:101DE0000E9419036091B4067091B5068091C806EF
:101DF0009091C9060E943C0E6CEA73E08091C8067F
:101E00009091C9060E9419036091B6067091B706B9
:101E10008091C8069091C9060E943C0E6AEA73E060
:101E20008091C8069091C9060E9419036091B80676
:101E30007091B9068091C8069091C9060E943C0E27
:101E400068EA73E08091C8069091C9060E94190360
:101E50006091BA067091BB068091C8069091C90640
:101E60000E943C0E8091C8069091C9061F910F9167
:101E7000FF90EF90DF90CF900C94060ECF92DF9200
:101E8000EF92FF920F931F93CF93DF9377FF1DC0C5
:101E90006A017B01EC016DE20E941C0E8C0144275B
:101EA0005527BA014C195D096E097F092AE0CE0158
:101EB0000E94BD0D800F911FDF91CF911F910F9157
:101EC000FF90EF90DF90CF9008952AE0DF91CF91BF
:101ED0001F910F91FF90EF90DF90CF900C94BD0D6C
:101EE0000F931F93CF93DF93EC01462F50E060E0F8
:101EF00070E02AE00E94BD0D8C01CE010E94060E0A
:101F0000800F911FDF91CF911F910F9108956F92D4
:101F10007F928F929F92AF92BF92DF92EF92FF9249
:101F20000F931F93CF93DF93D82E0E941804AB0119
:101F3000BC01A090B406B090B50685E18A1558F0B2
:101F400045019924F401EE0FFF1FEC5AFE4F00816A
:101F5000118117FF1EC00E94360D6DE873E080915D
:101F6000C8069091C9060E9419036A2D8091C8067F
:101F70009091C906DF91CF911F910F91FF90EF9043
:101F8000DF90BF90AF909F908F907F906F900C9458
:101F9000700F11277801EE0CFF1CF701E45DFE4F76
:101FA000C081D181F701E457F94F3F0180819181D0
:101FB000DD2788159905C9F0FE01E758FC4FE4912B
:101FC000E2508E2F90E0FC01EE0FFF1FED58FC4F0A
:101FD000A591B4912C91FC01E757F94F2083C801DA
:101FE0000E94E205F301918280828091B606909171
:101FF000B7060297029788F00E94360D64E473E0FA
:102000008091C8069091C9060E9419036A2D80919B
:10201000C8069091C9060E94700FF801EB58F94F5D
:1020200081E02091B6063091B7062330310509F0E2
:1020300080E08083D801AF59B94FF2E0FD1568F513
:102040008091B8069091B906892B39F1FE01E25EC4
:10205000FC4F2491FE01E758FC4F84918823D1F076
:1020600090E0880F991FFC01EC5EFC4F4591549164
:10207000FC01E65FFC4F659174919FB7F894FA01FB
:102080003081822F809583238083FB018081282BE0
:1020900020839FBF81E08C9326C0FE01E25EFC4F4F
:1020A0004491FE01E758FC4F24912223D9F030E0FF
:1020B000220F331FF901EC5EFC4F85919491F901D9
:1020C000E65FFC4F259134916FB7F894FC01508185
:1020D000742F7095452F47234083F9018081872312
:1020E00080836FBF1C92F3E0FD1530F48091BA0637
:1020F0009091BB06009711F482E090E0F701E75C55
:10210000F94F91838083FE01E25EFC4F8491FE01D2
:10211000E758FC4FC491CC23A9F1C250EC2FF0E05A
:10212000EE0FFF1FEA5DFE4FA081B181EC91E82B1D
:10213000EC932091680081E090E001C0880FCA957F
:10214000EAF7822B8093680062E373E08091C8060F
:102150009091C9060E941903C8010E945E0B8091EC
:10216000C8069091C906DF91CF911F910F91FF9002
:10217000EF90DF90BF90AF909F908F907F906F9087
:102180000C94060E0E94360D6DE373E08091C80634
:102190009091C906DF91CF911F910F91FF90EF9021
:1021A000DF90BF90AF909F908F907F906F900C9436
:1021B0000A0EE8E9F5E01382128288EE93E0A0E0CF
:1021C000B0E084839583A683B78388E191E091830F
:1021D000808385EC90E09587848784EC90E09787F6
:1021E000868780EC90E0918B808B81EC90E0938BE4
:1021F000828B82EC90E0958B848B86EC90E0978BC1
:10220000868B118E128E138E148E0895CF93DF93CA
:10221000CDB7DEB72A970FB6F894DEBF0FBECDBF9D
:10222000789484B5826084BD84B5816084BD85B5B1
:10223000826085BD85B5816085BD80916E008160BD
:1022400080936E0010928100809181008260809363
:102250008100809181008160809381008091800065
:102260008160809380008091B10084608093B10090
:102270008091B00081608093B00080917A0084608A
:1022800080937A0080917A00826080937A008091B6
:102290007A00816080937A0080917A0080688093D0
:1022A0007A001092C100E091A805F091A90582E0A2
:1022B0008083E091A405F091A5051082E091A60528
:1022C000F091A70583E380831092B005E091AC05FF
:1022D000F091AD0586E08083E091AA05F091AB0511
:1022E000808180618083E091AA05F091AB058081B7
:1022F00088608083E091AA05F091AB0580818068B9
:102300008083E091AA05F091AB0580818F7D808369
:102310000E94F3034B015C0114EFC12EDD24D39422
:10232000E12CF12C0E94F303DC01CB0188199909FF
:10233000AA09BB09883E9340A105B10558F001E008
:10234000C01AD108E108F10818EE810E13E0911EC1
:10235000A11CB11CC114D104E104F10419F7789453
:1023600088E995E00E94060E88E995E09093C906F9
:102370008093C8061092B6041092B5040E94180407
:10238000609335067093360680933706909338062F
:102390000E9449060E946F0CB8EE4B2EB3E05B2EF4
:1023A000612C712C0E94180400913506109136069C
:1023B000209137063091380660177107820793071E
:1023C00050F42091B5043091B6042F5F3F4F309305
:1023D000B6042093B5046093350670933606809357
:1023E00037069093380688E995E00E946F02892BA2
:1023F00009F4AEC288E995E00E944D02182F8C3294
:10240000C9F4E091B904E73008F0A2C281E08E0F70
:102410008093B904F0E0EE0FFF1FEC54F94F809168
:10242000B7049091B804918380831092B8041092FD
:10243000B7048EC280ED810F8A30A0F42091B704DA
:102440003091B8044AE0429FC001439F900D11248F
:10245000C097810F911D17FD9A959093B8048093B2
:10246000B70476C28FE9810F8A3108F071C280917A
:102470009705882309F443C068EC72E088E995E089
:102480000E941903E4EBCE2EE6E0DE2EE12CF12CC7
:102490008091B90490E08E159F05ACF0E114F10431
:1024A00031F066EC72E088E995E00E941903F601CC
:1024B000619171916F0188E995E00E943C0EFFEFF8
:1024C000EF1AFF0AE5CF612F88E995E00E941C0E04
:1024D0006FEB72E088E995E00E9419034091B9041E
:1024E00050E04F5F5F4F052E000C660B770B88E9BD
:1024F00095E00E943E0F88E995E00E94060E812F2C
:10250000110F990BAA0BBB0BFC01E156F109E63147
:10251000F10508F00FC2EC5CFF4F0C94221780917C
:10252000B904E82FF0E0EE0FFF1FEC54F94F2091B3
:10253000B7043091B804318320838F5F0E94870FE6
:10254000F9C18091B904E82FF0E0EE0FFF1FEC54C1
:10255000F94F2091B7043091B80431832083009162
:10256000B4061091B5068F3F61F0063150F4F801C2
:10257000FF27EE0FFF1FEC5AFE4F8081918197FFDE
:1025800005C00E94360D69E672E024C39927FC015C
:10259000EE0FFF1FE45DFE4F208131813327F901EB
:1025A000E25EFC4F4491F901E758FC4F249122234D
:1025B00009F404C32250E22FF0E0EE0FFF1FEA5DA2
:1025C000FE4FA081B1813C91E42FE095E323EC9391
:1025D0003C913111F8C26091680041E050E06A011D
:1025E00002C0CC0CDD1C2A95E2F79601209526232B
:1025F00020936800E8C28091B904E82FF0E0EE0F64
:10260000FF1FEC54F94F2091B7043091B804318387
:1026100020838F5F0E94420E8DC10E9449068AC1AD
:102620000E9418044B015C016CE472E08091C806C2
:102630009091C9060E9419030E942B0C8091C80634
:102640009091C9060E94060E0E94B70B1CE8E12E6D
:1026500016E0F12E00E010E0F701819191917F01E9
:1026600018161906B4F4C8010E945E0B69E472E002
:102670008091C8069091C9060E941903A501940192
:1026800061E0C8010E94B807B501A401C8010E9419
:10269000320A0F5F1F4F04311105F1F68091C80611
:1026A0009091C9060E94060E67E172E08091C8060B
:1026B0009091C9060E94190380E090E00E94E00515
:1026C000682F8091C8069091C9060E941C0E81E077
:1026D00090E00E94E005682F8091C8069091C9069D
:1026E0000E941C0E82E090E00E94E005682F80911D
:1026F000C8069091C9060E941C0E6EE072E080919F
:10270000C8069091C9060E94190383E090E00E94D8
:10271000E005482F50E060E070E08091C80690919D
:10272000C9060E943E0F8091C8069091C9060E947A
:10273000060E80E090E00E94E005833409F058C264
:1027400081E090E00E94E005863609F051C282E007
:1027500090E00E94E005873609F04AC27EC22091CF
:10276000B7043091B8048091C8069091C9062F3FF4
:10277000310588F4209397056AEA72E00E941903F4
:102780006091B7047091B8048091C8069091C90611
:102790000E94260ECFC064E872E0CAC00E946F0C8F
:1027A000C9C01A82198263E4CE0101960E945007C3
:1027B00066E6CE0101960E94500767E6CE010196BB
:1027C0000E9450072CE836E03C832B83F901332428
:1027D000339481919191181619060CF4339436E0D4
:1027E000E43BF307B1F7632DCE0101960E94500739
:1027F000E0900001F09001016091020170910301ED
:102800008091040190910501A30192010E9400179B
:102810002D833E834F835887609106017091070195
:102820008091080190910901A30192010E94001773
:1028300049015A0160910A0170910B0180910C01CC
:1028400090910D01A30192010E940017BA01A90104
:102850000D811E81940169E4CE0101960E947507E5
:1028600079E3A72E76E0B72EC12CD12CEB81FC8129
:1028700041915191FC83EB8314161506C4F4F501C4
:10288000E080F180F601EF59F94F008110E0F60188
:10289000EB58F94F8081811103C022E030E002C083
:1028A00023E030E061E4CE0101960E947507FFEF5E
:1028B000CF1ADF0A02E0A00EB11C14E1C116D10448
:1028C000A9F66DEB71E088E995E00E941903432DAC
:1028D00050E060E070E02AE088E995E00E94BD0DDC
:1028E0006AEB71E088E995E00E94190349815A81F9
:1028F000052E000C660B770B88E995E00E943E0FD1
:1029000088E995E00E94060E15C0E091B904F0E058
:10291000EE0FFF1FEC54F94F8091B7049091B8046B
:102920009183808364EB71E08091C8069091C90621
:102930000E940A0E1092B9041092B8041092B704C3
:10294000E4EBF6E01192119226E0E43CF207D1F7B5
:10295000809197058A3030F50E9418040091C406D2
:102960001091C5062091C6063091C7066B017C0107
:10297000C01AD10AE20AF30AF7FEE5C00091060187
:102980001091070120910801309109014B015C0170
:10299000801A910AA20AB30AECE8F6E0A7E4B5E0CF
:1029A00020E0C9C03CE8832E36E0932E43E3E42EBA
:1029B00045E0F42E5CE2A52E51E0B52E00E010E0DB
:1029C000F401C190D1904F011C141D040CF094C06F
:1029D000F5012080822D0E94AA03382EF701808104
:1029E000381609F489C0308263E073E08091C8062C
:1029F0009091C9060E941903A601DD0C660B770BA6
:102A00008091C8069091C9060E943E0F66EF72E061
:102A10008091C8069091C9060E941903422D50E08A
:102A200060E070E02AE08091C8069091C9060E949B
:102A3000BD0D62EF72E08091C8069091C9060E94B8
:102A400019036DEE72E08091C8069091C9060E944C
:102A50001903432D50E060E070E02AE08091C80641
:102A60009091C9060E94BD0D62EE72E08091C80689
:102A70009091C9060E9419034091320550E060E030
:102A800070E02AE08091C8069091C9060E94BD0DB1
:102A900069ED72E08091C8069091C9060E94190301
:102AA000F801EE0FFF1FEE0FFF1FEE51FB4F4081AD
:102AB0005181628173818091C8069091C9060E94FC
:102AC000230E6FEC72E08091C8069091C9060E94B7
:102AD0001903F801EE0FFF1FE654FB4F608171816F
:102AE0008091C8069091C9060E943C0E8091C8064C
:102AF0009091C9060E94060E0F5F1F4FFFEFEF1A5D
:102B0000FF0A22E0A20EB11C0431110509F058CFD2
:102B100023CFCD90DD90ED90FC901397B501A401EB
:102B20004C195D096E097F0977FF21E0149656E084
:102B3000E43BF50731F041915191141615064CF321
:102B4000F5CF2223C1F10E9418044B015C018CE8EF
:102B5000E82E86E0F82E00E010E0F70181919191D7
:102B60007F0197FD0FC0A501940160E0C8010E949C
:102B7000B80780919705853028F0B501A401C801F8
:102B80000E94320A0F5F1F4F0431110531F7409147
:102B90000A0150910B0160910C0170910D01480DDB
:102BA000591D6A1D7B1D4093C4065093C506609352
:102BB000C6067093C7060E940F03F4CB0E94360D21
:102BC00062E672E0B1CE40E050E0BA010E94E20558
:102BD00067E572E08091C8069091C9060E941903CA
:102BE000602F8091C8069091C9060E94700FA2CEF6
:102BF00068EF71E08091C8069091C9060E940A0EA4
:102C000067E372E08091C8069091C9060E9419039B
:102C1000C090C406D090C506E090C606F090C706E6
:102C20000E94180497018601061B170B280B390B0D
:102C3000B901A8018091C8069091C9060E94230E8F
:102C400069E272E08091C8069091C9060E9419035A
:102C50008091C8069091C90655CE83E090E00E940D
:102C6000E005282EF5E1F81718F46DED71E0C2CFFC
:102C7000312C04E010E0321419F2C8010E94E00582
:102C8000282FC80101962A870E94E005F82EC80166
:102C900002960E94E005C82ED12CDC2CCC24CF0C4F
:102CA000D11CC80103960E94E005F82EC8010496C5
:102CB0000E94E005A82EB12CBA2CAA24AF0CB11C9E
:102CC000C80105960E94E005F82EC80106960E94EC
:102CD000E005882E912C982C88248F0C911CC8011B
:102CE00007960E94E005382FC801089639870E9490
:102CF000E005E82EF12CFE2CEE243985E30EF11CC4
:102D0000075F1F4F64ED71E08091C8069091C9067E
:102D10000E9419032A85622F8091C8069091C906E6
:102D20000E941C0E62ED71E08091C8069091C90668
:102D30000E941903B6018091C8069091C9060E94AD
:102D40003C0E60ED71E08091C8069091C9060E942A
:102D50001903B5018091C8069091C9060E943C0EE6
:102D60006EEC71E08091C8069091C9060E9419032B
:102D7000B4018091C8069091C9060E943C0E6CEC8B
:102D800071E08091C8069091C9060E941903B701AD
:102D90008091C8069091C9060E943C0E8091C80699
:102DA0009091C9060E94060E339465CFF999FECF23
:102DB00092BD81BDF89A992780B50895262FF9997B
:102DC000FECF1FBA92BD81BD20BD0FB6F894FA9A0E
:102DD000F99A0FBE0196089597FB072E16F40094FA
:102DE00007D077FD09D00E94371707FC05D03EF4C5
:102DF000909581959F4F0895709561957F4F0895A7
:102E0000A1E21A2EAA1BBB1BFD010DC0AA1FBB1FEE
:102E1000EE1FFF1FA217B307E407F50720F0A21B60
:102E2000B30BE40BF50B661F771F881F991F1A94CD
:102E300069F760957095809590959B01AC01BD01F7
:102E4000CF010895EE0FFF1F0590F491E02D099436
:102E5000A29FB001B39FC001A39F700D811D1124DB
:102E6000911DB29F700D811D1124911D0895AA1B03
:102E7000BB1B51E107C0AA1FBB1FA617B70710F065
:102E8000A61BB70B881F991F5A95A9F78095909597
:102E9000BC01CD01089581E090E0F8940C945017A6
:042EA000F894FFCFD4
:102EA4000200D007000060EA0000307500000D1336
:102EB40007080E0000000000A6020F023E02ED0209
:102EC4006F024D0261026B006C006D000200030092
:102ED4000400050006000700080009000A000B00B2
:102EE4000C000D000E000F00100011001200130062
:102EF40000000000FFFFFFFF0000010002000300CC
:102F04000400050006000700080009000A000B0081
:102F14000C000D000E000F00100011001200130031
:042F24000D0A000092
:00000001FF
