:100000000C9440020C9468020C9468020C94D80B77
:100010000C94B30B0C948E0B0C9468020C94680235
:100020000C9468020C9468020C9468020C946802A8
:100030000C9468020C9468020C9468020C94680298
:100040000C9472110C9468020C94F6030C94D00377
:100050000C9468020C9468020C9468020C94680278
:100060000C9468020C9468028013FC15FC15921322
:10007000F113FC15FC15AB14AE14FC15C014FC15E3
:10008000FC15FC15FC15FC15FC15DD14E014911590
:10009000FC15A315C4154D20726573746F72696EDB
:1000A0006720636F6E6669672066726F6D204545D5
:1000B00050524F4D004D20696C6C6567616C206338
:1000C0006F6E66696720696E20454550524F4D003E
:1000D0004D206E6F20636F6E66696720696E2045E4
:1000E0004550524F4D004572726F723A2000417573
:1000F0006720313220323031392032313A31363ACC
:1001000033360020636F6D70696C656420004E416A
:100110004E4F00206F6E200041726475436F756E04
:100120007465722056332E333400200020002000E6
:10013000490020005400206D696E20002070756C0D
:100140006C757000202D002066616C6C696E670014
:1001500020726973696E6700500040002F007300C1
:100160002C2000200048002041002053002058008F
:100170002C00204E002054002F002044002043007B
:10018000520056002C002042002C00205400206118
:100190007661696C61626C65002C002048656C6C4E
:1001A0006F2C2070696E73200073697A65004D2092
:1001B000616E616C6F6720726561642064656C615B
:1001C000792073657420746F200073697A65004D1F
:1001D00020646576566572626F736520736574205E
:1001E000746F20002C002C002C0020004D20536C3C
:1001F0006F743A200020536C6F74733A20004D20C6
:10020000454550524F4D20436F6E6669673A200056
:100210004D20696C6C6567616C20636F6E66696701
:1002200020696E20454550524F4D004D206E6F2085
:10023000636F6E66696720696E20454550524F4D69
:1002400000206D696C6C697365636F6E6473004D3B
:10025000204E657874207265706F727420696E200C
:10026000002C200056004D205374617475733A20A1
:1002700000616C697665002C2000636F6E666967AB
:100280002073617665642C20004D2072656D6F7659
:100290006564200052656D496E7400496C6C656739
:1002A000616C2070696E2073706563696669636153
:1002B00074696F6E20002073697A6520002C0044F9
:1002C00020676F742000202072656A6563742000C7
:1002D0002020636F756E7420002020686973744954
:1002E0006478200020746F2000202920002C2069D1
:1002F0006E7465726E616C20002028696E6465788A
:1003000020004D2070696E200044206572726F726B
:100310003A2077726F6E6720616E616C6F67207232
:10032000656164207374617465004C002C207265F3
:100330006A65637420002C20636F756E7420002C36
:1003400020686973744964782000206368616E676F
:10035000656420746F200029002028696E7465721E
:100360006E616C20004D2070696E2000000000005E
:10037000240027002A0000000000250028002B0090
:100380000000000800020100000304070000000054
:100390000000000020004D20616E616C6F672074CA
:1003A00068726573686F6C64732073657420746F12
:1003B000200073697A65002000200020004D20692C
:1003C0006E74657276616C732073657420746F202F
:1003D00000696E74657276616C206578706563740F
:1003E0007320342076616C756573206275742067A4
:1003F0006F742000010204081020408001020408EC
:1004000010200102040810204D20646566696E65A5
:10041000642000416464496E7400496C6C656761D6
:100420006C2070756C7365206C6576656C207370DC
:100430006563696669636174696F6E20666F7220B7
:1004400070696E20000000000023002600290004CF
:10045000040404040404040202020202020303036B
:10046000030303496C6C6567616C2070696E2073CF
:10047000706563696669636174696F6E2000BC11A1
:1004800011241FBECFEFD8E0DEBFCDBF11E0A0E04A
:10049000B1E0EAE3FAE302C005900D92AA3AB1078F
:1004A000D9F726E0AAEAB1E001C01D92A23AB2074C
:1004B000E1F712E0C0E4D2E004C02197FE010E94FF
:1004C000031ACF33D107C9F70E94E9110C941B1D01
:1004D0000C940000CF92DF92EF92FF920F931F9344
:1004E000CF93DF936C017A018B01C0E0D0E0CE1591
:1004F000DF0581F0D8016D918D01D601ED91FC9160
:100500000190F081E02DC6010995892B11F021960B
:10051000EECF7E01C701DF91CF911F910F91FF9028
:10052000EF90DF90CF900895089580E090E00895D7
:10053000FC01538D448D252F30E0842F90E0821BE9
:10054000930B541710F0CF96089501970895FC016E
:10055000918D828D981761F0828DDF01A80FB11DFA
:100560005D968C91928D9F5F9F73928F90E008951E
:100570008FEF9FEF0895FC01918D828D981731F0D8
:10058000828DE80FF11D858D90E008958FEF9FEF2C
:100590000895FC01918D228D892F90E0805C9F4F02
:1005A000821B91098F739927089581E795E00E9436
:1005B000C90221E0892B09F420E0822F0895FC0173
:1005C000848DDF01A80FB11DA35ABF4F2C91848DDC
:1005D00090E001968F739927848FA689B7892C9311
:1005E000A089B1898C91837080648C93938D848D64
:1005F000981306C00288F389E02D80818F7D808367
:100600000895EF92FF920F931F93CF93DF93EC0126
:1006100081E0888F9B8D8C8D981305C0E889F989BE
:10062000808185FD26C0F62E0B8D10E00F5F1F4FD9
:100630000F731127E02E8C8DE8120CC00FB607FC4B
:10064000FACFE889F989808185FFF5CFCE010E9434
:10065000DF02F1CF8B8DFE01E80FF11DE35AFF4F52
:10066000F0829FB7F8940B8FEA89FB8980818062C2
:100670000AC09FB7F894EE89FF896083E889F989F9
:1006800080818370806480839FBF81E090E0DF91F0
:10069000CF911F910F91FF90EF900895CF93DF932B
:1006A000EC01888D8823C9F0EA89FB89808185FD6A
:1006B00005C0A889B9898C9186FD0FC00FB607FCCB
:1006C000F5CF808185FFF2CFA889B9898C9185FF0C
:1006D000EDCFCE010E94DF02E7CFDF91CF910895E9
:1006E00080E090E0892B29F00E94D50281110C94C2
:1006F00000000895DC01ED91FC910190F081E02D66
:100700000994EF92FF920F931F93CF93DF938C0185
:100710007B01C0E0D0E0F701EC0FFD1F6491662380
:1007200061F0D801ED91FC910190F081E02DC801BC
:100730000995892B11F02196EECFCE01DF91CF9153
:100740001F910F91FF90EF9008956115710579F059
:10075000FB0101900020E9F73197AF01461B570BD1
:10076000DC01ED91FC910280F381E02D099480E0A1
:1007700090E0089564E971E00C94A5030F931F9332
:10078000CF93DF93EC010E9481038C01CE010E9484
:10079000BA03800F911FDF91CF911F910F910895A0
:1007A0001F920F920FB60F9211242F933F934F93E6
:1007B0005F936F937F938F939F93AF93BF93EF93C9
:1007C000FF9381E795E00E94DF02FF91EF91BF91D7
:1007D000AF919F918F917F916F915F914F913F91D9
:1007E0002F910F900FBE0F901F9018951F920F9290
:1007F0000FB60F9211242F938F939F93EF93FF9334
:10080000E0918105F09182058081E0918705F0916A
:10081000880582FD12C0908180918A058F5F8F7359
:1008200020918B05821751F0E0918A05F0E0EF5896
:10083000FA4F958F80938A0501C08081FF91EF91D7
:100840009F918F912F910F900FBE0F901F90189531
:100850000C94B719FF920F931F93CF93DF93EC0182
:10086000F62E08811981C8010E9428048F1521F0F5
:100870006F2DC8010E94BF198881998101969983C3
:100880008883DF91CF911F910F91FF900895AF92D0
:10089000BF92CF92DF92EF92FF920F931F93CF936D
:1008A000DF93EC015A0169010E942A046A2DCE01EE
:1008B0000E942A046B2DCE010E942A046C2DCE01C9
:1008C0000E942A046D2DCE010E942A04602FCE01C1
:1008D0000E942A04612FCE010E942A046E2DCE01AF
:1008E0000E942A046F2DCE01DF91CF911F910F91AD
:1008F000FF90EF90DF90CF90BF90AF900C942A04C0
:100900002F923F924F925F926F927F928F929F921F
:10091000AF92BF92CF92DF92EF92FF920F931F930D
:10092000CF93DF93CDB7DEB76A970FB6F894DEBFEB
:100930000FBECDBF1C01762FF8944C01880C991C7A
:10094000880C991C9A8E898E8401025B1B4FD801FA
:10095000AD90BD90CD90DC90A986BA86CB86DC8622
:10096000F401EA5FFB4F80809180A280B38089828E
:100970009A82AB82BC82E98DFA8DE753FB4FA0804F
:10098000B180C280D380AD82BE82CF82D886880FEC
:10099000991FFC01EB55FB4FC080D180DE86CD86D0
:1009A000F101EC50FC4F6081E98DFA8DE455FC4F6C
:1009B00080809180A280B3808B8A9C8AAD8ABE8A17
:1009C000789449805A806B807C80A984BA84CB84D7
:1009D000DC844A185B086C087D08E98DFA8DEC59B7
:1009E000FC4FC080D180E280F3808D809E80AF80FC
:1009F000B8848C189D08AE08BF088F86988AA98A8B
:100A0000BA8A861A9108A108B108FC01E05CFC4F83
:100A1000C080D180D88ECF8A7111C7C0E98DFA8D80
:100A2000EC5DFA4F80819181A281B38169017A01E5
:100A3000C81AD90AEA0AFB0AD701C601C0900C01FC
:100A4000D0900D01E0900E01F0900F01C816D9066C
:100A5000EA06FB0608F043C0809106019091070169
:100A6000A0E0B0E088169906AA06BB06D8F08091EF
:100A7000080190910901A0910A01B0910B01841520
:100A80009505A605B70570F48091100190911101AC
:100A9000A0911201B0911301C816D906EA06FB060F
:100AA00009F045C0F894E98DFA8DE25BFB4F208395
:100AB000318342835383E98DFA8DEA5FFB4F2083B4
:100AC000318342835383789429013A01C984DA84BB
:100AD000EB84FC844C185D086E087F0833C0C0901E
:100AE0001001D0901101E0901201F0901301C8168E
:100AF000D906EA06FB0608F03EC1809106019091F6
:100B00000701A0E0B0E088169906AA06BB0608F423
:100B100032C18091080190910901A0910A01B09120
:100B20000B0184159505A605B70508F024C1F894B6
:100B300089819A81AB81BC81F80180839183A283F2
:100B4000B3837894F894F101EC50FC4F1082E98D56
:100B5000FA8DE455FC4F1082118212821382789430
:100B6000E98DFA8DEC59FC4FCD80DE80EF80F88462
:100B7000C082D182E282F382F101EE0FFF1FE05CBE
:100B8000FC4FED84FE84F182E082898D9A8D8C5D2C
:100B90009A4FDC012D933D934D935C931397F10194
:100BA000E25DFC4F80818F5F808369017A01172F9E
:100BB0003A82298260E871E08091970690919806C8
:100BC0000E948103E981FA81EE0FFF1FED58F94F72
:100BD0006081718180919706909198060E94FB0D2B
:100BE0006DE771E080919706909198060E948103CD
:100BF0004D815E816F8178858091970690919806EE
:100C00000E94E00D6AE771E0809197069091980646
:100C10000E948103B501A4018091970690919806E6
:100C20000E94E00D68E771E0809197069091980628
:100C30000E9481034F85588969897A898091970636
:100C4000909198060E94E00D65E771E0809197060B
:100C5000909198060E948103B301A20180919706AA
:100C6000909198060E94E00D62E771E080919706EE
:100C7000909198060E948103B701A6018091970682
:100C8000909198060E94E00D60E771E080919706D0
:100C9000909198060E94810360919C0470919D043C
:100CA00080919706909198060E94E30D6DE671E0A1
:100CB00080919706909198060E9481036D857E85AC
:100CC000CF88D88C6C197D098091970690919806F1
:100CD0000E94E30D111114C06AE671E0809197063D
:100CE000909198060E94810389819A81825D9C4F30
:100CF000DC016C9180919706909198060E94430EBA
:100D000081149104A104B104C1F067E671E08091FF
:100D10009706909198060E9481036B897C898D8942
:100D20009E89A50194010E94E119BA01A90180914F
:100D30009706909198060E94E00D809197069091F9
:100D400098066A960FB6F894DEBF0FBECDBFDF914E
:100D5000CF911F910F91FF90EF90DF90CF90BF90B8
:100D6000AF909F908F907F906F905F904F903F904B
:100D70002F900C94BA036A960FB6F894DEBF0FBE9C
:100D8000CDBFDF91CF911F910F91FF90EF90DF903A
:100D9000CF90BF90AF909F908F907F906F905F901B
:100DA0004F903F902F9008952F923F924F925F92D5
:100DB0006F927F928F929F92AF92BF92CF92DF926B
:100DC000EF92FF920F931F93CF93DF9300D000D049
:100DD000CDB7DEB71C012A013B018091110590E0DF
:100DE000029664E170E00E94CD19FC0120E030E041
:100DF00040E0CF01820F931F64E170E00E94CD19A3
:100E0000DC01A65EBC4F8C9190E08215930509F43D
:100E10004F5F2F5F3F4F2431310559F7442309F4C9
:100E2000F7C0FA83E98365E671E0809197069091B7
:100E300098060E948103F101EE0FFF1FED58F94F54
:100E40006081718180919706909198060E94FB0DB8
:100E500063E671E080919706909198060E94810365
:100E6000E12CF12C21E089819A818E0D9F1D64E196
:100E700070E00E94CD198C01FC01E65EFC4F808180
:100E800090E02816390609F09FC0C801880F991F05
:100E9000880F991F9C838B83211121C0FC01E6538D
:100EA000FD4F80819181A281B381EB81FC81E65865
:100EB000FD4F4081518162817381840F951FA61F70
:100EC000B71F88159905AA05BB0508F474C060E62C
:100ED00071E080919706909198060E948103F80135
:100EE000EE0FFF1FEE5AFD4F6081718180919706D2
:100EF000909198060E94E30D6EE571E0809197064F
:100F0000909198060E948103EB81FC81E653FD4F8E
:100F100080809180A280B38084189508A608B708C5
:100F2000C0909706D0909806B7FE0DC06DE2C6013E
:100F30000E947A0344275527BA01481959096A09BA
:100F40007B092AE003C02AE0B501A401C6010E9482
:100F50006E0D6CE571E080919706909198060E9465
:100F60008103EB81FC81E658FD4F40815181628114
:100F7000738180919706909198060E94E00D6AE532
:100F800071E080919706909198060E948103F80184
:100F9000E25CFD4F608180919706909198060E94D7
:100FA000430EF801E65DFD4F6081809197069091B8
:100FB00098060E947A03EB81FC81E653FD4F808006
:100FC0009180A280B38020E0FFEFEF1AFF0A84E156
:100FD000E816F10409F047CF8091970690919806A2
:100FE0000F900F900F900F90DF91CF911F910F9165
:100FF000FF90EF90DF90CF90BF90AF909F908F9039
:101000007F906F905F904F903F902F900C94BA0319
:101010000F900F900F900F90DF91CF911F910F9134
:10102000FF90EF90DF90CF90BF90AF909F908F9008
:101030007F906F905F904F903F902F9008950F9307
:101040001F93CF93DF93EC0168E571E080919706E1
:10105000909198060E9481038E01000F111FF801E4
:10106000ED58F94F608171818091970690919806B3
:101070000E94FB0DFE01E25AF94F208180919706F4
:1010800090919806222329F0213031F460E571E037
:1010900005C067E471E002C064E471E00E9481036E
:1010A000C45BD94F8881882341F06CE371E0809163
:1010B0009706909198060E94810366E371E0809103
:1010C0009706909198060E948103F801E85DF94F18
:1010D000608171818091970690919806DF91CF9100
:1010E0001F910F910C94E30D64E371E080919706DA
:1010F000909198060E94810360910401709105010E
:1011000080919706909198060E94FB0D62E371E032
:1011100080919706909198060E9481036091020148
:101120007091030180919706909198060C94310E6E
:10113000CF92DF92EF92FF9260E371E08091970689
:10114000909198060E9481036091100170911101A5
:10115000809112019091130128EEC22E23E0D22E2D
:10116000E12CF12CA70196010E94E119BA01A90115
:1011700080919706909198060E94E00D6EE271E0D2
:1011800080919706909198060E94810360910C01CE
:1011900070910D0180910E0190910F01A7019601B0
:1011A0000E94E119BA01A9018091970690919806D1
:1011B0000E94E00D6CE271E0809197069091980694
:1011C0000E948103609108017091090180910A01D8
:1011D00090910B01A70196010E94E119BA01A901A2
:1011E00080919706909198060E94E00D6AE271E066
:1011F00080919706909198060E9481036091060164
:10120000709107018091970690919806FF90EF905A
:10121000DF90CF900C94E90DCF93DF93C8E1D1E03C
:10122000FE01649180919706909198060E947A033E
:101230002196F1E0C932DF0799F763E171E080910F
:101240009706909198060E9481036EE071E080916C
:101250009706909198060E94810363E071E0809167
:101260009706909198060E9481036EEE70E080913F
:10127000970690919806DF91CF910C948103CF92BD
:10128000DF92EF92FF920F931F93CF93DF930E9411
:1012900044106B017C0180919706909198060E9402
:1012A000BA030E940C096BE971E080919706909156
:1012B00098060E94810308E611E0C0E081E0F80191
:1012C000219131918F0137FD12C0811108C069E968
:1012D00071E080919706909198060E9481036C2F8F
:1012E00080919706909198060E94430E80E0CF5F10
:1012F000C63129F76EE871E08091970690919806C3
:101300000E9481036BE871E08091970690919806A6
:101310000E948103B701A6018091970690919806DB
:101320000E94E00D69E871E080919706909198061F
:101330000E94810360919C0470919D0480919706A6
:10134000909198060E94E30D66E871E080919706FF
:10135000909198060E9481034091980450919904BD
:1013600060919A0470919B048091970690919806E1
:101370000E94E00D64E871E08091970690919806D4
:101380000E94810360919604709197048091970662
:10139000909198060E94E30D80919706909198068F
:1013A0000E94BA030E9498080E94740862E871E0E3
:1013B00080919706909198060E9481036091700534
:1013C00080919706909198060E944A0E03E716E0D6
:1013D000C0E0D0E0F801819191918F0197FD09C0A3
:1013E000CE010E941F0880919706909198060E9456
:1013F000BA032196C231D10569F7DF91CF911F91D0
:101400000F91FF90EF90DF90CF90089566EE70E01F
:1014100080919706909198060C9481034F925F9269
:101420006F927F928F929F92AF92BF92DF92EF92D4
:10143000FF920F931F93CF93DF93D62E682F70E008
:101440008B01000F111F000F111FF801EE51FE4F0D
:1014500080809180A280B38029013A014818590800
:101460006A087B0853014201909111059F5F909398
:10147000110590911105943110F010921105E09131
:101480001105F0E0A091E001B091E101ED0121969C
:10149000D093E101C093E001EE0FFF1FEE5AFD4F24
:1014A000B183A083E0911105F0E0E65EFC4F8083FC
:1014B000E0911105C8018E519E4F7C01EC0188819D
:1014C0009981AA81BB81D4E0ED9FF0011124E653FC
:1014D000FD4F80839183A283B383E091110584E063
:1014E000E89FF0011124E658FD4F80829182A2828C
:1014F000B382A0911105B0E0FB01E253FE4F808161
:10150000A25CBD4F8C93CB01880F991FDC01A85DB5
:10151000B94F0D90BC91A02D2D01612C712CEB01C8
:10152000C25AD94F84149504A604B704B0F4D70165
:101530002D933D934D935C9313977081688176133F
:1015400072C0DC01AB55BB4F8D919C9111970196F8
:1015500011969C938E9362E567C0A081B881CB0100
:1015600084549E4FAB135AC0EC01B881AB1709F4F9
:1015700042C0D801A753BB4F4D905D906D907C90B9
:101580001397DFEF4D1A5D0A6D0A7D0A4D925D9249
:101590006D927C921397D801AA5FBB4F2D933D9318
:1015A0004D935C931397DB01A655BE4FCC91C111AF
:1015B0000FC0E801C25BDB4F288339834A835B831A
:1015C000C1E0CC93DB01AC50BC4F6C916F5F6C936E
:1015D000D801A455BC4F4D905D906D907C901397B1
:1015E000840C951CA61CB71C8D929D92AD92BC924A
:1015F000139763E414C0D801A455BC4F4D905D907F
:101600006D907C901397840C951CA61CB71C8D9232
:101610009D92AD92BC92139760E501C067E4708122
:10162000DC017C9301C068E5A0911105B0E0A65DE6
:10163000BD4F6C93D801AE51BE4F2D933D934D934A
:101640005C931397D082DF91CF911F910F91FF9000
:10165000EF90DF90BF90AF909F908F907F906F90B2
:101660005F904F900895BF92CF92DF92EF92FF92DA
:101670000F931F93CF93DF93C82F0E9444106B01E9
:101680007C018C2F90E0FC01EE0FFF1FE75BFB4F0E
:10169000A591B4910C91DC01A059B94F1C91FC01AA
:1016A000EE0FFF1FE45DFE4F0190F081E02D2081E1
:1016B000102712230C93112339F1FC01E95EFE4F30
:1016C000C081D1E0FC01EC5EFE4FB080BC16E0F0C2
:1016D0008D2F8123B1F0EC2FF0E0EE0FFF1FE859C2
:1016E000FE4F0190F081E02D1E161F0654F461E0BC
:1016F0009D2F902309F460E0A70196018E2F0E9490
:101700000E0ADD0FCF5FE2CFDF91CF911F910F91D6
:10171000FF90EF90DF90CF90BF9008951F920F92AF
:101720000FB60F9211242F933F934F935F936F93B4
:101730007F938F939F93AF93BF93EF93FF9382E039
:101740000E94330BFF91EF91BF91AF919F918F91C9
:101750007F916F915F914F913F912F910F900FBEAD
:101760000F901F9018951F920F920FB60F92112491
:101770002F933F934F935F936F937F938F939F9399
:10178000AF93BF93EF93FF9381E00E94330BFF91E0
:10179000EF91BF91AF919F918F917F916F915F91E9
:1017A0004F913F912F910F900FBE0F901F90189562
:1017B0001F920F920FB60F9211242F933F934F93C6
:1017C0005F936F937F938F939F93AF93BF93EF93A9
:1017D000FF9380E00E94330BFF91EF91BF91AF9197
:1017E0009F918F917F916F915F914F913F912F9139
:1017F0000F900FBE0F901F901895CF93DF93EC01C1
:101800009C01220F331FF901ED58F94F8FEF9FEF25
:1018100091838083FE01E655FE4F1082F901E85D59
:10182000F94F11821082CE01880F991F880F991FDE
:10183000FC01E753FB4F1082118212821382FE01DA
:10184000EC50FC4F1082FC01EC59FC4F10821182CD
:1018500012821382F901EB55FB4F11821082F901BC
:10186000E05CFC4F11821082FC01E25BFB4F408385
:10187000518362837383FC01EA5FFB4F4083518392
:1018800062837383FC01EE51FE4F40835183628378
:101890007383FC01EC5DFA4F408351836283738351
:1018A000FE01E25DFC4F1082FE01EE5CFE4F808186
:1018B000811107C0F901EC5BFE4F80810E948B0F04
:1018C00001C080E0FE01E253FE4F8083CE5EDA4F1E
:1018D0008883DF91CF910895CF92DF92EF92FF92AC
:1018E0000F931F93CF93DF930E9444106B017C01F1
:1018F000C0E0D0E0B701A601CE010E94FD0B219609
:10190000C231D105B9F7C0929804D0929904E092FF
:101910009A04F0929B0480919C0490919D04909372
:10192000970480939604C092A104D092A204E092FE
:10193000A304F092A404C0926C05D0926D05E092CD
:101940006E05F0926F0510927005E9E4F4E0A59140
:10195000B4918C9180937006EBE4F4E0A591B4917E
:101960008C9180937106EDE4F4E0A591B4918C9193
:101970008093720680E090E00E942804833461F432
:1019800081E090E00E942804863631F482E090E005
:101990000E942804873671F060ED70E081E795E0E1
:1019A000DF91CF911F910F91FF90EF90DF90CF903B
:1019B0000C94BE0383E090E00E942804F82E8FEF81
:1019C0008F0D833118F065EB70E0E8CF66E970E0C9
:1019D00081E795E00E94BE03C4E0D0E010E064E03F
:1019E000E62ECE010E942804082FCE0101960E9407
:1019F0002804D82ECE0102960E94280490E0982F49
:101A000088278D0D911D9093190680931806CE019D
:101A100003960E942804D82ECE0104960E94280422
:101A200090E0982F88278D0D911D90931B06809331
:101A30001A06CE0105960E942804D82ECE010696DD
:101A40000E94280490E0982F88278D0D911D909377
:101A50001D0680931C06CE0107960E942804D82EEE
:101A6000CE0108960E94280490E0982F88278D0DBB
:101A7000911D90931F0680931E062996E092A00464
:101A8000093421F484E00E945C0E0BC0043521F47B
:101A900084E00E941C0F05C0013419F484E00E9408
:101AA00050101F5FF1129DCF1092A00410929F045E
:101AB00010929E04E8E1F6E088E296E0119211921D
:101AC0008E179F07D9F7DF91CF911F910F91FF904C
:101AD000EF90DF90CF9008950E942C1A8F929F92E2
:101AE000AF92BF92EF92FF920F931F93CF93DF932A
:101AF000CDB7DEB7A1970FB6F894DEBF0FBECDBF4E
:101B00007C01FA01CB0119A2223008F42AE08E01EF
:101B10000F5D1F4F822E912CA12CB12CBF01A5016E
:101B200094010E94E119F901CA01015011096A30BA
:101B300014F4605D01C0695CD8016C93232B242BE5
:101B4000252B61F7B801C7010E94A503A1960FB626
:101B5000F894DEBF0FBECDBFDF91CF911F910F91E3
:101B6000FF90EF90BF90AF909F908F90089583303B
:101B700081F028F4813099F08230A1F00895873007
:101B8000A9F08830B9F08430D1F4809180008F7D45
:101B900003C0809180008F7780938000089584B582
:101BA0008F7702C084B58F7D84BD08958091B00089
:101BB0008F7703C08091B0008F7D8093B00008952F
:101BC0002AE00C946E0DAB0160E070E02AE00C940A
:101BD0006E0D0F931F93CF93DF93EC010E94E30DE3
:101BE0008C01CE010E94BA03800F911FDF91CF912B
:101BF0001F910F910895CF92DF92EF92FF920F9372
:101C00001F93CF93DF936B01770FEE08FF08F7FE6A
:101C10001BC0EC016DE20E947A038C01442755271A
:101C2000BA014C195D096E097F092AE0CE010E94B4
:101C30006E0D800F911FDF91CF911F910F91FF903B
:101C4000EF90DF90CF9008952AE0B701A601DF91D1
:101C5000CF911F910F91FF90EF90DF90CF900C9458
:101C60006E0D0F931F93CF93DF93EC010E94FB0D3A
:101C70008C01CE010E94BA03800F911FDF91CF919A
:101C80001F910F910895462F50E060E070E02AE028
:101C90000C946E0D0F931F93CF93DF93EC010E9472
:101CA000430E8C01CE010E94BA03800F911FDF9179
:101CB000CF911F910F910895CF93C82F843090F446
:101CC0000E94060A61ED73E0809197069091980654
:101CD0000E9481036C2F8091970690919806CF9176
:101CE0000C944A0E2091180630911906C9010197EB
:101CF00080319E4038F00E94060A6091180670916B
:101D0000190693C0A8EEB3E00E94091A609310016F
:101D100070931101809312019093130120911A0680
:101D200030911B06C901019780319E4038F00E9416
:101D3000060A60911A0670911B0677C0A8EEB3E000
:101D40000E94091A60930C0170930D0180930E019B
:101D500090930F0120911C0630911D0621318EE0D9
:101D6000380738F00E94060A60911C0670911D0623
:101D70005CC0A8EEB3E00E94091A6093080170935A
:101D8000090180930A0190930B0180911E069091A6
:101D90001F068536910518F00E94060A42C09093EE
:101DA0000701809306016DEB73E080919706909197
:101DB00098060E948103609118067091190680911F
:101DC0009706909198060E94E30D6BEB73E080916B
:101DD0009706909198060E94810360911A0670916F
:101DE0001B0680919706909198060E94E30D69EB7F
:101DF00073E080919706909198060E94810360910C
:101E00001C0670911D0680919706909198060E947D
:101E1000E30D67EB73E080919706909198060E941E
:101E2000810360911E0670911F0680919706909124
:101E30009806CF910C94E90D823080F40E94060A36
:101E400062EB73E080919706909198060E9481035F
:101E500080919706909198060C94BA038091180689
:101E6000909119069C01215031092F3F334038F0E1
:101E70000E94060A609118067091190633C090936B
:101E800005018093040180911A0690911B069C0124
:101E9000215031092F3F334018F00E94060A1EC01E
:101EA000909303018093020166E973E080919706A5
:101EB000909198060E94810360911806709119060E
:101EC00080919706909198060E94E30D64E973E073
:101ED00080919706909198060E94810360911A065E
:101EE00070911B0680919706909198060C94E90DCD
:101EF00087E480937C0080917A00806480937A00EC
:101F000080917A0086FDFCCF809178002091790045
:101F100090E0922B0895CF93DF93282F30E0F901C2
:101F2000E058FC4F8491F901EC50FC4FD491F90139
:101F3000E15BFB4FC491CC2391F081110E94B70D5E
:101F4000EC2FF0E0EE0FFF1FEB5BFB4FA591B49180
:101F5000EC91ED2381E090E021F480E002C080E08C
:101F600090E0DF91CF9108951F93CF93DF93282FB7
:101F700030E0F901E058FC4F8491F901EC50FC4F3E
:101F8000D491F901E15BFB4FC491CC23C1F0162F32
:101F900081110E94B70DEC2FF0E0EE0FFF1FEA5801
:101FA000FC4FA591B4919FB7F894111104C08C9186
:101FB000D095D82302C0EC91DE2BDC939FBFDF913C
:101FC000CF911F910895CF93DF9390E0FC01EC50E7
:101FD000FC4F2491FC01E15BFB4F8491882361F16C
:101FE00090E0880F991FFC01E459FC4FC591D491F2
:101FF000FC01EA58FC4FA591B491611109C09FB74B
:10200000F8948881209582238883EC912E230BC03D
:10201000623061F49FB7F8948881322F3095832322
:102020008883EC912E2B2C939FBF06C08FB7F8941A
:10203000E8812E2B28838FBFDF91CF9108953FB782
:10204000F89480919E0690919F06A091A006B09171
:10205000A10626B5A89B05C02F3F19F00196A11D2A
:10206000B11D3FBFBA2FA92F982F8827820F911D2E
:10207000A11DB11DBC01CD0142E0660F771F881F75
:10208000991F4A95D1F708952FB7F89460919A0651
:1020900070919B0680919C0690919D062FBF08959C
:1020A0007F928F929F92AF92BF92CF92DF92EF92E8
:1020B000FF920F931F93CF93DF93782E0E944410CB
:1020C000AB01BC01C0901806D090190685E18C15B3
:1020D00058F05601BB24F501EE0FFF1FE859FE4FE3
:1020E0000081118117FF1EC00E94060A63E674E09A
:1020F00080919706909198060E9481036C2D8091A3
:10210000970690919806DF91CF911F910F91FF90C4
:10211000EF90DF90CF90BF90AF909F908F907F9087
:102120000C944A0E11277801EE0CFF1CF701EC5BB2
:10213000FE4FC081D181F701ED58F94F4F018081E9
:102140009181A816B906D1F0FE01FF27E15BFB4F94
:10215000E491E2508E2F90E0FC01EE0FFF1FE75B51
:10216000FB4FA591B4912C91FC01E059F94F2083CC
:10217000C8010E94FD0BF401B182A08280911A0671
:1021800090911B060297029788F00E94060A6AE166
:1021900074E080919706909198060E9481036C2DBF
:1021A00080919706909198060E944A0EF801E25A93
:1021B000F94F81E020911A0630911B06233031053A
:1021C00009F080E08083C8018E5C9E4F6C01F801AD
:1021D000E45BF94F5F01F2E0F71590F480911C0683
:1021E00090911D06892B61F0F6018081811108C054
:1021F00062E08C2F0E94E30F81E0F501808306C02E
:1022000060E08C2F0E94E30FF5011082F3E0F715D8
:1022100030F480911E0690911F06009711F482E021
:1022200090E0F701E85DF94F91838083F6018081AA
:10223000811123C0DD27FE01EC50FC4F8491FE018B
:10224000E15BFB4FC491CC23B1F1C250AC2FB0E0A5
:10225000AA0FBB1FA45DBE4F0D90BC91A02DEC91A9
:10226000E82BEC932091680081E090E001C0880F9A
:10227000CA95EAF7822B8093680068E074E0809149
:102280009706909198060E948103C8010E941F083A
:102290008091970690919806DF91CF911F910F91B1
:1022A000FF90EF90DF90CF90BF90AF909F908F9076
:1022B0007F900C94BA030E94060A63E174E0809157
:1022C000970690919806DF91CF911F910F91FF9003
:1022D000EF90DF90CF90BF90AF909F908F907F90C6
:1022E0000C94BE031F920F920FB60F9211242F93DE
:1022F0003F938F939F93AF93BF9380919A06909152
:102300009B06A0919C06B0919D063091990623E012
:10231000230F2D3720F40196A11DB11D05C026E81D
:10232000230F0296A11DB11D2093990680939A0652
:1023300090939B06A0939C06B0939D0680919E0669
:1023400090919F06A091A006B091A1060196A11DB3
:10235000B11D80939E0690939F06A093A006B09314
:10236000A106BF91AF919F918F913F912F910F90B7
:102370000FBE0F901F901895E1E7F5E013821282CF
:1023800088EE93E0A0E0B0E084839583A683B783D2
:102390008EE191E09183808385EC90E0958784873E
:1023A00084EC90E09787868780EC90E0918B808B1F
:1023B00081EC90E0938B828B82EC90E0958B848B08
:1023C00086EC90E0978B868B118E128E138E148E76
:1023D0000895CF93DF93CDB7DEB765970FB6F89426
:1023E000DEBF0FBECDBF789484B5826084BD84B556
:1023F000816084BD85B5826085BD85B5816085BD00
:1024000080916E00816080936E00109281008091B7
:10241000810082608093810080918100816080933F
:102420008100809180008160809380008091B10064
:1024300084608093B1008091B00081608093B0008F
:1024400080917A00846080937A0080917A00826023
:1024500080937A0080917A00816080937A008091E5
:102460007A00806880937A001092C100E091810523
:10247000F091820582E08083E0917D05F0917E05F8
:102480001082E0917F05F091800583E380831092B4
:102490008905E0918505F091860586E08083E091CD
:1024A0008305F0918405808180618083E0918305BC
:1024B000F0918405808188608083E0918305F091AC
:1024C0008405808180688083E0918305F091840594
:1024D00080818F7D80830E941F104B015C01B4EFCF
:1024E000CB2EDD24D394E12CF12C0E941F10DC01B3
:1024F000CB0188199909AA09BB09883E9340A10517
:10250000B10598F301E0C01AD108E108F10818EE0E
:10251000810E13E0911EA11CB11CC114D104E10471
:10252000F10419F7789481E795E00E94BA0381E7F6
:1025300095E0909398068093970610929D041092D0
:102540009C040E94441060930E0670930F068093C3
:102550001006909311060E946C0C61E082E00E94CC
:10256000E30F61E08CE00E94E30F0E943F09CE017F
:1025700001963C010E94441000910E0610910F0636
:10258000209110063091110660177107820793079A
:1025900050F420919C0430919D042F5F3F4F309365
:1025A0009D0420939C0460930E0670930F06809305
:1025B00010069093110681E795E00E94C902892BCD
:1025C00009F428C381E795E00E94A702D82E9CE277
:1025D000D91219C0E091A004E73008F01BC381E0D4
:1025E0008E0F8093A004F0E0EE0FFF1FE85EF94F1E
:1025F00080919E0490919F049183808310929F0408
:1026000010929E0407C380ED8D0D8A30A0F42091B6
:102610009E0430919F04EAE0E29FC001E39F900D89
:102620001124C0978D0D911DD7FC9A9590939F040E
:1026300080939E04EFC28FE98D0D8A3108F0EAC2C3
:1026400080917005882309F44BC0E091A004F0E06C
:10265000EE0FFF1FE85EF94F80919E0490919F045A
:10266000918380836FEB72E081E795E00E948103A4
:1026700078E1E72E76E0F72E00E010E08091A004EC
:1026800090E080179107A4F00115110531F06DEB72
:1026900072E081E795E00E948103F70161917191F9
:1026A0007F0181E795E00E94E30D0F5F1F4FE6CFAA
:1026B0006D2D81E795E00E947A0366EB72E081E779
:1026C00095E00E9481036091A00470E06F5F7F4FEE
:1026D00081E795E00E94FB0D81E795E00E94BA0337
:1026E0008D2DDD0C990BAA0BBB0BFC01E156F109FA
:1026F000E731F10508F080C2EC5CFF4F0C94031A3F
:102700008091A004E82FF0E0EE0FFF1FE85EF94F84
:1027100020919E0430919F04318320838F5F0E941B
:1027200050106AC28091A004E82FF0E0EE0FFF1F66
:10273000E85EF94F20919E0430919F0431832083FD
:1027400000911806109119068F3F61F0063150F480
:10275000F801FF27EE0FFF1FE859FE4F808191819E
:1027600097FF05C00E94060A6BE972E00DC5992724
:10277000FC01EE5CFE4F20812111FFC4FC01EE0F35
:10278000FF1FEC5BFE4F208131813327F901EC50B4
:10279000FC4F4491F901E15BFB4F2491222309F4A2
:1027A000E1C42250E22FF0E0EE0FFF1FE45DFE4F88
:1027B000A081B1813C91409543234C933C913111D0
:1027C000DCC46091680041E050E04A0102C0880C1E
:1027D000991C2A95E2F794012095262320936800FE
:1027E000CCC41A82198263E4C3010E942A0466E6FB
:1027F000C3010E942A0467E6C3010E942A04B3E7CA
:10280000CB2EB6E0DB2EF60181E02191319137FF2E
:102810008F5FA7E9AA2EA6E0BA2EAE16BF06A9F7CB
:102820008F5F8D8B682FC3010E942A04E090060100
:10283000F0900701609108017091090180910A01EF
:1028400090910B0128EE33E040E050E00E94E11946
:1028500019012A0160910C0170910D0180910E0106
:1028600090910F0128EE33E040E050E00E94E11922
:1028700049015A016091100170911101809112017A
:102880009091130128EE33E040E050E00E94E119FE
:10289000BA01A9018101940169E4C3010E944704BE
:1028A00020910201309103014091040150910501F2
:1028B000E12CF12C00E010E064E5C3010E94470424
:1028C00078E2A72E76E0B72EECE48E2EE6E09E2E80
:1028D000FEE54F2EF6E05F2EF601419151916F011A
:1028E00057FD13C0F501E080F180F401008110E094
:1028F000F2018081811103C022E030E002C023E0B8
:1029000030E061E4C3010E944704F2E0AF0EB11C65
:102910000FEF801A900A1FEF411A510A27E9C216D9
:1029200026E0D206C9F66AE772E081E795E00E94E8
:1029300081036D8981E795E00E94430E67E772E0AD
:1029400081E795E00E94810369817A8181E795E0C2
:102950000E94310E51C10E943F094EC18091A004D6
:10296000E82FF0E0EE0FFF1FE85EF94F20919E0484
:1029700030919F04318320838F5F0E945C0E3CC1A5
:102980001091A004E12FF0E0EE0FFF1FE85EF94F79
:1029900080919E0490919F04918380830E944410B3
:1029A0008091180690911906019709F025C11F3FE3
:1029B00009F422C161E772E0A7C00E946C0C1CC13F
:1029C0000E9444104B015C0166E672E0809197061C
:1029D000909198060E9481030E940C0980919706AD
:1029E000909198060E94BA030E9498080E94740869
:1029F00064E672E080919706909198060E948103A8
:102A00006091700580919706909198060E944A0EF9
:102A100043E7E42E46E0F42E00E010E0F701819158
:102A200091917F0197FD16C0C8010E941F0861E6C1
:102A300072E080919706909198060E948103A5010B
:102A4000940161E0C8010E948004B501A401C8019D
:102A50000E94D4060F5F1F4F02311105F9F680E086
:102A600090E00E9428040091970610919806833404
:102A700009F07AC481E090E00E942804863609F0CB
:102A800073C482E090E00E942804873609F06CC489
:102A900083E090E00E942804482EF4E1F81708F043
:102AA00081C360E172E0C8010E94BE036FE472E07E
:102AB00080919706909198060E948103C0906C05C2
:102AC000D0906D05E0906E05F0906F05809110013B
:102AD00090911101A0911201B0911301C80ED91E5D
:102AE000EA1EFB1E0E94441046015701861A970AEF
:102AF000A80AB90AB501A401809197069091980699
:102B00000E94E00D61E472E0809197069091980632
:102B10000E94810380919706909198060E94BA03C3
:102B20006BC08091A004E82FF0E0EE0FFF1FE85E7D
:102B3000F94F20919E0430919F04318320838F5F51
:102B40000E941C0F59C08091A004E82FF0E0EE0F06
:102B5000FF1FE85EF94F20919E0430919F0431835E
:102B600020838F3F29F40E94060A6AEC71E0CCCFE3
:102B700080911806909119068333910520F5809372
:102B800070056FEC71E028C08091A004E82FF0E0A0
:102B9000EE0FFF1FE85EF94F20919E0430919F04D5
:102BA000318320838F3F29F40E94060A69EA71E08D
:102BB000ABCF80911806909119069C0121503109E4
:102BC000273E334018F00E94060A0CC09093010182
:102BD000809300016EEA71E08091970690919806CB
:102BE0000E948103609118067091190680919706E2
:102BF000909198060E94E90D1092A00410929F04F3
:102C000010929E04E8E1F6E01192119216E0E8328B
:102C1000F107D1F7809195069091960697FD7BC1BB
:102C20000E9444106B017C01209100013091010150
:102C30008091A1049091A204A091A304B091A40456
:102C4000B701A601481B590B6A0B7B0BC901A0E019
:102C5000B0E084179507A607B70708F05CC190910C
:102C60001706923001F128F4992349F0913069F068
:102C700048C1943051F108F19530A9F142C160E0AA
:102C800082E00E94B40F81E00BC0C9010296A0E06F
:102C9000B0E0481759076A077B0708F43CC182E097
:102CA0008093170638C10E94780F90931606809380
:102CB000150623E0209317062EC161E082E00E94F2
:102CC000B40F34E03093170626C1C9010496A0E082
:102CD000B0E0481759076A077B0708F41CC145E0B4
:102CE0004093170618C10E94780F909314068093A2
:102CF000130610921706C092A104D092A204E0928B
:102D0000A304F092A4042091150630911606821BAC
:102D1000930B20910201309103012817390754F0D9
:102D20002091040130910501821793070CF0A0C097
:102D300010E001C011E080911206811709F498C0DB
:102D400010931206612F8CE00E94B40F0E94441071
:102D50009B01AC01612F81E10E940E0A80917005F8
:102D60008A3008F485C062E073E080919706909104
:102D700098060E94810365E170E08091970690912A
:102D800098060E94FB0D69EF72E080919706909182
:102D900098060E94810361E170E08091970690910E
:102DA00098060E94FB0D6DEE72E08091970690915F
:102DB00098060E94810365E170E0809197069091EA
:102DC00098060E94FB0D69EE72E080919706909143
:102DD00098060E94810364EE72E0809197069091BC
:102DE00098060E948103612F809197069091980622
:102DF0000E94430E69ED72E08091970690919806CB
:102E00000E94810360911105809197069091980628
:102E10000E94430E60ED72E08091970690919806B3
:102E20000E94810340910D0550910E0560910F05A0
:102E30007091100580919706909198060E94E00D80
:102E400066EC72E080919706909198060E9481034B
:102E50006091C7047091C80480919706909198067C
:102E60000E94E30D80919706909198060E94BA0304
:102E700080917005893150F180911306909114066C
:102E80002091150630911606AC01421B530B5F933F
:102E90004F933F932F939F938F9387E991E09F9355
:102EA0008F937F926F920E94311A00919706109132
:102EB0009806B301C8010E94A503C8010E94BA0385
:102EC0000FB6F894DEBF0FBECDBF25C0843118F118
:102ED0006AE273E080919706909198060E948103C0
:102EE0006091130670911406809115069091160654
:102EF000681B790B80919706909198060E94310E7D
:102F00000AC01092170669E073E0809197069091CD
:102F100098060E94BE03809170058A3060F50E9479
:102F2000441000916C0510916D0520916E05309153
:102F30006F054B015C01801A910AA20AB30AC09086
:102F40001001D0901101E0901201F0901301C8140B
:102F5000D904EA04FB0408F4D6C0C0900C01D09058
:102F60000D01E0900E01F0900F01E3E7F6E0A4E21E
:102F7000B5E040E0C1C053E7A52E56E0B52E62E1B2
:102F8000E62E65E0F62E74E4C72E71E0D72E00E041
:102F900010E0F501819091905F01181419040CF074
:102FA00085C0F6014080842D0E948B0F582EF701BA
:102FB0008081581609F47AC0508265E673E08091EA
:102FC0009706909198060E948103B401809197061C
:102FD000909198060E94FB0D69E573E08091970639
:102FE000909198060E948103642D8091970690919C
:102FF00098060E94430E67E573E0809197069091D2
:1030000098060E9481036AE473E08091970690918C
:1030100098060E948103652D8091970690919806ED
:103020000E94430E6FE373E080919706909198069B
:103030000E948103609111058091970690919806F6
:103040000E94430E66E373E0809197069091980684
:103050000E948103F801EE0FFF1FEE0FFF1FE753E1
:10306000FB4F4081518162817381809197069091DD
:1030700098060E94E00D6CE273E0809197069091B3
:1030800098060E948103F801EE0FFF1FEB55FB4FDE
:103090006081718180919706909198060E94E30D5E
:1030A00080919706909198060E94BA030F5F1F4F78
:1030B000FFEFEF1AFF0A22E0C20ED11C0231110508
:1030C00009F067CF2CCF0D911D912D913C91139755
:1030D0004B015C01801A910AA20AB30AC814D904F0
:1030E000EA04FB0408F441E0149627E9A22E26E046
:1030F000B22EAE16BF0629F02191319137FDF4CFE3
:10310000E2CF442361F10E9444104B015C0183E74C
:10311000E82E86E0F82E00E010E0F7018191919111
:103120007F0197FD0FC0A501940160E0C8010E94D6
:10313000800480917005853028F0B501A401C80194
:103140000E94D4060F5F1F4F0231110531F78092A4
:103150006C0590926D05A0926E05B0926F050E946D
:10316000700308CA0E94060A64E972E0809197061B
:10317000909198060E94BE033FCD40E050E0BA0116
:103180000E94FD0B69E872E0809197069091980685
:103190000E948103602F80919706909198060E946B
:1031A0004A0E2ACDC8010E94BA036EEF71E08091E9
:1031B0009706909198060E94810380E090E00E941B
:1031C0002804682F80919706909198060E947A03B0
:1031D00081E090E00E942804682F809197069091EA
:1031E00098060E947A0382E090E00E942804682FEB
:1031F00080919706909198060E947A0365EF71E09E
:1032000080919706909198060E94810383E090E058
:103210000E942804682F70E080919706909198068C
:103220000E94FB0D80919706909198060E94BA0328
:10323000512C04E010E0451409F438CCC8010E9478
:103240002804382EC80101960E942804F82EC801CF
:1032500002960E942804882E912C982C88248F0C8A
:10326000911CC80103960E942804F82EC8010496F8
:103270000E942804A82EB12CBA2CAA24AF0CB11C91
:10328000C80105960E942804F82EC80106960E94DF
:103290002804C82ED12CDC2CCC24CF0CD11CC80186
:1032A00007960E942804F82EC80108960E94280458
:1032B00090E0982F88279C012F0D311D7901075F21
:1032C0001F4F6CEE71E080919706909198060E94D6
:1032D0008103632D80919706909198060E947A034E
:1032E0006AEE71E080919706909198060E948103A2
:1032F000B40180919706909198060E94E30D68EEC4
:1033000071E080919706909198060E948103B50123
:1033100080919706909198060E94E30D66EE71E009
:1033200080919706909198060E948103B601809142
:103330009706909198060E94E30D64EE71E08091EB
:103340009706909198060E948103B7018091970695
:10335000909198060E94E30D8091970690919806AF
:103360000E94BA03539467CF6BE272E09CCBF99949
:10337000FECF92BD81BDF89A992780B50895262F7A
:10338000F999FECF1FBA92BD81BD20BD0FB6F8944A
:10339000FA9AF99A0FBE0196089597FB072E16F434
:1033A000009407D077FD09D00E94181A07FC05D0B9
:1033B0003EF4909581959F4F0895709561957F4F4C
:1033C0000895A1E21A2EAA1BBB1BFD010DC0AA1F66
:1033D000BB1FEE1FFF1FA217B307E407F50720F07E
:1033E000A21BB30BE40BF50B661F771F881F991FF9
:1033F0001A9469F760957095809590959B01AC0142
:10340000BD01CF010895EE0FFF1F0590F491E02D4F
:103410000994A29FB001B39FC001A39F700D811DAD
:103420001124911DB29F700D811D1124911D0895CD
:10343000AA1BBB1B51E107C0AA1FBB1FA617B707DA
:1034400010F0A61BB70B881F991F5A95A9F78095F6
:103450009095BC01CD01089581E090E0F8940C9422
:103460001B1DAEE0B0E0E7E3FAE10C94F21C0D891D
:103470001E8986E08C831A8309838FEF9FE79E83E2
:103480008D83AE01475E5F4F6F89788DCE010196C7
:103490000E94531AEF81F885E00FF11F10822E96DB
:1034A000E4E00C940E1DABE0B0E0E9E5FAE10C9429
:1034B000E41C6C017B018A01FC0117821682838166
:1034C00081FFCCC1CE0101963C01F6019381F70149
:1034D00093FD859193FF81917F01882309F4BAC1FF
:1034E000853239F493FD859193FF81917F01853277
:1034F00029F4B60190E00E944A1CE7CF912C212CC0
:10350000312CFFE1F315D8F08B3279F038F48032AA
:1035100079F08332A1F4232D20611DC08D3261F03A
:10352000803369F4232D216016C0832D8260382EEC
:10353000E32DE4603E2E2AC0F32DF8601DC037FC59
:103540002DC020ED280F2A3040F08E32B9F436FC21
:1035500081C1232D2064322E19C036FE06C08AE0B8
:10356000989E200D1124922E11C0EAE02E9E200D6F
:103570001124222EF32DF0623F2E08C08C3621F448
:10358000832D8068382E02C0883641F4F70193FD00
:10359000859193FF81917F018111B3CF982F9F7DFA
:1035A0009554933028F40C5F1F4F9FE399830DC00F
:1035B000833631F0833771F0833509F059C021C06B
:1035C000F801808189830E5F1F4F88248394912C9A
:1035D000530113C02801F2E04F0E511CF801A080E6
:1035E000B18036FE03C0692D70E002C06FEF7FEF3F
:1035F000C5010E943F1C4C018201F32DFF773F2E35
:1036000016C0280122E0420E511CF801A080B180B2
:1036100036FE03C0692D70E002C06FEF7FEFC50179
:103620000E94341C4C01F32DF0683F2E820133FCC4
:103630001BC0822D90E088169906B0F4B60180E296
:1036400090E00E944A1C2A94F4CFF50137FC859142
:1036500037FE81915F01B60190E00E944A1C211063
:103660002A9421E0821A91088114910471F7E8C02C
:10367000843611F0893641F5F80137FE07C06081C4
:103680007181828193810C5F1F4F08C060817181BD
:10369000072E000C880B990B0E5F1F4FF32DFF7642
:1036A0003F2E97FF09C090958095709561957F4F4B
:1036B0008F4F9F4FF0683F2E2AE030E0A3010E9419
:1036C000861C882E861845C0853731F4232D2F7E21
:1036D000B22E2AE030E025C0932D997FB92E8F3687
:1036E000C1F018F4883579F0B5C0803719F0883703
:1036F00021F0B0C0E92FE061BE2EB4FE0DC0FB2D5D
:10370000F460BF2E09C034FE0AC0292F2660B22EF5
:1037100006C028E030E005C020E130E002C020E132
:1037200032E0F801B7FE07C0608171818281938128
:103730000C5F1F4F06C06081718180E090E00E5FDA
:103740001F4FA3010E94861C882E8618FB2DFF7731
:103750003F2E36FE0DC0232D2E7FA22E891458F445
:1037600034FE0BC032FC09C0832D8E7EA82E05C00E
:10377000B82CA32C03C0B82C01C0B92CA4FE0FC0D8
:10378000FE01E80DF11D8081803321F49A2D997E90
:10379000A92E09C0A2FE06C0B394B39404C08A2D1A
:1037A000867809F0B394A3FC11C0A0FE06C0B21441
:1037B00088F4280C922C9B180EC0B21460F4B60149
:1037C00080E290E00E944A1CB394F7CFB21418F440
:1037D0002B1802C0982C212CA4FE10C0B60180E347
:1037E00090E00E944A1CA2FE17C0A1FC03C088E71B
:1037F00090E002C088E590E0B6010CC08A2D867882
:1038000059F0A1FE02C08BE201C080E2A7FC8DE26C
:10381000B60190E00E944A1C891438F4B60180E396
:1038200090E00E944A1C9A94F7CF8A94F301E80D25
:10383000F11D8081B60190E00E944A1C8110F5CFF5
:10384000222009F442CEB60180E290E00E944A1C98
:103850002A94F6CFF6018681978102C08FEF9FEF01
:103860002B96E2E10C94001DFC0105906150704024
:103870000110D8F7809590958E0F9F1F0895FC0139
:103880006150704001900110D8F7809590958E0F8F
:103890009F1F08950F931F93CF93DF93FB01238105
:1038A00021FD03C08FEF9FEF2CC022FF16C0468181
:1038B0005781248135814217530744F4A081B18197
:1038C0009D012F5F3F4F318320838C932681378169
:1038D0002F5F3F4F3783268314C08B01EC01FB0120
:1038E0000084F185E02D0995892BE1F6D801169623
:1038F0008D919C911797019617969C938E9316978E
:10390000CE01DF91CF911F910F910895FA01AA275F
:10391000283051F1203181F1E8946F936E7F6E5F12
:103920007F4F8F4F9F4FAF4FB1E03ED0B4E03CD0C0
:10393000670F781F891F9A1FA11D680F791F8A1FA3
:10394000911DA11D6A0F711D811D911DA11D20D00A
:1039500009F468943F912AE0269F11243019305DC4
:103960003193DEF6CF010895462F4770405D4193B5
:10397000B3E00FD0C9F7F6CF462F4F70405D4A3302
:1039800018F0495D31FD4052419302D0A9F7EACFCA
:10399000B4E0A6959795879577956795BA95C9F7F9
:1039A00000976105710508959B01AC010A2E0694EC
:1039B0005795479537952795BA95C9F7620F731FA5
:1039C000841F951FA01D08952F923F924F925F92E2
:1039D0006F927F928F929F92AF92BF92CF92DF921F
:1039E000EF92FF920F931F93CF93DF93CDB7DEB784
:1039F000CA1BDB0B0FB6F894DEBF0FBECDBF099418
:103A00002A88398848885F846E847D848C849B846E
:103A1000AA84B984C884DF80EE80FD800C811B817C
:103A2000AA81B981CE0FD11D0FB6F894DEBF0FBEAB
:0A3A3000CDBFED010895F894FFCF1B
:103A3A0014006E0064000200D007000060EA000073
:103A4A00307500000D1307080E0000000000010386
:103A5A006A0298024E03C902A702BB026B006C00FD
:103A6A006D000000000000000000000000000000DF
:103A7A00000000010300040005000600070008001A
:103A8A0009000A000B000C000E000F0010001100C4
:103A9A001200130014001500FFFFFFFFFFFF0000D4
:103AAA0001000200030004000500060007000800E8
:103ABA00FFFF09000A000B000C000D000E000F00AA
:103ACA00100011000D0A004C2534642C20253464A2
:0A3ADA00202D3E202520346400005A
:00000001FF
