:100000000C941C020C9444020C9444020C941B0D9E
:100010000C94F60C0C94D10C0C9444020C944402F5
:100020000C9444020C9444020C9444020C94440238
:100030000C9444020C9444020C9444020C94440228
:100040000C94CA110C9444020C94D2030C94AC038B
:100050000C9444020C9444020C9444020C94440208
:100060000C9444020C944402AE13A915A915C013B4
:100070001F14A915A915DA14DD14A915EF14A91573
:10008000A915A915A915A915A9150B150E157715EB
:10009000A91589154572726F723A20004A616E2067
:1000A000203620323031392031373A31313A343745
:1000B0000020636F6D70696C656420004E414E4F87
:1000C00000206F6E200041726475436F756E746519
:1000D000722056332E3130002000200020004900CD
:1000E00020005400206D696E20002070756C6C75C6
:1000F0007000202D002066616C6C696E67002072B4
:100100006973696E6700500040002F0073002C2057
:1001100000200048002041002053002058002C00FF
:10012000204E002054002F002044002043005200A5
:100130002C002042002C0020540020617661696C64
:1001400061626C65002C002048656C6C6F2C20701F
:10015000696E7320004D20726573746F72696E67EB
:1001600020636F6E6669672066726F6D204545502B
:10017000524F4D004D20696C6C6567616C20636F58
:100180006E66696720696E20454550524F4D004D9F
:10019000206E6F20636F6E66696720696E2045452B
:1001A00050524F4D002C002C002C0020004D2053AD
:1001B0006C6F743A200020536C6F74733A20004DBA
:1001C00020454550524F4D20436F6E6669673A2077
:1001D000004D20696C6C6567616C20636F6E6669A9
:1001E0006720696E20454550524F4D004D206E6F7F
:1001F00020636F6E66696720696E20454550524FD7
:100200004D00206D696C6C697365636F6E6473007B
:100210004D204E657874207265706F727420696E1F
:1002200020002C200056004D205374617475733AE1
:100230002000616C697665002C2000636F6E666932
:10024000672073617665642C20004D2072656D6FA8
:10025000766564200052656D496E7400496C6C656A
:1002600067616C2070696E2073706563696669638D
:100270006174696F6E20004D20696C6C6567616CFC
:100280002076616C75652070617373656420666F9C
:100290007220646576566572626F7365004D2064E6
:1002A0006576566572626F73652073657420746F2E
:1002B00020002073697A6520002C004420676F7449
:1002C0002000202072656A65637420002020636F1F
:1002D000756E74200020206869737449647820006A
:1002E00020746F200020292000202820696E74656A
:1002F000726E616C20004D2070696E2000202072AB
:10030000656A65637420002020636F756E74200039
:100310002020686973744964782000206368616EE6
:1003200067656420746F2000202900202820696EF2
:100330007465726E616C20004D2070696E20004CF7
:100340000000000000240027002A00000000002513
:100350000028002B00000000080002010000030438
:100360000700000000000000000102040810204007
:10037000800102040810200102040810204D2064AE
:100380006566696E65642000416464496E74004965
:100390006C6C6567616C2070756C7365206C65763C
:1003A000656C2073706563696669636174696F6EFB
:1003B00020666F722070696E20000000000023002C
:1003C00026002900040404040404040402020202B6
:1003D0000202030303030303496C6C6567616C202D
:1003E00070696E2073706563696669636174696FB3
:1003F0006E200020004D20616E616C6F6720746874
:10040000726573686F6C64732073657420746F20F9
:100410000073697A65002000200020004D20696E7D
:1004200074657276616C732073657420746F20003C
:1004300073697A650000141211241FBECFEFD8E053
:10044000DEBFCDBF11E0A0E0B1E0EAEFF2E302C011
:1004500005900D92A639B107D9F726E0A6E9B1E0DB
:1004600001C01D92A938B207E1F712E0CCE1D2E059
:1004700004C02197FE010E944D19CB31D107C9F765
:100480000E9441120C947B190C940000CF92DF92D1
:10049000EF92FF920F931F93CF93DF936C017A013A
:1004A0008B01C0E0D0E0CE15DF0581F0D8016D9161
:1004B0008D01D601ED91FC910190F081E02DC601F6
:1004C0000995892B11F02196EECF7E01C701DF91AE
:1004D000CF911F910F91FF90EF90DF90CF900895F3
:1004E000089580E090E00895FC01538D448D252F00
:1004F00030E0842F90E0821B930B541710F0CF96BE
:10050000089501970895FC01918D828D981761F0EF
:10051000828DDF01A80FB11D5D968C91928D9F5F3A
:100520009F73928F90E008958FEF9FEF0895FC01E5
:10053000918D828D981731F0828DE80FF11D858D98
:1005400090E008958FEF9FEF0895FC01918D228D2B
:10055000892F90E0805C9F4F821B91098F739927B0
:10056000089585E595E00E94A50221E0892B09F414
:1005700020E0822F0895FC01848DDF01A80FB11DBA
:10058000A35ABF4F2C91848D90E001968F739927C9
:10059000848FA689B7892C93A089B1898C918370A7
:1005A00080648C93938D848D981306C00288F389A0
:1005B000E02D80818F7D80830895EF92FF920F93CD
:1005C0001F93CF93DF93EC0181E0888F9B8D8C8DFF
:1005D000981305C0E889F989808185FD26C0F62E2B
:1005E0000B8D10E00F5F1F4F0F731127E02E8C8DC6
:1005F000E8120CC00FB607FCFACFE889F9898081B0
:1006000085FFF5CFCE010E94BB02F1CF8B8DFE019D
:10061000E80FF11DE35AFF4FF0829FB7F8940B8F5C
:10062000EA89FB89808180620AC09FB7F894EE89CD
:10063000FF896083E889F989808183708064808381
:100640009FBF81E090E0DF91CF911F910F91FF90CC
:10065000EF900895CF93DF93EC01888D8823C9F044
:10066000EA89FB89808185FD05C0A889B9898C91BB
:1006700086FD0FC00FB607FCF5CF808185FFF2CF56
:10068000A889B9898C9185FFEDCFCE010E94BB026C
:10069000E7CFDF91CF91089580E090E0892B29F09A
:1006A0000E94B10281110C9400000895DC01ED91CB
:1006B000FC910190F081E02D0994EF92FF920F934D
:1006C0001F93CF93DF938C017B01C0E0D0E0F70153
:1006D000EC0FFD1F6491662361F0D801ED91FC9150
:1006E0000190F081E02DC8010995892B11F0219628
:1006F000EECFCE01DF91CF911F910F91FF90EF9040
:1007000008956115710579F0FB0101900020E9F76A
:100710003197AF01461B570BDC01ED91FC91028034
:10072000F381E02D099480E090E0089562E971E0A2
:100730000C9481030F931F93CF93DF93EC010E94DE
:100740005D038C01CE010E949603800F911FDF9103
:10075000CF911F910F9108951F920F920FB60F9294
:1007600011242F933F934F935F936F937F938F93B6
:100770009F93AF93BF93EF93FF9385E595E00E941E
:10078000BB02FF91EF91BF91AF919F918F917F91AC
:100790006F915F914F913F912F910F900FBE0F90EE
:1007A0001F9018951F920F920FB60F9211242F933E
:1007B0008F939F93EF93FF93E0916505F09166050A
:1007C0008081E0916B05F0916C0582FD12C09081F3
:1007D00080916E058F5F8F7320916F05821751F0A6
:1007E000E0916E05F0E0EB5AFA4F958F80936E051D
:1007F00001C08081FF91EF919F918F912F910F9078
:100800000FBE0F901F9018950C940119CF93DF9392
:10081000EC019C01220F331FF901EA5BF94F8FEFC6
:100820009FEF91838083FE01E059FB4F1082F90115
:10083000E550FA4F11821082CE01880F991F880F60
:10084000991FFC01EF54FB4F108211821282138218
:10085000FE01E25AFB4F1082FC01EA5EFB4F108260
:10086000118212821382F901E357FB4F1182108229
:10087000F901EE50FC4F11821082FC01E655FC4F4D
:100880004083518362837383FC01EE59FC4F4083A4
:10089000518362837383FC01E65EFC4F4083518386
:1008A00062837383FC01E45FFA4F40835183628368
:1008B0007383FE01E85FFC4F1082F901EE5BFE4F8F
:1008C00080810E94D00EFE01EA50FD4F8083C65009
:1008D000DB4F8883DF91CF910895CF92DF92EF9223
:1008E000FF920F931F93CF93DF930E949E0F6B0194
:1008F0007C01C0E0D0E0B701A601CE010E94060451
:100900002196C231D105B9F780910E0190910F0166
:10091000A0911001B0911101C80ED91EEA1EFB1E54
:10092000C0927A06D0927B06E0927C06F0927D0619
:1009300010925405EEEBF3E0A591B4918C91809365
:100940004306E0ECF3E0A591B4918C9180934406CA
:10095000E2ECF3E0A591B4918C918093450680E0A0
:1009600090E00E940404833461F481E090E00E94EE
:100970000404863631F482E090E00E940404873655
:1009800009F16FE871E085E595E00E949A030E9405
:100990009E0F6093840470938504809386049093E3
:1009A00087048091880490918904909383048093B4
:1009B0008204DF91CF911F910F91FF90EF90DF9014
:1009C000CF90089583E090E00E940404F82E8FEF0A
:1009D0008F0D833118F064E771E0D5CF65E571E0E4
:1009E00085E595E00E949A03C4E0D0E010E064E061
:1009F000E62ECE010E940404082FCE0101960E942B
:100A00000404D82ECE0102960E94040490E0982F90
:100A100088278D0D911D90936B0680936A06CE01F9
:100A200003960E940404D82ECE0104960E9404046A
:100A300090E0982F88278D0D911D90936D068093DF
:100A40006C06CE0105960E940404D82ECE010696AF
:100A50000E94040490E0982F88278D0D911D90939B
:100A60006F0680936E06CE0107960E940404D82E6E
:100A7000CE0108960E94040490E0982F88278D0DDF
:100A8000911D90937106809370062996E0928C04D4
:100A9000093421F484E00E94AA0F0BC0043521F42C
:100AA00084E00E94450E05C0013419F484E00E94E0
:100AB000A8101F5FF1129DCF10928C0410928B042E
:100AC00010928A04EAE6F6E08AE796E01192119223
:100AD0008E179F07D9F75BCFFF920F931F93CF938A
:100AE000DF93EC01F62E08811981C8010E940404ED
:100AF0008F1521F06F2DC8010E94091988819981F5
:100B0000019699838883DF91CF911F910F91FF9078
:100B10000895AF92BF92CF92DF92EF92FF920F9320
:100B20001F93CF93DF93EC015A0169010E946C057A
:100B30006A2DCE010E946C056B2DCE010E946C05C2
:100B40006C2DCE010E946C056D2DCE010E946C05AE
:100B5000602FCE010E946C05612FCE010E946C05B2
:100B60006E2DCE010E946C056F2DCE01DF91CF91CD
:100B70001F910F91FF90EF90DF90CF90BF90AF90BB
:100B80000C946C052F923F924F925F926F927F92DE
:100B90008F929F92AF92BF92CF92DF92EF92FF928D
:100BA0000F931F93CF93DF93CDB7DEB7A1970FB607
:100BB000F894DEBF0FBECDBF1C016D8BF8942C01E5
:100BC000440C551C440C551C5D8E4C8E8201065500
:100BD0001C4FD801CD90DD90ED90FC90CD82DE824F
:100BE000EF82F886F201EE59FC4F4080518062801E
:100BF00073804E8E5F8E68A279A2EC8DFD8DEF54CE
:100C0000FB4FC080D180E280F380C982DA82EB8220
:100C1000FC822C01440C551CF201E357FB4F608110
:100C20007181FC01E25AFB4F7080EC8DFD8DE25525
:100C3000FD4FC080D180E280F380CE8ADF8AE88ECB
:100C4000F98E78948E8C9F8CA8A0B9A08D819E81FE
:100C5000AF81B885881A990AAA0ABB0AEC8DFD8D66
:100C6000EA5EFB4FC080D180E280F38089819A8167
:100C7000AB81BC818C199D09AE09BF0989879A8710
:100C8000AB87BC876C017D01C718D108E108F1086A
:100C9000F201EE50FC4F808191812B01481A590AD4
:100CA0005B8E4A8E5D885110DFC0EC8DFD8DE45F58
:100CB000FA4F80819181A281B3818D879E87AF8712
:100CC000B88B40900A0150900B0160900C0170901D
:100CD0000D01498A5A8A6B8A7C8ADA01C901841912
:100CE0009509A609B7094D845E846F8478888419B4
:100CF0009509A609B709B7FD47C0809104019091F5
:100D00000501A0E0B0E0C816D906EA06FB06F8F037
:100D10008091060190910701A0910801B09109010D
:100D200088159905AA05BB0590F480910E01909154
:100D30000F01A0911001B091110149885A886B8868
:100D40007C88481659066A067B0609F051C0F8945B
:100D5000EC8DFD8DE655FC4F208331834283538318
:100D6000EC8DFD8DEE59FC4F2083318342835383FC
:100D7000789449015A014D805E806F807884841890
:100D80009508A608B7083FC080910E0190910F0109
:100D9000A0911001B091110129013A01481A590A94
:100DA0006A0A7B0AD301C2014D845E846F8478880D
:100DB00084199509A609B709B7FD37C180910401C7
:100DC00090910501A0E0B0E0C816D906EA06FB063E
:100DD00008F42BC18091060190910701A0910801B0
:100DE000B091090188159905AA05BB0508F01DC138
:100DF000F8948E8D9F8DA8A1B9A1F801808391836D
:100E0000A283B3837894F894F101E25AFB4F1082E5
:100E1000EC8DFD8DE255FD4F1082118212821382FE
:100E20007894EC8DFD8DEA5EFB4F49805A806B8093
:100E30007C804082518262827382F101EE0FFF1F3B
:100E4000EE50FC4F718360838C8D9D8D845F9A4F33
:100E5000DC012D933D934D935C931397F101E85F73
:100E6000FC4F80818F5F808329013A011D893E827A
:100E70002D826EE271E080917E0690917F060E9445
:100E80005D03ED81FE81EE0FFF1FEA5BF94F60818C
:100E9000718180917E0690917F060E94260E6BE202
:100EA00071E080917E0690917F060E945D034981EA
:100EB0005A816B817C8180917E0690917F060E9491
:100EC000D90D68E271E080917E0690917F060E94C4
:100ED0005D03B701A60180917E0690917F060E9476
:100EE000D90D66E271E080917E0690917F060E94A6
:100EF0005D0349855A856B857C8580917E0690913E
:100F00007F060E94D90D63E271E080917E06909188
:100F10007F060E945D03B501A40180917E06909139
:100F20007F060E94D90D60E271E080917E0690916B
:100F30007F060E945D03B301A20180917E0690911D
:100F40007F060E94F40D6EE171E080917E06909123
:100F50007F060E945D0360918804709189048091EE
:100F60007E0690917F060E94DC0D6BE171E080911E
:100F70007E0690917F060E945D036A8D7B8D809135
:100F80007E0690917F060E94DC0D111113C068E16E
:100F900071E080917E0690917F060E945D03ED8155
:100FA000FE81E85FFC4F608180917E0690917F0614
:100FB0000E943E0EC114D104E104F104C1F065E1C8
:100FC00071E080917E0690917F060E945D036E899C
:100FD0007F89888D998DA70196010E942B19BA01EE
:100FE000A90180917E0690917F060E94D90D809183
:100FF0007E0690917F06A1960FB6F894DEBF0FBED5
:10100000CDBFDF91CF911F910F91FF90EF90DF90B7
:10101000CF90BF90AF909F908F907F906F905F9098
:101020004F903F902F900C949603A1960FB6F89492
:10103000DEBF0FBECDBFDF91CF911F910F91FF900B
:10104000EF90DF90CF90BF90AF909F908F907F9068
:101050006F905F904F903F902F9008952F923F9206
:101060004F925F926F927F928F929F92AF92BF92B8
:10107000CF92DF92EF92FF920F931F93CF93DF9364
:101080006C014A015B018091F90490E0029664E1F1
:1010900070E00E941719FC0120E030E040E0C4E15C
:1010A000D0E0CF01820F931FBE010E941719DC010F
:1010B000A656BD4F8C9190E08C159D0509F44F5FAD
:1010C0002F5F3F4F2431310561F7442309F4D7C026
:1010D0001F0163E171E080917E0690917F060E947E
:1010E0005D03F601EE0FFF1FEA5BF94F608171812E
:1010F00080917E0690917F060E94260E61E171E04C
:1011000080917E0690917F060E945D03E12CF12C78
:1011100021E0C701820D931D64E170E00E94171960
:101120008C01FC01E656FD4F808190E0C816D9067F
:1011300009F085C0E801CC0FDD1FCC0FDD1F2111A8
:1011400020C0FE01E65BFD4F80819181A281B381C9
:10115000FE01E650FE4F4081518162817381840F10
:10116000951FA61FB71F84159505A605B70508F49A
:101170005FC06EE071E080917E0690917F060E94D4
:101180005D03F801EE0FFF1FEE52FE4F608171818B
:1011900080917E0690917F060E94DC0D6CE071E0EC
:1011A00080917E0690917F060E945D03FE01E65BC2
:1011B000FD4F4081518162817381481959096A0943
:1011C0007B0980917E0690917F060E94F40D6AE073
:1011D00071E080917E0690917F060E945D03FE0182
:1011E000E650FE4F408151816281738180917E067D
:1011F00090917F060E94D90D68E071E080917E0693
:1012000090917F060E945D03F801E254FE4F6081D9
:1012100080917E0690917F060E943E0EF801E65571
:10122000FE4F608180917E0690917F060E9456035A
:10123000C65BDD4F488059806A807B8020E08FEF5D
:10124000E81AF80A84E1E816F10409F062CF809107
:101250007E0690917F06DF91CF911F910F91FF90B5
:10126000EF90DF90CF90BF90AF909F908F907F9046
:101270006F905F904F903F902F900C949603DF916A
:10128000CF911F910F91FF90EF90DF90CF90BF9083
:10129000AF909F908F907F906F905F904F903F9016
:1012A0002F9008950F931F93CF93DF93EC0166E087
:1012B00071E080917E0690917F060E945D038E0111
:1012C000000F111FF801EA5BF94F60817181809175
:1012D0007E0690917F060E94260EFE01EF5CF94F7C
:1012E000208180917E0690917F06222329F0213073
:1012F00031F46EEF70E005C065EF70E002C062EFA0
:1013000070E00E945D03C15ED94F8881882341F05F
:101310006AEE70E080917E0690917F060E945D03E8
:1013200064EE70E080917E0690917F060E945D03DE
:10133000F801E550FA4F6081718180917E069091AD
:101340007F06DF91CF911F910F910C94DC0D62EE1F
:1013500070E080917E0690917F060E945D0360910F
:1013600002017091030180917E0690917F060E9498
:10137000260E60EE70E080917E0690917F060E94BE
:101380005D03609100017091010180917E06909152
:101390007F060C942C0ECF92DF92EF92FF926EEDAF
:1013A00070E080917E0690917F060E945D036091BF
:1013B0000E0170910F01809110019091110128EEA2
:1013C000C22E23E0D22EE12CF12CA70196010E941F
:1013D0002B19BA01A90180917E0690917F060E9487
:1013E000D90D6CED70E080917E0690917F060E9491
:1013F0005D0360910A0170910B0180910C01909145
:101400000D01A70196010E942B19BA01A901809133
:101410007E0690917F060E94D90D6AED70E0809162
:101420007E0690917F060E945D0360910601709197
:1014300007018091080190910901A70196010E947E
:101440002B19BA01A90180917E0690917F060E9416
:10145000D90D68ED70E080917E0690917F060E9424
:101460005D03609104017091050180917E06909169
:101470007F06FF90EF90DF90CF900C94E20D0F93DA
:101480001F93CF93DF93C6ECD0E0FE01649180916F
:101490007E0690917F060E9456032196F0E0C73D9C
:1014A000DF0799F761EC70E080917E0690917F06EE
:1014B0000E945D03CCEBD0E0FE01649180917E063A
:1014C00090917F060E9456032196F0E0C03CDF0712
:1014D00099F761EB70E080917E0690917F060E9403
:1014E0005D03CCE9D0E000EB10E0FE016491809157
:1014F0007E0690917F060E94560321960C171D07C9
:10150000A1F7DF91CF911F910F910895CF92DF92B4
:10151000EF92FF920F931F93CF93DF930E949E0F42
:101520006B017C0180917E0690917F060E9496035C
:101530000E943F0A67E471E080917E0690917F06E9
:101540000E945D0306E611E0C0E081E0F801219110
:1015500031918F0137FD12C0811108C065E471E03F
:1015600080917E0690917F060E945D036C2F809192
:101570007E0690917F060E943E0E80E0CF5FC631CE
:1015800029F76AE371E080917E0690917F060E94C0
:101590005D0367E371E080917E0690917F060E9473
:1015A0005D03B701A60180917E0690917F060E949F
:1015B000D90D65E371E080917E0690917F060E94CF
:1015C0005D03609188047091890480917E069091FA
:1015D0007F060E94DC0D62E371E080917E069091AF
:1015E0007F060E945D0340918404509185046091C0
:1015F00086047091870480917E0690917F060E94F8
:10160000D90D60E371E080917E0690917F060E9483
:101610005D03609182047091830480917E069091B5
:101620007F060E94DC0D80917E0690917F060E94CD
:1016300096030E94CB090E94A70906E416E0C0E0C9
:10164000D0E0F801819191918F0197FD09C0CE0101
:101650000E94520980917E0690917F060E94960317
:101660002196C231D10569F7DF91CF911F910F917A
:10167000FF90EF90DF90CF900895CF93DF93C4E970
:10168000D0E0FE01649180917E0690917F060E94D9
:1016900056032196F0E0CB39DF0799F7DF91CF9120
:1016A00008954F925F926F927F928F929F92AF9226
:1016B000BF92DF92EF92FF920F931F93CF93DF932E
:1016C000D62E682F70E08B01000F111F000F111F25
:1016D000F801E65EFC4F80809180A280B3802901F2
:1016E0003A01481859086A087B0853014201909151
:1016F000F9049F5F9093F9049091F904943110F0EC
:101700001092F904E091F904F0E0A091A801B091E1
:10171000A901ED012196D093A901C093A801EE0F74
:10172000FF1FEE52FE4FB183A083E091F904F0E079
:10173000E656FD4F8083E091F904C801865E9C4F18
:101740007C01EC0188819981AA81BB81D4E0ED9F65
:10175000F0011124E65BFD4F80839183A283B38364
:10176000E091F90484E0E89FF0011124E650FE4F77
:1017700080829182A282B382A091F904B0E0FB0141
:10178000EA50FD4F8081A254BE4F8C93CB01880F4D
:10179000991FDC01A550BA4F0D90BC91A02D2D01D1
:1017A000612C712CEB01CF5CD94F84149504A604F5
:1017B000B704B0F4D7012D933D934D935C931397E9
:1017C00070816881761372C0DC01A357BB4F8D9185
:1017D0009C911197019611969C938E9362E567C038
:1017E000A081B881CB018A569E4FAB135AC0EC0141
:1017F000B881AB1709F442C0D801AF54BB4F4D902C
:101800005D906D907C901397DFEF4D1A5D0A6D0A25
:101810007D0A4D925D926D927C921397D801AE59DC
:10182000BC4F2D933D934D935C931397DB01A059CF
:10183000BB4FCC91C1110FC0E801C655DC4F2883C6
:1018400039834A835B83C1E0CC93DB01A25ABB4F4F
:101850006C916F5F6C93D801A255BD4F4D905D9018
:101860006D907C901397840C951CA61CB71C8D92D0
:101870009D92AD92BC92139763E414C0D801A25517
:10188000BD4F4D905D906D907C901397840C951C8E
:10189000A61CB71C8D929D92AD92BC92139760E5E9
:1018A00001C067E47081DC017C9301C068E5A09110
:1018B000F904B0E0A655BE4F6C93D801A65EBC4FAC
:1018C0002D933D934D935C931397D082DF91CF91ED
:1018D0001F910F91FF90EF90DF90BF90AF909F907E
:1018E0008F907F906F905F904F900895BF92CF92AE
:1018F000DF92EF92FF920F931F93CF93DF93C82F46
:101900000E949E0F6B017C018C2F90E0FC01EE0F7A
:10191000FF1FE254FC4FA591B4910C91DC01AD5B2B
:10192000B94F1C91FC01EE0FFF1FE65DFE4F0190C9
:10193000F081E02D2081102712230C93112339F11F
:10194000FC01EB5EFE4FC081D1E0FC01EE5EFE4F7C
:10195000B080BC16E0F08D2F8123B1F0EC2FF0E0C9
:10196000EE0FFF1FEA59FE4F0190F081E02D1E1689
:101970001F0654F461E09D2F902309F460E0A70155
:1019800096018E2F0E94510BDD0FCF5FE2CFDF91CA
:10199000CF911F910F91FF90EF90DF90CF90BF906C
:1019A00008951F920F920FB60F9211242F933F9319
:1019B0004F935F936F937F938F939F93AF93BF9357
:1019C000EF93FF9382E00E94760CFF91EF91BF911D
:1019D000AF919F918F917F916F915F914F913F91C7
:1019E0002F910F900FBE0F901F9018951F920F927E
:1019F0000FB60F9211242F933F934F935F936F93E2
:101A00007F938F939F93AF93BF93EF93FF9381E067
:101A10000E94760CFF91EF91BF91AF919F918F91B2
:101A20007F916F915F914F913F912F910F900FBEDA
:101A30000F901F9018951F920F920FB60F921124BE
:101A40002F933F934F935F936F937F938F939F93C6
:101A5000AF93BF93EF93FF9380E00E94760CFF91CA
:101A6000EF91BF91AF919F918F917F916F915F9116
:101A70004F913F912F910F900FBE0F901F9018958F
:101A80000E9476198F929F92AF92BF92EF92FF922F
:101A90000F931F93CF93DF93CDB7DEB7A1970FB608
:101AA000F894DEBF0FBECDBF7C01FA01CB0119A2B5
:101AB000223008F42AE08E010F5D1F4F822E912CF8
:101AC000A12CB12CBF01A50194010E942B19F90191
:101AD000CA01015011096A3014F4605D01C0695CEB
:101AE000D8016C93232B242B252B61F7B801C70158
:101AF0000E948103A1960FB6F894DEBF0FBECDBF42
:101B0000DF91CF911F910F91FF90EF90BF90AF9019
:101B10009F908F900895833081F028F4813099F060
:101B20008230A1F008958730A9F08830B9F0843070
:101B3000D1F4809180008F7D03C0809180008F77E9
:101B400080938000089584B58F7702C084B58F7D1F
:101B500084BD08958091B0008F7703C08091B0005C
:101B60008F7D8093B00008953FB7F89480918506EB
:101B700090918606A0918706B091880626B5A89B0D
:101B800005C02F3F19F00196A11DB11D3FBFBA2F0F
:101B9000A92F982F8827820F911DA11DB11DBC016F
:101BA000CD0142E0660F771F881F991F4A95D1F734
:101BB00008952AE00C94420DAB0160E070E02AE049
:101BC0000C94420D0F931F93CF93DF93EC010E946F
:101BD000DC0D8C01CE010E949603800F911FDF91D6
:101BE000CF911F910F910895CF92DF92EF92FF92C4
:101BF0000F931F93CF93DF9377FF1DC06A017B0183
:101C0000EC016DE20E9456038C0144275527BA016E
:101C10004C195D096E097F092AE0CE010E94420D30
:101C2000800F911FDF91CF911F910F91FF90EF9047
:101C3000DF90CF9008952AE0DF91CF911F910F910F
:101C4000FF90EF90DF90CF900C94420DAB01770F97
:101C5000660B770B0C94F40D0F931F93CF93DF93C8
:101C6000EC010E94260E8C01CE010E949603800F8B
:101C7000911FDF91CF911F910F910895462F50E052
:101C800060E070E02AE00C94420D823058F40E942B
:101C90003D0B61E174E080917E0690917F060E9489
:101CA0005D0353C080916A0690916B069C012150A0
:101CB00031092F3F334038F00E943D0B60916A0696
:101CC00070916B0614C09093030180930201809180
:101CD0006C0690916D069C01215031092F3F3340D5
:101CE00060F00E943D0B60916C0670916D068091D2
:101CF0007E0690917F060C94E20D909301018093F3
:101D0000000165EF73E080917E0690917F060E944E
:101D10005D0360916A0670916B0680917E069091DA
:101D20007F060E94DC0D63EF73E080917E06909148
:101D30007F060E945D0360916C0670916D06809134
:101D40007E0690917F060E94DC0D80917E06909128
:101D50007F060C9496030F931F93CF93DF93EC01B0
:101D60000E943E0E8C01CE010E949603800F911FAF
:101D7000DF91CF911F910F91089587E480937C00AC
:101D800080917A00806480937A0080917A0086FD49
:101D9000FCCF809178002091790090E0922B0895FB
:101DA000CF93DF93282F30E0F901EB5AFC4F849159
:101DB000F901E759FC4FD491F901EC53FC4FC49160
:101DC000CC2391F081110E948B0DEC2FF0E0EE0FEF
:101DD000FF1FE654FC4FA591B491EC91ED2381E0F7
:101DE00090E021F480E002C080E090E0DF91CF91AC
:101DF00008951F93CF93DF93282F30E0F901EB5A1A
:101E0000FC4F8491F901E759FC4FD491F901EC534F
:101E1000FC4FC491CC23C1F0162F81110E948B0D71
:101E2000EC2FF0E0EE0FFF1FE55BFC4FA591B491A6
:101E30009FB7F894111104C08C91D095D82302C09B
:101E4000EC91DE2BDC939FBFDF91CF911F91089522
:101E5000CF93DF9390E0FC01E759FC4F2491FC0104
:101E6000EC53FC4F8491882361F190E0880F991F17
:101E7000FC01EF5BFC4FC591D491FC01E55BFC4F8D
:101E8000A591B491611109C09FB7F89488812095FC
:101E900082238883EC912E230BC0623061F49FB7BC
:101EA000F8948881322F309583238883EC912E2BF0
:101EB0002C939FBF06C08FB7F894E8812E2B288300
:101EC0008FBFDF91CF9108958F929F92AF92BF9273
:101ED000CF92DF92EF92FF926B017C010E94B40DD2
:101EE0004B015C01C114D104E104F104F1F00E9442
:101EF000B40DDC01CB0188199909AA09BB09883EF8
:101F00009340A105B10570F321E0C21AD108E108A0
:101F1000F10888EE880E83E0981EA11CB11CC11444
:101F2000D104E104F10419F7DDCFFF90EF90DF90C9
:101F3000CF90BF90AF909F908F9008952FB7F89457
:101F4000609181067091820680918306909184064B
:101F50002FBF0895CF92DF92EF92FF920F931F93BE
:101F6000843058F40E943D0B60E374E080917E065B
:101F700090917F060E945D03DFC020916A06309138
:101F80006B06C901019780319E4038F00E943D0BDD
:101F900060916A0670916B0677C0A8EEB3E00E946C
:101FA00053196B017C0160930E0170930F018093B4
:101FB0001001909311010E949E0FDC01CB018C0D4A
:101FC0009D1DAE1DBF1D00917A0610917B062091CC
:101FD0007C0630917D0680179107A207B30780F435
:101FE0000E949E0FDC01CB018C0D9D1DAE1DBF1DFF
:101FF00080937A0690937B06A0937C06B0937D062F
:1020000020916C0630916D06C901019780319E4088
:1020100038F00E943D0B60916C0670916D0634C0E3
:10202000A8EEB3E00E94531960930A0170930B016C
:1020300080930C0190930D0120916E0630916F06F4
:1020400021318EE0380738F00E943D0B60916E061A
:1020500070916F0619C0A8EEB3E00E945319609307
:102060000601709307018093080190930901809104
:102070007006909171068536910590F00E943D0B97
:10208000609170067091710680917E0690917F0636
:102090001F910F91FF90EF90DF90CF900C94E20D85
:1020A00090930501809304016CE174E080917E06B9
:1020B00090917F060E945D0360916A0670916B06A5
:1020C00080917E0690917F060E94DC0D6AE174E0AB
:1020D00080917E0690917F060E945D0360916C0660
:1020E00070916D0680917E0690917F060E94DC0DB6
:1020F00068E174E080917E0690917F060E945D0306
:1021000060916E0670916F0680917E0690917F06B9
:102110000E94DC0D66E174E080917E0690917F065E
:102120000E945D03609170067091710680917E0639
:1021300090917F060E94DC0D80917E0690917F0633
:102140001F910F91FF90EF90DF90CF900C9496032A
:102150007F928F929F92AF92BF92CF92DF92EF9237
:10216000FF920F931F93CF93DF93782E0E949E0FC1
:10217000AB01BC01C0906A06D0906B0685E18C155E
:1021800058F05601BB24F501EE0FFF1FEA59FE4F30
:102190000081118117FF1EC00E943D0B68ED73E0A6
:1021A00080917E0690917F060E945D036C2D809148
:1021B0007E0690917F06DF91CF911F910F91FF9046
:1021C000EF90DF90CF90BF90AF909F908F907F90D7
:1021D0000C94AB0E11277801EE0CFF1CF701EE5B9F
:1021E000FE4FC081D181F701EA5BF94F4F01808139
:1021F0009181A816B906D1F0FE01FF27EC53FC4FE0
:10220000E491E2508E2F90E0FC01EE0FFF1FE254AC
:10221000FC4FA591B4912C91FC01ED5BF94F20830B
:10222000C8010E940604F401B182A08280916C066C
:1022300090916D060297029788F00E943D0B6FE81F
:1022400073E080917E0690917F060E945D036C2D65
:1022500080917E0690917F060E94AB0EF801EF5CA4
:10226000F94F81E020916C0630916D0623303105E5
:1022700009F080E08083C801805D9E4F6C01F80109
:10228000E15EF94F5F01F2E0F71590F480916E0680
:1022900090916F06892B61F0F6018081811108C051
:1022A00062E08C2F0E94280F81E0F501808306C038
:1022B00060E08C2F0E94280FF5011082F3E0F715E3
:1022C00030F48091700690917106009711F482E0CD
:1022D00090E0F701E550FA4F91838083F601808109
:1022E000811123C0DD27FE01E759FC4F8491FE01D7
:1022F000EC53FC4FC491CC23B1F1C250AC2FB0E0F1
:10230000AA0FBB1FA65DBE4F0D90BC91A02DEC91F6
:10231000E82BEC932091680081E090E001C0880FE9
:10232000CA95EAF7822B809368006DE773E080918D
:102330007E0690917F060E945D03C8010E945209AB
:1023400080917E0690917F06DF91CF911F910F9132
:10235000FF90EF90DF90CF90BF90AF909F908F90C5
:102360007F900C9496030E943D0B68E873E0809187
:102370007E0690917F06DF91CF911F910F91FF9084
:10238000EF90DF90CF90BF90AF909F908F907F9015
:102390000C949A031F920F920FB60F9211242F9351
:1023A0003F938F939F93AF93BF93809181069091BA
:1023B0008206A0918306B09184063091800623E0C6
:1023C000230F2D3720F40196A11DB11D05C026E86D
:1023D000230F0296A11DB11D2093800680938106D4
:1023E00090938206A0938306B0938406809185061D
:1023F00090918606A0918706B09188060196A11D4E
:10240000B11D8093850690938606A0938706B093AE
:102410008806BF91AF919F918F913F912F910F901F
:102420000FBE0F901F901895E5E5F5E0138212821C
:1024300088EE93E0A0E0B0E084839583A683B78321
:102440008CE191E09183808385EC90E0958784878F
:1024500084EC90E09787868780EC90E0918B808B6E
:1024600081EC90E0938B828B82EC90E0958B848B57
:1024700086EC90E0978B868B118E128E138E148EC5
:102480000895CF93DF93CDB7DEB727970FB6F894B3
:10249000DEBF0FBECDBF789484B5826084BD84B5A5
:1024A000816084BD85B5826085BD85B5816085BD4F
:1024B00080916E00816080936E0010928100809107
:1024C000810082608093810080918100816080938F
:1024D0008100809180008160809380008091B100B4
:1024E00084608093B1008091B00081608093B000DF
:1024F00080917A00846080937A0080917A00826073
:1025000080937A0080917A00816080937A00809134
:102510007A00806880937A001092C100E09165058E
:10252000F091660582E08083E0916105F09162059B
:102530001082E0916305F091640583E3808310923B
:102540006D05E0916905F0916A0586E08083E09170
:102550006705F0916805808180618083E09167055F
:10256000F0916805808188608083E0916705F09133
:102570006805808180688083E0916705F091680537
:1025800080818F7D808364EF71E080E090E00E9425
:10259000640F789485E595E00E94960385E595E0C3
:1025A00090937F0680937E0610928904109288048F
:1025B0000E949E0F6093F2057093F3058093F405DB
:1025C0009093F5050E946D0461E082E00E94280F5F
:1025D00061E08CE00E94280F0E94860A28EE222EDD
:1025E00023E0322E412C512C0E949E0F0091F205C7
:1025F0001091F3052091F4053091F50560177107EE
:102600008207930750F420918804309189042F5F4A
:102610003F4F30938904209388046093F2057093B0
:10262000F3058093F4059093F50585E595E00E9408
:10263000A502892B09F49BC285E595E00E948302DF
:10264000D82E9CE2C92EDC1019C0E0918C04E73032
:1026500008F08DC281E08E0F80938C04F0E0EE0FC5
:10266000FF1FE659F94F80918A0490918B04918362
:10267000808310928B0410928A0479C280ED8D0DB4
:102680008A30A8F420918A0430918B040AE0E02E6D
:10269000E29EC001E39E900D1124C0978D0D911D07
:1026A000D7FC9A9590938B0480938A0460C28FE93B
:1026B0008D0D8A3108F05BC2809154058823F1F1B9
:1026C0006BEB72E085E595E00E945D031AE6E12E72
:1026D00016E0F12E00E010E080918C0490E080176D
:1026E0009107A4F00115110531F069EB72E085E561
:1026F00095E00E945D03F701619171917F0185E58D
:1027000095E00E94DC0D0F5F1F4FE6CF6D2D85E534
:1027100095E00E94560362EB72E085E595E00E9429
:102720005D0360918C0470E06F5F7F4F85E595E0FD
:102730000E94260E85E595E00E9496038D2DDD0C06
:10274000990BAA0BBB0BFC01E156F109E631F1052F
:1027500008F0FFC1EC5CFF4F0C944D1980918C0484
:10276000E82FF0E0EE0FFF1FE659F94F20918A04A1
:1027700030918B04318320838F5F0E94A810E9C1C0
:1027800080918C04E82FF0E0EE0FFF1FE659F94F1F
:1027900020918A0430918B043183208300916A0652
:1027A00010916B068F3F61F0063150F4F801FF275E
:1027B000EE0FFF1FEA59FE4F8081918197FF05C000
:1027C0000E943D0B6CE572E0EDC39927FC01E05DD2
:1027D000FE4F20812111DFC3FC01EE0FFF1FEE5BD6
:1027E000FE4F208131813327F901E759FC4F449195
:1027F000F901EC53FC4F2491222309F4C3C3225066
:10280000E22FF0E0EE0FFF1FE65DFE4FA081B181E9
:102810003C91409543234C933C913111BCC3609152
:10282000680041E050E06A0102C0CC0CDD1C2A9532
:10283000E2F796012095262320936800ACC31A8204
:10284000198263E4CE0101960E946C0566E6CE0112
:1028500001960E946C0567E6CE0101960E946C0508
:1028600036E4632E36E0732EF30181E0219131913D
:1028700037FF8F5F06E0EA36F007C1F78F5F8B8383
:10288000682FCE0101960E946C05E0900401F09043
:1028900005016091060170910701809108019091F6
:1028A0000901A20191010E942B192C833D834E83C3
:1028B0005F8360910A0170910B0180910C019091EE
:1028C0000D01A20191010E942B1949015A01609149
:1028D0000E0170910F018091100190911101A201E0
:1028E00091010E942B19BA01A9010C811D8194014B
:1028F00069E4CE0101960E94890520910001309182
:1029000001014091020150910301E12CF12C00E002
:1029100010E064E5CE0101960E9489058BEF882EB8
:1029200085E0982E9FE1A92E96E0B92E21E3C22ED4
:1029300026E0D22EF301419151913F0157FD14C081
:10294000F401E080F180F501008110E0F601808162
:10295000811103C022E030E002C023E030E061E4F6
:10296000CE0101960E948905F2E08F0E911C0FEFB7
:10297000A01AB00A1FEFC11AD10A2AE6621626E091
:102980007206C1F66BE372E085E595E00E945D0397
:102990006B8185E595E00E943E0E68E372E085E577
:1029A00095E00E945D0369817A8185E595E00E944A
:1029B0002C0ECFC00E94860ACCC080918C04E82FD8
:1029C000F0E0EE0FFF1FE659F94F20918A04309195
:1029D0008B04318320838F5F0E94AA0FBAC080913D
:1029E0008C04E82FF0E0EE0FFF1FE659F94F20911D
:1029F0008A0430918B043183208320916A063091C0
:102A00006B062130310509F0A4C08F3F09F4A1C045
:102A100062E372E0BBC20E946D049BC00E949E0FE5
:102A20004B015C0167E272E080917E0690917F0627
:102A30000E945D030E943F0A80917E0690917F066E
:102A40000E9496030E94CB090E94A70965E272E0EA
:102A500080917E0690917F060E945D0360915405EF
:102A600080917E0690917F060E94AB0EB6E4EB2E1D
:102A7000B6E0FB2E00E010E0F701819191917F011B
:102A800097FD16C0C8010E94520962E272E080916F
:102A90007E0690917F060E945D03A501940161E08E
:102AA000C8010E94C205B501A401C8010E942E08F8
:102AB0000F5F1F4F02311105F9F680E090E00E9490
:102AC000040400917E0610917F06833409F065C3EB
:102AD00081E090E00E940404863609F05EC382E043
:102AE00090E00E940404873609F057C369C28091C0
:102AF0008C04E82FF0E0EE0FFF1FE659F94F20910C
:102B00008A0430918B04318320838F5F0E94450EAD
:102B100020C020918A0430918B0480917E06909190
:102B20007F062F3F310588F4209354056DE972E04C
:102B30000E945D0360918A0470918B0480917E06EF
:102B400090917F060E94E20D04C067E772E00E9448
:102B50009A0310928C0410928B0410928A04EAE675
:102B6000F6E01192119216E0EA37F107D1F7809161
:102B700068069091690697FDDEC060E082E00E94E1
:102B8000F90E6AE070E080E090E00E94640F0E941D
:102B9000BD0E8C019093FA058093F90561E082E007
:102BA0000E94F90E6AE070E080E090E00E94640FFD
:102BB0000E94BD0E9093F8058093F705801B910B42
:102BC00020910001309101012817390754F020911C
:102BD000020130910301821793070CF090C010E0BE
:102BE00001C011E08091F605811709F488C01093A7
:102BF000F605612F8CE00E94F90E0E949E0F9B014A
:102C0000AC01612F81E10E94510B809154058A3003
:102C100008F475C066EF72E080917E0690917F06A1
:102C20000E945D0365E170E080917E0690917F06D1
:102C30000E94260E69EE72E080917E0690917F06DA
:102C40000E945D0365E170E080917E0690917F06B1
:102C50000E94260E65EE72E080917E0690917F06BE
:102C60000E945D0360EE72E080917E0690917F0687
:102C70000E945D03612F80917E0690917F060E94E5
:102C80003E0E65ED72E080917E0690917F060E9477
:102C90005D036091F90480917E0690917F060E9409
:102CA0003E0E6CEC72E080917E0690917F060E9451
:102CB0005D034091F5045091F6046091F704709122
:102CC000F80480917E0690917F060E94D90D62ECF7
:102CD00072E080917E0690917F060E945D03609174
:102CE000AF047091B00480917E0690917F060E949F
:102CF000DC0D80917E0690917F060E949603809164
:102D000054058431C0F06FE373E080917E069091AA
:102D10007F060E945D036091F7057091F805809130
:102D2000F9059091FA05681B790B80917E069091C8
:102D30007F060E942C0E809154058A3030F50E9447
:102D40009E0F00917A0610917B0620917C063091AF
:102D50007D066B017C01C01AD10AE20AF30AF7FE74
:102D6000D6C000910A0110910B0120910C01309105
:102D70000D016B017C01C01AD10AE20AF30AE6E4F4
:102D8000F6E0ACE0B5E040E0BBC036E4A32E36E0B0
:102D9000B32E4AEFE42E44E0F42E52E4C52E51E067
:102DA000D52E00E010E0F501819091905F0118149C
:102DB00019040CF085C0F6016080862D0E94D00EAB
:102DC000782EF7018081781609F47AC0708268E362
:102DD00073E080917E0690917F060E945D03B401AE
:102DE00080917E0690917F060E94260E6BE273E032
:102DF00080917E0690917F060E945D03662D8091F2
:102E00007E0690917F060E943E0E68E273E08091FC
:102E10007E0690917F060E945D036BE173E08091D6
:102E20007E0690917F060E945D03672D80917E064D
:102E300090917F060E943E0E60E173E080917E06D5
:102E400090917F060E945D036091F90480917E0657
:102E500090917F060E943E0E67E073E080917E06AF
:102E600090917F060E945D03F801EE0FFF1FEE0FA9
:102E7000FF1FEF54FB4F408151816281738180912C
:102E80007E0690917F060E94D90D6DEF72E08091D1
:102E90007E0690917F060E945D03F801EE0FFF1FF2
:102EA000E357FB4F6081718180917E0690917F0690
:102EB0000E94DC0D80917E0690917F060E94960311
:102EC0000F5F1F4FFFEFEF1AFF0A22E0C20ED11C67
:102ED0000231110509F067CF32CF0D911D912D916F
:102EE0003C911397C701B601601B710B820B930BCA
:102EF00097FF41E014968AE696E08E179F0729F027
:102F00002191319137FDF6CFE8CF4423C1F10E94E2
:102F10009E0F4B015C0186E4E82E86E0F82E00E06F
:102F200010E0F701819191917F0197FD0FC0A501FC
:102F3000940160E0C8010E94C2058091540585306B
:102F400028F0B501A401C8010E942E080F5F1F4F91
:102F50000231110531F780910E0190910F01A0917E
:102F60001001B0911101880E991EAA1EBB1E8092FD
:102F70007A0690927B06A0927C06B0927D060E9413
:102F80004C0332CB0E943D0B65E572E080917E06DA
:102F900090917F06DCCD40E050E0BA010E9406042B
:102FA0006AE472E080917E0690917F060E945D0344
:102FB000602F80917E0690917F060E94AB0EC9CD56
:102FC00083E090E00E940404682EF4E1F81718F4FE
:102FD00061ED71E0E4C0C8010E9496036FEB71E0FF
:102FE00080917E0690917F060E945D0380E090E0D4
:102FF0000E940404682F80917E0690917F060E94B3
:10300000560381E090E00E940404682F80917E06C0
:1030100090917F060E94560382E090E00E94040493
:10302000682F80917E0690917F060E94560366EB82
:1030300071E080917E0690917F060E945D0383E09F
:1030400090E00E940404682F70E080917E069091C9
:103050007F060E94260E80917E0690917F060E9438
:103060009603712C04E010E0671409F49BC0C801BA
:103070000E9404048B83C80101960E940404F82E68
:10308000C80102960E940404882E912C982C882452
:103090008F0C911CC80103960E940404F82EC801ED
:1030A00004960E940404A82EB12CBA2CAA24AF0CBA
:1030B000B11CC80105960E940404F82EC8010696AA
:1030C0000E940404C82ED12CDC2CCC24CF0CD11CA3
:1030D000C80107960E940404F82EC80108960E94B1
:1030E000040490E0982F88279C012F0D311D790151
:1030F000075F1F4F6DEA71E080917E0690917F0619
:103100000E945D036B8180917E0690917F060E94F4
:1031100056036BEA71E080917E0690917F060E94D3
:103120005D03B40180917E0690917F060E94DC0DC4
:1031300069EA71E080917E0690917F060E945D03AE
:10314000B50180917E0690917F060E94DC0D67EAB2
:1031500071E080917E0690917F060E945D03B6012A
:1031600080917E0690917F060E94DC0D65EA71E0F9
:1031700080917E0690917F060E945D03B701809149
:103180007E0690917F060E94DC0D80917E069091D4
:103190007F060E949603739467CF6CEE71E0C801BE
:1031A0000E949A0360E172E080917E0690917F0612
:1031B0000E945D03C0907A06D0907B06E0907C066A
:1031C000F0907D060E949E0F97018601061B170B4B
:1031D000280B390BB901A80180917E0690917F06DA
:1031E0000E94D90D62E072E080917E0690917F0688
:1031F0000E945D0380917E0690917F060E94960357
:10320000A8CCF999FECF92BD81BDF89A992780B5D7
:103210000895262FF999FECF1FBA92BD81BD20BD1A
:103220000FB6F894FA9AF99A0FBE0196089597FB93
:10323000072E16F4009407D077FD09D00E9462197A
:1032400007FC05D03EF4909581959F4F08957095A9
:1032500061957F4F0895A1E21A2EAA1BBB1BFD01A9
:103260000DC0AA1FBB1FEE1FFF1FA217B307E40765
:10327000F50720F0A21BB30BE40BF50B661F771FBD
:10328000881F991F1A9469F760957095809590959D
:103290009B01AC01BD01CF010895EE0FFF1F05900A
:1032A000F491E02D0994A29FB001B39FC001A39FA8
:1032B000700D811D1124911DB29F700D811D11246F
:1032C000911D0895AA1BBB1B51E107C0AA1FBB1F7C
:1032D000A617B70710F0A61BB70B881F991F5A95A2
:1032E000A9F780959095BC01CD01089581E090E00B
:0A32F000F8940C947B19F894FFCFBA
:1032FA006E0064000200D007000060EA000030752A
:10330A0000000D1307080E0000000000DD0246024F
:10331A0074022A03A502830297026B006C006D00F7
:10332A000000000000000000000000000000000093
:10333A000001030004000500060007000800090058
:10334A000A000B000C000E000F0010001100120002
:10335A00130014001500FFFFFFFFFFFF000001002C
:10336A000200030004000500060007000800FFFF32
:10337A0009000A000B000C000D000E000F001000DF
:06338A0011000D0A000015
:00000001FF
