:100000000C94CE010C94F6010C94F6010C94420F62
:100010000C941D0F0C94F80E0C94F6010C94F60140
:100020000C94F6010C94F6010C94F6010C94F60174
:100030000C94F6010C94F6010C94F6010C94F60164
:100040000C945A140C94F6010C9430160C940A1665
:100050000C94F6010C94F6010C94F6010C94F60144
:100060000C94F6010C94F6018A032B097204BF0468
:10007000A8052B092B09EE06F1062B0980079F071F
:100080002B092B092B092B09D307DA07DD077B087E
:100090002B09E3082C0043002048656C6C6F00209E
:1000A000004420616E616C6F6720746872657368CC
:1000B0006F6C64732073657420746F200044204556
:1000C0004550524F4D20436F6E6669673A20004499
:1000D000206E6F20636F6E66696720696E204545EC
:1000E00050524F4D00206D696C6C697365636F6E83
:1000F00064730044204E657874207265706F72746A
:1001000020696E20002C20004420537461747573A4
:100110003A20004420544350206E6F7420636F6E69
:100120006E65637465640041004420636F6E6669A8
:100130006720736176656400442072656D6F766533
:100140006420004D20636C6561726564200044206A
:10015000646566696E65642000746F6F206D616E02
:100160007920616E616C6F672070696E7300207317
:10017000697A6520002C004420676F7420004D20B0
:10018000726573746F72696E6720636F6E666967FC
:100190002066726F6D20454550524F4D3A20004DFC
:1001A000206E6F20636F6E66696720696E2045451B
:1001B00050524F4D002000636F6D6D616E642000E2
:1001C0004572726F723A2000496C6C6567616C20F1
:1001D00070696E2073706563696669636174696FC5
:1001E0006E20004A756E20203620323032302031A9
:1001F000323A34303A32390020636F6D70696C6581
:100200006420004E414E4F00206F6E20004172640A
:1002100075436F756E7465722056342E3236002C1D
:100220002072656A65637420002C20636F756E749C
:1002300020002073657120002C2068697374496464
:10024000782000206368616E67656420746F200009
:100250004D2070696E200029206973206F7574200D
:100260006F6620626F756E647300202876616C750E
:10027000652000706172616D65746572206E756DC8
:1002800062657220006D697373696E6720706172B8
:10029000616D65746572206E756D62657220002CEB
:1002A0000042002C004E002C002C002C002C002CB6
:1002B0000049002C002C002C002C0056002F00744C
:1002C000006F757400206D0070002D0066007200D4
:1002D000500041005300580054002F0044004300D8
:1002E000520044004572726F723A2077726F6E67E7
:1002F00020616E616C6F6720726561642073746148
:100300007465002C20002C20312C20004D20002C66
:1003100020002C20302C20004D2000FFFF02030481
:1003200005060708090A0B0C0D0E0F101112131405
:10033000152F0040003A002C002C2000200048001F
:1003400000000000240027002A0000000000250013
:1003500028002B00000000002300260029000404D0
:10036000040404040404020202020202030303035D
:100370000303010204081020408001020408102039
:100380000102040810200000000800020100000320
:10039000040700000000000000009E1B11241FBE87
:1003A000CFEFD8E0DEBFCDBF11E0A0E0B1E0E4EADE
:1003B000FEE302C005900D92A835B107D9F725E0FC
:1003C000A8E5B1E001C01D92A83FB207E1F711E036
:1003D000CEECD1E004C02197FE010E94411CCD3C2F
:1003E000D107C9F70E9464160C94501F0C940000AA
:1003F000AF92BF92CF92DF92EF92FF920F931F9333
:10040000CF93DF9300D000D000D0CDB7DEB75C0132
:10041000042F7F936F938FE291E09F938F93CE0190
:1004200001967C019F938F930E94661CF7010190B7
:100430000020E9F731971E2F1E190F900F900F9093
:100440000F900F900F90163060F467018C2D8E196D
:10045000811738F4F60161916F01C5010E94C90945
:10046000F5CF002321F06CE2C5010E94C909269650
:100470000FB6F894DEBF0FBECDBFDF91CF911F91B5
:100480000F91FF90EF90DF90CF90BF90AF900895C5
:10049000CF92DF92EF92FF920F931F93CF930E9420
:1004A0004E146B017C018091CF019091D0010E948C
:1004B000F4150E94E00F68E970E08091CF019091FF
:1004C000D0010E94F815C701B6010E94010D66E92E
:1004D00070E08091CF019091D0010E94BB150BE19B
:1004E00013E081E0C0E0F80194919F3F91F0811109
:1004F00008C064E970E08091CF019091D0010E9422
:10050000BB156C2F8091CF019091D0010E945F1399
:1005100080E0CF5F0F5F1F4FC63129F78091CF0179
:100520009091D0010E94F4150E94650C0E940F0C5E
:10053000C0E01DE280912105C81778F41C9FC0011E
:1005400011248B5F9C4F0E9406118091CF019091E6
:10055000D0010E94F415CF5FEDCFCF911F910F9185
:10056000FF90EF90DF90CF9008952F923F924F929F
:100570005F926F927F929F92AF92BF92CF92DF92E3
:10058000EF92FF920F931F93CF93DF9300D0CDB7DD
:10059000DEB7E82F8C3221F5E0919F01EF3008F0B3
:1005A000E4C681E08E0F80939F0104E0E09FF0019C
:1005B0001124E55AFE4F80919B0190919C01A091DE
:1005C0009D01B0919E0180839183A283B383109299
:1005D0009B0110929C0110929D0110929E01C5C634
:1005E00080ED8E0F8A3048F520919B0130919C015F
:1005F00040919D0150919E01AAE0B0E00E94471CED
:10060000AB01BC0140535109610971098E2FEE0FF6
:10061000990BAA0BBB0B840F951FA61FB71F8093C6
:100620009B0190939C01A0939D01B0939E018091AA
:100630009F018F5F80935A0198C68FE98E0F8A3190
:1006400008F093C6E0935901A0919F01AF3098F450
:1006500014E0A19FD0011124A55ABE4F40919B01E7
:1006600050919C0160919D0170919E014D935D930D
:100670006D937C9313971E2F809158018230D0F197
:1006800067E771E08CE295E00E94BB155BE5C52E43
:1006900051E0D52EE12CF12C80919F0190E08E1538
:1006A0009F05BCF0E114F10431F065E771E08CE2E4
:1006B00095E00E94BB15F6014191519161917191B4
:1006C0006F018CE295E00E942A13FFEFEF1AFF0AF8
:1006D000E3CF612F8CE295E00E94B4156EE671E0E5
:1006E0008CE295E00E94BB1560915A018CE295E086
:1006F0000E946613812F110F990BAA0BBB0BFC01F3
:10070000E156F109E631F10508F0A5C5EC5CFF4FB3
:100710000C94411C40905B0150905C0160905D0125
:1007200070905E01142D0FEF4016510461047104A6
:1007300011F008F093C5842D0E949211882309F4CA
:100740008DC59091C90129EC35E080E0981761F0E2
:100750002D5E3F4FF90170974081141711F08F5FA4
:10076000F5CF8F3F09F07AC5E42DF0E0E55EFC4F50
:10077000E490842D0E949E11F82E1FEF81130EC06D
:10078000F09021050E944E14AB01BC012DE2F29EB7
:10079000C00111248B5F9C4F0E94B21121E043E005
:1007A00050E062E070E081E00E943310882309F499
:1007B00052C5AF2CB12C3DE2F39EF0011124EB5F4A
:1007C000FC4F81E040915F015091600160916101B7
:1007D00070916201433051056105710509F080E0B7
:1007E00082838DE28A9D80018B9D100D11240B5F09
:1007F0001C4FF801408220E041E050E060E070E0F2
:1008000082E00E943310882329F080916301F8016F
:10081000838302C0F801138220E048EE53E061E0D8
:1008200070E083E00E94331081110CC082E090E000
:10083000A0E0B0E08093670190936801A093690104
:10084000B0936A012DE22A9DC0012B9D900D1124C9
:100850008C010B5F1C4F680180916701F801818357
:1008600020E046E150E061E070E084E00E94331057
:10087000882379F090906B01892D0E949211882332
:1008800009F4EEC4892D0E949E118F3F09F0E8C43F
:10089000EBC4F8018381882311F062E001C060E0BD
:1008A0008E2D0E94D6138F2D0E949E0D8DE28A9D63
:1008B000F0018B9DF00D1124EB5FFC4F4082809185
:1008C0002105F81203C0F394F09221056EE471E063
:1008D0008091CF019091D0010E94BB15C6010E946A
:1008E000061128C3C0905B01D0905C01E0905D01CF
:1008F000F0905E018C2D0E949E11FFEFCF16D10467
:10090000E104F10411F008F01AC58F3F09F417C58E
:10091000082F10E00E944E142DE2209FF001219F2D
:10092000F00D1124EB5FFC4F67A370A781A792A77E
:1009300011A212A213A214A216A215A2F8948189E0
:100940009289A389B48985879687A787B08B1582FA
:10095000168217821086118E1186128613861486CF
:10096000158A168A178A108E789463E471E0809154
:10097000CF019091D0010E94BB156C2DE2C0409038
:100980005B0150905C0160905D0170905E01842D70
:100990000E949E11182F0FEF40165104610471043C
:1009A00011F008F058C48F3F09F455C4E82EF12C1B
:1009B0002DE2829FF0011124EB5FFC4F84818111B5
:1009C00004C0812F0E945B0D3FC08091C901A9EC3A
:1009D000B5E090E08917C1F12D913C9111975396A4
:1009E0002E173F0711F09F5FF5CF9F3F69F1282F2A
:1009F00030E003E1692F70E0AB014F5F5F4F4217BA
:100A00005307ACF4069FD001079FB00D1124A753E4
:100A1000BA4F049FF001059FF00D1124E753FA4FE0
:100A2000402F01900D924A95E1F79F5FE3CF8150EF
:100A30008093C90133E1839FF0011124E753FA4FFA
:100A400011821082128213820DE20E9DC0010F9D51
:100A5000900D1124FC01E75FFC4F6F01E12EF12C9A
:100A60005701FFEFAF1ABF0A80912105282F30E010
:100A7000A216B3060CF04EC00E9DF0010F9DF00DB6
:100A80001124EB5FFC4F8481811104C081E0810F50
:100A90000E945B0D0E9DC0010F9D900D11248B5F78
:100AA0009C4F0A9DF0010B9DF00D1124EB5FFC4F54
:100AB000DC01202F01900D922A95E1F7FC01848141
:100AC000811103C0812F0E949E0DF6018081882331
:100AD000F9F09091C901E9ECF5E080E00A9D900100
:100AE0000B9D300D11242B5F3C4F0E9DA0010F9DDF
:100AF000500D11244B5F5C4F981751F0608171814C
:100B00006217730711F4518340838F5F7396F4CF9C
:100B10001F5FA4CF815080932105FDE28F9FC0010C
:100B2000112440E050E0BA018B5F9C4F0E94B2114B
:100B300068E371E08091CF019091D0010E94BB15D4
:100B4000642D8091CF019091D0010E94661383C3E0
:100B50001A82198263E4CE0101960E94C90966E6F1
:100B6000CE0101960E94C90962E3CE0101960E945E
:100B7000C90960910D0170910E0180910F01909152
:100B8000100128EEC22E23E0D22EE12CF12CA70179
:100B900096010E941F1CCA01B90141E0CE010196D5
:100BA0000E94F8016091090170910A0180910B0186
:100BB00090910C01A70196010E941F1CCA01B90166
:100BC00041E0CE0101960E94F8016091020170910E
:100BD00003018091040190910501A70196010E94F3
:100BE0001F1CCA01B90141E0CE0101960E94F80123
:100BF000609100017091010141E0CE0101960E94D7
:100C0000F801609107017091080141E0CE01019661
:100C10000E94F8016091060170E040E0CE0101966B
:100C20000E94F80169E6CE0101960E94C90960910F
:100C3000040370E041E0CE0101960E94F80160914A
:100C4000580170E041E0CE0101960E94F8016091E8
:100C5000220570E041E0CE0101960E94F80160910A
:100C6000C80170E041E0CE0101960E94F801609158
:100C7000C50170E040E0CE0101960E94F80166E7F0
:100C8000CE0101960E94C909F12C3DE2E32E43E119
:100C9000942E80912105F81608F098C0CF2CD12C05
:100CA000EC9C8001ED9C100D11240B5F1C4FC801C2
:100CB0000E94EE10F8019481992309F44CC08F3FF3
:100CC00009F449C0A82EB12C608170E041E0CE014A
:100CD00001960E94F801F8018281811103C062E04F
:100CE00070E002C063E070E041E0CE0101960E9436
:100CF000F801EC9C8001ED9C100D11240B5F1C4F42
:100D0000F801638170E041E0CE0101960E94F80194
:100D1000F801618170E041E0CE0101960E94F80186
:100D20009A9C80019B9C100D112407531A4FF801C7
:100D3000638170E041E0CE0101960E94F801F80164
:100D40006481758141E0CE0101960E94F801F801AD
:100D5000668177812FC0EC9C8001ED9C100D1124E1
:100D60000B5F1C4FF801608170E041E0CE010196FD
:100D70000E94F801F8018281811103C062E070E0F5
:100D800002C063E070E041E0CE0101960E94F801EC
:100D9000EC9C8001ED9C100D11240B5F1C4FF801A1
:100DA000638170E041E0CE0101960E94F801F801F4
:100DB000618170E040E0CE0101960E94F80161E699
:100DC000CE0101960E94C909F39463CF60E0CE0181
:100DD00001960E94C90969E271E088C10E94480237
:100DE0003AC221E040E15EE061E070E080E00E9414
:100DF0003310882309F42FC221E040E15EE061E076
:100E000070E081E00E943310882309F424C221E0BD
:100E100040E15EE060E070E082E00E9433108823F1
:100E200009F419C221E044E650E060E070E083E09C
:100E30000E943310882309F40EC220915B01309187
:100E40005C0140915D0150915E01A8EEB3E00E940B
:100E5000471C60930D0170930E0180930F019093D6
:100E6000100120915F01309160014091610150912A
:100E700062010E94471C6093090170930A018093EC
:100E80000B0190930C01209163013091640140911A
:100E90006501509166010E94471C609302017093A6
:100EA0000301809304019093050180916701909163
:100EB0006801909301018093000120E040E157E236
:100EC00060E070E084E00E943310882341F080915C
:100ED0006B0190916C01909308018093070120E0D1
:100EE00044E650E061E070E085E00E943310882322
:100EF00021F080916F01809306010E94650CABC1C7
:100F000080915B0190915C01A0915D01B0915E01C7
:100F10000197A105B10509F09EC180915A0188236E
:100F200009F499C167E271E08091CF019091D001FD
:100F30000E94BB158091CF019091D00141C1C0901A
:100F40005B01D0905C01E0905D01F0905E011C2D92
:100F5000FFEFCF16D104E104F10411F008F0EFC166
:100F6000CC2009F4ECC18C2D0E949211882309F445
:100F7000E6C19091C90129EC35E080E0981761F055
:100F80002D5E3F4FF90170974081141711F08F5F6C
:100F9000F5CF8F3F09F0D3C18C2D0E949E118F3F5A
:100FA00009F0CDC158C163E171E08CE295E00E9487
:100FB000F81551C10E94E9114EC10E944E142B0137
:100FC0003C018091CF019091D0010E94F41568E01E
:100FD00071E08091CF019091D0010E94BB150E94D9
:100FE000E00F8091CF019091D0010E94F4150E94F2
:100FF000650C0E940F0C10E00DE28091210518177E
:10100000D0F4019FC00111249C012B5F3C4F79015A
:10101000C9010E94061165E071E08091CF019091B5
:10102000D0010E94BB15A301920161E0C7010E949B
:10103000EC091F5FE2CF80E090E00E946216009111
:10104000CF011091D001833409F07BC181E090E0A1
:101050000E946216863609F074C182E090E00E9418
:101060006216823309F06DC16DEB70E0C8010E9419
:10107000BB1583E090E08C010F5F1F4F0E9462164A
:10108000811165C18091CF019091D0010E94F4152A
:1010900063EF70E08091CF019091D0010E94BB1569
:1010A000C0900003D0900103E0900203F09003038E
:1010B00080910D0190910E01A0910F01B09110014E
:1010C000C80ED91EEA1EFB1E0E944E14970186010F
:1010D000061B170B280B390BB901A8018091CF0112
:1010E0009091D0010E942A1365EE70E08091CF01AB
:1010F0009091D0015CCF21E04FEF53E061E070E0D0
:1011000080E00E943310882309F4A5C021E04FEF4E
:1011100053E061E070E081E00E943310882309F41D
:101120009AC08091C90120915B0130915C018823B4
:10113000C1F03093CE052093CD05823020F030935E
:10114000E1052093E00520915F013091600130932B
:10115000D0052093CF05823020F03093E305209313
:10116000E20561EA70E08091CF019091D0010E9488
:10117000BB1540915B0150915C0160915D017091E4
:101180005E018091CF019091D0010E942A136FE9F6
:1011900070E08091CF019091D0010E94BB15009129
:1011A000CF011091D00140915F0150916001609199
:1011B0006101709162012AE0C8010E94B812C80161
:1011C0000E94F41548C021E041E050E060E070E08A
:1011D00080E00E9433108823F1F121E04AE050E0E2
:1011E00060E070E081E00E9433108823A1F121E0EB
:1011F00041E050E060E070E082E00E94331088231C
:1012000051F121E04AE050E060E070E083E00E94AC
:101210003310882301F121E041E050E060E070E00C
:1012200084E00E9433108823B1F080915B018093A9
:10123000040380915F018093580180916301809342
:101240002205809167018093C80180916B01809392
:10125000C5010E940F0C0E94D71087C0842D01C0C9
:10126000892D0E94C310F7CFC8010E94EE108F3F56
:10127000D1F48091C901823088F491E0980F909365
:10128000C90103E1809FF0011124E753FA4F158251
:10129000148217821682D182C08205C00E94131068
:1012A00069E571E023CF9DE29A9DF0019B9DF00DD1
:1012B0001124EB5FFC4F91E09483282E312C23E125
:1012C000829F8001112407531A4FF80142829382B2
:1012D00060E08E2D0E94D613E92DF0E0E55EFC4F14
:1012E000849161E00E94D61321E04FEF53E061E06A
:1012F00070E085E00E943310882339F080916F01FF
:1013000090917001F8019583848321E04FEF53E0C1
:1013100061E070E086E00E943310882309F4C6CAB9
:1013200083E1829DF001839DF00D1124E753FA4F74
:10133000809173019091740197838683B7CA8C2D35
:1013400090CF6FEC70E0C8010E94F815A1CE682F15
:101350008091CF019091D0010E94B415C8018115F0
:1013600012E0910709F48ECE86CE0F900F90DF9198
:10137000CF911F910F91FF90EF90DF90CF90BF9092
:10138000AF909F907F906F905F904F903F902F9085
:101390000895FF920F931F93CF93DF93EC01F62EE6
:1013A00008811981C8010E94621690E02F2D0F2C30
:1013B000000C330B8217930721F06F2DC8010E9498
:1013C000E91B88819981019699838883DF91CF9168
:1013D0001F910F91FF9008952F923F924F925F922D
:1013E0006F927F928F929F92AF92BF92CF92DF9235
:1013F000EF92FF921F93CF93DF93CDB7DEB7A29703
:101400000FB6F894DEBF0FBECDBF9A8F898F162F0F
:10141000F894A98DBA8D1D968D909D90AD90BC903D
:10142000509789829A82AB82BC8251968D909D9012
:10143000AD90BC9054978D829E82AF82B8861596EF
:101440008D909D90AD90BC9018978F8E98A2A9A278
:10145000BAA219968D909D90AD90BC901C978986EC
:101460009A86AB86BC8659966C91599755968D9005
:101470009D90AD90BC9058978D8A9E8AAF8AB88E09
:1014800078944D805E806F80788489809A80AB806C
:10149000BC80481859086A087B08E98DFA8D81A13B
:1014A00092A1A3A1B4A18F8C98A0A9A0BAA0881AD8
:1014B000990AAA0ABB0A8D869E86AF86B88A7501EC
:1014C0006401C61AD108E108F10825A036A011115F
:1014D000D1C087A190A5A1A5B2A549015A01881A3A
:1014E000990AAA0ABB0A8B8E9C8EAD8EBE8E809105
:1014F000090190910A01A0910B01B0910C01898B17
:101500009A8BAB8BBC8B88159905AA05BB0508F097
:101510004EC08091000190910101A0E0B0E0C8169A
:10152000D906EA06FB0660F1809102019091030161
:10153000A0910401B091050184159505A605B70594
:10154000F8F480900D0190900E01A0900F01B090E2
:10155000100189899A89AB89BC8988159905AA05E2
:10156000BB0571F0F8948D809E80AF80B884A98D02
:10157000BA8D1D968D929D92AD92BC9250974EC0A1
:10158000F894E98DFA8D258736874787508B218B14
:10159000328B438B548B789429013A0189809A804D
:1015A000AB80BC80481859086A087B0838C0809115
:1015B0000D0190910E01A0910F01B09110018B8C43
:1015C0009C8CAD8CBE8C88159905AA05BB0508F0CE
:1015D0000EC18091000190910101A0E0B0E0C81619
:1015E000D906EA06FB0608F402C180910201909137
:1015F0000301A0910401B091050184159505A6058C
:10160000B70508F0F4C0F8948D819E81AF81B8854C
:10161000E98DFA8D85879687A787B08B7894F894A3
:10162000A98DBA8D59961C925997FD01158A168A73
:10163000178A108E78948F8C98A0A9A0BAA0A98D33
:10164000BA8D91968D929D92AD92BC929497E985B8
:10165000FA859696FC93EE93959797962D933D93E6
:101660004D935C939A979B968C919B978F5F9B96DB
:101670008C9308C062EE72E08091CF019091D0010E
:101680000E94BB1560EE72E08091CF019091D00175
:101690000E94BB15E98DFA8D60818091CF019091F8
:1016A000D0010E945F136EED72E08091CF019091A6
:1016B000D0010E94BB154F8D58A169A17AA18091DC
:1016C000CF019091D0010E942A136CED72E08091BD
:1016D000CF019091D0010E94BB15B701A601809166
:1016E000CF019091D0010E942A136AED72E080919F
:1016F000CF019091D0010E94BB154D855E856F850D
:1017000078898091CF019091D0010E942A1368EDD1
:1017100072E08091CF019091D0010E94BB15B3017E
:10172000A2018091CF019091D0010E942A1366ED11
:1017300072E08091CF019091D0010E94BB15698524
:101740007A85621973098091CF019091D0010E942E
:101750007813111112C064ED72E08091CF01909165
:10176000D0010E94BB15A98DBA8D9B966C9180917A
:10177000CF019091D0010E945F13C114D104E10404
:10178000F104C1F062ED72E08091CF019091D0013F
:101790000E94BB156D897E898F89988DA70196015E
:1017A0000E941F1CBA01A9018091CF019091D00124
:1017B0000E942A138091CF019091D001A2960FB67A
:1017C000F894DEBF0FBECDBFDF91CF911F91FF9088
:1017D000EF90DF90CF90BF90AF909F908F907F90D1
:1017E0006F905F904F903F902F900C94F415A296BD
:1017F0000FB6F894DEBF0FBECDBFDF91CF911F9122
:10180000FF90EF90DF90CF90BF90AF909F908F9020
:101810007F906F905F904F903F902F9008956BEB6B
:1018200072E08091CF019091D0010E94BB15609130
:1018300004038091CF019091D0010E945F1369EB66
:1018400072E08091CF019091D0010E94BB15609110
:1018500058018091CF019091D0010E945F1367EBF6
:1018600072E08091CF019091D0010E94BB156091F0
:1018700022058091CF019091D0010E945F1365EB0A
:1018800072E08091CF019091D0010E94BB156091D0
:10189000C8018091CF019091D0010E945F1363EB4A
:1018A00072E08091CF019091D0010E94BB156091B0
:1018B000C5018091CF019091D0010E945F1380916A
:1018C000CF019091D0010C94F415CF92DF92EF925A
:1018D000FF9261EB72E08091CF019091D0010E9464
:1018E000BB1560910D0170910E0180910F019091D7
:1018F000100128EEC22E23E0D22EE12CF12CA701FC
:1019000096010E941F1CBA01A9018091CF019091FC
:10191000D0010E942A136FEA72E08091CF0190916A
:10192000D0010E94BB156091090170910A0180915C
:101930000B0190910C01A70196010E941F1CBA0196
:10194000A9018091CF019091D0010E942A136DEAE4
:1019500072E08091CF019091D0010E94BB156091FF
:101960000201709103018091040190910501A7018A
:1019700096010E941F1CBA01A9018091CF0190918C
:10198000D0010E942A136BEA72E08091CF019091FE
:10199000D0010E94BB1560910001709101018091FE
:1019A000CF019091D0010E94781369EA72E0809192
:1019B000CF019091D0010E94BB15609107017091F9
:1019C00008018091CF019091D0010E94781367EABD
:1019D00072E08091CF019091D0010E94BB1560917F
:1019E00006018091CF019091D0010E945F138091F8
:1019F000CF019091D001FF90EF90DF90CF900C94A9
:101A0000F415CF92DF92EF92FF926B017C0165EAB1
:101A100072E08091CF019091D0010E94BB15B70177
:101A2000A6018091CF019091D0010E942A1363EA10
:101A300072E08091CF019091D0010E94BB1560911E
:101A4000C6017091C7018091CF019091D0010E9491
:101A5000781361EA72E08091CF019091D0010E94E9
:101A6000BB154091BD015091BE016091BF017091C5
:101A7000C0018091CF019091D0010E942A136FE99B
:101A800072E08091CF019091D0010E94BB156091CE
:101A9000BB017091BC018091CF019091D0010E9457
:101AA00078138091CF019091D001FF90EF90DF905B
:101AB000CF900C94F4152DE2829FC0011124FC01FB
:101AC000EB5FFC4F208130E0F901E55EFC4FE491D3
:101AD0008E2F90E0FC01EE58FC4F4491FC01E25A3D
:101AE000FC4F8491882331F1F901EE55FE4F9FEFB1
:101AF00090838250E82FF0E0EE0FFF1FE95EFE4F6B
:101B0000A081B1819C91E42FE095E923EC939C9115
:101B1000911112C04091680021E030E0B90102C08B
:101B2000660F771F8A95E2F7CB0180958423809317
:101B3000680002C080E0089581E008959DE2899FD9
:101B4000F0011124EB5FFC4F408150E0FA01E55EAB
:101B5000FC4FE4912E2F30E0F901EE58FC4F6491D8
:101B6000F901E25AFC4F2491222359F1FA01EE5572
:101B7000FE4F80832250822F90E0FC01EE0FFF1F6A
:101B8000E85AFC4FA591B4913C91FC01E854FE4FFA
:101B90003083880F991FDC01A95EBE4F0D90BC9168
:101BA000A02DEC91E62BEC933091680081E090E061
:101BB00001C0880F2A95EAF7832B8093680081E0A3
:101BC000089580E008954F925F926F927F928F9276
:101BD0009F92AF92BF92FF920F931F93CF93DF9389
:101BE000EC01F62E8A010E944E14AB01BC018B8DD4
:101BF0009C8DAD8DBE8D4A015B01881A990AAA0A97
:101C0000BB0A898190E0A0E0B0E02A81881699069D
:101C1000AA06BB0680F48F8D82134EC089859A85F3
:101C2000AB85BC850196A11DB11D89879A87AB87BD
:101C3000BC8782E542C08F8D82133AC098A1891774
:101C400049F18D819E81AF81B8850196A11DB11D9D
:101C50008D839E83AF83B887498B5A8B6B8B7C8B2C
:101C60008A8D811109C04D875E876F87788B81E0EF
:101C70008A8F898D8F5F898F8D899E89AF89B88D75
:101C8000880D991DAA1DBB1D8D8B9E8BAF8BB88FA8
:101C900083E40FC08D899E89AF89B88D880D991D09
:101CA000AA1DBB1D8D8B9E8BAF8BB88F80E501C0AD
:101CB00087E49F8D98A301C088E590910403992340
:101CC00081F19091FF029F5F9093FF02943110F099
:101CD0001092FF02E091FF022091A0013091A1013A
:101CE000D9011196B093A101A093A0019FE0E99FB3
:101CF000F0011124ED52FE4F3183208398819283AD
:101D00004B8C5C8C6D8C7E8C468257826086718693
:101D10009F8D93831583048382869386A486B586DC
:101D200086874B8F5C8F6D8F7E8FFF8EDF91CF917B
:101D30001F910F91FF90BF90AF909F908F907F90D9
:101D40006F905F904F900895EF92FF920F931F93C3
:101D5000CF93DF9390E0FC01EE0FFF1FE85AFC4F9A
:101D6000A591B4910C91DC01A854BE4F1C91FC01CB
:101D7000EE0FFF1FE95EFE4F0190F081E02D208104
:101D8000102712230C93112361F1FC01EC5EFE4F2E
:101D9000C081D1E0FC01EF5EFE4FF0808DE2E82EC5
:101DA000FC16F8F08D2F8123C9F0EC2FF0E0EE55F2
:101DB000FE4F208130E02F3F310581F061E08D2F13
:101DC000802309F460E0E29EC001E39E900D11249F
:101DD00040E050E08B5F9C4F0E94E30DDD0FCF5F32
:101DE000DFCFDF91CF911F910F91FF90EF9008957A
:101DF0001F920F920FB60F9211242F933F934F9380
:101E00005F936F937F938F939F93AF93BF93EF9362
:101E1000FF9382E00E94A40EFF91EF91BF91AF91DA
:101E20009F918F917F916F915F914F913F912F91F2
:101E30000F900FBE0F901F9018951F920F920FB624
:101E40000F9211242F933F934F935F936F937F9340
:101E50008F939F93AF93BF93EF93FF9381E00E9483
:101E6000A40EFF91EF91BF91AF919F918F917F91C0
:101E70006F915F914F913F912F910F900FBE0F90F7
:101E80001F9018951F920F920FB60F9211242F9347
:101E90003F934F935F936F937F938F939F93AF93F2
:101EA000BF93EF93FF9380E00E94A40EFF91EF9108
:101EB000BF91AF919F918F917F916F915F914F9162
:101EC0003F912F910F900FBE0F901F9018951F9369
:101ED000CF93DF93EC01162F6CA760E572E0809141
:101EE000CF019091D0010E94BB1568818091CF01F4
:101EF0009091D0010E945F1363E472E08091CF0162
:101F00009091D0010E94BB15612F8091CF019091DB
:101F1000D0010E945F1368E372E08091CF0190913D
:101F2000D0010E94BB156091FF028091CF0190917A
:101F3000D0010E945F1362E372E08091CF01909123
:101F4000D0010E94BB15E091FF028FE0E89FF001F5
:101F50001124ED52FE4F608171818091CF019091EB
:101F6000D0010E94781369E272E08091CF019091D4
:101F7000D0010E94BB154D815E816F817885809173
:101F8000CF019091D0010E942A136FE172E08091FD
:101F9000CF019091D0010E94BB1549855A856B8570
:101FA0007C858091CF019091D0010E942A1380916D
:101FB000CF019091D001DF91CF911F910C94F41536
:101FC000CF93DF93CDE0D2E0FE0164918091CF0109
:101FD0009091D0010E94B4152196F2E0CE31DF0736
:101FE00099F768E072E08091CF019091D0010E9452
:101FF000BB1563E072E08091CF019091D0010E9407
:10200000BB1568EF71E08091CF019091D0010E94E3
:10201000BB1563EE71E08091CF019091D001DF910B
:10202000CF910C94BB1560EC71E08091CF01909141
:10203000D0010E94BB1567EB71E08091CF019091B8
:10204000D0010E94BB15609159018091CF01909100
:10205000D0010E94B41565EB71E08091CF019091A1
:10206000D0010C94BB158F929F92AF92BF92EF92CA
:10207000FF920F931F93CF93DF93C82F80915A0144
:10208000C81700F1222309F470C00E94131065E8FC
:1020900072E08091CF019091D0010E94BB15009118
:1020A000CF011091D0014C2F50E04F5F5F4F052EB4
:1020B000000C660B770BC8010E942D13C8010E940B
:1020C000F41553C00C2F10E07801EE0CFF1CEE0C41
:1020D000FF1CF701E55AFE4F80809180A280B380FB
:1020E000CB01A0E0B0E088169906AA06BB0650F026
:1020F00041155105E1F160E070E0481559056A05A8
:102100007B05A8F50E94131063E772E08091CF0170
:102110009091D0010E94BB15E8012196AE01DD0F20
:10212000660B770B8091CF019091D0010E942D1307
:102130006AE672E08091CF019091D0010E94BB15B8
:10214000F701E55AFE4F4081518162817381809190
:10215000CF019091D0010E942A1367E572E080912F
:10216000CF019091D0010E94F81580E001C081E07C
:10217000DF91CF911F910F91FF90EF90BF90AF90A3
:102180009F908F900895CF93C82F0E94131068ECF2
:1021900071E08091CF019091D0010E94BB156C2F0E
:1021A0008091CF019091D001CF910C946613109241
:1021B0009F0110925A0110929B0110929C01109263
:1021C0009D0110929E01EBE5F1E0119211921192A6
:1021D000119281E0EB39F807C1F70895BC014091F5
:1021E000C90129EC35E090E0941761F02D5E3F4F76
:1021F000F90173970190F081E02DE617F70721F0C0
:102200009F5FF2CF8FEF0895892F08950F931F934B
:10221000CF93DF93EC0160ED72E08091CF0190915C
:10222000D0010E94BB1568818091CF019091D001AF
:102230000E945F132A818091CF019091D0012223C7
:1022400029F0213031F46EEC72E005C06CEC72E0E4
:1022500002C06AEC72E00E94BB158B81882341F0BA
:1022600068EC72E08091CF019091D0010E94BB1583
:1022700065EC72E08091CF019091D0010E94BB1576
:1022800069818091CF019091D0010E945F138C8170
:10229000882309F442C0CE010E94EE108F3FE9F17D
:1022A000082F10E061EC72E08091CF019091D00195
:1022B0000E94BB1583E1809FE001819FD00D112416
:1022C000C753DA4F6B818091CF019091D0010E946A
:1022D0005F136FEB72E08091CF019091D0010E946B
:1022E000BB156C817D818091CF019091D0010E94BE
:1022F00078136DEB72E08091CF019091D0010E9434
:10230000BB156E817F818091CF019091D001DF91CB
:10231000CF911F910F910C947813DF91CF911F9162
:102320000F910895863140F4E82FF0E0E55EFC4F10
:10233000E49181E0EF3F09F480E0089540912105A8
:1023400025E033E090E0941749F0235D3F4FF90119
:10235000BD975081581721F09F5FF5CF8FEF0895FB
:10236000892F0895CF93DF93EC018FEF88831A8E26
:1023700019821D821E821F821886198E19A21AA226
:102380001BA21CA219861A861B861C861EA21DA2D1
:102390004D875E876F87788B498B5A8B6B8B7C8BD5
:1023A0004B8F5C8F6D8F7E8F4FA358A769A77AA73D
:1023B0001BA68C81811106C0EAE1F4E084910E94A1
:1023C0007E1301C080E08F8F88A38CA7DF91CF910F
:1023D0000895CF92DF92EF92FF920F931F93CF93C6
:1023E000DF930E944E146B017C016093BD017093DA
:1023F000BE018093BF019093C0018091C60190916E
:10240000C7019093BC018093BB01C0920003D0929E
:102410000103E0920203F0920303C092CB01D09239
:10242000CC01E092CD01F092CE011092D201109237
:10243000D101C092C101D092C201E092C301F092D9
:10244000C4011092040310925801109222051092B8
:10245000C8011092C501109221051092C901109275
:10246000CA011092FF0281E090E09093A101809355
:10247000A00180E090E04FE03FEF20E2489FF001B4
:10248000499FF00D1124ED52FE4F118210823283CC
:10249000138216821782108611861286138614867E
:1024A0001586268701968431910541F7C5E0D3E072
:1024B00001E215E0B701A601CE010E94B211AD966E
:1024C0000C171D07B9F7E2EAF1E08FEF819321E0E5
:1024D000E83BF207D9F780E090E00E946216C091D5
:1024E000CF01D091D001833461F481E090E00E946B
:1024F0006216863631F482E090E00E9462168233E2
:1025000079F06FE971E0CE010E94F815DF91CF916B
:102510001F910F91FF90EF90DF90CF900C94D71008
:102520006EE771E0CE010E94F81583E090E07C0137
:102530002FEFE21AF20A0E946216C82F811107C01B
:102540008091CF019091D0010E94F415DFCF0E94BD
:10255000B5026C2F8091CF019091D0010E94B415EB
:10256000C701E11422E0F20659F3E1CF0E94611C99
:102570008F929F92AF92BF92EF92FF920F931F9311
:10258000CF93DF93CDB7DEB7A1970FB6F894DEBF38
:102590000FBECDBF7C01FA01CB0119A2223008F495
:1025A0002AE08E010F5D1F4F822E912CA12CB12CA1
:1025B000BF01A50194010E941F1CF901CA0101502D
:1025C00011096A3014F4605D01C0695CD8016C9334
:1025D000232B242B252B61F7B801C7010E94DF159F
:1025E000A1960FB6F894DEBF0FBECDBFDF91CF919D
:1025F0001F910F91FF90EF90BF90AF909F908F90A1
:102600000895833081F028F4813099F08230A1F070
:1026100008958730A9F08830B9F08430D1F48091E2
:1026200080008F7D03C0809180008F778093800031
:10263000089584B58F7702C084B58F7D84BD0895D9
:102640008091B0008F7703C08091B0008F7D809320
:10265000B00008952AE00C94B812CF92DF92EF9266
:10266000FF920F931F93CF93DF9377FF1DC06A01F3
:102670007B01EC016DE20E94B4158C0144275527C3
:10268000BA014C195D096E097F092AE0CE010E944A
:10269000B812800F911FDF91CF911F910F91FF9082
:1026A000EF90DF90CF9008952AE0DF91CF911F91B6
:1026B0000F91FF90EF90DF90CF900C94B812462FBF
:1026C00050E060E070E02AE00C94B8120F931F9382
:1026D000CF93DF93EC010E945F138C01CE010E9427
:1026E000F415800F911FDF91CF911F910F910895E5
:1026F000AB0160E070E02AE00C94B812CF93DF9356
:10270000282F30E0F901EA57FC4F8491F901EE5887
:10271000FC4FD491F901E25AFC4FC491CC2391F0C3
:1027200081110E940113EC2FF0E0EE0FFF1FEC5A15
:10273000FC4FA591B491EC91ED2381E090E021F460
:1027400080E002C080E090E0DF91CF9108951F9378
:10275000CF93DF93282F30E0F901EA57FC4F8491A3
:10276000F901EE58FC4FD491F901E25AFC4FC491A3
:10277000CC23C1F0162F81110E940113EC2FF0E041
:10278000EE0FFF1FE65BFC4FA591B4919FB7F89445
:10279000111104C08C91D095D82302C0EC91DE2B8E
:1027A000DC939FBFDF91CF911F910895CF93DF936B
:1027B00090E0FC01EE58FC4F2491FC01E25AFC4FE2
:1027C0008491882361F190E0880F991FFC01E05CFF
:1027D000FC4FC591D491FC01E65BFC4FA591B491EF
:1027E000611109C09FB7F89488812095822388835E
:1027F000EC912E230BC0623061F49FB7F89488816E
:10280000322F309583238883EC912E2B2C939FBFFE
:1028100006C08FB7F894E8812E2B28838FBFDF91F5
:10282000CF9108958E3008F08E5087708064809329
:102830007C0080917A00806480937A0080917A0095
:1028400086FDFCCF809178002091790090E0922B5A
:1028500008953FB7F8948091F4059091F505A09103
:10286000F605B091F70526B5A89B05C02F3F19F0D6
:102870000196A11DB11D3FBFBA2FA92F982F882700
:10288000820F911DA11DB11DBC01CD0142E0660F5B
:10289000771F881F991F4A95D1F708952FB7F8948D
:1028A0006091F0057091F1058091F2059091F3052A
:1028B0002FBF08951F920F920FB60F9211242F93DE
:1028C0003F938F939F93AF93BF938091F005909127
:1028D000F105A091F205B091F3053091EF0523E0E9
:1028E000230F2D3720F40196A11DB11D05C026E848
:1028F000230F0296A11DB11D2093EF058093F005D3
:102900009093F105A093F205B093F3058091F4053F
:102910009091F505A091F605B091F7050196A11DDE
:10292000B11D8093F4059093F505A093F605B0933F
:10293000F705BF91AF919F918F913F912F910F908C
:102940000FBE0F901F901895CF92DF92EF92FF92DB
:102950000F931F93CF93DF936C017A018B01C0E03B
:10296000D0E0CE15DF0581F0D8016D918D01D60143
:10297000ED91FC910190F081E02DC6010995892B24
:1029800011F02196EECF7E01C701DF91CF911F910B
:102990000F91FF90EF90DF90CF900895089580E021
:1029A00090E00895FC01538D448D252F30E0842F55
:1029B00090E0821B930B541710F0CF960895019767
:1029C0000895FC01918D828D981761F0828DDF0151
:1029D000A80FB11D5D968C91928D9F5F9F73928F12
:1029E00090E008958FEF9FEF0895FC01918D828D07
:1029F000981731F0828DE80FF11D858D90E00895D4
:102A00008FEF9FEF0895FC01918D228D892F90E02B
:102A1000805C9F4F821B91098F73992708958CE2E8
:102A200095E00E94031521E0892B09F420E0822F14
:102A30000895FC01848DDF01A80FB11DA35ABF4F7B
:102A40002C91848D90E001968F739927848FA689AD
:102A5000B7892C93A089B1898C91837080648C9301
:102A6000938D848D981306C00288F389E02D8081B0
:102A70008F7D80830895EF92FF920F931F93CF93E2
:102A8000DF93EC0181E0888F9B8D8C8D981305C0BE
:102A9000E889F989808185FD26C0F62E0B8D10E02E
:102AA0000F5F1F4F0F731127E02E8C8DE8120CC0A3
:102AB0000FB607FCFACFE889F989808185FFF5CF49
:102AC000CE010E941915F1CF8B8DFE01E80FF11D8B
:102AD000E35AFF4FF0829FB7F8940B8FEA89FB8986
:102AE000808180620AC09FB7F894EE89FF89608375
:102AF000E889F98980818370806480839FBF81E049
:102B000090E0DF91CF911F910F91FF90EF9008958A
:102B1000CF93DF93EC01888D8823C9F0EA89FB8984
:102B2000808185FD05C0A889B9898C9186FD0FC07B
:102B30000FB607FCF5CF808185FFF2CFA889B98950
:102B40008C9185FFEDCFCE010E941915E7CFDF9163
:102B5000CF91089580E090E0892B29F00E940F1515
:102B600081110C9400000895DC01ED91FC9101901D
:102B7000F081E02D0994EF92FF920F931F93CF9372
:102B8000DF938C017B01C0E0D0E0F701EC0FFD1F6B
:102B90006491662361F0D801ED91FC910190F08180
:102BA000E02DC8010995892B11F02196EECFCE01B9
:102BB000DF91CF911F910F91FF90EF9008956115D4
:102BC000710579F0FB0101900020E9F73197AF0121
:102BD000461B570BDC01ED91FC910280F381E02D47
:102BE000099480E090E0089564E571E00C94DF15AD
:102BF0000F931F93CF93DF93EC010E94BB158C01C1
:102C0000CE010E94F415800F911FDF91CF911F918B
:102C10000F9108951F920F920FB60F9211242F93C8
:102C20003F934F935F936F937F938F939F93AF9354
:102C3000BF93EF93FF938CE295E00E941915FF91EB
:102C4000EF91BF91AF919F918F917F916F915F9124
:102C50004F913F912F910F900FBE0F901F9018959D
:102C60001F920F920FB60F9211242F938F939F9361
:102C7000EF93FF93E0913C05F0913D058081E09159
:102C80004205F091430582FD12C090818091450577
:102C90008F5F8F7320914605821751F0E0914505B3
:102CA000F0E0E45DFA4F958F8093450501C0808187
:102CB000FF91EF919F918F912F910F900FBE0F90E9
:102CC0001F9018950C94E11BCF93DF93CDB7DEB71F
:102CD000A0970FB6F894DEBF0FBECDBF789484B531
:102CE000826084BD84B5816084BD85B5826085BD08
:102CF00085B5816085BD80916E00816080936E0096
:102D00001092810080918100826080938100809187
:102D10008100816080938100809180008160809338
:102D200080008091B10084608093B1008091B000F8
:102D300081608093B00080917A00846080937A00F3
:102D400080917A00826080937A0080917A0081601D
:102D500080937A0080917A00806880937A00109244
:102D6000C100E0913C05F0913D0582E08083E09157
:102D70003805F09139051082E0913A05F0913B0554
:102D800080E1808310924405E0914005F091410577
:102D900086E08083E0913E05F0913F05808180616F
:102DA0008083E0913E05F0913F05808188608083BB
:102DB000E0913E05F0913F05808180688083E0913D
:102DC0003E05F0913F0580818F7D80830E9429140C
:102DD0004B015C01E4EFCE2EDD24D394E12CF12CE9
:102DE0000E942914DC01CB0188199909AA09BB09A1
:102DF000883E9340A105B10598F321E0C21AD1089D
:102E0000E108F10838EE830E33E0931EA11CB11CDB
:102E1000C114D104E104F10419F778948CE295E02F
:102E20000E94F4158CE295E09093D0018093CF013D
:102E30001092C7011092C6010E944E1460932305A0
:102E40007093240580932505909326050E94E9112F
:102E50000E944802BE016F5F7F4F1B010E944E140B
:102E60006B017C018091230590912405A09125059B
:102E7000B0912605C816D906EA06FB0648F48091EB
:102E8000C6019091C70101969093C7018093C60136
:102E9000C0922305D0922405E0922505F0922605E4
:102EA0008091C501882311F18091C1019091C201E7
:102EB000A091C301B091C40146015701881A990A33
:102EC000AA0ABB0A21E882162EEE920626E3A20683
:102ED000B10460F0C701B6010E94010DC092C101AA
:102EE000D092C201E092C301F092C4018CE295E05D
:102EF0000E940315892B31F08CE295E00E94E114C9
:102F00000E94B5020E944E142B013C018091CB011E
:102F10009091CC01A091CD01B091CE01B301A2015D
:102F2000481B590B6A0B7B0B80910701909108019C
:102F3000A0E0B0E084179507A607B70708F04AC2DB
:102F40008091CA01823091F038F4882399F0813061
:102F500009F036C282E0C2C0843009F4B0C08530C6
:102F600009F02EC2D12C73E1C72E0DC1D12C63E123
:102F7000C62E73C0F12C53E1E52E8091C901F816DD
:102F8000C0F4EF9C8001112407531A4FD801139607
:102F9000EC91F0E0E55EFC4F849160E00E94A713A5
:102FA00010922B05F8011286118614861386F3946D
:102FB000E4CF81E077C0CD9C8001112407531A4FE4
:102FC000D8011296EC91F0E0E55EFC4F84910E94EE
:102FD00012147C01F801818592858E0D9F1D9287C8
:102FE00081878091C8018330B8F168E173E08091F6
:102FF000CF019091D0010E94BB150E944E14AB01ED
:10300000BC018091CF019091D0010E942A1362E10E
:1030100073E08091CF019091D0010E94BB15B70160
:103020008091CF019091D0010E9478136FE073E0FE
:103030008091CF019091D0010E94BB1560912B052A
:103040008091CF019091D0010E945F138091CF01B8
:103050009091D0010E94F415D394E090C901DE1440
:1030600008F4A9CF80912B058F5F80932B05909159
:103070000601891708F4AEC109EC15E0F12CEF1434
:1030800071F0D8011396EC91F0E0E55EFC4F84916D
:1030900061E00E94A713F3940D5E1F4FF0CF1092D2
:1030A0002B0584E08093CA010E944E14609327058B
:1030B000709328058093290590932A058BC18091F0
:1030C000270590912805A0912905B0912A05481659
:1030D00059066A067B0609F47DC185E08093CA0122
:1030E00079C1CD9C8001112407531A4FD801129643
:1030F000EC91F0E0E55EFC4F84910E9412147C019B
:10310000F801838594858E0D9F1D94878387809118
:10311000C8018330B8F16CE073E08091CF019091E9
:10312000D0010E94BB150E944E14AB01BC018091DE
:10313000CF019091D0010E942A1366E073E0809144
:10314000CF019091D0010E94BB15B7018091CF01B2
:103150009091D0010E94781363E073E08091CF01D9
:103160009091D0010E94BB1560912B058091CF01F9
:103170009091D0010E945F138091CF019091D00176
:103180000E94F415D3948091C901D81608F4A9CFF0
:1031900080912B058F5F80932B05909106018917F5
:1031A00008F418C1C12C43E1D42E8091C901C8167E
:1031B00008F0FBC0EC2CF12CDE9CC001DF9C900DD4
:1031C00011249C0127533A4F5901D9011396EC91D0
:1031D000F0E0E55EFC4F849160E00E94A71320912F
:1031E000060130E0F50183859485B9010E94F71B43
:1031F0008B0181859285B9010E94F71B061B170B75
:1032000017FD96C20130F0E11F0714F000E010E155
:10321000C801DE9CF001DF9CF00D1124E753FA4F4A
:103220002085468157814017510770F0DE9CF001E0
:10323000DF9CF00D1124E753FA4F44815581841728
:10324000950728F4912C04C09924939401C0922EE0
:10325000DE9CF001DF9CF00D1124E753FA4FA584AA
:10326000B68439EEA3163DEFB306A8F4878590899E
:10327000A189B289A801012E000C660B770B480FBB
:10328000591F6A1F7B1F4787508B618B728BC5014B
:103290000196968785879216D1F1DE9CF001DF9C1E
:1032A000F00D1124E753FA4F2585368540E050E0B4
:1032B00067857089818992890E941F1C213A6FE07D
:1032C00036074105510520F020EA3FE040E050E09C
:1032D000DE9CC001DF9C900D1124DC01A753BA4F86
:1032E0005D01A901692D8D919C910E94E30DF5016D
:1032F0001786108A118A128A1686158680912205F1
:10330000882329F0692D808191810E94670FDE9CBE
:10331000F001DF9CF00D1124E753FA4F9086809165
:10332000C801823008F12091060130E01F930F930D
:1033300081859285B9010E94F71B7F936F938385E6
:103340009485B9010E94F71B7F936F9382811F922E
:103350008F9332E3832E31E0932E9F928F923F9290
:103360002F920E94661C0FC08823E9F01F930F93D1
:1033700082811F928F9349E451E05F934F933F9274
:103380002F920E94661C0091CF011091D001B101D3
:10339000C8010E94DF15C8010E94F4150FB6F89409
:1033A000DEBF0FBECDBFC39400CF1092CA014092C2
:1033B000CB015092CC016092CD017092CE010AC037
:1033C0001092CA0164EE72E08091CF019091D00119
:1033D0000E94F81580912205882319F1F12C2DE225
:1033E000E22E80912105F816E0F4EF9C8001112473
:1033F0000B5F1C4FD80114968C91149781110FC04C
:10340000EC91F0E0E55EFC4F84910E947E13F801A0
:1034100094A5891721F0682FC8010E94670FF394C3
:10342000E0CF0E944E146B017C01809100039091CB
:103430000103A0910203B0910303B701A601481B49
:10344000590B6A0B7B0B80910D0190910E01A0919D
:103450000F01B091100184179507A607B70700F177
:10346000909121054091090150910A0160910B0151
:1034700070910C01E5E0F3E080E0981709F4CAC010
:1034800007A110A521A532A546015701801A910A6E
:10349000A20AB30ABD96481559056A057B0530F4A2
:1034A000B12C8DE2682E9FE0A92E94C08F5FE5CFEE
:1034B0008B2C912C689C8001699C100D11240B5F52
:1034C0001C4FA701960160E0C8010E94EC098091A1
:1034D0000403882309F47DC08091FF0290E00296E6
:1034E00064E170E00E940B1C9C8F8B8FD8017C9054
:1034F0008091D1019091D2019C0140E050E02D8F4C
:103500003E8F4F8F58A300E010E0402E8B8D9C8D96
:10351000800F911F64E170E00E940B1CA89EF001D7
:10352000A99EF00D1124ED52FE4F8281781275C0D4
:1035300080819181A0E0B0E04D8D5E8D6F8D78A18E
:10354000841B950BA60BB70B181619061A061B063B
:103550000CF063C06EE373E08091CF019091D001D5
:103560000E94BB15672D8091CF019091D0010E94E0
:103570005F136CE373E08091CF019091D0010E94C2
:10358000BB15502E689CC001699C900D1124BC0194
:10359000675F7C4F7E8F6D8F8B8D9C8D850D911D10
:1035A00064E170E00E940B1C4C01A89EF001A99EF2
:1035B000F00D1124ED52FE4F8281781689F053945C
:1035C000F4E15F12E9CF8091CF019091D0010E9488
:1035D000F415B39480912105B81608F469CF12C090
:1035E00080819181A0E0B0E02091D1013091D201A1
:1035F000821B930BA109B109181619061A061B069E
:103600009CF0DDCFC0920003D0920103E092020350
:10361000F09203030E94AA1521CC0F5F1F4F0431C3
:10362000110509F072CFD5CF541441F069E373E06E
:103630008091CF019091D0010E94BB15A89C800180
:10364000A99C100D11240D521E4FD8016D917C9133
:103650008091CF019091D0010E94781367E373E0CD
:103660008091CF019091D0010E94BB15F801468155
:103670005781608571854C195D096E097F098091BC
:10368000CF019091D0010E942D1365E373E08091EA
:10369000CF019091D0010E94BB15D8011A964D918F
:1036A0005D916D917C911D978091CF019091D0019A
:1036B0000E942A1363E373E08091CF019091D001BF
:1036C0000E94BB15F80163818091CF019091D001D8
:1036D0000E945F13AD8DBE8D8C91882389F061E3CC
:1036E00073E08091CF019091D0010E94BB15F80149
:1036F000648175818091CF019091D0010E947813EF
:10370000A89C8001A99C100D11240D521E4FD801B8
:103710001E966C918091CF019091D0010E94B415BA
:10372000F801808191819093D2018093D10147CF9C
:10373000208580E090E000E010E078CDECE2F5E05C
:103740001382128288EE93E0A0E0B0E08483958338
:10375000A683B78381E291E09183808385EC90E03A
:103760009587848784EC90E09787868780EC90E04B
:10377000918B808B81EC90E0938B828B82EC90E03C
:10378000958B848B86EC90E0978B868B118E128EB6
:10379000138E148EE9ECF5E01286118614861386DA
:1037A000168615861786108A118A128A158E148E2F
:1037B000178E168E11A210A212A213A214A215A285
:1037C0000895F999FECF92BD81BDF89A992780B5E9
:1037D0000895262FF999FECF1FBA92BD81BD20BD55
:1037E0000FB6F894FA9AF99A0FBE01960895AA1B9B
:1037F000BB1B51E107C0AA1FBB1FA617B70710F0DC
:10380000A61BB70B881F991F5A95A9F7809590950D
:10381000BC01CD01089597FB072E16F4009407D044
:1038200077FD09D00E94F71B07FC05D03EF4909568
:1038300081959F4F0895709561957F4F0895A1E2FE
:103840001A2EAA1BBB1BFD010DC0AA1FBB1FEE1F1A
:10385000FF1FA217B307E407F50720F0A21BB30B65
:10386000E40BF50B661F771F881F991F1A9469F7E1
:1038700060957095809590959B01AC01BD01CF013D
:103880000895EE0FFF1F0590F491E02D09940E941A
:10389000521CA59F900DB49F900DA49F800D911D6B
:1038A00011240895A29FB001B39FC001A39F700D82
:1038B000811D1124911DB29F700D811D1124911D38
:1038C000089581E090E0F8940C94501FAEE0B0E0D1
:1038D000ECE6FCE10C94271F0D891E8986E08C83A1
:1038E0001A8309838FEF9FE79E838D83AE01475E26
:1038F0005F4F6F89788DCE0101960E94881CEF8101
:10390000F885E00FF11F10822E96E4E00C94431F1F
:10391000ABE0B0E0EEE8FCE10C94191F6C017B0118
:103920008A01FC0117821682838181FFCCC1CE01FE
:1039300001963C01F6019381F70193FD859193FF78
:1039400081917F01882309F4BAC1853239F493FD4E
:10395000859193FF81917F01853229F4B60190E032
:103960000E947F1EE7CF912C212C312CFFE1F31513
:10397000D8F08B3279F038F4803279F08332A1F4C8
:10398000232D20611DC08D3261F0803369F4232D19
:10399000216016C0832D8260382EE32DE4603E2E18
:1039A0002AC0F32DF8601DC037FC2DC020ED280F74
:1039B0002A3040F08E32B9F436FC81C1232D2064C8
:1039C000322E19C036FE06C08AE0989E200D1124C2
:1039D000922E11C0EAE02E9E200D1124222EF32DEE
:1039E000F0623F2E08C08C3621F4832D8068382E7B
:1039F00002C0883641F4F70193FD859193FF8191D0
:103A00007F018111B3CF982F9F7D9554933028F477
:103A10000C5F1F4F9FE399830DC0833631F08337CE
:103A200071F0833509F059C021C0F8018081898384
:103A30000E5F1F4F88248394912C530113C02801DB
:103A4000F2E04F0E511CF801A080B18036FE03C099
:103A5000692D70E002C06FEF7FEFC5010E94741EF8
:103A60004C018201F32DFF773F2E16C0280122E082
:103A7000420E511CF801A080B18036FE03C0692DB2
:103A800070E002C06FEF7FEFC5010E94691E4C011C
:103A9000F32DF0683F2E820133FC1BC0822D90E095
:103AA00088169906B0F4B60180E290E00E947F1E6D
:103AB0002A94F4CFF50137FC859137FE81915F019F
:103AC000B60190E00E947F1E21102A9421E0821A04
:103AD00091088114910471F7E8C0843611F0893699
:103AE00041F5F80137FE07C06081718182819381C1
:103AF0000C5F1F4F08C060817181072E000C880B7E
:103B0000990B0E5F1F4FF32DFF763F2E97FF09C0D5
:103B100090958095709561957F4F8F4F9F4FF0687E
:103B20003F2E2AE030E0A3010E94BB1E882E86189B
:103B300045C0853731F4232D2F7EB22E2AE030E0A8
:103B400025C0932D997FB92E8F36C1F018F4883592
:103B500079F0B5C0803719F0883721F0B0C0E92F6F
:103B6000E061BE2EB4FE0DC0FB2DF460BF2E09C077
:103B700034FE0AC0292F2660B22E06C028E030E0AD
:103B800005C020E130E002C020E132E0F801B7FEDC
:103B900007C060817181828193810C5F1F4F06C0D5
:103BA0006081718180E090E00E5F1F4FA3010E9451
:103BB000BB1E882E8618FB2DFF773F2E36FE0DC0CC
:103BC000232D2E7FA22E891458F434FE0BC032FC14
:103BD00009C0832D8E7EA82E05C0B82CA32C03C04F
:103BE000B82C01C0B92CA4FE0FC0FE01E80DF11DD8
:103BF0008081803321F49A2D997EA92E09C0A2FEDE
:103C000006C0B394B39404C08A2D867809F0B394A7
:103C1000A3FC11C0A0FE06C0B21488F4280C922C9C
:103C20009B180EC0B21460F4B60180E290E00E94CE
:103C30007F1EB394F7CFB21418F42B1802C0982C3F
:103C4000212CA4FE10C0B60180E390E00E947F1EEC
:103C5000A2FE17C0A1FC03C088E790E002C088E57F
:103C600090E0B6010CC08A2D867859F0A1FE02C002
:103C70008BE201C080E2A7FC8DE2B60190E00E94D9
:103C80007F1E891438F4B60180E390E00E947F1E05
:103C90009A94F7CF8A94F301E80DF11D8081B60163
:103CA00090E00E947F1E8110F5CF222009F442CEC1
:103CB000B60180E290E00E947F1E2A94F6CFF601C2
:103CC0008681978102C08FEF9FEF2B96E2E10C94E3
:103CD000351FFC010590615070400110D8F78095A8
:103CE00090958E0F9F1F0895FC01615070400190C8
:103CF0000110D8F7809590958E0F9F1F08950F9310
:103D00001F93CF93DF93FB01238121FD03C08FEF2E
:103D10009FEF2CC022FF16C0468157812481358138
:103D20004217530744F4A081B1819D012F5F3F4F9B
:103D3000318320838C93268137812F5F3F4F3783D8
:103D4000268314C08B01EC01FB010084F185E02D7A
:103D50000995892BE1F6D80116968D919C911797BC
:103D6000019617969C938E931697CE01DF91CF9173
:103D70001F910F910895FA01AA27283051F120319F
:103D800081F1E8946F936E7F6E5F7F4F8F4F9F4FEF
:103D9000AF4FB1E03ED0B4E03CD0670F781F891F31
:103DA0009A1FA11D680F791F8A1F911DA11D6A0FFF
:103DB000711D811D911DA11D20D009F468943F91B2
:103DC0002AE0269F11243019305D3193DEF6CF01B1
:103DD0000895462F4770405D4193B3E00FD0C9F777
:103DE000F6CF462F4F70405D4A3318F0495D31FDE4
:103DF0004052419302D0A9F7EACFB4E0A695979537
:103E0000879577956795BA95C9F70097610571050C
:103E100008959B01AC010A2E069457954795379556
:103E20002795BA95C9F7620F731F841F951FA01DB0
:103E300008952F923F924F925F926F927F928F924E
:103E40009F92AF92BF92CF92DF92EF92FF920F9329
:103E50001F93CF93DF93CDB7DEB7CA1BDB0B0FB633
:103E6000F894DEBF0FBECDBF09942A8839884888F0
:103E70005F846E847D848C849B84AA84B984C88486
:103E8000DF80EE80FD800C811B81AA81B981CE0F7D
:103E9000D11D0FB6F894DEBF0FBECDBFED01089562
:043EA000F894FFCFC4
:103EA4000200D007000004320060EA000030750010
:103EB400000D1307080E006B006C006D000000007D
:103EC400003B15A414D21488150315E114F5142528
:103ED40075004C2532643A202534642C2025346442
:103EE400202D3E2025203464004C2532643A2025C0
:083EF400203464000D0A0000F7
:00000001FF
