:100000000C94E0010C9408020C9408020C94080271
:100010000C9408020C9408020C9408020C94080238
:100020000C9408020C9408020C9408020C94080228
:100030000C9408020C9408020C9408020C94080218
:100040000C94B2170C9408020C9483190C94D119D7
:100050000C9408020C9408020C9408020C940802F8
:100060000C9408020C9408020A417661696C616282
:100070006C6520636F6D6D616E64733A0A20203C7D
:100080006E3E6120202020202020202020202020C3
:1000900020202020202020202D2061637469766993
:1000A0007479204C45442028303D6F66662C203101
:1000B0003D6F6E290A20203C7431303E2C3C743157
:1000C0003E2C3C74303E2C3C68756D3E63202020F5
:1000D0002D207365742074656D706572617475721E
:1000E0006520616E642068756D6964697479206645
:1000F0006F72207472616E736D69740A20203C6E99
:100100003E6420202020202020202020202020208D
:10011000202020202020202D204445425547206DBE
:100120006F64652028303D7375707072657373203D
:10013000545820616E6420626164207061636B6555
:100140007473290A20203C6E6E6E6E6E6E3E6620C1
:100150002020202020202020202020202020202D92
:10016000206672657175656E6379202835206B484D
:100170007A20737465707320652E672E20383638A8
:10018000333135290A20203C69643E2C3C696E7469
:100190003E2C3C6E62743E2C3C64723E69202020F2
:1001A0002D207365742074686520706172616D65BF
:1001B0007465727320666F72207468652074726152
:1001C0006E736D6974206C6F6F700A20203C6E3EF8
:1001D00072202020202020202020202020202020CD
:1001E0002020202020202D20646174612072617401
:1001F000652028303D31372E323431206B627073E8
:100200002C20313D392E353739206B627073290A25
:10021000202062312C62322C62332C623473202015
:1002200020202020202020202020202D2073656EDB
:1002300064207468652070617373656420627974EA
:10024000657320706C7573207468652063616C63DE
:10025000756C61746564204352430A20203C6E3EF5
:10026000742020202020202020202020202020203A
:100270002020202020202D20746F67676C6520646B
:10028000617461207261746520696E746572766153
:100290006C6C2028303D6E6F20746F67676C652C26
:1002A000203E303D7365636F6E6473290A20203CE5
:1002B0006E3E76202020202020202020202020207C
:1002C00020202020202020202D2076657273696F49
:1002D0006E20616E6420636F6E666967757261740B
:1002E000696F6E207265706F72740A20203C6E3EDA
:1002F00079202020202020202020202020202020A5
:100300002020202020202D2052656C61792028306B
:100310003D6E6F2072656C61792C20313D52656CA9
:100320006179207265636569766564207061636BCD
:10033000657473290A20203C6E3E782020202020FE
:1003400020202020202020202020202020202020AD
:100350002D207573656420666F72207465737473E5
:100360000A0000000000240027002A00000000000E
:10037000250028002B000000000023002600290093
:10038000040404040404040402020202020203033B
:100390000303030301020408102040800102040843
:1003A00010200102040810200000000700020100D4
:1003B0000003040600000000000000006A023D1B6C
:1003C00011241FBECFEFD8E0DEBFCDBF14E0A0E008
:1003D000B1E0E8EAF9E402C005900D92A033B1075C
:1003E000D9F715E0A0E3B4E001C01D92A538B1072C
:1003F000E1F713E0C0ECD3E004C02297FE010E94B5
:10040000CE24CC3BD107C9F70E94931B0C94D22475
:100410000C940000FB01DC0102C001900D924150E0
:100420005040D8F70895FB01DC0101900D920020A7
:10043000E1F70895FB019F01E8944230C4F0453292
:10044000B4F44A3029F497FB1EF4909581959F4FA0
:10045000642F77270E94B824805D8A330CF0895D71
:100460008193CB010097A1F716F45DE251931082BE
:10047000C9010C943B02DC01FC01672F71917723C9
:10048000E1F7329704C07C916D9370836291AE174F
:10049000BF07C8F308951F93CF93DF93C8E6D0E05A
:1004A000FE0121961491112369F01A3029F48FE589
:1004B00095E06DE00E94CC1B8FE595E0612F0E94D6
:1004C000CC1BEECF8FE595E00E94D41BDF91CF913E
:1004D0001F910895CF92DF92EF920F9349E5C42EBA
:1004E00044E0D42EC6016BE04CE02DE00AE032E09F
:1004F000E32E0E94F70B8FEA94E00E94641780EBD2
:1005000094E0B6010E9424070F91EF90DF90CF9006
:1005100008950F931F93DF93CF93CDB7DEB727973F
:100520000FB6F894DEBF0FBECDBF8FE595E060E05B
:1005300071E00E94111D8FE595E063E071E00E947B
:10054000111D8FE595E06EE20E94CC1B8FE595E0D2
:1005500068E171E00E94111D8FE595E06EE171E0A8
:100560000E94111D8E010F5F1F4FC80169E574E0E5
:100570000E94530C8FE595E0B8010E94211EC8012E
:100580000E94CB1F8FE595E061E271E00E94111D92
:100590008FE595E063E271E00E94111D80913104C6
:1005A00090913204892BA9F08FE595E066E271E025
:1005B0000E94111D60913104709132048FE595E025
:1005C0004AE050E00E949B1C8FE595E062E371E0F9
:1005D00012C0409111045091120460911304709163
:1005E00014048FE595E02AE030E00E948C1C8FE532
:1005F00095E06BE371E00E94111D8FE595E061E4E9
:1006000071E00E94111D89E594E00E94AD09AB01E3
:10061000BC018FE595E02AE030E00E948C1C8FE55C
:1006200095E065E471E00E94111D8FE595E06DE5B0
:100630000E94F41B27960FB6F894DEBF0FBECDBF05
:10064000CF91DF911F910F9108950F931F93DF9327
:10065000CF93CDB7DEB761970FB6F894DEBF0FBE6C
:10066000CDBF182F84E18F8381E088871986612FA1
:1006700070E080E090E00E94E9226A877B878C87A7
:100680009D871E861F8780913004882379F18FE52E
:1006900095E06AE471E00E94111D4A855B856C85D6
:1006A0007D858FE595E022E030E00E94F81D8FE522
:1006B00095E061E571E00E94111D8FE595E06F8581
:1006C0004AE050E00E94AC1C8FE595E065E571E0E2
:1006D0000E94111D68858FE595E070E04AE050E0CA
:1006E0000E94FE1C8FE595E00E94D41BCE01069669
:1006F0008E010F5F1F4FB8010E94BA0F89E594E089
:10070000B80145E00E943E0B89E594E061E00E945B
:10071000060B61960FB6F894DEBF0FBECDBFCF912A
:10072000DF911F910F910895DF92EF92FF920F9347
:100730001F93CF93DF93EC016430B9F5D8802D2D52
:1007400030E02F733070B901E3E0660F771FEA9550
:10075000E1F7220F331F620F731F2981620F711D92
:10076000882777FD8095982F0E94EB227B018C01D2
:100770006A8170E0882777FD8095982F0E94EB2290
:100780002DEC3CEC4CEC5DE30E94FD239B01AC01A5
:10079000C801B7010E94E821AB01BC01D7FC705829
:1007A00080EB94E02B810E946907DF91CF911F912C
:1007B0000F91FF90EF90DF9008956F927F928F924C
:1007C0009F92AF92BF92CF92DF92EF92FF920F93E0
:1007D0001F93CF93DF93EC016430C1F568801981DA
:1007E0007A800E94FA176B017C018B81882339F093
:1007F000ABE68A2EA5E29A2EA12CB12C06C0F9E513
:100800008F2EF3E49F2EA12CB12C04E6109F8001C3
:100810001124672D70E080E090E020E63AEE40E0A1
:1008200050E00E946424C60ED71EE81EF91E80EB1D
:1008300094E0662DA80121E087017601650154014D
:100840000E944B0780EB94E061E008C0613041F406
:100850008881882329F480EB94E060E00E944807B7
:10086000DF91CF911F910F91FF90EF90DF90CF908C
:10087000BF90AF909F908F907F906F900895CF938F
:10088000DF93EC016430A1F489E594E060E00E941C
:10089000060BCE010E94A90E8C8389E594E0BE016F
:1008A00045E00E943E0B89E594E061E00E94060B62
:1008B000DF91CF9108951F93182F10923004882351
:1008C00019F081E080933004812F0E94DC0D812F8C
:1008D0000E94DC0D89E594E0612F0E94A0091F9120
:1008E00008958FE595E040E051EE60E070E00E94F1
:1008F0000C1A68EC70E080E090E00E94081880918B
:100900003004882331F08FE595E06AE571E00E94BC
:100910000E1E809130040E945B041092CD048FEA79
:1009200094E061E00E947B170E94FA176093340400
:1009300070933504809336049093370489E594E0EE
:100940000E946E0C4091150450911604609117049A
:100950007091180489E594E00E94040A4091110402
:1009600050911204609113047091140489E594E08D
:100970000E94610A80EB94E060E00E94480789E5EC
:1009800094E061E00E94060B80913004882331F0EE
:100990008FE595E06DE971E00E940E1E0E948902CC
:1009A00008951F93182F8C3269F480915804E82F12
:1009B000F0E0E85CFB4F9091C80490838F5F8093D8
:1009C0005804F8C080538A3028F56091C8047091AB
:1009D000C9048091CA049091CB042AE030E040E041
:1009E00050E00E9464246053704080409040212F6A
:1009F000332727FD3095432F532F260F371F481FCE
:100A0000591F2093C8043093C9044093CA045093DB
:100A1000CB04E0C0812F81568A3108F0D4C0123750
:100A200009F442C013378CF4143609F1153634F446
:100A3000113639F1133609F0B9C088C0163609F4F9
:100A400096C0193609F0B2C06EC0163709F457C007
:100A500017373CF4133709F455C0143709F0A6C012
:100A600045C0183749F0193709F0A0C08DC08091F2
:100A7000C8040E945B049EC08091C8040E942503A4
:100A800099C060E08091C8049091C904A091CA0403
:100A9000B091CB040097A105B10509F061E08FEAA0
:100AA00094E00E947B1786C08091C8049091C9048D
:100AB000A091CA04B091CB040097A105B10529F417
:100AC00049E553E460E070E004C04BE655E260E0C5
:100AD00070E04093110450931204609313047093D8
:100AE000140489E594E00E94610A64C08091C804FE
:100AF0009091C90490933204809331045BC00E94AA
:100B0000890258C060915804E62FF0E0E85CFB4F82
:100B10008091C80480836F5F6093580488E394E0F9
:100B20000E943F0410C060915804E62FF0E0E85C9A
:100B3000FB4F8091C80480836F5F6093580488E303
:100B400094E00E94DD031092580434C06091580470
:100B5000E62FF0E0E85CFB4F8091C80480836F5F74
:100B60006093580488E394E00E949403ECCF409192
:100B7000C8045091C9046091CA047091CB0489E5FE
:100B800094E00E94040A16C0109233048091C804B5
:100B90009091C904A091CA04B091CB040097A1051B
:100BA000B10541F081E08093330404C00E948902C2
:100BB0000E944B021092C8041092C9041092CA04F9
:100BC0001092CB0407C01152103220F40E94890207
:100BD0000E944B021F910895EF92FF920F931F9373
:100BE000DF93CF93CDB7DEB7C054D0400FB6F894A3
:100BF000DEBF0FBECDBF8FE595E00E94931A892B13
:100C000031F08FE595E00E94C41A0E94D1048091D2
:100C1000310490913204892B09F46EC00E94FA17B6
:100C200020913404309135044091360450913704BA
:100C3000621773078407950740F4109234041092EA
:100C4000350410923604109237040E94FA1740912E
:100C500031045091320428EE33E0F9014E9F9001A7
:100C60004F9F300D5E9F300D112440E050E0E0902A
:100C70003404F090350400913604109137042E0DA1
:100C80003F1D401F511F2617370748075907A0F57A
:100C90008091110490911204A0911304B091140456
:100CA0008B569542A040B04029F489E593E4A0E03A
:100CB000B0E004C08BE695E2A0E0B0E080931104C0
:100CC00090931204A0931304B09314044091110460
:100CD00050911204609113047091140489E594E01A
:100CE0000E94610A0E94FA176093340470933504DD
:100CF000809336049093370480EB94E00E94700751
:100D0000882351F08FEA94E062E00E94821789E51F
:100D100094E061E00E94060B89E594E00E94570D83
:100D200089E594E00E941208882309F47FC089E5D0
:100D300094E060E00E94060B89E594E08E010F5F6D
:100D40001F4FB8010E94FE078FEA94E061E00E9405
:100D5000821780913004882309F18FE595E060EDDA
:100D600071E00E94111DB1E1EB2EF12CEC0EFD1E85
:100D70008FE595E0F80161918F0140E150E00E941C
:100D8000AC1C8FE595E06FEE71E00E94111D0E1511
:100D90001F0571F78FE595E00E94D41B8E010F5F50
:100DA0001F4FC8010E945B0F882311F015E01BC084
:100DB000C8010E948D128823A9F4C8010E948914D9
:100DC000882311F01CE00FC0C8010E94621588231F
:100DD00049F4C8010E940617882311F014E003C0EB
:100DE00010E001C016E0809133048823D1F0112374
:100DF000C1F060E470E080E090E00E94081889E5AE
:100E000094E0BE016F5F7F4F412F0E943E0B8091A7
:100E10003004882331F08FE595E061EF71E00E94A6
:100E20000E1E89E594E061E00E94060BC05CDF4F76
:100E30000FB6F894DEBF0FBECDBFCF91DF911F91EB
:100E40000F91FF90EF900895FC01718360831282EF
:100E500089E593E4A0E0B0E083839483A583B6831F
:100E60001782138A80E090E0A0E0B0E08787908B43
:100E7000A18BB28B80EA9FE091878087148A158AC4
:100E8000168A178A16861286138614861586089582
:100E9000FC0162830895AF92BF92CF92DF92EF92EE
:100EA000FF920F931F93FC0167835187408726872A
:100EB000E286F38604871587A382B482C582D68230
:100EC0001F910F91FF90EF90DF90CF90BF90AF9068
:100ED0000895FC014787508B618B728B238B08959B
:100EE000AF92BF92CF92DF92EF92FF920F931F9338
:100EF000DF93CF93CDB7DEB761970FB6F894DEBF1F
:100F00000FBECDBF5C01FC018281882309F464C05F
:100F10000E94FA17F5012085318540E050E0E48811
:100F2000F588068917892E0D3F1D401F511F621736
:100F300073078407950708F44FC00E94FA17F5015C
:100F4000648B758B868B978B8685882369F00E94CE
:100F5000FA17F50122853385448555856217730795
:100F60008407950708F01686F50187818F838685AB
:100F70008887198687859089A189B2898A879B8706
:100F8000AC87BD871E8683898F87808191810E946F
:100F9000A7096B017C01F50143815481658176814C
:100FA000808191810E94610ACE0106968E010F5FB9
:100FB0001F4FB8010E94BA0FF50180819181B801DD
:100FC00045E00E943E0BF50180819181B701A601A9
:100FD0000E94610A81E001C080E061960FB6F8943A
:100FE000DEBF0FBECDBFCF91DF911F910F91FF905C
:100FF000EF90DF90CF90BF90AF900895FC01158ADD
:10100000108ADC0120E030E0FB01E20FF31F56966E
:101010008C91569780832F5F3F4F11962034310576
:1010200099F70895FC0185890895EF92FF920F9337
:101030001F93CF93DF93DC011396EC9113978E2FC0
:1010400090E0FC01E058FC4FE491F0E0EE0FFF1F50
:10105000EA58FC4F059114918C569C4FFC018491E9
:1010600048E0C82FD0E01496EC9114972E2F30E072
:10107000F901E058FC4FE4918E2F90E0880F991F02
:1010800084599C4FFC01E590F490F70180812C5627
:101090003C4FF901949190958923F7018083129632
:1010A000EC91129767FF17C02E2F30E0F901E0583E
:1010B000FC4FE4918E2F90E0880F991F84599C4F2C
:1010C000FC01E590F490F70180812C563C4FF9012A
:1010D0009491892B17C02E2F30E0F901E058FC4F76
:1010E000E4918E2F90E0880F991F84599C4FFC014A
:1010F000E590F490F70180812C563C4FF9019491D2
:1011000090958923F7018083660F1496EC911497CC
:101110002E2F30E0F901E058FC4FE4918E2F90E043
:10112000880F991F84599C4FFC01E590F490F701BA
:1011300080812C563C4FF9019491892BF7018083D3
:10114000F801808190E08C239D23892B09F0616058
:10115000415009F088CF14968C91282F30E0F90186
:10116000E058FC4FE4918E2F90E0880F991F84592E
:101170009C4FFC01A591B4918C912C563C4FF901E8
:101180009491909589238C93862FDF91CF911F9115
:101190000F91FF90EF900895EF92FF920F931F939E
:1011A000CF93DF93DC011396EC9113978E2F90E091
:1011B000FC01E058FC4FE491F0E0EE0FFF1FEA580D
:1011C000FC4F059114918C569C4FFC01449115964F
:1011D000EC9115972E2F30E0F901E058FC4FE49187
:1011E0008E2F90E0880F991F84599C4FFC01C59168
:1011F000D49188812C563C4FF90194919095892384
:10120000888350E0C42FD0E01296EC91129777FFBC
:1012100017C02E2F30E0F901E058FC4FE4918E2FDB
:1012200090E0880F991F84599C4FFC01E590F49041
:10123000F70180812C563C4FF9019491892B17C0FE
:101240002E2F30E0F901E058FC4FE4918E2F90E012
:10125000880F991F84599C4FFC01E590F490F70189
:1012600080812C563C4FF901949190958923F70188
:101270008083660F771FF801808190E08C239D2387
:10128000892B09F061601496EC9114972E2F30E0B1
:10129000F901E058FC4FE4918E2F90E0880F991FE0
:1012A00084599C4FFC01E590F490F70180812C5605
:1012B0003C4FF9019491892BF701808300000000D5
:1012C0001496EC9114972E2F30E0F901E058FC4F62
:1012D000E4918E2F90E0880F991F84599C4FFC0158
:1012E000E590F490F70180812C563C4FF9019491E0
:1012F00090958923F70180835F5F503109F084CF97
:1013000015968C91282F30E0F901E058FC4FE491BC
:101310008E2F90E0880F991F84599C4FFC01A59156
:10132000B4918C912C563C4FF9019491892B8C935C
:10133000CB01DF91CF911F910F91FF90EF90089516
:10134000FC011782662311F081E087830895FC0178
:1013500060857185828593850895FC016485758516
:101360008685978508951F93CF93DF93EC01162F01
:10137000CE0160E070E00E94CC0897FFF9CF612FAA
:1013800070E0786BCE010E94CC08DF91CF911F9165
:101390000895EF92FF920F931F938C01F62EE42E87
:1013A000FC01858160E00E94DB18F0E8FF2AC8019B
:1013B0006F2D0E941508C8016E2D0E941508F801B6
:1013C000858161E00E94DB181F910F91FF90EF90E3
:1013D00008951F93CF93DF93EC0188819981029741
:1013E00031F4CE0168E240E10E94C90909C010E071
:1013F000CE0160E070EB0E94CC081F5F1034C1F793
:10140000DF91CF911F910895EF92FF920F931F9359
:10141000CF93DF93EC014C875D876E877F87888150
:1014200099810297A9F5CB01BA0128EE33E040E09B
:1014300050E00E94642432E0660F771F881F991FD6
:101440003A95D1F729E03DE340E050E00E94962430
:1014500079018A0126E0EE0CFF1C001F111F2A955E
:10146000D1F7980144275527CE0167E0422F0E940B
:10147000C9095527412F302F2F2DCE0168E0422F6B
:101480000E94C909CE0169E04E2D0E94C90912C00F
:1014900040565F416D407040CB01BA0125E030E01D
:1014A00040E050E00E94962420503046CE01B90121
:1014B0000E94CC08DF91CF911F910F91FF90EF9088
:1014C00008951F93CF93DF93EC019A01AB01288716
:1014D00039874A875B87888199810297C1F4CA015D
:1014E000B90196958795779567956050784B8741B8
:1014F0009E4F0E949624122FCE0163E0432F0E943C
:10150000C909CE0164E0412F0E94C90921C02935D3
:1015100083E4380780E0480780E0580711F423E1AE
:1015200011C02B3685E2380780E0480780E0580775
:1015300011F423E207C06CEF72E485E090E00E94B2
:1015400096242150622F70E0766CCE010E94CC0868
:10155000DF91CF911F910895FF920F931F938C01FC
:10156000F62EFC01858160E00E94DB18FFE7FF2278
:10157000C8016F2D0E941508C80160E00E9415087F
:10158000F82EF801858161E00E94DB188F2D1F91F4
:101590000F91FF900895FC0180819181029729F4B9
:1015A000CF0160E00E94AC0A0895CF0160E070EBCB
:1015B0000E94CC080895CF93DF93EC018881998134
:1015C000662371F0029741F4CE0161E00E94AC0AFB
:1015D000482F437E4C600DC0CE0168E372E811C015
:1015E000029761F4CE0161E00E94AC0A482F437E6D
:1015F0004460CE0161E00E94C90905C0CE0168E0E7
:1016000072E80E94CC08DF91CF910895CF93DF93C9
:10161000EC01888199816623C1F0029741F4CE01E3
:1016200061E00E94AC0A482F437E406117C0CE01A2
:1016300068EC72E80E94CC08CE0161E87AEC0E9466
:10164000CC08CE0163E87AEC11C0029761F4CE01B8
:1016500061E00E94AC0A482F437E4460CE0161E005
:101660000E94C90905C0CE0168E072E80E94CC085A
:10167000CE010E94E909DF91CF910895BF92CF92E8
:10168000DF92EF92FF920F931F93CF93DF93EC01C2
:101690006B01B42E88819981029709F045C0CE0173
:1016A0006DE30E94AC0A482F4460CE016DE30E94B6
:1016B000C909CE0160E00E94060BCE010E94E90933
:1016C000F8948D8160E00E94DB18CE0160E80E94F2
:1016D0001508760110E007C0CE01F70161917F0186
:1016E0000E9415081F5F1B15B8F38D8161E00E94F1
:1016F000DB187894CE0161E00E94DB0A0E94FA17A1
:101700007B018C01CE0168E20E94AC0A83FD3BC0E4
:101710000E94FA176E197F09800B910B645F71406C
:101720008040904080F5EECFCE0161E00E94DB0A60
:10173000CE016AEA0E94B309CE016AEA0E94B309A7
:10174000CE016AEA0E94B309CE016DE20E94B3099C
:10175000CE0164ED0E94B30900E010E0EB2CFF2401
:1017600009C0F601E00FF11FCE0160810E94B309AC
:101770000F5F1F4F0E151F05A4F361E070E080E0BE
:1017800090E00E940818CE0160E00E94DB0A8F8181
:10179000882319F18FE595E069EF71E00E94111D32
:1017A000C0E0D0E00B2D10E011C0F601EC0FFD1FE2
:1017B0008FE595E060814AE050E00E94AC1C8FE527
:1017C00095E068E072E00E94111D2196C017D107D4
:1017D00064F38FE595E00E94D41BDF91CF911F91B8
:1017E0000F91FF90EF90DF90CF90BF900895EF9210
:1017F0000F93CF93DF93EC01862F6A834B832C8367
:101800000D83EE821F8229E533E440E050E0288713
:1018100039874A875B872CEC3FE34DE050E02C870B
:101820003D874E875F87188A198A1A8A1B8A1C8A05
:101830001D8A61E00E949C188B8160E00E949C18C8
:101840008C8161E00E949C188D8161E00E949C184F
:101850008E8160E00E949C188D8161E00E94DB18FF
:1018600081E090E099838883CE0168E34AE00E949A
:10187000C909CE0168E30E94AC0A8A3079F4CE012E
:1018800068E340E40E94C909CE0168E30E94AC0A03
:10189000803421F482E090E099838883DF91CF91B6
:1018A0000F91EF900895CF93DF93EC01FB0101902E
:1018B000F081E02DE130F10519F0329739F403C0E1
:1018C0006AE072E005C061E172E002C069E172E0C5
:1018D0000E948F1FCE01DF91CF910895EF92FF926A
:1018E0000F931F93DF93CF93CDB7DEB727970FB634
:1018F000F894DEBF0FBECDBF7C01FC018781882339
:10190000A9F08FE595E06EE172E00E94111D8E0155
:101910000F5F1F4FC801B7010E94530C8FE595E080
:10192000B8010E94541EC8010E94CB1FF701858197
:1019300061E00E94DB18C70160E00E94060BF7011E
:1019400080819181029709F056C0C70161E044E0AF
:101950000E94C909C70162E040E00E94C909C701AD
:1019600065E045E00E94C909C70166E043EC0E94BA
:10197000C909C70161E14FE90E94C909C70163E1D3
:101980004FE00E94C909C70169E142E40E94C90908
:10199000C70168E240E10E94C909C70169E24CED54
:1019A0000E94C909C7016EE248E80E94C909C7013F
:1019B0006FE24DE20E94C909C70160E344ED0E9455
:1019C000C909C70167E348E00E94C909C70168E384
:1019D00040E40E94C909C7016CE34FE80E94C909AD
:1019E000C7016DE342E10E94C909C7016FE640E308
:1019F0000E94C9093CC0C70168E072E80E94CC0897
:101A0000C70168EE70E80E94CC08C7016AE672EC74
:101A10000E94CC08C70162E17AEC0E94CC08C701A1
:101A200064ED7EEC0E94CC08C70161E874EC0E9472
:101A3000CC08C70160EA74E90E94CC08C70167E7D7
:101A40007CEC0E94CC08C70160E578E90E94CC08D4
:101A5000C70160E070EE0E94CC08C70160E078EC3E
:101A60000E94CC08C70160E470EC0E94CC08F7012A
:101A70004485558566857785C7010E94040AF7016C
:101A80004085518562857385C7010E94610AC7013F
:101A90000E94E90927960FB6F894DEBF0FBECDBFAE
:101AA000CF91DF911F910F91FF90EF900895EF92EA
:101AB000FF920F931F93CF93DF93EC01888199815D
:101AC0000297B9F4CE0168E20E94AC0A82FF48C0D6
:101AD0008E01F0E4EF2EF12CEC0EFD1ECE010E94E3
:101AE000CB0AF801868B0F5F1F4F0E151F05B1F74C
:101AF00035C08D8160E00E94DB18000000008B8102
:101B00000E942F198C018D8161E00E94DB18012B4E
:101B100081F01889CE010E94CB0AFE01E10FF11D70
:101B2000868B1F5F188B0E94FA17698B7A8B8B8BC1
:101B30009C8B8889882379F00E94FA1729893A8931
:101B40004B895C892E5C3F4F4F4F5F4F26173707FD
:101B50004807590718F08889803210F081E08D8B92
:101B6000DF91CF911F910F91FF90EF900895CF9348
:101B7000DF93EC0140E050E070E0A62FB0E091E38D
:101B800014C0FE01E40FF51FE08120E030E08E2F4D
:101B90008727770F87FD79272F5F3F4F2830310543
:101BA00011F0EE0FF4CF4F5F5F4F4A175B074CF316
:101BB000872FDF91CF9108951092CC04882319F0DC
:101BC00081E08093CC0408958F929F92AF92BF9250
:101BD000CF92DF92EF92FF920F931F93DF93CF93F9
:101BE000CDB7DEB727970FB6F894DEBF0FBECDBFD7
:101BF0004C015B018E010F5F1F4FC80169E272E06B
:101C00000E948F1FC8016AE272E00E944C1FC80147
:101C1000F50161810E940D1FC80160E20E94391F19
:101C2000F5019185943640F09A3631F0892F80582D
:101C3000843610F09A3E71F4F5018281882319F4FC
:101C400061E070E002C061E870E08E010F5F1F4F3D
:101C5000C8010BC09D3719F09D3F09F04DC08E01A2
:101C60000F5F1F4FC80162E870E00E94DC1EC801D0
:101C700060E20E94391FF501648175818681978138
:101C800020E030E040E251E40E94FD2320E030E01B
:101C90004AE754E40E94E8210E94BD226B017C01C6
:101CA0008E010F5F1F4FC8016D2D0E940D1FC801CF
:101CB00060E20E94391FC8016C2D0E940D1FC801EF
:101CC00060E20E94391FF501E480F58006811781EA
:101CD000C801B70120E030E040E752E40E94F92358
:101CE00087FF0AC0C801B70120E030E040E252ECB3
:101CF0000E944C22181634F0C40169E272E00E947E
:101D00008F1F0FC0F50161858085811160688E018C
:101D10000F5F1F4FC8010E940D1FC401B8010E9430
:101D2000C01FCE0101960E94CB1FC40127960FB69B
:101D3000F894DEBF0FBECDBFCF91DF911F910F9101
:101D4000FF90EF90DF90CF90BF90AF909F908F90DB
:101D5000089564E00E94B70D08958F929F92AF920C
:101D6000BF92CF92DF92EF92FF920F931F93CF9388
:101D7000DF934C01EB0181E08B87F40114811A871A
:101D8000C4010E94A90E18131B861982F4018081D8
:101D900090E08F709070880F991F880F991F982F6F
:101DA00089838091CD042181882311F0207C04C097
:101DB0002295269526952370922B9983F401808194
:101DC00082958F708883893009F01B8690E0F4013A
:101DD000818185FD91E09A8390E0F401818184FD09
:101DE00091E09B83F401E28061816F7070E088274D
:101DF00077FD8095982F0E94EB2220E030E048ECA0
:101E000052E40E94FD2320E030E040E050E00E94D8
:101E1000E8215B016C016E2D62956F7070E0882780
:101E200077FD8095982F0E94EB2220E030E040E281
:101E300051E40E94FD239B01AC01C601B5010E9443
:101E4000E8215B016C01FFE0EF22FF240027F7FC93
:101E50000095102FC801B7010E94EB229B01AC0135
:101E6000C601B5010E94E82120E030E040E251E4E3
:101E70000E94502220E030E040E252E40E94E7213C
:101E80006C837D838E839F8390E0F401838187FD43
:101E900091E09887F40183818F778987DF91CF91D3
:101EA0001F910F91FF90EF90DF90CF90BF90AF9078
:101EB0009F908F900895CF92DF92EF92FF920F93B1
:101EC0001F93DF93CF93CDB7DEB76A970FB6F89421
:101ED000DEBF0FBECDBF8C016E010894C11CD11CAA
:101EE000C60169E272E00E948F1FF801808182952D
:101EF0008F70893029F53FE0E32EF12CEC0EFD1EAA
:101F0000C801B7010E94AD0E8A8D882371F08E0141
:101F1000085F1F4FC801B7010E94E40DC601B80158
:101F20000E94A91FC8010E94CB1F8D819E81892B11
:101F300039F08FE595E0BE016F5F7F4F0E94541E20
:101F400010E08D819E81892B09F011E0CE01019670
:101F50000E94CB1F812F6A960FB6F894DEBF0FBE8A
:101F6000CDBFCF91DF911F910F91FF90EF90DF9048
:101F7000CF9008958F929F92AF92BF92CF92DF92AF
:101F8000EF92FF920F931F93CF93DF934C01EB01DE
:101F900080E090E0FE01E80FF91F10820196853085
:101FA0009105C1F780E98883F40181818695869542
:101FB00080698883818190E056E0880F991F5A9547
:101FC000E1F7898322812295220F207E282B298305
:101FD00013811295107F122B19836481758186817C
:101FE000978120E030E040E252E40E94E8215B016A
:101FF0006C0120E030E040E251E40E9450220E9457
:10200000B822162B1983C601B50120E030E040E864
:102010005FE30E942D237B018C01C601B5010E9464
:10202000B822DC01CB016AE070E00E9483246C01DD
:1020300044E0CC0CDD1C4A95E1F7C801B70120E073
:1020400030E040E251E40E94FD2320E030E040E037
:102050005FE30E94E8210E94B822C62A8A818C2967
:102060008A83F40191859B8380858795882787954E
:10207000892B8B83CE010E94A90E8C83DF91CF9197
:102080001F910F91FF90EF90DF90CF90BF90AF9096
:102090009F908F9008958F929F92AF92BF92CF9210
:1020A000DF92EF92FF920F931F93D82EC92E4B0110
:1020B00061E972E00E948F1F8D2D9C2D62E972E014
:1020C0000E944C1F8D2D9C2DF40161810E940D1FDB
:1020D0008D2D9C2D69E972E00E944C1FF4016281F4
:1020E00073818481958120E030E040E251E40E94D8
:1020F000FD2320E030E04AE754E40E94E8210E94FA
:10210000B8227B018C01672F770F770B8D2D9C2DCB
:102110000E940D1F9DE9A92E92E0B92E8D2D9C2DB8
:10212000B5010E944C1F8D2D9C2D6E2D0E940D1F00
:102130008D2D9C2DB5010E944C1FF4016681778185
:102140008085918520E030E040E251E40E94FD234B
:1021500020E030E04AE754E40E94E8210E94B822DF
:102160007B018C016F2D772767FD7A958D2D9C2D36
:102170000E940D1F8D2D9C2DB5010E944C1F8D2D91
:102180009C2D6E2D0E940D1F8D2D9C2DB5010E9442
:102190004C1FF401628573858485958520E030E0CD
:1021A00040E251E40E94FD230E94B8229B01AC0151
:1021B0008D2D9C2DB9010E94DC1E8D2D9C2D1F9113
:1021C0000F91FF90EF90DF90CF90BF90AF909F90D6
:1021D0008F90089565E00E94B70D08958F929F92A9
:1021E000AF92BF92CF92DF92EF92FF920F931F9325
:1021F000CF93DF934C01EB0181E08F87F4011581D0
:102200001E87C4010E94EA10181759F08091CC046F
:10221000882331F08FE595E06FE972E00E940E1E91
:102220001F86F40180818F708983808182958F70F1
:1022300088838B3059F08091CC04882331F08FE56E
:1022400095E06EEA72E00E940E1E1F86F401818105
:1022500082958F7090E024E630E0829FB001839FEA
:10226000700D929F700D1124882777FD8095982F0F
:102270000E94EB227B018C016A837B838C839D838C
:10228000F401218130E02F703070B901B3E0660FA6
:10229000771FBA95E1F7220F331F620F731F88274C
:1022A00077FD8095982F0E94EB229B01AC01C8011D
:1022B000B7010E94E8217B018C016A837B838C83B8
:1022C0009D83F401628162956F7070E0882777FDCD
:1022D0008095982F0E94EB229B01AC01C801B701A9
:1022E0000E94E82120E030E040E05FE30E94FD230F
:1022F0006A837B838C839D83F401228130E02F707D
:102300003070B901F3E0660F771FFA95E1F7220FFD
:10231000331F620F731F882777FD8095982F0E94C7
:10232000EB227B018C016E837F8388879987F40180
:10233000638162956F7070E0882777FD8095982F94
:102340000E94EB229B01AC01C801B7010E94E82169
:102350007B018C016E837F8388879987F401638179
:1023600070E06F707070882777FD8095982F0E94BD
:10237000EB222DEC3CEC4CEC5DE30E94FD239B0139
:10238000AC01C801B7010E94E82120E030E040E242
:1023900052E40E94E7215B016C016E837F83888792
:1023A0009987F401648162956F7070E0882777FDEA
:1023B0008095982F0E94EB227B018C016A877B8796
:1023C0008C879D87F401648170E06F70707088273E
:1023D00077FD8095982F0E94EB222DEC3CEC4CEC85
:1023E0005DE30E94FD239B01AC01C801B7010E947F
:1023F000E8216A877B878C879D87C601B50120E02D
:1024000030E040E252EC0E944C2287FD0AC0C60137
:10241000B50120E030E040E752E40E94F9231816AD
:10242000ACF41F868091CC04882381F08FE595E081
:102430006DEB72E00E94111D4E815F816885798588
:102440008FE595E022E030E00E94FB1DEA80FB80F2
:102450000C811D81C801B70120E030E040E050E46C
:102460000E944C2287FD0AC0C801B70120E030E07D
:1024700046E953E40E94F9231816ACF41F868091B4
:10248000CC04882381F08FE595E064ED72E00E9432
:10249000111D4A815B816C817D818FE595E022E091
:1024A00030E00E94FB1DEA84FB840C851D85C80179
:1024B000B70120E030E040E050E40E944C2287FD6C
:1024C0000AC0C801B70120E030E040E551E40E94B5
:1024D000F9231816ACF41F868091CC04882381F070
:1024E0008FE595E065EE72E00E94111D4A855B85DF
:1024F0006C857D858FE595E022E030E00E94FB1D34
:10250000DF91CF911F910F91FF90EF90DF90CF90CF
:10251000BF90AF909F908F900895CF92DF92EF92EF
:10252000FF920F931F93DF93CF93CDB7DEB76E97D4
:102530000FB6F894DEBF0FBECDBF8C016E010894BC
:10254000C11CD11CC60161E972E00E948F1F8FE09F
:10255000E82EF12CEC0EFD1EC801B7010E94EE1012
:102560008E8D882371F08E01085F1F4FC801B7015F
:102570000E944B10C601B8010E94A91FC8010E9409
:10258000CB1F8D819E81892B39F08FE595E0BE01AF
:102590006F5F7F4F0E94541E00E08D819E81892BCA
:1025A00009F001E0CE0101960E94CB1F802F6E96AC
:1025B0000FB6F894DEBF0FBECDBFCF91DF911F9154
:1025C0000F91FF90EF90DF90CF9008950F931F939E
:1025D000CF93DF938C01EB0181E0898FF80180813B
:1025E00088838181898390E0848187FD91E09D8348
:1025F000F801928180E0238130E0822B932B9B8332
:102600008A8390E0818586FD91E09E8B90E0F801C1
:10261000818587FD91E09F8B8D818823C1F080E0CB
:1026200090E0A0E0B0E08E839F83A887B9878A8777
:102630009B87AC87BD878E879F87A88BB98B8A8B3A
:102640009B8BAC8BBD8B1C82188E198E79C0F801C8
:10265000608570E0882777FD8095982F0E94EB2297
:1026600020E030E040E05FE30E94FD2320E030E026
:1026700040E053E40E94E8216E837F838887998736
:10268000F801768160E0278130E0622B732B882788
:1026900077FD8095982F0E94EB226A877B878C8735
:1026A0009D87F801848190E08F739070982F882720
:1026B000258130E0822B932B62E070E00E9483241E
:1026C000882777FD8095982F0E94EB226E877F8761
:1026D000888B998BF801618570E06F737070762F2D
:1026E0006627228530E0622B732B882777FD809543
:1026F000982F0E94EB2220E030E048EC52E40E9448
:1027000050226A8B7B8B8C8B9D8B90E0F8018481AF
:1027100086FD91E09C83F8018385888F20E030E07E
:1027200090E0F801E20FF31F8081980F2F5F3F4F79
:102730002C303105B1F7198E992311F481E0898F7E
:10274000DF91CF911F910F9108958F929F92AF9239
:10275000BF92CF92DF92EF92FF920F931F93D82EEA
:10276000C92E4B0166E473E00E948F1F8D2D9C2DB6
:1027700067E473E00E944C1FF40163818D2D9C2D52
:102780000E940D1F73E5A72E73E0B72E8D2D9C2D93
:10279000B5010E944C1F8D2D9C2DF40162810E9479
:1027A0000D1F8D2D9C2DB5010E944C1FF4016681DB
:1027B00077818085918520E030E040E251E40E94FD
:1027C000FD230E94B8227B018C016F2D772767FDC6
:1027D0007A958D2D9C2D0E940D1F8D2D9C2DB50160
:1027E0000E944C1F8D2D9C2D6E2D0E940D1F8D2D36
:1027F0009C2DB5010E944C1FF40162857385848570
:1028000095850E94B8229B01AC01232F330F330B17
:102810008D2D9C2D622F0E940D1F8D2D9C2DB5019D
:102820000E944C1FF40162857385848595850E9402
:10283000BD229B01AC018D2D9C2D622F0E940D1F8E
:102840008D2D9C2DB5010E944C1FF4016685778566
:10285000808991890E94B8229B01AC01232F330FFC
:10286000330B8D2D9C2D622F0E940D1F8D2D9C2DC5
:10287000B5010E944C1FF401668577858089918996
:102880000E94BD229B01AC018D2D9C2D622F0E94C8
:102890000D1F8D2D9C2DB5010E944C1FF4016289E6
:1028A00073898489958920E030E048EC52E40E94E5
:1028B000FD230E94B8227B018C01672F770F770BD5
:1028C0008D2D9C2D0E940D1F8D2D9C2DB5010E94DC
:1028D0004C1F8D2D9C2D6E2D0E940D1F8D2D9C2D1E
:1028E000B5010E944C1FF4016581660F8481680F59
:1028F0008D2D9C2D0E940D1F8D2D9C2D1F910F91B4
:10290000FF90EF90DF90CF90BF90AF909F908F900F
:102910000895EF92FF920F931F93DF93CF93CDB75C
:10292000DEB7A8970FB6F894DEBF0FBECDBF8C01FF
:10293000CE01019666E473E00E948F1FF80180814A
:10294000853211F581818A3621F08A3211F0803486
:10295000D9F4EFE0EE2EF12CEC0EFD1EC801B7010C
:102960000E94E61288A5882379F08E01085F1F4F28
:10297000C801B7010E94A513CE010196B8010E94BB
:10298000A91FC8010E94CB1F8D819E81892B39F020
:102990008FE595E0BE016F5F7F4F0E94541E10E0EF
:1029A0008D819E81892B09F011E0CE0101960E9454
:1029B000CB1F812FA8960FB6F894DEBF0FBECDBFF8
:1029C000CF91DF911F910F91FF90EF900895CF92DB
:1029D000DF92EF92FF920F931F93CF93DF936C01DF
:1029E000EB0181E08B87F6018081888385818A876E
:1029F00020E030E090E0F601E20FF31F8081980FB5
:102A00002F5F3F4F26303105B1F71B86992311F414
:102A100081E08B87F6012181822F90E08073907096
:102A200044E0959587954A95E1F7982F882309F416
:102A300094E09295907F2F70922B9983F60162819A
:102A400070E062537040882777FD8095982F0E9430
:102A5000EB2220E030E040E251E40E94FD237B01C4
:102A60008C01F601638170E0882777FD8095982FAF
:102A70000E94EB229B01AC01C801B7010E94E82132
:102A800020E030E040E251E40E9450226C837D83DC
:102A90008E839F83F6018481898720E0818190E085
:102AA00036E0959587953A95E1F7892B09F021E075
:102AB0002887DF91CF911F910F91FF90EF90DF90CA
:102AC000CF900895CF92DF92EF92FF920F931F93D2
:102AD000DF93CF93CDB7DEB76A970FB6F894DEBF1A
:102AE0000FBECDBF8C016E010894C11CD11CC60164
:102AF0006AEA73E00E948F1FF8018081813529F511
:102B00005FE0E52EF12CEC0EFD1EC801B7010E941E
:102B1000E7148A8D882371F08E01085F1F4FC8016A
:102B2000B7010E94E40DC601B8010E94A91FC801A7
:102B30000E94CB1F8D819E81892B39F08FE595E016
:102B4000BE016F5F7F4F0E94541E10E08D819E81F9
:102B5000892B09F011E0CE0101960E94CB1F812F35
:102B60006A960FB6F894DEBF0FBECDBFCF91DF914E
:102B70001F910F91FF90EF90DF90CF900895FC018F
:102B800060E040E050E0A1E3708120E030E0C90166
:102B9000840F951F449734F4872F8627660F87FD8F
:102BA0006A27770F2F5F3F4F2830310581F7319625
:102BB000485F5F4F4831510539F7862F0895EF92EE
:102BC000FF921F93CF93DF937C01EB0181E08B8712
:102BD000F70112811295107F838182958F70182BD7
:102BE0001987C7010E94BF1518131B86F701808142
:102BF0008F7389838081829586958695837088837B
:102C0000833009F01B8690E0F701818187FD91E018
:102C10009A8390E0F701818186FD91E09B83F70123
:102C2000628162956F7070E0218130E02F733070A7
:102C3000F4E0220F331FFA95E1F7622B732B8827FC
:102C400077FD8095982F0E94EB222DEC3CEC4CEC0C
:102C50005DE30E94FD2320E030E040E252E40E9468
:102C6000E7216C837D838E839F83F70183818F703F
:102C70008A878AE68887DF91CF911F91FF90EF9036
:102C800008958F929F92AF92BF92CF92DF92EF9270
:102C9000FF920F931F93DF93CF93CDB7DEB72797A4
:102CA0000FB6F894DEBF0FBECDBF4C015B018E01A5
:102CB0000F5F1F4FC8016CEF73E00E948F1FC801A8
:102CC0006DEF73E00E944C1FC801F50161810E9405
:102CD0000D1FC80160E20E94391FF50190859436EE
:102CE00040F09A3631F0892F8058843610F09A3EA1
:102CF00071F4F5018281882319F461E070E002C06B
:102D000061E870E08E010F5F1F4FC8010BC09D3757
:102D100019F09D3F09F04DC08E010F5F1F4FC80194
:102D200062E870E00E94DC1EC80160E20E94391F68
:102D3000F501648175818681978120E030E040E271
:102D400051E40E94FD2320E030E04AE754E40E9471
:102D5000E8210E94BD226B017C018E010F5F1F4F95
:102D6000C8016D2D0E940D1FC80160E20E94391F2D
:102D7000C8016C2D0E940D1FC80160E20E94391F1E
:102D8000F501E480F58006811781C801B70120E0D4
:102D900030E040E752E40E94F92387FF0AC0C801EF
:102DA000B70120E030E040E252EC0E944C221816BD
:102DB00034F0C4016CEF73E00E948F1F0FC0F50167
:102DC00060858381811160688E010F5F1F4FC8018C
:102DD0000E940D1FC401B8010E94C01FCE010196C0
:102DE0000E94CB1FC40127960FB6F894DEBF0FBE1A
:102DF000CDBFCF91DF911F910F91FF90EF90DF90AA
:102E0000CF90BF90AF909F908F900895CF92DF9218
:102E1000EF92FF920F931F93DF93CF93CDB7DEB75F
:102E20006A970FB6F894DEBF0FBECDBF8C016E015E
:102E30000894C11CD11CC6016CEF73E00E948F1F67
:102E4000F8018081807C803C29F5AFE0EA2EF12CEE
:102E5000EC0EFD1EC801B7010E94DF158A8D882384
:102E600071F08E01085F1F4FC801B7010E94411623
:102E7000C601B8010E94A91FC8010E94CB1F8D8105
:102E80009E81892B39F08FE595E0BE016F5F7F4F02
:102E90000E94541E10E08D819E81892B09F011E063
:102EA000CE0101960E94CB1F812F6A960FB6F8942F
:102EB000DEBF0FBECDBFCF91DF911F910F91FF906D
:102EC000EF90DF90CF900895FC0181E0808308951A
:102ED0001F93FC01162F8081882359F089E061E05F
:102EE0000E949C1860E0112309F461E089E00E94CF
:102EF000DB181F910895FC016083662311F40E9482
:102F000068170895EF92FF920F931F93CF93DF936B
:102F10007C01662301F16B3008F06AE0C0E0D0E08C
:102F2000062F10E015C0C70161E00E94681762E338
:102F300070E080E090E00E940818C70160E00E9405
:102F4000681762E370E080E090E00E940818219624
:102F5000C017D10744F3DF91CF911F910F91FF90DC
:102F6000EF9008951F920F920FB60F9211242F9396
:102F70003F938F939F93AF93BF938091D20490918F
:102F8000D304A091D404B091D5043091D604019615
:102F9000A11DB11D232F2D5F2D3720F02D57019638
:102FA000A11DB11D2093D6048093D2049093D30425
:102FB000A093D404B093D5048091CE049091CF0413
:102FC000A091D004B091D1040196A11DB11D8093B0
:102FD000CE049093CF04A093D004B093D104BF91BA
:102FE000AF919F918F913F912F910F900FBE0F90B6
:102FF0001F9018958FB7F8942091D2043091D30484
:103000004091D4045091D5048FBFB901CA010895ED
:103010009B01AC017FB7F8948091CE049091CF04CE
:10302000A091D004B091D10466B5A89B05C06F3FB4
:1030300019F00196A11DB11D7FBFBA2FA92F982F9E
:103040008827860F911DA11DB11D62E0880F991F71
:10305000AA1FBB1F6A95D1F7BC012DC0FFB7F8941A
:103060008091CE049091CF04A091D004B091D1046E
:10307000E6B5A89B05C0EF3F19F00196A11DB11D53
:10308000FFBFBA2FA92F982F88278E0F911DA11D42
:10309000B11DE2E0880F991FAA1FBB1FEA95D1F767
:1030A000861B970B885E9340C8F221503040404009
:1030B000504068517C4F211531054105510571F68D
:1030C0000895789484B5826084BD84B5816084BDA0
:1030D00085B5826085BD85B5816085BDEEE6F0E091
:1030E000808181608083E1E8F0E0108280818260ED
:1030F0008083808181608083E0E8F0E0808181606E
:103100008083E1EBF0E0808184608083E0EBF0E09D
:10311000808181608083EAE7F0E080818460808341
:1031200080818260808380818160808380818068EB
:1031300080831092C1000895CF93DF93482F50E011
:10314000CA018C569C4FFC01349140585C4FFA01E7
:103150008491882369F190E0880F991FFC01EE5952
:10316000FC4FA591B491FC01E459FC4FC591D49159
:10317000662351F42FB7F8948C91932F909589235F
:103180008C93888189230BC0623061F42FB7F89447
:103190008C91932F909589238C938881832B88839E
:1031A0002FBF06C09FB7F8948C91832B8C939FBF41
:1031B000DF91CF910895482F50E0CA0188559C4F68
:1031C000FC012491CA018C569C4FFC0194914058FB
:1031D0005C4FFA013491332309F440C0222351F1AA
:1031E000233071F0243028F42130A1F0223011F581
:1031F00014C02630B1F02730C1F02430D9F404C017
:10320000809180008F7703C0809180008F7D8093B4
:10321000800010C084B58F7702C084B58F7D84BDD7
:1032200009C08091B0008F7703C08091B0008F7D7E
:103230008093B000E32FF0E0EE0FFF1FE459FC4F46
:10324000A591B4912FB7F894662321F48C919095B1
:10325000892302C08C91892B8C932FBF0895682FEE
:1032600070E0CB0188559C4FFC012491CB018C561A
:103270009C4FFC01449160587C4FFB019491992331
:1032800019F420E030E03CC0222351F1233071F0EA
:10329000243028F42130A1F0223011F514C026305A
:1032A000B1F02730C1F02430D9F404C080918000FF
:1032B0008F7703C0809180008F7D8093800010C045
:1032C00084B58F7702C084B58F7D84BD09C080919D
:1032D000B0008F7703C08091B0008F7D8093B000E5
:1032E000892F90E0880F991F8A589C4FFC01A59167
:1032F000B4918C9120E030E0842311F021E030E0A3
:10330000C901089508951F920F920FB60F921124CC
:103310002F933F934F938F939F93EF93FF938091BE
:10332000C00082FD1DC04091C6002091170530915C
:1033300018052F5F3F4F2F733070809119059091C2
:103340001A052817390771F0E0911705F091180553
:10335000E952FB4F4083309318052093170502C0B4
:103360008091C600FF91EF919F918F914F913F9176
:103370002F910F900FBE0F901F901895E0916B0545
:10338000F0916C05E05CFF4F81919191208131813A
:10339000821B930B8F739070892B11F00E948219FE
:1033A00008951F920F920FB60F9211242F933F93FF
:1033B0008F939F93EF93FF9320915B0530915C0572
:1033C00080915D0590915E052817390731F4809151
:1033D000C1008F7D8093C10014C0E0915D05F09124
:1033E0005E05E55EFA4F208180915D0590915E0556
:1033F00001968F73907090935E0580935D05209386
:10340000C600FF91EF919F918F913F912F910F9067
:103410000FBE0F901F901895AF92BF92DF92EF9260
:10342000FF920F931F93CF93DF93EC017A018B01EF
:10343000DD24403081EE580780E0680780E078079F
:1034400011F0DD24D39491E0A92EB12CEC89FD89F3
:10345000DD2069F0C50108A002C0880F991F0A94F9
:10346000E2F7808360E079E08DE390E005C01082B0
:1034700060E874E88EE190E0A80197010E9496242C
:1034800021503040404050405695479537952795FC
:1034900080E12030380720F0DD2011F0DD24D6CF88
:1034A000E889F9893083EA89FB89208319A2EE89AA
:1034B000FF89408121E030E0C9010C8C02C0880FF7
:1034C000991F0A94E2F7482B4083EE89FF894081D7
:1034D000C9010D8C02C0880F991F0A94E2F7482B8E
:1034E0004083EE89FF894081C9010E8C02C0880F9C
:1034F000991F0A94E2F7482B4083EE89FF89808167
:103500000F8C02C0220F331F0A94E2F72095282364
:103510002083DF91CF911F910F91FF90EF90DF906B
:10352000BF90AF900895DC011C96ED91FC911D9722
:10353000E05CFF4F2191319180819181281B390BF3
:103540002F733070C9010895DC011C96ED91FC9138
:103550001D97E05CFF4F20813181E054F040DF0196
:10356000AE5BBF4F8D919C9111972817390719F4C5
:103570002FEF3FEF07C08D919C91E80FF91F8081DD
:10358000282F30E0C9010895DC011C96ED91FC91D3
:103590001D97E05CFF4F20813181E054F040DF0156
:1035A000AE5BBF4F8D919C9111972817390719F485
:1035B0002FEF3FEF10C08D919C911197E80FF91FED
:1035C00020818D919C91119701968F739070119627
:1035D0009C938E9330E0C9010895DC0191968C9103
:1035E0009197882339F05496ED91FC9155978081FD
:1035F00086FFF9CF91961C920895CF93DF93EC014B
:10360000EE85FF85E05CFF4F20813181E054F04082
:103610002F5F3F4F2F733070DF01AE5BBF4F8D9137
:103620009C91119728173907D1F3E05CFF4F8081F7
:103630009181E054F040E80FF91F6083EE85FF852B
:10364000E05CFF4F31832083EE89FF89208181E098
:1036500090E00F8C02C0880F991F0A94E2F7282B84
:10366000208381E089A3EC89FD8980818064808347
:1036700081E090E0DF91CF91089510926205109261
:10368000610588EE93E0A0E0B0E08093630590933D
:103690006405A0936505B093660583E294E090937A
:1036A000600580935F0587ED94E090936C058093AF
:1036B0006B058BE195E090936E0580936D0585EC2D
:1036C00090E09093700580936F0584EC90E0909368
:1036D00072058093710580EC90E09093740580935F
:1036E000730581EC90E0909376058093750582ECEC
:1036F00090E0909378058093770586EC90E0909326
:103700007A058093790584E080937B0583E080933C
:103710007C0587E080937D0585E080937E0581E0D0
:1037200080937F050895CF93DF930E9461180E94D4
:103730007104CEEBD9E10E94EC052097E1F30E94E1
:10374000BE19F9CFCF92DF92EF92FF920F931F93A2
:10375000CF93DF937C016B018A01C0E0D0E00FC002
:10376000D6016D916D01D701ED91FC910190F08131
:10377000E02DC7010995C80FD91F01501040011550
:10378000110571F7CE01DF91CF911F910F91FF903D
:10379000EF90DF90CF900895DC01ED91FC910190C6
:1037A000F081E02D09950895EF92FF920F931F93FA
:1037B0008C01DC01ED91FC910190F081E02D6DE038
:1037C00009957C01D801ED91FC910190F081E02DEB
:1037D000C8016AE009959C012E0D3F1DC9011F918A
:1037E0000F91FF90EF900895EF92FF920F931F9328
:1037F0007C01DC01ED91FC910190F081E02D0995B7
:103800008C01C7010E94D41B080F191FC8011F910A
:103810000F91FF90EF900895CF93DF93EC01611526
:10382000710519F420E030E00FC0DB010D9000209D
:10383000E9F71197A61BB70BE881F9810280F381A4
:10384000E02DAD0109959C01C901DF91CF9108954B
:103850004F925F927F928F929F92AF92BF92CF9240
:10386000DF92EF92FF920F931F93DF93CF93CDB729
:10387000DEB7A1970FB6F894DEBF0FBECDBF2C0107
:10388000742ECB01223008F42AE019A231E2C32EB3
:10389000D12CCC0EDD1E822E9924AA24BB24672DA8
:1038A000752FA50194010E94962479018A01C8010F
:1038B000B701A50194010E946424472D461B08947A
:1038C000C108D1084A3014F4405D01C0495CF601DA
:1038D0004083E114F1040105110521F07E2C5F2DD8
:1038E000C801DDCFC201B6010E940C1CA1960FB623
:1038F000F894DEBF0FBECDBFCF91DF911F910F9126
:10390000FF90EF90DF90CF90BF90AF909F908F90FF
:103910007F905F904F900895DC012115310541F4AF
:10392000ED91FC910190F081E02D642F09950895AF
:103930000E94281C0895EF92FF920F931F939A0103
:103940007B0100E010E0B801A7010E948C1C1F91D0
:103950000F91FF90EF900895EF92FF920F931F93B6
:103960009A01E62EFF2400E010E0B801A7010E94B2
:103970008C1C1F910F91FF90EF900895CF92DF92D2
:10398000EF92FF920F931F93CF93DF93EC016A01A5
:103990007B012115310541F4E881F9810190F08125
:1039A000E02D642F09951FC02A303105D1F477FF2F
:1039B00017C0E881F9810190F081E02D6DE2099551
:1039C0008C0144275527BA014C195D096E097F09FE
:1039D000CE012AE00E94281C9801280F391F04C03C
:1039E0002AE00E94281C9C01C901DF91CF911F9100
:1039F0000F91FF90EF90DF90CF900895EF92FF929C
:103A00000F931F937B019A010027F7FC0095102F5D
:103A1000B801A7010E94BE1C1F910F91FF90EF906B
:103A200008950E940C1C08957F928F929F92AF92EE
:103A3000BF92CF92DF92EF92FF920F931F93CF939B
:103A4000DF934C017A018B01722ECB01BA01A801E0
:103A500097010E946024882321F0C40163E074E090
:103A600021C0C0E0D0E057016801E894D7F8C60152
:103A7000B5012FEF3FEF4FE75FE70E9460248823F7
:103A800051F4C601B5012FEF3FEF4FE75FE70E940A
:103A90004C22181614F0C1E0D0E0219739F0C4018F
:103AA00067E074E00E940C1CEC0193C0C801B701F0
:103AB0002FEF3FEF4FE75FE40E94F923181654F011
:103AC000C801B7012FEF3FEF4FE75FEC0E944C2298
:103AD000882324F4C4016BE074E0E4CFC801B7018B
:103AE00020E030E040E050E00E944C2287FD03C01F
:103AF000C0E0D0E00EC0D401ED91FC910190F081C6
:103B0000E02DC4016DE20995EC0117FB109517F942
:103B1000109520E030E040E05FE3DD240BC0CA01F7
:103B2000B90120E030E040E251E40E9450229B01C4
:103B3000AC01D394D71498F3C801B7010E94E821CF
:103B40005B016C010E94BD227B018C01C401B801A4
:103B5000A7012AE030E00E948C1CC80FD91F7720F3
:103B600039F0C4016FE074E00E940C1CC80FD91F2B
:103B7000C801B7010E94E9229B01AC01C601B50151
:103B80000E94E72124C020E030E040E251E40E949E
:103B9000FD237B018C010E94B8225B016C01CC24C7
:103BA000B7FCC094DC2CC401B601A5012AE030E0CA
:103BB0000E94BE1CC80FD91FC601B5010E94EB228E
:103BC0009B01AC01C801B7010E94E7217A947720DC
:103BD000D1F6CE01DF91CF911F910F91FF90EF9021
:103BE000DF90CF90BF90AF909F908F907F9008957F
:103BF0000E94141D0895EF92FF920F931F937C0172
:103C00000E94141D8C01C7010E94D41B080F191FAC
:103C1000C8011F910F91FF90EF900895EF92FF92CE
:103C20000F931F937C010E940C1C8C01C7010E9402
:103C3000D41B080F191FC8011F910F91FF90EF901F
:103C40000895AF92BF92CF92DF92EF92FF920F93BF
:103C50001F93CF93DF935C016B01EE24FF24C0E040
:103C6000D0E010C0D501ED91FC9100811181C60119
:103C7000BE010E94681E682FC501F8010995E80E73
:103C8000F91E2196F60184819581C817D90750F352
:103C9000C701DF91CF911F910F91FF90EF90DF90BF
:103CA000CF90BF90AF900895EF92FF920F931F9324
:103CB0007C010E94211E8C01C7010E94D41B9C0123
:103CC000200F311FC9011F910F91FF90EF900895B0
:103CD000FC01848195816817790748F40190F0818F
:103CE000E02D309721F0E60FF71F8081089580E0E6
:103CF00008950F931F93CF93DF93EC018B016F5FB8
:103D00007F4F888199810E940621009711F480E0FD
:103D100005C0998388831B830A8381E0DF91CF915B
:103D20001F910F910895CF93DF93EC0188819981C2
:103D3000892B29F08A819B818617970760F4CE0131
:103D40000E94791E882341F08C819D81892B19F472
:103D5000E881F981108281E0DF91CF910895EF929F
:103D6000FF920F931F93CF93DF93EC017B016C8144
:103D70007D81E114F104C1F04115510599F08A01EA
:103D8000060F171FB8010E94931E882369F08881CF
:103D900099812C813D81820F931FB7010E941302EC
:103DA0001D830C8381E001C080E0DF91CF911F91E2
:103DB0000F91FF90EF900895EF92FF920F931F9352
:103DC000DF93CF93CDB7DEB727970FB6F894DEBF5A
:103DD0000FBECDBF7C01CB018E010F5F1F4FB8011D
:103DE0004AE050E00E941A02F80101900020E9F731
:103DF0003197E01BF10BC701B801AF010E94AF1E64
:103E000027960FB6F894DEBF0FBECDBFCF91DF91DE
:103E10001F910F91FF90EF900895EF92FF920F93F3
:103E20001F93DF93CF9300D000D0CDB7DEB77C01D6
:103E3000862F90E08E010F5F1F4FB8014AE050E0DF
:103E40000E941A02F80101900020E9F73197E01B67
:103E5000F10BC701B801AF010E94AF1E0F900F9088
:103E60000F900F90CF91DF911F910F91FF90EF90E6
:103E70000895DF93CF9300D0CDB7DEB769831A8260
:103E8000BE016F5F7F4F41E050E00E94AF1E0F9078
:103E90000F90CF91DF9108956115710511F480E0C5
:103EA0000895DB010D900020E9F71197A61BB70BD1
:103EB000AD010E94AF1E0895CF93DF93EC0188817E
:103EC0009981009711F00E946E20198218821D823C
:103ED0001C821B821A82DF91CF910895EF92FF928C
:103EE0000F931F93CF93DF93EC017B018A01BA01FB
:103EF0000E94931E882321F4CE010E945C1F07C0FC
:103F00001D830C8388819981B7010E941302CE0121
:103F1000DF91CF911F910F91FF90EF900895CF9374
:103F2000DF93EC01198218821B821A821D821C8287
:103F30001E826115710551F0DB010D900020E9F73B
:103F40001197A61BB70BAD010E946E1FDF91CF9199
:103F50000895CF93DF93EC01FB018617970761F07B
:103F6000608171816115710529F0448155810E943C
:103F70006E1F02C00E945C1FCE01DF91CF91089599
:103F8000FC01118210821382128215821482168221
:103F90000E94A91F0895FC01808191810E946E20DA
:103FA00008950F931F93CF93DF93BC018230910547
:103FB00010F462E070E0E0918305F091840540E048
:103FC00050E0A0E0B0E024C080819181861797077F
:103FD000D0F08617970771F482819381109729F0AA
:103FE00013969C938E9312972CC090938405809384
:103FF000830527C04115510519F08417950718F45A
:104000008D01AC01EF01DF01828193819C01F901F7
:104010003097D1F641155105F9F0CA01861B970B6F
:104020008430910580F48A819B810115110521F06E
:10403000F8019383828304C0909384058093830561
:10404000FE01329645C0FE01E80FF91F619371939E
:104050000297998388833CC0809181059091820565
:10406000892B41F480911B0490911C04909382054C
:104070008093810540911D0450911E044115510506
:1040800041F44DB75EB78091190490911A04481B12
:10409000590B209181053091820524173507B0F422
:1040A000CA01821B930B8617970780F0AB014E5F06
:1040B0005F4F8417950750F0420F531F50938205AE
:1040C00040938105F9016193719302C0E0E0F0E053
:1040D000CF01DF91CF911F910F910895CF93DF937F
:1040E0009C01009709F48FC0EC0122971B821A8271
:1040F00060918305709184056115710581F4888153
:104100009981820F931F2091810530918205281794
:10411000390739F5D0938205C093810574C0DB015E
:1041200040E050E0AC17BD0708F1BB83AA83FE0155
:1041300021913191E20FF31FAE17BF0779F48D91F2
:104140009C911197280F391F2E5F3F4F3983288389
:1041500012968D919C9113979B838A8341155105EB
:1041600071F4D0938405C09383054DC012968D9150
:104170009C911397AD01009711F0DC01D3CFDA01C8
:104180001396DC93CE931297FA0121913191E20FAD
:10419000F31FCE17DF0769F488819981280F391F33
:1041A0002E5F3F4FFA01318320838A819B81938365
:1041B0008283E0E0F0E0DB0112968D919C911397F1
:1041C000009719F0BC01FD01F6CFAB014E5F5F4FC8
:1041D000DB018D919C91840F951F20918105309179
:1041E00082052817390779F4309729F4109284054D
:1041F0001092830502C013821282425050405093A5
:10420000820540938105DF91CF9108956F927F924F
:104210008F929F92AF92BF92CF92DF92EF92FF92D6
:104220000F931F93CF93DF938C01009729F4CB0159
:104230000E94D11F8C01BBC08EEFE82E8FEFF82EAD
:10424000E00EF11E4801860E971E8E149F0408F49E
:10425000ACC0D7014D915C91119746175707B8F044
:104260004530510508F4A3C0CA0104978617970783
:1042700008F49DC042505040461B570BF401419337
:1042800051936D937C93CF010E946E2090C05B018F
:10429000A41AB50A3801640E751EA0918305B09169
:1042A0008405E0E0F0E0CC24DD2447C0A615B70586
:1042B000A9F5CD91DC911197CE0102968A159B0547
:1042C00068F1CE018A199B09029612962C911297D9
:1042D00013963C91059758F0F40122833383CA1951
:1042E000DB09D183C083D7016D937C9309C04E5FF6
:1042F0005F4F4C0F5D1FF70151834083C901FC01E3
:10430000C114D10431F0D6011396FC93EE931297A9
:104310004EC0F0938405E093830549C08D919C9134
:104320001197E817F90708F4FC016D0112968C91BA
:10433000129713969C919C01D901109709F0B6CF62
:10434000809181059091820586159705E9F4E6171D
:10435000F707D0F420911D0430911E04211531057A
:1043600041F42DB73EB78091190490911A04281B8F
:10437000390B82169306C8F49092820580928105CB
:10438000F7017183608313C0CB010E94D11FEC0140
:10439000009759F0D7014D915C91B8010E940A0233
:1043A000C8010E946E208E0102C000E010E0C8012A
:1043B000DF91CF911F910F91FF90EF90DF90CF9001
:1043C000BF90AF909F908F907F906F9008955058BE
:1043D000BB27AA270ED0D3C1C4D130F0C9D120F059
:1043E00031F49F3F11F41EF4B9C10EF4E095E7FBE0
:1043F0009FC1E92FD5D180F3BA17620773078407ED
:10440000950718F071F49EF5EDC10EF4E0950B2EB2
:10441000BA2FA02D0B01B90190010C01CA01A00116
:104420001124FF27591B99F0593F50F4503E68F171
:104430001A16F040A22F232F342F4427585FF3CFB2
:10444000469537952795A795F0405395C9F77EF483
:104450001F16BA0B620B730B840BBAF09150A1F0CC
:10446000FF0FBB1F661F771F881FC2F70EC0BA0F52
:10447000621F731F841F48F4879577956795B795DA
:10448000F7959E3F08F0B3CF9395880F08F09927D2
:10449000EE0F97958795089527D108F481E0089548
:1044A0000CD06DC165D140F05CD130F021F45F3F9C
:1044B00019F03EC1511197C151C172D198F399239E
:1044C000C9F35523B1F3951B550BBB27AA276217D8
:1044D0007307840738F09F5F5F4F220F331F441F1D
:1044E000AA1FA9F333D00E2E3AF0E0E830D0915055
:1044F0005040E695001CCAF729D0FE2F27D0660F42
:10450000771F881FBB1F261737074807AB07B0E880
:1045100009F0BB0B802DBF01FF2793585F4F2AF096
:104520009E3F510568F004C15EC15F3FECF3983EC9
:10453000DCF3869577956795B795F7959F5FC9F7F3
:10454000880F911D9695879597F90895E1E0660F7C
:10455000771F881FBB1F621773078407BA0720F0F5
:10456000621B730B840BBA0BEE1F88F7E09508955E
:1045700004D06894B11137C108951AD188F09F57BB
:1045800090F0B92F9927B751A0F0D1F0660F771F9F
:10459000881F991F1AF0BA95C9F712C0B13081F07F
:1045A00021D1B1E008951EC1672F782F8827B85F09
:1045B00039F0B93FCCF3869577956795B395D9F7E0
:1045C0003EF490958095709561957F4F8F4F9F4FEA
:1045D0000895E89409C097FB3EF4909580957095F6
:1045E00061957F4F8F4F9F4F9923A9F0F92F96E93F
:1045F000BB279395F695879577956795B795F111B4
:10460000F8CFFAF4BB0F11F460FF1BC06F5F7F4F50
:104610008F4F9F4F16C0882311F096E911C0772362
:1046200021F09EE8872F762F05C0662371F096E86B
:10463000862F70E060E02AF09A95660F771F881F3A
:10464000DAF7880F9695879597F908958AD018F02C
:1046500011F08ED038F482C0C6C0E92FA1D0B0F3DB
:104660005523C9F3E7FB6217730784079507A8F181
:1046700099F3E92FFF2788232AF03197660F771FD8
:10468000881FDAF7952F5527442332F09150504078
:10469000220F331F441FD2F7BB27E91BF50B621B08
:1046A000730B840BB109C1F222F4620F731F841FD4
:1046B000B11D31972AF0660F771F881FBB1FEFCF00
:1046C000915050405AF041F0882332F0660F771F26
:1046D000881F91505040C1F7939530C086957795CB
:1046E00067959F5FD9F7F8CF990F0008550FAA0B70
:1046F000E0E8FEEF16161706E807F907C0F01216F5
:104700001306E407F50798F0621B730B840B950BF7
:1047100039F40A2661F0232B242B252B21F408954C
:104720000A2609F4A140A6958FEF811D811D0895E9
:1047300097F99F6780E870E060E008959F3F49F037
:10474000915028F4869577956795B7959F5F803847
:104750009F4F880F9695879597F908959FEF80EC66
:10476000089500240A9416161706180609060895D7
:1047700000240A9412161306140605060895092E3D
:104780000394000C11F4882352F0BB0F40F4BF2BAC
:1047900011F460FF04C06F5F7F4F8F4F9F4F0895EC
:1047A00057FD9058440F551F59F05F3F71F04795E2
:1047B000880F97FB991F61F09F3F79F087950895C7
:1047C000121613061406551FF2CF4695F1DF08C0E6
:1047D000161617061806991FF1CF86957105610503
:1047E00008940895E894BB2766277727CB0197F9AB
:1047F00008957ADF08F48FEF08950BD0C0CFB1DFB2
:1048000028F0B6DF18F0952309F092CFA7CF112436
:10481000EACFC6DFA0F3959FD1F3950F50E0551F67
:10482000629FF001729FBB27F00DB11D639FAA2705
:10483000F00DB11DAA1F649F6627B00DA11D661F54
:10484000829F2227B00DA11D621F739FB00DA11D75
:10485000621F839FA00D611D221F749F3327A00D2F
:10486000611D231F849F600D211D822F762F6A2FCB
:1048700011249F5750408AF0E1F088234AF0EE0F50
:10488000FF1FBB1F661F771F881F91505040A9F75D
:104890009E3F510570F04CCFA6CF5F3FECF3983EA2
:1048A000DCF3869577956795B795F795E7959F5FC4
:1048B000C1F7FE2B880F911D9695879597F908955E
:1048C00013DF880B990B0895629FD001739FF0014D
:1048D000829FE00DF11D649FE00DF11D929FF00D90
:1048E000839FF00D749FF00D659FF00D9927729FC7
:1048F000B00DE11DF91F639FB00DE11DF91FBD0152
:10490000CF011124089597FB092E07260AD077FDC1
:1049100004D02ED006D000201AF4709561957F4FF8
:104920000895F6F7909581959F4F0895A1E21A2E6C
:10493000AA1BBB1BFD010DC0AA1FBB1FEE1FFF1F43
:10494000A217B307E407F50720F0A21BB30BE40B93
:10495000F50B661F771F881F991F1A9469F76095DA
:104960007095809590959B01AC01BD01CF01089594
:10497000AA1BBB1B51E107C0AA1FBB1FA617B70785
:1049800010F0A61BB70B881F991F5A95A9F78095A1
:104990009095BC01CD010895EE0FFF1F0590F49195
:0849A000E02D0994F894FFCF0B
:1049A8000A5B004C6143726F7373654954506C75B0
:1049B800735265616465720031302E3168002028B9
:1049C8000029002040004175746F546F67676C655B
:1049D8002000205365636F6E647300206B627073F0
:1049E80000202F2000206B487A0054583A20543D6C
:1049F8000020483D00204E423D002A2A2A204C61D2
:104A080043726F737365207765617468657220738C
:104A1800746174696F6E20776972656C6573732051
:104A2800726563656976657220666F722049542BDA
:104A38002073656E736F7273202A2A2A005261648C
:104A4800696F20736574757020636F6D706C657421
:104A5800652E205374617274696E6720746F2072BA
:104A6800656365697665206D657373616765730055
:104A78000A456E6420726563656976696E672C20E5
:104A88004845582072617720646174613A2000209B
:104A98000052656C617965640053656E64696E6780
:104AA80020646174613A2000200052464D31324240
:104AB8000052464D36394357004E6F6E65005261BD
:104AC80064696F2069733A2000004F4B2039200039
:104AD80020005D00204352433A57524F4E47002072
:104AE8004352433A4F4B0020533A002049443A007E
:104AF800204E6577426174743A00204269743132FD
:104B08003A002054656D703A00205765616B426128
:104B180074743A002048756D3A00204352433A00B5
:104B28002530366420004C6143726F737365205BD7
:104B380000004F4B204C5320002030200020002341
:104B48002320435243204641494C202323004E6FE3
:104B58002076616C6964207374617274004E6F20F2
:104B680076616C69642054656D70657261747572E4
:104B7800653A20004E6F2076616C6964204C65763A
:104B8800656C3A20004E6F2076616C696420566F20
:104B98006C746167653A20002530366420004C65E6
:104BA80076656C53656E646572205B005D0020431A
:104BB80052433A57524F4E4700204352433A4F4BC5
:104BC8000020533A002049443A00204C6576656C31
:104BD8003A002054656D703A0020566F6C743A00A4
:104BE800204352433A00004F4B20454D5437313152
:104BF8003020002000253036642000454D543731E0
:104C08003130205B005D00204352433A57524F4EEB
:104C18004700204352433A4F4B0020533A00204963
:104C2800443A0020563A00206D413A0020573A0095
:104C3800206B57683A0020436F6E2E3A002050616F
:104C480069723A00204352433A000020005D002078
:104C58004352433A57524F4E4700204352433A4F2C
:104C68004B0020533A002049443A00204E657742D1
:104C78006174743A00205765616B426174743A003C
:104C88002054656D703A00204352433A002530366F
:104C9800642000545833384954205B00004F4B209F
:104CA8003920006E616E00696E66006F7666002EB0
:104CB8000059430000CC3F0D00800085050000002E
:104CC800000000FD1AA21B931AC41AA41AED1A00B8
:00000001FF
