:100000000C94AC000C94D4000C94D4000C94D40048
:100010000C94D4000C94D4000C94D4000C94D40010
:100020000C94D4000C94D4000C94D4000C94D40000
:100030000C94D4000C94D4000C94D4000C94D400F0
:100040000C9409290C94D4000C94EB2B0C941D2CCB
:100050000C94D4000C94D4000C94D4000C94D400D0
:100060000C94F9260C94D400E31EE91EEF1EF51E35
:10007000FB1E011F081F07634236B79BD8A71A391A
:10008000685618AEBAAB558C1D3CB7CC5763BD6DE6
:10009000EDFD753EF6177231BF000000803F08008D
:1000A0000000BE922449123EABAAAA2ABECDCCCCF7
:1000B0004C3E00000080BEABAAAAAA3E0000000091
:1000C000BF000000803F0000000000084178D3BB63
:1000D0004387D1133D190E3CC3BD4282AD2B3E6810
:1000E000EC8276BED98FE1A93E4C80EFFFBE01C401
:1000F000FF7F3F0000000000000000080002010038
:1001000000030407000000000000000001020408D2
:100110001020408001020408102001020408102071
:10012000040404040404040402020202020203039D
:100130000303030300000000230026002900000041
:100140000000250028002B000000000024002700EC
:100150002A00C20417264D2C11241FBECFEFD8E071
:10016000DEBFCDBF14E0A0E0B1E0ECEDF2E702C0ED
:1001700005900D92A630B107D9F726E0A6E0B4E0CD
:1001800001C01D92A338B207E1F711E0C8E5D1E044
:1001900004C02297FE010E943434C235D107C9F74A
:1001A0000E94912C0C946C390C940000CF93C82FB2
:1001B000809306050E94021D8C2F0E94021D6C2F49
:1001C00080E894E00E94FF1B6C2F8AE294E0CF91BC
:1001D0000C94FF1BFF920F931F93CF93DF93CDB728
:1001E000DEB7C458D1090FB6F894DEBF0FBECDBF3D
:1001F000F82E092F162F60E080E894E00E94321A52
:10020000EF2DF02F819189836FEF610FCC57DF4F76
:100210006883C458D040DE01149680E090E070E01E
:100220008617970724F421912D930196F9CF8DB766
:100230009EB7865591090FB6F8949EBF0FBE8DBF2D
:10024000ADB7BEB7119686E5E0E8F4E001900D92F7
:100250008A95E1F7CE0101960E94A20B0FB6F894A1
:10026000DEBF0FBECDBF61E080E894E00E94321A8D
:10027000CC57DF4F0FB6F894DEBF0FBECDBFDF9176
:10028000CF911F910F91FF900895CF93DF9300D0EE
:1002900000D000D0CDB7DEB764E171E082EE95E02A
:1002A0000E94EC2C67E171E082EE95E00E94EC2C5C
:1002B0006EE282EE95E00E94EE2C6CE271E082EE3E
:1002C00095E00E94EC2C64E471E082EE95E00E94DF
:1002D000EC2C60E874E0CE0101960E94681ABE0121
:1002E0006F5F7F4F82EE95E00E94DE2CCE0101967B
:1002F0000E94032F62E371E082EE95E00E94EC2CF5
:1003000080E894E00E94081CAB01BC012AE030E0C8
:1003100082EE95E00E94EA2D8091030590910405FC
:10032000892BF9F066E371E082EE95E00E94EC2CF7
:1003300060910305709104054AE050E082EE95E07B
:100340000E94FE2D6AE371E082EE95E00E94EC2CA3
:100350004AE050E060910B0182EE95E00E94F72D9B
:1003600012C06CE371E082EE95E00E94EC2C80E814
:1003700094E00E94021CAB01BC012AE030E082EE56
:1003800095E00E94EA2D60E471E082EE95E00E9423
:10039000EC2C8AE294E00E94651B882309F466C075
:1003A00062E471E082EE95E00E94EC2C6AE274E077
:1003B000CE0101960E94681ABE016F5F7F4F82EEE8
:1003C00095E00E94DE2CCE0101960E94032F62E38D
:1003D00071E082EE95E00E94EC2C8AE294E00E94AB
:1003E000081CAB01BC012AE030E082EE95E00E94DF
:1003F000EA2D8091010590910205892BF9F066E3C1
:1004000071E082EE95E00E94EC2C60910105709104
:1004100002054AE050E082EE95E00E94FE2D6AE37C
:1004200071E082EE95E00E94EC2C4AE050E0609191
:100430000A0182EE95E00E94F72D12C06CE371E094
:1004400082EE95E00E94EC2C8AE294E00E94021C6D
:10045000AB01BC012AE030E082EE95E00E94EA2D7B
:1004600060E471E082EE95E00E94EC2C8AE094E07A
:100470000E94180F882331F067E471E082EE95E066
:100480000E94EC2C6DE582EE95E00E942D2D2696C3
:100490000FB6F894DEBF0FBECDBFDF91CF910895A8
:1004A000CF92DF92EF92FF920F931F93CF93DF9340
:1004B000CDB7DEB7C154D1090FB6F894DEBF0FBE79
:1004C000CDBF8C0160E00E94321ABE016F5F7F4F8A
:1004D000C8010E940617809105058823C9F0CE0146
:1004E00001960E94E820CE0101960E941112CE01D1
:1004F00001960E942715CE0101960E94AD0CCE01F7
:1005000001960E94DE23CE0101960E94410A22C07C
:100510008091FF0461E0813011F589E294E00E944E
:100520008910CE0101967C016E0191E4C90ED11CA7
:10053000F70161917F0140E150E082EE95E00E9479
:10054000F72D6CE573E082EE95E00E94EC2CEC1444
:10055000FD0471F782EE95E00E94F52C5CC089E203
:1005600094E00E94891080910605882319F161E5C5
:1005700071E082EE95E00E94EC2CCE0101967C01A8
:100580006E0191E1C90ED11CF70161917F0140E13B
:1005900050E082EE95E00E94F72D6CE573E082EE6C
:1005A00095E00E94EC2CEC14FD0471F782EE95E0CE
:1005B0000E94F52CC8010E94021C0E94A2228823DE
:1005C00059F0CE0101960E947522882329F0CE01B0
:1005D00001960E94781E93C0C8010E94021C0E94CE
:1005E0008A13882331F0CE0101960E945D13811198
:1005F0005FC0C8010E94021C0E94EF168823F9F018
:10060000CE0101960E94C2168823C9F046E080916F
:100610000005811153C061E0C8010E94321ACF5B0E
:10062000DF4F0FB6F894DEBF0FBECDBFDF91CF9185
:100630001F910F91FF90EF90DF90CF900895C80128
:100640000E94021C0E94EA0E882331F0CE0101961E
:100650000E94BD0E81112EC0C8010E94021C0E9482
:100660008A13882331F0CE0101960E94DC28811183
:10067000CDCFC8010E94021C0E943B25882331F087
:10068000CE0101960E940E25811116C0C8010E945C
:10069000021C0E94F10B8823A1F1CE0101960E9459
:1006A000400B882371F1CE0101960E94FB0927C0FF
:1006B00045E0ADCF4CE0ABCF44E0A9CF442309F4F3
:1006C000AACF60E470E080E090E022964FAF2297DE
:1006D0000E94822922964FAD2297BE016F5F7F4F05
:1006E000C8010E94231C80910605882309F493CF3A
:1006F00060E771E082EE95E00E941B2D8CCF482FC1
:1007000086CF8091FF04823011F040E080CFCE018F
:1007100001967C016E0191E4C90ED11CF701619133
:100720007F0140E150E082EE95E00E94F72D6CE5FC
:1007300073E082EE95E00E94EC2CEC14FD0471F75E
:1007400082EE95E00E94F52CE0CF4F925F926F927F
:100750007F928F929F92AF92BF92CF92DF92EF9251
:10076000FF920F93CF93DF934C015B01EA01790174
:100770002115310509F470C00E945329F50140800C
:10078000518062807380641575058605970520F495
:1007900010821182128213820E94532948EE53E084
:1007A000E49E9001E59E300DF49E300D1124F5017C
:1007B000C080D180E280F380C20ED31EE11CF11C08
:1007C000C616D706E806F90608F046C0C880D980E4
:1007D000EA80FB80FAE8CF16F2E2DF06E104F104DA
:1007E00091F401FF05C08BE695E2A0E0B0E006C001
:1007F00000FF24C089E593E4A0E0B0E088839983FA
:10080000AA83BB831BC08BE6C81685E2D806E10429
:10081000F10449F400FDEECF02FF10C08AE892E235
:10082000A0E0B0E0EBCFE9E5CE16E3E4DE06E104BC
:10083000F10421F402FDF2CF01FDD5CF48815981A9
:100840006A817B81C4010E9433190E945329F501FA
:100850006083718382839383DF91CF910F91FF90A7
:10086000EF90DF90CF90BF90AF909F908F907F9050
:100870006F905F904F90089526E040E051EE60E069
:1008800070E082EE95E00E94892B68EC70E080E0D9
:1008900090E00E94822980910605882331F068E764
:1008A00071E082EE95E00E941B2D809106050E946A
:1008B000D60010920F058AE094E00E94010F61E0DB
:1008C00089E294E00E94B9100E9453296093FB04CE
:1008D0007093FC048093FD049093FE0480E894E000
:1008E0000E94821A4091060150910701609108010F
:1008F0007091090180E894E00E94921940911001E2
:1009000050911101609112017091130180E894E0FF
:100910000E94331961E080E894E00E94321A8AE272
:1009200094E00E94651B882309F18AE294E00E940A
:10093000821A40910601509107016091080170915F
:1009400009018AE294E00E94921940910C015091B1
:100950000D0160910E0170910F018AE294E00E94F6
:10096000331961E08AE294E00E94321A8091060510
:10097000882331F06BEB71E082EE95E00E941B2D35
:100980000C944501CF92EF920F93CC24C39482E054
:10099000E82E0AE02DE04CE06BE080E894E00E9455
:1009A0006D1BC12C93E0E92E08E02DE04CE06BE0DC
:1009B0008AE294E00E946D1B89E294E00E94731029
:1009C0008AE094E00F91EF90CF900C94F30E0F9388
:1009D0001F93CF93DF9300D000D0CDB7DEB782EE68
:1009E00095E00E94A62A892B09F470C182EE95E059
:1009F0000E94BF2A082F8C3269F4E091D60481E06E
:100A00008E0F8093D604F0E0E952FB4F80910604EC
:100A100080834EC180ED800F8A3010F5209106044E
:100A2000309107044091080450910904AAE0B0E015
:100A30000E9438346053710981099109112707FD1B
:100A40001095212F312F600F711F821F931F60930C
:100A5000060470930704809308049093090436C138
:100A6000802F8F7D81548A3108F02BC10D3609F417
:100A7000AEC01CF5043509F4BDC054F40D3409F4BE
:100A8000ABC0023509F459C0063409F4DAC00EC10E
:100A9000043679F11CF40136E9F108C1063609F48F
:100AA000C5C0083609F002C16091060470910704C0
:100AB0008AE094E00E941B0FFBC0043709F491C048
:100AC00064F40237D1F10CF09EC0003709F0EEC09B
:100AD000809106048093FF04EBC0083709F4E8C056
:100AE0000CF4E4C0093709F4BFC00A3709F4CDC0DB
:100AF000DDC081E040910604509107046091080434
:100B000070910904452B462B472B09F480E00E9485
:100B1000D600CEC061E08091060490910704A091B8
:100B20000804B0910904892B8A2B8B2B09F460E00F
:100B300089E294E00E94B910BBC040910604509134
:100B40000704609108047091090441305105610562
:100B5000710581F050F0423051056105710571F465
:100B60004AE852E260E070E009C049E553E460E021
:100B700070E004C04BE655E260E070E0023759F4E3
:100B8000409310015093110160931201709313016F
:100B900080E894E019C08AE294E049835A836B8329
:100BA0007C830E94651B49815A816B817C818823EB
:100BB00009F47EC040930C0150930D0160930E0127
:100BC00070930F018AE294E00E94331971C0809102
:100BD000060480930B016CC08091060480930A0187
:100BE00067C0809106049091070490930405809358
:100BF00003055EC08091060490910704909302055E
:100C00008093010555C06091D604E62FF0E0E952CB
:100C1000FB4F8091060480836F5F6093D60487ED5D
:100C200094E00E94EA001092D60442C0409106046B
:100C300050910704609108047091090480E894E0E1
:100C400010C08AE294E00E94651B882389F14091DC
:100C500006045091070460910804709109048AE227
:100C600094E00E94921924C021E0809106049091A2
:100C70000704A0910804B0910904892B8A2B8B2BBF
:100C800009F420E02093000513C021E080910604C0
:100C900090910704A0910804B0910904892B8A2B34
:100CA0008B2B09F420E02093050502C00E9445012A
:100CB000109206041092070410920804109209047E
:100CC00005C00152003210F40E9445018AE094E010
:100CD0000E94461080E894E00E94B21880E894E0F8
:100CE0000E941817882321F080E894E00E945002A7
:100CF0008AE294E00E94651B882371F08AE294E006
:100D00000E94B2188AE294E00E941817882321F00A
:100D10008AE294E00E94500220910305309104057C
:100D200000910B0140E151E06BEF74E080E894E04A
:100D30000E94A503209101053091020500910A014E
:100D40004CE051E067EF74E08AE294E00E94A50372
:100D50000F900F900F900F90DF91CF911F910F91F7
:100D60000895FC0110821182128213820895FC0101
:100D700040835183628373830895CF92DF92EF9211
:100D8000FF92FC01808D918D481B590B61097109FF
:100D9000A689B7899A01AB010E9438346B017C01A6
:100DA0008FE0F594E794D794C7948A95D1F760893A
:100DB0007189882777FD8095982F2BE0660F771F24
:100DC000881F991F2A95D1F722893389442737FD37
:100DD0004095542F2C0D3D1D4E1D5F1D0E94133458
:100DE0002C0D3D1D4E1D5F1DCA01B901FF90EF90F6
:100DF000DF90CF9008951F93CF93DF931F92CDB7CD
:100E0000DEB7162F67E770E089E195E049830E941D
:100E1000FF25612F89E195E00E949C254981642F7F
:100E200089E195E00E949C2589E195E00F90DF9192
:100E3000CF911F910C941426CF93C62F67E770E0D3
:100E400089E195E00E94FF256C2F89E195E00E94E1
:100E50009C2589E195E00E94142667E770E089E10E
:100E600095E00E94FF2541E050E067E770E089E1EE
:100E700095E00E94F22589E195E00E944C25C82F5B
:100E800089E195E00E9414268C2FCF910895CF938D
:100E9000DF93C62F67E770E089E195E00E94FF25A8
:100EA0006C2F89E195E00E949C2589E195E00E94E4
:100EB000142667E770E089E195E00E94FF2542E093
:100EC00050E067E770E089E195E00E94F22589E152
:100ED00095E00E944C25D82F80E0C82F89E195E04D
:100EE0000E944C25C82BD92B89E195E00E9414263D
:100EF000CE01DF91CF910895CF93DF93EC0189E18B
:100F000095E00E94DB2560EDCE010E941C0785352F
:100F100009F044C06AEACE010E9447079D838C8392
:100F20006CEACE010E9447079F838E836EEACE0152
:100F30000E9447079987888760EBCE010E94470788
:100F40009D8B8C8B62EBCE010E9447079F8B8E8B13
:100F500064EBCE010E944707998F888F66EBCE0124
:100F60000E9447079B878A8768EBCE010E9447074C
:100F70009D878C876AEBCE010E9447079F878E87EB
:100F80006CEBCE010E944707998B888B6EEBCE01EC
:100F90000E9447079B8B8A8B81E001C080E0DF9134
:100FA000CF910895CF93DF93EC014EE264EF0E945E
:100FB000FB0665E070E080E090E00E94822966EF29
:100FC000CE01DF91CF910C944707CF93DF93EC01D3
:100FD0000E94D207AC0160E070E0CE010E94BD0625
:100FE000685F7F4F8F4F9F4F34E09595879577953A
:100FF00067953A95D1F70E94613120E030E040E2F8
:1010000051E40E94C630DF91CF910895CF92DF92D4
:10101000EF92FF92CF93DF93EC0144EB64EF0E94D9
:10102000FB066EE070E080E090E00E94822966EFAF
:10103000CE010E9447076C01E12CF12CFE2CED2C17
:10104000DC2CCC2468EFCE010E941C07A70196017E
:10105000282BCA01B90156E0969587957795679533
:101060005A95D1F7DF91CF91FF90EF90DF90CF901D
:1010700008952F923F924F925F926F927F928F923C
:101080009F92AF92BF92CF92DF92EF92FF920F9317
:101090001F93CF93DF93CDB7DEB72C970FB6F8949D
:1010A000DEBF0FBECDBF1C010E94D2078C01C10163
:1010B0000E9406086D837E838F839887A80160E075
:1010C00070E0C1010E94BD064B015C0180EA881AF4
:1010D0008FE0980AA108B108A5019401C501B401E7
:1010E0000E94E1332B013C010CE075946794579406
:1010F00047940A95D1F7D10114960D911C9115973B
:1011000018960D90BC91A02D0E9443346B017C0178
:101110008DE0F594E794D794C7948A95D1F7F101BF
:10112000A285B385A30192010E944334BB2797FD9A
:10113000B095AB2FC80ED91EEA1EFB1EF2E0CF0EF3
:10114000D11CE11CF11C32E0F594E794D794C794CC
:101150003A95D1F780E8D80EE11CF11CF101A48981
:10116000B589A70196010E943834DC01CB014FE01C
:10117000B695A795979587954A95D1F789839A83D0
:10118000AB83BC836801EE24D7FCE094FE2C52E0D4
:10119000CC0CDD1CEE1CFF1C5A95D1F7A485B5853F
:1011A000A30192010E9443342B013C016BE0759432
:1011B0006794579447946A95D1F7A681B781A501A2
:1011C00094010E944334EBE0959587957795679558
:1011D000EA95D1F7460E571E681E791EC40CD51C21
:1011E000E61CF71CF2E0CC0CDD1CEE1CFF1CFA9593
:1011F000D1F792E0C90ED11CE11CF11CC701B60168
:1012000024E030E040E050E00E9413348D819E8164
:10121000AF81B885821B930BA40BB50B9C01AD016C
:10122000A4EDB0E30E94383497FD0DC0660F771F20
:10123000881F991F29813A814B815C810E94F1337B
:1012400049015A010CC029813A814B815C810E947D
:10125000F13349015A01880C991CAA1CBB1C99271F
:10126000B7FC9A958B2D7A2D692D9B01AC010E94BC
:10127000E1339B01AC01AEEDBBE00E9438346C0160
:10128000FF24D7FCF094EF2CA3E4B3EEA501940166
:101290000E944634BB2797FDB095AB2FC80ED91ED0
:1012A000EA1EFB1E9FECC90E9EE0D91EE11CF11C3C
:1012B000A4E0F594E794D794C794AA95D1F7D10107
:1012C0006D917D918D919C910E94613120E03AE277
:1012D0004DE257E40E94C6309B01AC0160E070E033
:1012E00080E89FE30E945D3026EF38E248EA50E450
:1012F0000E9478329B01AC01C501B4016C0D7D1DCB
:101300008E1D9F1D29873A874B875C870E9461311C
:1013100029853A854B855C850E94C6300E942E3116
:101320000E94613120E030E048EC52E40E94C63077
:101330000E942E312C960FB6F894DEBF0FBECDBFA3
:10134000DF91CF911F910F91FF90EF90DF90CF90A1
:10135000BF90AF909F908F907F906F905F904F90D5
:101360003F902F900895DF92EF92FF920F931F937B
:10137000CF93DF938C01EB0181E08A83188219827D
:10138000F801628184E0860FE82EF12CEE0DFF1D3E
:101390003197D080D9826D5FC8010E94E91CD812B4
:1013A0001A82F80180818C3C09F01A828A81882394
:1013B000D1F0F801818188838281FE01ED57FF4FD2
:1013C000808383E090E0F1E0EF1AF1088E159F052D
:1013D00054F4F801E80FF91F2081FE01E80FF91F0E
:1013E00020830196F3CFDF91CF911F910F91FF9052
:1013F000EF90DF900895FC0182818C5F0895CF9279
:10140000DF92EF92FF920F931F93CF93DF93EC0144
:101410007B016DE573E00E94712F6EEE71E0CE01ED
:101420000E94DA2FF7016081CE010E94FD2F6CE54A
:1014300073E0CE010E94DA2F00E010E06701F3E8CC
:10144000CF0ED11CF601808190E0081719077CF4BB
:10145000F701E00FF11F6381CE010E94FD2F6CE5C3
:1014600073E0CE010E94DA2F0F5F1F4FEBCFCE014A
:10147000DF91CF911F910F91FF90EF90DF90CF9070
:101480000895CF92DF92EF92FF920F931F93CF9325
:10149000DF93CDB7DEB7C458D1090FB6F894DEBFDD
:1014A0000FBECDBF8C01BE016F5F7F4F0E94B3099D
:1014B000F801C280F4E0CF0E65EF71E082EE95E0B6
:1014C0000E94EC2C7801D12CC701801B910B8C154C
:1014D0009D0584F4F70161917F0140E150E082EEC7
:1014E00095E00E94F72D6CE573E082EE95E00E9496
:1014F000EC2CEACF64E072E082EE95E00E94EC2CE6
:101500008B81811107C067E072E082EE95E00E9456
:101510001B2D62C062E172E082EE95E00E94EC2C2D
:101520006AE172E082EE95E00E94EC2C40E150E02E
:10153000698182EE95E00E94F72D61E272E082EE11
:1015400095E00E94EC2C4AE050E0CC57DF4F6881D8
:10155000C458D04082EE95E00E94F72D62E372E01D
:1015600082EE95E00E94EC2C7E01F4E0EF0EF11C7F
:1015700000E010E0CC57DF4F8881C458D04090E0A5
:1015800008171907C4F46EE372E082EE95E00E943A
:10159000EC2CF70161917F0140E150E082EE95E093
:1015A0000E94F72D6CE573E082EE95E00E94EC2C32
:1015B0000F5F1F4FDFCF69E372E082EE95E00E947C
:1015C000EC2C40E150E06A8182EE95E00E94F72D1C
:1015D00082EE95E00E94F52CCC57DF4F0FB6F894C1
:1015E000DEBF0FBECDBFDF91CF911F910F91FF9056
:1015F000EF90DF90CF900895EF92FF920F931F939B
:10160000CF93DF93CDB7DEB7CA58D1090FB6F894A0
:10161000DEBF0FBECDBF8C017B016DE573E00E9484
:10162000712FF70180818C3CE1F4BE016F5F7F4F29
:10163000C7010E94B3098B81882399F0BE016F5FB7
:101640007F4FCE018B579F4F0E94FF09BE016B5702
:101650007F4FC8010E94872FCE018B579F4F0E945A
:10166000032FC801C657DF4F0FB6F894DEBF0FBE79
:10167000CDBFDF91CF911F910F91FF90EF90089513
:101680001F93CF93DF9300D000D000D0CDB7DEB74B
:10169000BC01CE0101960E94FC0A8D819E81892B9E
:1016A00039F0BE016F5F7F4F82EE95E00E94092DF9
:1016B00011E02D813E81232B09F410E0CE0101962B
:1016C0000E94032F812F26960FB6F894DEBF0FBE1F
:1016D000CDBFDF91CF911F910895CF93DF93FB0191
:1016E000DB0120E030E01D922F5F3F4F20383105B5
:1016F000D1F72CEC2083DC012C912183AD57BF4F17
:101700002C912283AF014D5F5F4F20E030E06C9160
:10171000C62FD0E02C173D0754F4EC01C20FD31FA5
:101720006B81EA016993AE012F5F3F4FF0CF2396A3
:10173000CE0FDF1F6D5FCF010E94E91C8883DF9110
:10174000CF910895CF92DF92EF92FF92CF93DF93E4
:10175000CDB7DEB7C058D1090FB6F894DEBF0FBEC3
:10176000CDBFBE016F5F7F4F0E946D0B60E0CE0169
:1017700087579F4F0E94321ACE0187579F4F0E9472
:10178000021C6B017C0149E553E460E070E0CE018E
:1017900087579F4F0E9433194B814C5FBE016F5F8B
:1017A0007F4FCE0187579F4F0E94231CB701A60190
:1017B000CE0187579F4F0E94331961E0CE018757B2
:1017C0009F4F0E94321AC058DF4F0FB6F894DEBF09
:1017D0000FBECDBFDF91CF91FF90EF90DF90CF9004
:1017E000089521E0693573448105910509F020E0F1
:1017F000822F089520E030E040E0FC015191CF01BC
:10180000450F2F5F3F4F2C303105B9F781E0411173
:1018100080E008950F931F93CF93DF938C01EB012A
:1018200081E0898FF8018081888381818983848127
:10183000282F221F2227221F2D83828190E0982F9C
:1018400088273381832B9B838A83918581E096FF50
:1018500080E08E8BF8019185892F881F8827881F4B
:101860008F8B2223A1F01E821F82188619861A866A
:101870001B861C861D861E861F86188A198A1A8A50
:101880001B8A1C8A1D8A1C82188E198E61C0F80161
:10189000608570E080E090E00E94613120E030E0FF
:1018A00040E05FE30E94153220E030E040E053E486
:1018B0000E945E306E837F8388879987F8016681F6
:1018C00070E0762F66278781682B882777FD8095C3
:1018D000982F0E9461316A877B878C879D87F801EA
:1018E00064816F7370E0762F66278581682B75950C
:1018F0006795882777FD8095982F0E9461316E87C4
:101900007F87888B998BF80161856F7370E0762FE4
:1019100066278285682B882777FD8095982F0E94FF
:10192000613120E030E048EC52E40E94C6306A8B1E
:101930007B8B8C8B9D8BF801948181E096FF80E0FE
:101940008C83F8018385888FC8010E94FA0B898FE8
:10195000DF91CF911F910F910895EF92FF920F9316
:101960001F93CF93DF93CDB7DEB7AA970FB6F89446
:10197000DEBF0FBECDBF7C01BE016F5F7F4F0E94F7
:101980000A0C0E9453290091070510910805209127
:10199000090530910A05601B710B820B930B9F9315
:1019A0008F937F936F9321E432E03F932F938E01C7
:1019B000055E1F4F1F930F930E948B360E94532981
:1019C00060930705709308058093090590930A05B5
:1019D000B80182EE95E00E94EC2C67E472E082EEA2
:1019E00095E00E94EC2C87010FB6F894DEBF0FBE85
:1019F000CDBFE12CF12CF80161918F0140E150E065
:101A000082EE95E00E94F72D6CE573E082EE95E0A2
:101A10000E94EC2CFFEFEF1AFF0A8CE0E816F104AD
:101A200051F761E572E082EE95E00E94EC2C8A8D20
:101A3000811103C067E072E002C062E172E082EEF1
:101A400095E00E94EC2C63E572E082EE95E00E9446
:101A5000EC2C40E150E0698182EE95E00E94F72D88
:101A60006CE573E082EE95E00E94EC2C40E150E0E2
:101A70006A8182EE95E00E94F72D67E572E082EEC2
:101A800095E00E94EC2C6B817C8140E150E082EE7D
:101A900095E00E94FE2D6CE572E082EE95E00E94DA
:101AA000EC2C4F81588569857A8522E030E082EE02
:101AB00095E00E94EF2E60E672E082EE95E00E94D3
:101AC000EC2C4B855C856D857E8522E030E082EED6
:101AD00095E00E94EF2E65E672E082EE95E00E94AE
:101AE000EC2C4F85588969897A8922E030E082EEB2
:101AF00095E00E94EF2E69E672E082EE95E00E948A
:101B0000EC2C4B895C896D897E8922E030E082EE85
:101B100095E00E94EF2E6FE672E082EE95E00E9463
:101B2000EC2C6D8170E04AE050E082EE95E00E947E
:101B3000E22D66E772E082EE95E00E94EC2C6E8169
:101B400070E04AE050E082EE95E00E94E22D6DE701
:101B500072E082EE95E00E94EC2C4AE050E0698D44
:101B600082EE95E00E94F72D82EE95E00E94F52C22
:101B7000AA960FB6F894DEBF0FBECDBFDF91CF910E
:101B80001F910F91FF90EF900895FF920F931F9375
:101B9000CF93DF93EC018B016DE573E00E94712F11
:101BA00063E872E0CE010E94DA2FF8016381CE0172
:101BB0000E94FD2F6CE573E0CE010E94DA2FF80140
:101BC0006281CE010E94FD2F6CE573E0CE010E9480
:101BD000DA2F20E030E040E251E4F80166817781BD
:101BE000808591850E9415320E942E31F62E672F36
:101BF000CE010E94FD2F6CE573E0CE010E94DA2F2A
:101C00006F2DCE010E94FD2F6CE573E0CE010E9486
:101C1000DA2FF80162857385848595850E942E31BF
:101C2000672FCE010E94FD2F6CE573E0CE010E946C
:101C3000DA2FF80162857385848595850E9433319A
:101C4000CE010E94FD2F6CE573E0CE010E94DA2FD9
:101C5000F80166857785808991890E942E31672FEA
:101C6000CE010E94FD2F6CE573E0CE010E94DA2FB9
:101C7000F80166857785808991890E943331CE018C
:101C80000E94FD2F6CE573E0CE010E94DA2F20E068
:101C900030E048EC52E4F8016289738984899589BF
:101CA0000E9415320E942E31F62E672FCE010E941F
:101CB000FD2F6CE573E0CE010E94DA2F6F2DCE016F
:101CC0000E94FD2F6CE573E0CE010E94DA2FF8012F
:101CD0006581660F8481680FCE010E94FD2FCE01C1
:101CE000DF91CF911F910F91FF900895EF92FF9296
:101CF0000F931F93CF93DF93CDB7DEB7A0970FB6A7
:101D0000F894DEBF0FBECDBF8C017B016DE573E0A3
:101D10000E94712FF7018081853209F58181982F0A
:101D20009F7B9A3211F08034D1F4BE016F5F7F4FF8
:101D3000C7010E940A0C8A8D882389F0BE016F5F5B
:101D40007F4FCE014B960E94C50DBE01655E7F4F51
:101D5000C8010E94872FCE014B960E94032FC80115
:101D6000A0960FB6F894DEBF0FBECDBFDF91CF9126
:101D70001F910F91FF90EF9008951F93CF93DF93E2
:101D800000D000D000D0CDB7DEB7BC01CE010196A7
:101D90000E94760E8D819E81892B39F0BE016F5F86
:101DA0007F4F82EE95E00E94092D11E02D813E814A
:101DB000232B09F410E0CE0101960E94032F812FFE
:101DC00026960FB6F894DEBF0FBECDBFDF91CF9140
:101DD0001F91089521E06B3675428105910509F048
:101DE00020E0822F0895CF93DF93EC0101960E94AB
:101DF000B10618821B8E1C8E1D8E1E8EDF91CF9118
:101E000008950F931F93CF93DF93EC018C010F5F25
:101E10001F4F40E050E0BA01C8010E94B706C80158
:101E20000E947C078883DF91CF911F910F910895C5
:101E3000FC0180810895AB01662757FD6095762FE0
:101E400001960C94B706AF92BF92CF92DF92EF92B9
:101E5000FF920F931F93CF93DF931F92CDB7DEB7FF
:101E60005C018A016DE573E00E94712FF801C68064
:101E7000D780E084F18420E030E040E252ECC701FA
:101E8000B6010E94C23087FD7EC020E030E04AEA01
:101E900052E4C701B6010E94113218160CF473C047
:101EA0006FE872E0C5010E94DA2FF8016081C50178
:101EB0000E94FD2F66E972E0C5010E94DA2F20E042
:101EC00030E040E251E4F8016681778180859185B8
:101ED0000E94153220E030E04AE754E40E945E3070
:101EE0000E942E31F62EE72E6CE573E0C5010E94AC
:101EF000DA2F6E2DC5010E94FD2F6CE573E0C50140
:101F00000E94DA2F6F2DC5010E94FD2F6DE972E04E
:101F1000C5010E94DA2F69E972E0C5010E94DA2F3B
:101F200069E972E0C5010E94DA2F69E972E0C50132
:101F30000E94DA2F69E972E0C5010E94DA2FF801E8
:101F40002181828181112C5F6CE573E0C5012983B9
:101F50000E94DA2F2981622FC5010E94FD2F6CE5B6
:101F600073E0C5010E94DA2FF8016385C5010E9464
:101F7000FD2F6CE573E0C5010E94DA2FF801628540
:101F8000C5010E94FD2FC5010F90DF91CF911F91D8
:101F90000F91FF90EF90DF90CF90BF90AF9008959A
:101FA0008F929F92AF92BF92CF92DF92EF92FF9269
:101FB0000F931F93CF93DF93CDB7DEB762970FB622
:101FC000F894DEBF0FBECDBF7C018B016DE573E0E1
:101FD0000E94712FF8018081882309F443C00E9478
:101FE0005329F801838C948CA58CB68CF0E18F0E6C
:101FF000F7E29F1EA11CB11C681579058A059B0597
:1020000088F10E945329F801638F748F858F968F12
:1020100019821B821A8281E08C836801FFEFCF1A3C
:10202000DF0AC6010E94E5076F83788789879A8750
:10203000C6010E9439087C876B878C81882391F0C8
:10204000AE014F5F5F4FB801CE010D960E94230F86
:10205000BE01635F7F4FC7010E94872FCE010D969F
:102060000E94032FC70162960FB6F894DEBF0FBE21
:10207000CDBFDF91CF911F910F91FF90EF90DF9037
:10208000CF90BF90AF909F908F9008951F93CF9364
:10209000DF9300D000D000D0CDB7DEB7BC01CE01B9
:1020A00001960E94D00F8D819E81892B39F0BE014F
:1020B0006F5F7F4F82EE95E00E94092D11E02D8128
:1020C0003E81232B09F410E0CE0101960E94032FDC
:1020D000812F26960FB6F894DEBF0FBECDBFDF91DD
:1020E000CF911F91089521E0FC0120830895CF93A3
:1020F000C62FFC018081882351F061E089E00E94B5
:102100000E2A61E06C2789E0CF910C94472ACF9189
:102110000895EF92FF920F931F93CF93DF938C015B
:10212000662301F16B3008F06AE0C0E0D0E0E62EF3
:10213000F12CCE15DF05B4F461E0C8010E947710E0
:1021400062E370E080E090E00E94822960E0C801D4
:102150000E94771062E370E080E090E00E948229A4
:102160002196E7CFDF91CF911F910F91FF90EF90D4
:102170000895FC016083611102C00C9477100895EA
:1021800064E00C94E91CBF92CF92DF92EF92FF9231
:102190000F931F93CF93DF938C01EB0181E08B872B
:1021A000F801F480FA86C8010E94C010F8121B865C
:1021B0001982F80180818F70F4E08F9FC001112493
:1021C000898330910F05F8012181922F332311F07B
:1021D000907C04C09295969596959370982B9983D0
:1021E000F801808182958F708883893009F01B8681
:1021F000F801818185FB882780F98A838181829516
:1022000081708B83B28061816F7070E080E090E0BC
:102210000E94613120E030E048EC52E40E94153227
:1022200020E030E0A9010E945E306B017C016B2D43
:1022300062956F7070E080E090E00E94613120E074
:1022400030E040E251E40E9415329B01AC01C7012D
:10225000B6010E945E306B017C016B2D6F7070E0E7
:1022600080E090E00E9461319B01AC01C701B601A2
:102270000E945E3020E030E040E251E40E94C6302F
:1022800020E030E040E252E40E945D306C837D83C8
:102290008E839F83F8019381892F881F8827881F49
:1022A000888783818F778987DF91CF911F910F91E5
:1022B000FF90EF90DF90CF90BF900895AF92BF92C4
:1022C000CF92DF92EF92FF920F931F93CF93DF9302
:1022D00000D000D000D0CDB7DEB75C018B016DE53A
:1022E00073E0CE0101960E94712F62EA72E0CE0186
:1022F00001960E94DA2FF8016181CE0101960E94B9
:10230000FD2F60E2CE0101960E94EA2FF80181853F
:102310008F77843610F08A3651F4F8018281882351
:1023200019F061E870E008C061E070E005C08D3729
:1023300009F042C062E870E0CE0101960E942A30A6
:1023400060E2CE0101960E94EA2F20E030E040E2F8
:1023500051E4F80164817581868197810E9415326C
:1023600020E030E04AE754E40E945E300E943331BE
:10237000F62E672FCE0101960E94FD2F60E2CE015E
:1023800001960E94EA2F6F2DCE0101960E94FD2F2B
:1023900060E2CE0101960E94EA2FF801C480D58048
:1023A000E680F78020E030E040E752E4C701B60164
:1023B0000E94113287FD06C06DE573E0C5010E94E1
:1023C000712F19C020E030E040E252ECC701B601A5
:1023D0000E94C230181684F7F8016185808581114A
:1023E0006068CE0101960E94FD2FBE016F5F7F4F96
:1023F000C5010E949E2FCE0101960E94032FC501A8
:1024000026960FB6F894DEBF0FBECDBFDF91CF91F9
:102410001F910F91FF90EF90DF90CF90BF90AF9002
:102420000895EF92FF920F931F93CF93DF93CDB751
:10243000DEB7A1970FB6F894DEBF0FBECDBF7C010B
:10244000BE016F5E7F4F0E94C3101D8E1E8E1F8EB9
:1024500018A219A22A89FE017D96CE018296319199
:10246000231709F4DBC0E817F907C9F70E945329BD
:1024700000910B0510910C0520910D0530910E0572
:10248000601B710B820B930B9F938F937F936F93C2
:1024900081E492E09F938F938E010F5F1F4F1F93F4
:1024A0000F930E948B360E94532960930B05709303
:1024B0000C0580930D0590930E05B80182EE95E012
:1024C0000E94EC2C62ED72E082EE95E00E94EC2C12
:1024D00087010FB6F894DEBF0FBECDBFE12CF12C03
:1024E000F80161918F014AE050E082EE95E00E9490
:1024F000F72D6CE573E082EE95E00E94EC2CFFEF87
:10250000EF1AFF0A85E0E816F10451F761E572E081
:1025100082EE95E00E94EC2C8C8D811107C067E063
:1025200072E082EE95E00E94EC2C74C062E172E0F1
:1025300082EE95E00E94EC2C63E572E082EE95E07D
:102540000E94EC2C4AE050E0698982EE95E00E94FE
:10255000F72D67E572E082EE95E00E94EC2C4AE0F0
:1025600050E06A8982EE95E00E94F72D68EA72E0F9
:1025700082EE95E00E94EC2C6B8970E04AE050E01E
:1025800082EE95E00E94E22D62EB72E082EE95E031
:102590000E94EC2C6C8970E04AE050E082EE95E0FD
:1025A0000E94E22D6AEB72E082EE95E00E94EC2C34
:1025B0004D895E896F89788D22E030E082EE95E06A
:1025C0000E94EF2E61EC72E082EE95E00E94EC2C0E
:1025D000698D70E04AE050E082EE95E00E94E22DC5
:1025E0006CEC72E082EE95E00E94EC2C4AE050E048
:1025F0006A8D82EE95E00E94F72D6DE772E082EE23
:1026000095E00E94EC2C4AE050E06B8D82EE95E064
:102610000E94F72D82EE95E00E94F52CA1960FB650
:10262000F894DEBF0FBECDBFDF91CF911F910F9108
:10263000FF90EF900895EF92FF920F931F93CF9327
:10264000DF93CDB7DEB762970FB6F894DEBF0FBE4B
:10265000CDBF8C017B016DE573E00E94712FF70106
:10266000808182958F708930D1F4BE016F5F7F4F7A
:10267000C7010E94C3108C85882389F0BE016F5F5B
:102680007F4FCE010D960E945E11BE01635F7F4FAA
:10269000C8010E94872FCE010D960E94032FC8010A
:1026A00062960FB6F894DEBF0FBECDBFDF91CF911B
:1026B0001F910F91FF90EF9008951F93CF93DF9399
:1026C00000D000D000D0CDB7DEB7BC01CE0101965E
:1026D0000E941B138D819E81892B39F0BE016F5F93
:1026E0007F4F82EE95E00E94092D11E02D813E8101
:1026F000232B09F410E0CE0101960E94032F812FB5
:1027000026960FB6F894DEBF0FBECDBFDF91CF91F6
:102710001F910895693523E472078105910549F0F9
:1027200021E06B3675428105910509F020E0822F8A
:10273000089581E0089565E00C94E91C8F929F92C2
:10274000AF92BF92CF92DF92EF92FF920F931F93BF
:10275000CF93DF938C01EB0181E08F87F801F58047
:10276000FE86C8010E949B13F81659F0809114054B
:10277000882331F06DED72E082EE95E00E941B2D12
:102780001F86F80180818F708983808182958F7088
:1027900088838B3059F080911405882331F06CEEDA
:1027A00072E082EE95E00E941B2D1F86F801618188
:1027B00062956F70F4E66F9FB0011124882777FD52
:1027C0008095982F0E9461316B017C016A837B8325
:1027D0008C839D83F80161816F70FAE06F9FB00177
:1027E0001124882777FD8095982F0E9461319B01E5
:1027F000AC01C701B6010E945E306B017C016A83A7
:102800007B838C839D83F801628162956F7070E099
:1028100080E090E00E9461319B01AC01C701B601EC
:102820000E945E3020E030E040E05FE30E9415321D
:102830006A837B838C839D83F80162816F70FAE0E9
:102840006F9FB0011124882777FD8095982F0E94F3
:1028500061316B017C016E837F8388879987F801E2
:10286000638162956F7070E080E090E00E9461315A
:102870009B01AC01C701B6010E945E306B017C0177
:102880006E837F8388879987F80163816F7070E01A
:1028900080E090E00E9461312DEC3CEC4CEC5DE37B
:1028A0000E9415329B01AC01C701B6010E945E3047
:1028B00020E030E040E252E40E945D306B017C0198
:1028C0006E837F8388879987F801648162956F7032
:1028D00070E080E090E00E9461314B015C016A870A
:1028E0007B878C879D87F80164816F7070E080E042
:1028F00090E00E9461312DEC3CEC4CEC5DE30E94D9
:1029000015329B01AC01C501B4010E945E306A879B
:102910007B878C879D8720E030E040E252ECC70146
:10292000B6010E94C23087FD0AC020E030E040E7D7
:1029300052E4C701B6010E9411321816ACF41F868A
:1029400080911405882381F06BEF72E082EE95E0B0
:102950000E94EC2C4E815F816885798522E030E011
:1029600082EE95E00E94F12ECA80DB80EC80FD8033
:1029700020E030E040E050E4C701B6010E94C230E0
:1029800087FD0AC020E030E046E953E4C701B60104
:102990000E9411321816ACF41F868091140588230A
:1029A00081F062E173E082EE95E00E94EC2C4A81B6
:1029B0005B816C817D8122E030E082EE95E00E94B7
:1029C000F12ECA84DB84EC84FD8420E030E040E01A
:1029D00050E4C701B6010E94C23087FD0AC020E062
:1029E00030E040E551E4C701B6010E9411321816EB
:1029F0000CF51F86809114058823E1F063E273E0F3
:102A000082EE95E00E94EC2C4A855B856C857D8585
:102A100022E030E082EE95E0DF91CF911F910F919F
:102A2000FF90EF90DF90CF90BF90AF909F908F90EE
:102A30000C94F12EDF91CF911F910F91FF90EF90A9
:102A4000DF90CF90BF90AF909F908F900895EF92BE
:102A5000FF920F931F93CF93DF93CDB7DEB7A0976D
:102A60000FB6F894DEBF0FBECDBF7C01BE016F5E16
:102A70007F4F0E949E130E945329009110051091D0
:102A800011052091120530911305601B710B820B0B
:102A9000930B9F938F937F936F9321E432E03F9347
:102AA0002F938E010F5F1F4F1F930F930E948B3642
:102AB0000E945329609310057093110580931205AD
:102AC00090931305B80182EE95E00E94EC2C66E32A
:102AD00073E082EE95E00E94EC2C87010FB6F8942B
:102AE000DEBF0FBECDBFE12CF12CF80161918F014B
:102AF00040E150E082EE95E00E94F72D6CE573E036
:102B000082EE95E00E94EC2CFFEFEF1AFF0A86E0C0
:102B1000E816F10451F761E572E082EE95E00E945B
:102B2000EC2C88A1811107C067E072E082EE95E08D
:102B30000E94EC2C5DC062E172E082EE95E00E94A2
:102B4000EC2C63E572E082EE95E00E94EC2C4AE00A
:102B500050E0698982EE95E00E94F72D67E572E00A
:102B600082EE95E00E94EC2C4AE050E06A8982EE09
:102B700095E00E94F72D64E473E082EE95E00E94F8
:102B8000EC2C4B895C896D897E8922E030E082EEF5
:102B900095E00E94EF2E6AEB72E082EE95E00E94D3
:102BA000EC2C4F89588D698D7A8D22E030E082EED1
:102BB00095E00E94EF2E6CE473E082EE95E00E94B7
:102BC000EC2C4B8D5C8D6D8D7E8D22E030E082EEA5
:102BD00095E00E94EF2E6DE772E082EE95E00E9494
:102BE000EC2C4AE050E06F8D82EE95E00E94F72DCC
:102BF00082EE95E00E94F52CA0960FB6F894DEBF09
:102C00000FBECDBFDF91CF911F910F91FF90EF903D
:102C10000895FF920F931F93CF93DF93EC018B01E5
:102C20006DE573E00E94712F63E573E0CE010E94B1
:102C3000DA2FF8016181CE010E94FD2F6AE573E071
:102C4000CE010E94DA2F20E030E040E251E4F801AA
:102C500062817381848195810E94153220E030E089
:102C60004AE754E40E945E300E942E31F62E672F10
:102C7000CE010E94FD2F6CE573E0CE010E94DA2F99
:102C80006F2DCE010E94FD2F6CE573E0CE010E94F6
:102C9000DA2F20E030E040E251E4F80166817781EC
:102CA000808591850E94153220E030E04AE754E4A7
:102CB0000E945E300E942E31F62E672FCE010E94B8
:102CC000FD2F6CE573E0CE010E94DA2F6F2DCE014F
:102CD0000E94FD2F6CE573E0CE010E94DA2F20E008
:102CE00030E040E251E4F801628573858485958582
:102CF0000E9415320E942E31CE010E942A30CE0150
:102D0000DF91CF911F910F91FF900895EF92FF9265
:102D10000F931F93CF93DF93CDB7DEB766970FB6B0
:102D2000F894DEBF0FBECDBF8C017B016DE573E073
:102D30000E94712FBE016F5F7F4FC7010E949E13DB
:102D40008889882389F0BE016F5F7F4FCE0141964D
:102D50000E940916BE016F5E7F4FC8010E94872F37
:102D6000CE0141960E94032FC80166960FB6F894D3
:102D7000DEBF0FBECDBFDF91CF911F910F91FF90AE
:102D8000EF9008951F93CF93DF9300D000D000D031
:102D9000CDB7DEB7BC01CE0101960E9486168D81AB
:102DA0009E81892B39F0BE016F5F7F4F82EE95E0E7
:102DB0000E94092D11E02D813E81232B09F410E0A2
:102DC000CE0101960E94032F812F26960FB6F8940C
:102DD000DEBF0FBECDBFDF91CF911F9108956A383E
:102DE00022E272078105910579F06B3635E27307AF
:102DF0008105910549F021E069357344810591050C
:102E000009F020E0822F089581E00895FC01158AE1
:102E1000108AFB0120E030E0DC01A20FB31F5696C0
:102E20004C9141932F5F3F4F20343105A9F708950E
:102E3000FC01858908950F931F93CF93DF93DC01E5
:102E4000862F13966C91139770E0FB01E05EFE4FA6
:102E5000E491F0E0EE0FFF1FEC5CFE4FC591D491C2
:102E6000FB01E45FFE4F649198E014962C91149757
:102E700030E0F901E45FFE4F7491F901E05EFE4F2E
:102E80002491E22FF0E0EE0FFF1FE25CFE4F459130
:102E90005491FA01208130E0E72FF0E0E095F095C1
:102EA0002E233F23FA01208312962C91129730E0B3
:102EB000F901E45FFE4F87FF12C05491F901E05E13
:102EC000FE4F2491E22FF0E0EE0FFF1FE25CFE4F79
:102ED00025913491F9014081452B408315C04491DF
:102EE000F901E05EFE4FE491F0E0EE0FFF1FE25CBF
:102EF000FE4F05911491F801208130E050E040959B
:102F00005095242335232083880F14962C911497F1
:102F100030E0F901E45FFE4F5491F901E05EFE4FAD
:102F2000E491F0E0EE0FFF1FE25CFE4F259134913B
:102F3000F9014081452B40832881262309F08160D7
:102F4000915009F092CF14962C9130E0F901E45F92
:102F5000FE4F9491F901E05EFE4F2491E22FF0E0E4
:102F6000EE0FFF1FE25CFE4FA591B4912C9130E073
:102F7000E92FF0E0E095F0952E233F232C93DF918D
:102F8000CF911F910F9108950F931F93CF93DF93CC
:102F9000DC01CB0113966C91139770E0FB01E05EAE
:102FA000FE4FE491F0E0EE0FFF1FEC5CFE4FC59189
:102FB000D491FB01E45FFE4F649115962C91159717
:102FC00030E0F901E45FFE4F7491F901E05EFE4FDD
:102FD0002491E22FF0E0EE0FFF1FE25CFE4F4591DF
:102FE0005491FA01208130E0E72FF0E0E095F09570
:102FF0002E233F23FA01208370E112962C91129721
:1030000030E0F901E45FFE4F97FF12C05491F901DF
:10301000E05EFE4F2491E22FF0E0EE0FFF1FE25C36
:10302000FE4F25913491F9014081452B408318C012
:103030001491F901E05EFE4F2491E22FF0E0EE0FD3
:10304000FF1FE25CFE4F45915491FA01208130E070
:10305000E12FF0E0E095F0952E233F23FA01208345
:10306000880F991F2881262309F0816014962C91DE
:10307000149730E0F901E45FFE4F5491F901E05EEE
:10308000FE4FE491F0E0EE0FFF1FE25CFE4F259152
:103090003491F9014081452B4083000000001496D3
:1030A0002C91149730E0F901E45FFE4F4491F9014F
:1030B000E05EFE4FE491F0E0EE0FFF1FE25CFE4F9A
:1030C00005911491F801208130E050E04095509531
:1030D000242335232083715009F08FCF15962C912E
:1030E00030E0F901E45FFE4F4491F901E05EFE4FEC
:1030F000E491F0E0EE0FFF1FE25CFE4FA591B4916A
:103100002C91242B2C93DF91CF911F910F91089537
:103110001F93CF93DF93EC01162F60E08D810E9407
:10312000472A612F6F77CE010E941B1760E0CE0106
:103130000E941B17182F61E08D810E94472A812F62
:10314000DF91CF911F910895FC01208131812230C0
:10315000310519F460E00C94881860E070EB0E946F
:10316000C41708950F931F93CF93DF93EC018881C9
:1031700099810297A9F468E2CE010E94881882FF23
:1031800048C000E010E0CE010E94A418FE01E00F4C
:10319000F11F868B0F5F1F4F00341105A1F737C059
:1031A00060E08D810E94472A000000008B810E9410
:1031B0007D2A8C0161E08D810E94472A012B89F0D4
:1031C000188981E0810F888BCE010E94A418FE012E
:1031D000E10FF11D868B0E945329698B7A8B8B8BB3
:1031E0009C8B8889811104C08889803280F411C049
:1031F0000E94532909891A892B893C890E5C1F4F2B
:103200002F4F3F4F061717072807390768F781E048
:103210008D8BDF91CF911F910F910895EF92FF92C7
:103220001F93CF93DF931F92CDB7DEB77C01162F8C
:1032300060E0FC01858149830E94472A612F606814
:10324000C7010E941B174981642FC7010E941B17E9
:1032500061E0F70185810F90DF91CF911F91FF9081
:10326000EF900C94472ACF92DF92EF92FF92CF9388
:10327000DF93EC019A01AB01288739874A875B8786
:10328000888199810297F1F4CA01B90196958795D1
:1032900077956795785B87419E4F0E94F13369016E
:1032A0007A01432F552763E0CE010E940E194C2D61
:1032B00064E0CE01DF91CF91FF90EF90DF90CF904F
:1032C0000C940E19CA01B9010E945F319B01AC0137
:1032D00060E87FE588EA98E40E94C6306B017C01D3
:1032E00020E030E0A9010E94113220E030E040E00F
:1032F0005FE387FD05C0C701B6010E945E3004C0D0
:10330000C701B6010E945D300E942E31615070E00D
:10331000766CCE01DF91CF91FF90EF90DF90CF9050
:103320000C94C417CF92DF92EF92FF92CF93DF936A
:10333000EC014C875D876E877F8788819981029732
:10334000B1F5A8EEB3E09A01AB010E943834A2E0D7
:10335000660F771F881F991FAA95D1F729E03DE3D3
:1033600040E050E00E94F13369017A01B6E0CC0CF4
:10337000DD1CEE1CFF1CBA95D1F7A7016627772745
:1033800067E0CE010E940E1977276F2D5E2D4D2D1F
:1033900068E0CE010E940E194C2D69E0CE01DF914C
:1033A000CF91FF90EF90DF90CF900C940E19CB014E
:1033B000BA0160567F418D40910925E030E040E040
:1033C00050E00E94F133B9017056CE01DF91CF91E8
:1033D000FF90EF90DF90CF900C94C417CF93DF93C2
:1033E000EC0188819981662369F0029741F461E0DC
:1033F000CE010E948818482F437E4C600CC068E3C1
:1034000072E811C0029769F461E0CE010E94881849
:10341000482F437E446061E0CE01DF91CF910C9450
:103420000E1968E072E8CE01DF91CF910C94C417B9
:103430001F93CF93DF93EC0188819981029731F438
:1034400040E168E2CE010E940E1908C010E460E07D
:1034500070EBCE010E94C4171150C9F7DF91CF91D4
:103460001F910895CF93DF93EC01888199816623A2
:10347000B9F0029741F461E0CE010E948818482F0C
:10348000437E406116C068EC72E8CE010E94C4170A
:1034900061E87AECCE010E94C41763E87AEC10C0B0
:1034A000029761F461E0CE010E948818482F437EA4
:1034B000446061E0CE010E940E1905C068E072E828
:1034C000CE010E94C417CE01DF91CF910C94181A3F
:1034D000CF93DF93EC01FB018081918181309105D5
:1034E00029F0029731F465E673E005C06EE573E0FC
:1034F00002C06DE673E0CE010E94712FCE01DF9114
:10350000CF9108950F931F93CF93DF9300D000D0F6
:1035100000D0CDB7DEB78C01FC0187818823B1F0E4
:1035200062E773E082EE95E00E94EC2CB801CE01D8
:1035300001960E94681ABE016F5F7F4F82EE95E090
:103540000E94092DCE0101960E94032F61E0F8012F
:1035500085810E94472A60E0C8010E94321AF80162
:1035600080819181029709F056C044E061E0C80172
:103570000E940E1940E062E0C8010E940E1945E069
:1035800065E0C8010E940E1943EC66E0C8010E9484
:103590000E194FE961E1C8010E940E194FE063E185
:1035A000C8010E940E1942E469E1C8010E940E1987
:1035B00040E168E2C8010E940E194CED69E2C801C1
:1035C0000E940E1948E86EE2C8010E940E194DE2F1
:1035D0006FE2C8010E940E1944ED60E3C8010E9429
:1035E0000E1948E067E3C8010E940E1940E468E341
:1035F000C8010E940E194FE86CE3C8010E940E1921
:1036000042E16DE3C8010E940E1940E36FE6C80174
:103610000E940E193CC068E072E8C8010E94C417FD
:1036200068EE70E8C8010E94C4176AE672ECC8012F
:103630000E94C41762E17AECC8010E94C41764EDCD
:103640007EECC8010E94C41761E874ECC8010E94B6
:10365000C41760EA74E9C8010E94C41767E77CECEC
:10366000C8010E94C41760E578E9C8010E94C41728
:1036700060E070EEC8010E94C41760E078ECC801F9
:103680000E94C41760E470ECC8010E94C417F801DE
:103690004485558566857785C8010E949219F80191
:1036A0004085518562857385C8010E943319C80120
:1036B0000E94181A26960FB6F894DEBF0FBECDBF33
:1036C000DF91CF911F910F910895FC0181E020813E
:1036D0003181232B09F480E00895CF92EF920F936C
:1036E000CF93DF93EC01862F6A834B832C830D836A
:1036F000EE821F8249E553E460E070E04887598715
:103700006A877B874CEC5FE36DE070E04C875D87F8
:103710006E877F87188A198A1A8A1B8A1C8A1D8AD3
:1037200061E00E940E2A60E08B810E940E2A61E017
:103730008C810E940E2A61E08D810E940E2A60E039
:103740008E810E940E2A61E08D810E94472A198293
:1037500018824AE068E3CE010E940E1968E3CE01A8
:103760000E9488188A3079F440E468E3CE010E9410
:103770000E1968E3CE010E948818803421F482E09B
:1037800090E09983888388819981892B91F5C11074
:103790002CC06CE072E8CE010E94C41788EE93E062
:1037A00000000197E9F76FE470ECCE010E94C417A6
:1037B00088EE93E000000197E9F760E070E0CE0149
:1037C0000E94C41792FF15C060E470ECCE010E9405
:1037D000C41788EE93E000000197E9F760E070E01D
:1037E000CE010E94C41792FD04C081E090E099834D
:1037F0008883DF91CF910F91EF90CF900895FC01D6
:1038000067830895FC01608571858285938508959D
:10381000FC01648575858685978508951F93CF93F0
:10382000DF93EC01162F60E070E0CE010E94C41718
:1038300097FFF9CF612F70E0786BCE01DF91CF91C8
:103840001F910C94C4178F929F92AF92BF92DF92F8
:10385000EF92FF920F931F93CF93DF93EC017B01C5
:10386000D42E88819981029709F046C06DE3CE017C
:103870000E948818482F44606DE3CE010E940E1903
:1038800060E0CE010E94321ACE010E94181AF8940C
:1038900060E08D810E94472A60E8CE010E941B17DC
:1038A000BE2C8701802F8B198D1538F4F80161919A
:1038B0008F01CE010E941B17F5CF61E08D810E9420
:1038C000472A789461E0CE010E94EE190E945329A4
:1038D0004B015C0168E2CE010E94881883FD3AC06A
:1038E0000E945329681979098A099B09643F71402C
:1038F0008105910578F5EECF61E0CE010E94EE19C9
:103900006AEACE010E940E1C6AEACE010E940E1CD9
:103910006AEACE010E940E1C6DE2CE010E940E1CCE
:1039200064EDCE010E940E1C8701AD2CB12CC801A4
:103930008E199F098A159B053CF4F80161918F014E
:10394000CE010E940E1CF3CF61E070E080E090E0B9
:103950000E94822960E0CE010E94EE198F818823A7
:1039600061F16DE773E082EE95E00E94EC2CE701D7
:103970000D2D10E0CE018E199F098017910774F468
:1039800069914AE050E082EE95E00E94F72D6CE5E7
:1039900073E082EE95E00E94EC2CECCF82EE95E095
:1039A000DF91CF911F910F91FF90EF90DF90BF902B
:1039B000AF909F908F900C94F52CDF91CF911F9139
:1039C0000F91FF90EF90DF90BF90AF909F908F90FE
:1039D0000895FC0140E070E0A1E39F01281B390B32
:1039E000261737076CF4519128E030E0B52FB42743
:1039F000440FB7FD4A27550F21503109B9F7EDCFD4
:103A0000842F0895809314050895EF92FF920F93E9
:103A10001F93CF93DF931F92CDB7DEB77C01162F94
:103A2000072F6DE573E049830E94712F4981411191
:103A300002C01FEF0FEF60E2C7010E94EA2F602F64
:103A4000C7010E94FD2F60E2C7010E94EA2F612F8B
:103A5000C7010E94FD2FC7010F90DF91CF911F91E9
:103A60000F91FF90EF900895EF92FF921F93CF93E5
:103A7000DF931F92CDB7DEB77C01162F6DE573E0A3
:103A800049830E94712F60E2C7010E94EA2F498199
:103A9000442319F0612F70E002C06FEF70E0C7019E
:103AA0000E942A30C7010F90DF91CF911F91FF90A4
:103AB000EF9008959F92AF92BF92CF92DF92EF92D4
:103AC000FF920F931F93CF93DF9300D000D000D0CD
:103AD000CDB7DEB75C018B016DE573E00E94712FFD
:103AE000F801948081E0982687818823C9F0C584F5
:103AF000D684E784F08820E030E040E252ECC70151
:103B0000B6010E94C23087FD0AC02AE939E94FE6B2
:103B100052E4C701B6010E94113218160CF4912C20
:103B2000F8018085882329F081898150833608F047
:103B3000CCC0992009F4C9C06FE872E0C5010E94A9
:103B4000DA2FF8016181C5010E94FD2F6CE873E056
:103B5000C5010E94DA2F20E030E040E251E4F80194
:103B600065857685878590890E94153220E030E052
:103B70004AE754E40E945E300E943331F8014781E5
:103B8000CE0101960E94051DBE016F5F7F4FC501EA
:103B90000E94D32FCE0101960E94032FF801408589
:103BA0006189CE0101960E94341DBE016F5F7F4F77
:103BB000C5010E94D32FCE0101960E94032FF80168
:103BC00062897389848995890E943331F80141851E
:103BD000CE0101960E94051DBE016F5F7F4FC5019A
:103BE0000E94D32FCE0101960E94032F20E030E0E7
:103BF00040E251E4F80166897789808D918D0E94B9
:103C000015320E943331F8014385CE0101960E949E
:103C1000051DBE016F5F7F4FC5010E94D32FCE01EE
:103C200001960E94032F20E030E040E251E4F801C9
:103C3000628D738D848D958D0E9415320E94333173
:103C4000F8014285CE0101960E94051DBE016F5FFD
:103C50007F4FC5010E94D32FCE0101960E94032FF2
:103C600020E030E040E251E4F801668D778D80A1DC
:103C700091A10E9415320E943331F8014485CE0192
:103C800001960E94051DBE016F5F7F4FC5010E9416
:103C9000D32FCE0101960E94032FF8016281848107
:103CA00081116E5FF801838181116C5F41E0CE016B
:103CB00001960E94341DBE016F5F7F4FC5010E94B7
:103CC000D32FCE0101960E94032FC50126960FB671
:103CD000F894DEBF0FBECDBFDF91CF911F910F9142
:103CE000FF90EF90DF90CF90BF90AF909F9008959E
:103CF000FC0181818770880F8D5F08952F923F921C
:103D00004F925F926F927F928F929F92AF92BF92EB
:103D1000CF92DF92EF92FF920F931F93CF93DF9397
:103D2000CDB7DEB763970FB6F894DEBF0FBECDBF39
:103D30008C010E94781E8150FE0139969E012F5EF3
:103D40003F4F1192E217F307E1F72889AF84CE8441
:103D50008D849C84DB84EA84B984D801682F70E068
:103D600091E0AD01401B510B461757070CF078C08E
:103D70008D91AE014F5F5F4FF22E20E030E0E82FD3
:103D8000E170E98BF82FF270FB8BE82FE4706E2E58
:103D9000F82FF8705F2EE82FE0714E2EF82FF0729A
:103DA0003F2EE82FE0742E2EF9013197E730F10510
:103DB00020F4EC5CFF4F0C943234E82FEE0FEE0B46
:103DC000E923E9832BC0222011F09A8327C01A82AD
:103DD00025C0332011F09B8321C01B821FC04420CB
:103DE00011F09C831BC01C8219C0552011F09D83CB
:103DF00015C01D8213C0662011F09E830FC01E8265
:103E00000DC0FB89FF2311F09F8308C01F8206C0ED
:103E10007988772011F0988701C01886FA0171908F
:103E2000AF017A8AE72DE13009F4F724F82DFF2558
:103E3000892C8F242F5F3F4F2830310549F0EA2D20
:103E4000AC2CCF2E9D2CDE2CEB2CBF2CFE2EACCF21
:103E50002A2DAC2CCF2E9D2CDE2CEB2CBF2C81CF11
:103E6000F0E82F9F9001112440E4A49EC00111248A
:103E7000822B8B2990E2C99E90011124822BE0E1D4
:103E80008E9E90011124822BF8E09F9E90011124B8
:103E9000822B44E0D49E90011124822BEE0C8E29BB
:103EA00063960FB6F894DEBF0FBECDBFDF91CF9102
:103EB0001F910F91FF90EF90DF90CF90BF90AF9048
:103EC0009F908F907F906F905F904F903F902F903A
:103ED0000895CF92DF92EF92FF92CF93DF93D62F88
:103EE000C42F24E6829FC0011124BC01882777FDDE
:103EF0008095982F0E94613120E030E0A9010E9456
:103F00005E306B017C018AE0D89FB00111248827C4
:103F100077FD8095982F0E9461319B01AC01C7010C
:103F2000B6010E945E306B017C016C2F70E080E076
:103F300090E00E9461319B01AC01C701B6010E9473
:103F40005E30DF91CF91FF90EF90DF90CF9008959A
:103F50007F928F929F92AF92BF92CF92DF92EF9219
:103F6000FF920F931F93CF93DF938C01EB0181E0BE
:103F70008E83188219821A821B821C821F821886E5
:103F800019861A861B861C861D861E861F86188A21
:103F9000198A1A8A1B8A1C8A1D8A1E8A1F8A188EF1
:103FA000198E1A8E1B8E1C8E1D8E1E8E1F8E18A2B1
:103FB00019A21D82C8010E94781EF801E80FF11DA8
:103FC0003197F080FD82C8010E947E1EF8121E8289
:103FD000F801808182958F7088838A3009F01E8273
:103FE0008E81882309F4E6C0F80180818F70F4E0A7
:103FF0008F9FC0011124F801918192959695969515
:104000009370982B9983918181E095FF80E08A835A
:10401000F801918181E094FF80E08C83F801818137
:104020008F7083FB882780F98B83818187700D5F78
:104030001F4FE12CF12CC82ED12C77247394EC1453
:10404000FD040CF0B7C0FFEFEF1AFF0AF80131973B
:104050009081F8016081892F8F70B62EB2942FE085
:10406000B2226F70A62E92959F70923009F45CC0B8
:1040700030F4992311F1913009F449C098C093307C
:1040800009F46CC0943009F092C07C8670E080E145
:10409000B89E600D711D1124882777FD8095982F9B
:1040A0000E94613120E030E040E251E40E94C630DD
:1040B0006E8F7F8F88A399A37AC07F82462F6B2D46
:1040C0000E94691F20E030E048EC53E40E945D301C
:1040D00020E030E040E251E40E94C6304B015C0138
:1040E0006D877E878F87988B20E030E040E752E431
:1040F0000E9411321816B4F020E030E040E252EC99
:10410000C501B4010E94C23087FF51C00BC098871F
:10411000462F6B2D0E94691F0E943331698B6536D3
:1041200008F445C01E8243C079866B2D70E0F0E133
:104130008F9F600D711D112484E0660F771F8A9593
:10414000E1F76A0D711D882777FD8095982F0E94F1
:1041500061316A8B7B8B8C8B9D8B29C07B867A86A9
:10416000682F70E080E090E00E94613120E030E054
:1041700044EB51E40E9415326E8B7F8B888F998FB0
:104180006A2D70E020E1B29E600D711D1124882718
:1041900077FD8095982F0E94613120E030E040E269
:1041A00051E40E94C6306A8F7B8F8C8F9D8F0E5F8B
:1041B0001F4F45CFDF91CF911F910F91FF90EF904F
:1041C000DF90CF90BF90AF909F908F907F90089599
:1041D000CF92DF92EF92FF920F931F93CF93DF93D3
:1041E000CDB7DEB7A2970FB6F894DEBF0FBECDBF36
:1041F0008C01BE016F5F7F4F0E94A81FC8010E9403
:10420000781EC82E8F81882321F16FE873E082EE3B
:1042100095E00E94EC2C7801D12CC701801B910BFA
:104220008C159D0584F4F70161917F0140E150E018
:1042300082EE95E00E94F72D6CE573E082EE95E04A
:104240000E94EC2CEACF61E572E082EE95E00E94DC
:10425000EC2C8F81882309F4F8C062E172E082EED1
:1042600095E00E94EC2C63E572E082EE95E00E94FE
:10427000EC2C40E150E0698182EE95E00E94F72D40
:1042800067E572E082EE95E00E94EC2C40E150E0A0
:104290006A8182EE95E00E94F72D68EA72E082EE74
:1042A00095E00E94EC2C6B8170E04AE050E082EED9
:1042B00095E00E94E22D68E973E082EE95E00E94AD
:1042C000EC2C6C8170E04AE050E082EE95E00E94B8
:1042D000E22D62EA73E082EE95E00E94EC2C6D81A3
:1042E00070E04AE050E082EE95E00E94E22D6AEB39
:1042F00072E082EE95E00E94EC2C8885882359F0CC
:104300004E855F856889798922E030E082EE95E00C
:104310000E94EF2E06C06AEA73E082EE95E00E94EA
:10432000EC2C6CEC72E082EE95E00E94EC2C89851E
:10433000882341F04AE050E06A8982EE95E00E94CD
:10434000F72D06C06AEA73E082EE95E00E94EC2C3D
:104350006EEA73E082EE95E00E94EC2C8A85882359
:1043600059F04B895C896D897E8922E030E082EECC
:1043700095E00E94EF2E06C06AEA73E082EE95E0B7
:104380000E94EC2C65EB73E082EE95E00E94EC2C31
:104390008B85882369F04B8D5C8D6D8D7E8D22E041
:1043A00030E082EE95E00E94EF2E6BEC73E002C0ED
:1043B0006AEA73E082EE95E00E94EC2C6CEB73E00D
:1043C00082EE95E00E94EC2C8C85882359F04F8971
:1043D000588D698D7A8D22E030E082EE95E00E9462
:1043E000EF2E06C06AEA73E082EE95E00E94EC2CA4
:1043F00063EC73E082EE95E00E94EC2C8D858823BF
:1044000069F04F8D58A169A17AA122E030E082EED7
:1044100095E00E94EF2E6AEC73E002C06AEA73E056
:1044200082EE95E00E94EC2C6DE772E082EE95E062
:104430000E94EC2C40E150E06E8182EE95E00E94FB
:10444000F72D82EE95E00E94F52CA2960FB6F89417
:10445000DEBF0FBECDBFDF91CF911F910F91FF90B7
:10446000EF90DF90CF900895EF92FF920F931F93FC
:10447000CF93DF93CDB7DEB7A8970FB6F894DEBF22
:104480000FBECDBF8C017B016DE573E00E94712FE3
:10449000F7018081807A803AD1F4BE016F5F7F4F4F
:1044A000C7010E94A81F8F81882389F0BE016F5F1A
:1044B0007F4FCE0183960E945A1DBE016D5D7F4FD6
:1044C000C8010E94872FCE0183960E94032FC80146
:1044D000A8960FB6F894DEBF0FBECDBFDF91CF9187
:1044E0001F910F91FF90EF9008951F93CF93DF934B
:1044F00000D000D000D0CDB7DEB7BC01CE01019610
:104500000E9434228D819E81892B39F0BE016F5F1C
:104510007F4F82EE95E00E94092D11E02D813E81B2
:10452000232B09F410E0CE0101960E94032F812F66
:1045300026960FB6F894DEBF0FBECDBFDF91CF91A8
:104540001F91089521E06A3872428105910509F0B2
:1045500020E0822F0895FC0120E030E080E0A1E31C
:10456000919140E050E0BA01620F731F6431710510
:1045700034F4692F6827880F67FD8A27990F4F5FEA
:104580005F4F4830510579F7285F3F4F283131059B
:1045900039F70895FF920F931F93CF93DF938C0108
:1045A000EB0181E08B87F8018281F0E18F9FC001F0
:1045B0001124F801F380F294AFE0FA22F82AF98688
:1045C000C8010E94AB22F8121B86F80180818F730C
:1045D00089838081829586958695837088838330D0
:1045E00009F01B86F8019181892F881F8827881F71
:1045F0008A83818186FB882780F98B8361816F7331
:10460000F0E16F9FB0011124F801828182958F70D3
:10461000682B882777FD8095982F0E9461312DECBB
:104620003CEC4CEC5DE30E94153220E030E040E2CF
:1046300052E40E945D306C837D838E839F83F801FA
:1046400083818F708A878AE68887DF91CF911F9157
:104650000F91FF900895AF92BF92CF92DF92EF92A9
:10466000FF920F931F93CF93DF9300D000D000D021
:10467000CDB7DEB75C018B016DE573E0CE0101962D
:104680000E94712F62EA72E0CE0101960E94DA2F39
:10469000F8016181CE0101960E94FD2F60E2CE01FA
:1046A00001960E94EA2FF80180858F77843610F0FA
:1046B0008A3651F4F8018281882319F061E870E0AC
:1046C00008C061E070E005C08D3709F042C062E8C3
:1046D00070E0CE0101960E942A3060E2CE01019680
:1046E0000E94EA2F20E030E040E251E4F8016481CA
:1046F0007581868197810E94153220E030E04AE77B
:1047000054E40E945E300E943331F62E672FCE01B2
:1047100001960E94FD2F60E2CE0101960E94EA2FD1
:104720006F2DCE0101960E94FD2F60E2CE01019611
:104730000E94EA2FF801C480D580E680F78020E04F
:1047400030E040E752E4C701B6010E94113287FD14
:1047500006C06DE573E0C5010E94712F19C020E00D
:1047600030E040E252ECC701B6010E94C230181698
:1047700084F7F8016085838181116068CE0101961C
:104780000E94FD2FBE016F5F7F4FC5010E949E2FCB
:10479000CE0101960E94032FC50126960FB6F8940C
:1047A000DEBF0FBECDBFDF91CF911F910F91FF9064
:1047B000EF90DF90CF90BF90AF900895EF92FF926F
:1047C0000F931F93CF93DF93CDB7DEB7A1970FB6AB
:1047D000F894DEBF0FBECDBF7C01BE016F5E7F4F80
:1047E0000E94CA221D8E1E8E1F8E18A219A22A890F
:1047F000FE017D96CE0182963191231709F4C0C047
:10480000E817F907C9F70E9453290091150510917F
:1048100016052091170530911805601B710B820B4E
:10482000930B9F938F937F936F9381E492E09F9379
:104830008F938E010F5F1F4F1F930F930E948B3634
:104840000E945329609315057093160580931705F0
:1048500090931805B80182EE95E00E94EC2C6FEC65
:1048600073E082EE95E00E94EC2C87010FB6F8947D
:10487000DEBF0FBECDBFE12CF12CF80161918F019D
:104880004AE050E082EE95E00E94F72D6CE573E07F
:1048900082EE95E00E94EC2CFFEFEF1AFF0A84E015
:1048A000E816F10451F761E572E082EE95E00E94AE
:1048B000EC2C8C8D811107C067E072E082EE95E0F0
:1048C0000E94EC2C59C062E172E082EE95E00E94F9
:1048D000EC2C63E572E082EE95E00E94EC2C4AE05D
:1048E00050E0698982EE95E00E94F72D67E572E05D
:1048F00082EE95E00E94EC2C4AE050E06A8982EE5C
:1049000095E00E94F72D68EA72E082EE95E00E9441
:10491000EC2C6B8970E04AE050E082EE95E00E945A
:10492000E22D61EC72E082EE95E00E94EC2C6C8945
:1049300070E04AE050E082EE95E00E94E22D6AEBE2
:1049400072E082EE95E00E94EC2C4D895E896F89C1
:10495000788D22E030E082EE95E00E94EF2E6DE748
:1049600072E082EE95E00E94EC2C4AE050E06A8D05
:1049700082EE95E00E94F72D82EE95E00E94F52CE4
:10498000A1960FB6F894DEBF0FBECDBFDF91CF91D9
:104990001F910F91FF90EF900895EF92FF920F9368
:1049A0001F93CF93DF93CDB7DEB762970FB6F8941E
:1049B000DEBF0FBECDBF8C017B016DE573E00E94B1
:1049C000712FF7018081807C803CD1F4BE016F5F44
:1049D0007F4FC7010E94CA228C85882389F0BE01BF
:1049E0006F5F7F4FCE010D960E942B23BE01635F48
:1049F0007F4FC8010E94872FCE010D960E94032F82
:104A0000C80162960FB6F894DEBF0FBECDBFDF912E
:104A1000CF911F910F91FF90EF9008951F93CF9327
:104A2000DF9300D000D000D0CDB7DEB7BC01CE01FF
:104A300001960E94CD248D819E81892B39F0BE0183
:104A40006F5F7F4F82EE95E00E94092D11E02D816E
:104A50003E81232B09F410E0CE0101960E94032F22
:104A6000812F26960FB6F894DEBF0FBECDBFDF9123
:104A7000CF911F91089521E0693573448105910517
:104A800009F020E0822F08958091490590E020915F
:104A90004A05821B9109089520914A058091490594
:104AA000281750F4E22FF0E0E55BFA4F808190E0A8
:104AB0002F5F20934A0508958FEF9FEF0895E091AF
:104AC0004A0580914905E81730F4F0E0E55BFA4FBC
:104AD000808190E008958FEF9FEF08950895CF9221
:104AE000DF92EF92FF920F931F93CF93DF937C019E
:104AF000CB018A0120912505222389F0EB016B016E
:104B0000C40ED51ECC15DD0569F06991D701ED9174
:104B1000FC910190F081E02DC7010995F3CF642F3E
:104B20000E94D026C801DF91CF911F910F91FF9075
:104B3000EF90DF90CF900895CF93DF931F92CDB782
:104B4000DEB76983209125052223D1F02091260527
:104B5000203240F021E030E0FC013383228380E00A
:104B600090E015C080912705E82FF0E0E85DFA4F4E
:104B7000998190838F5F809327058093260505C0D8
:104B800061E0CE0101960E94D02681E090E00F9076
:104B9000DF91CF910895FC011382128248EE53E019
:104BA00060E070E044835583668377838CED93E007
:104BB00091838083089510924A05109249051092BE
:104BC0002705109226050C941B26862F413208F0EB
:104BD00040E26BE475E00E94392610924A0580930A
:104BE0004905089521E00C94E52581E08093250591
:104BF00060934805109227051092260508950C949D
:104C0000F5250F93062F21E04091260568E275E017
:104C1000809148050E947D26109227051092260556
:104C2000109225050F91089561E00C94012689E109
:104C300095E00C94CB251092D80581E08093D605A1
:104C40001092D50561E082E10E94472A61E083E18C
:104C50000E94472AE9EBF0E080818E7F808380818B
:104C60008D7F808388E48093B80085E48093BC00C6
:104C70000895413208F03FC09091D8059111FCCFC2
:104C800091E09093D8052093D6052FEF20936B05E4
:104C90001092B005240F2093AF059093D705909103
:104CA000D705880F892B8093D7058091D505813052
:104CB00041F41092D5058091D7058093BB0085EC17
:104CC00001C085EE8093BC008091D8058130E1F36E
:104CD0008091B005841710F44091B00521EB35E0C8
:104CE000FB01D9018A2F821B841718F48D918193BF
:104CF000F9CF842F089580E008950F93413208F092
:104D000046C09091D8059111FCCF92E09093D805C0
:104D10000093D6059FEF90936B051092B0054093DA
:104D2000AF05FB0161EB75E0DB019A2F961B941731
:104D300018F491919D93F9CF1092D7059091D705D2
:104D4000880F892B8093D7058091D505813041F458
:104D50001092D5058091D7058093BB0085EC01C0EA
:104D600085EE8093BC00222321F08091D80582300B
:104D7000E1F380916B058F3F61F080916B0580328C
:104D800051F080916B05803341F483E007C081E0EE
:104D900005C080E003C082E001C084E00F91089567
:104DA000613298F42091D805243089F460938D0500
:104DB000FC018FE895E0DC012A2F281B261718F448
:104DC00021912D93F9CF80E0089581E0089582E04C
:104DD000089585ED8093BC008091BC0084FDFCCFDC
:104DE0001092D805089585EC8093BC001092D805E8
:104DF00008951F920F920FB60F9211242F933F9395
:104E00004F935F936F937F938F939F93AF93BF93D2
:104E1000EF93FF938091B900887F803609F49CC09E
:104E200068F5883209F45BC090F4803109F454C00D
:104E300038F4882309F4F5C0883009F44DC0F5C072
:104E4000883109F44CC0803209F45DC0EEC0803472
:104E500009F468C048F4803309F455C0883309F078
:104E6000E4C080936B05A8C0803509F44FC0883535
:104E700009F45DC0883409F0D8C0D5C0883909F478
:104E8000C6C0A8F4883709F467C038F4883609F436
:104E900063C0803709F460C0C8C0883809F4B7C05F
:104EA000803909F45FC0803809F0BFC05BC0803B27
:104EB00009F485C038F4803A09F466C0883A09F4E8
:104EC0007EC0B3C0803C09F4A6C0883C09F4A3C0EE
:104ED000883B09F489C0A9C08091D70510C0909182
:104EE000B0058091AF05981770F5E091B00581E0AD
:104EF0008E0F8093B005F0E0EF54FA4F80818093DD
:104F0000BB0085EC85C080936B058DC0E091B0053A
:104F100081E08E0F8093B0058091BB00F0E0EF54EC
:104F2000FA4F80839091B0058091AF056DC0E091FC
:104F3000B00581E08E0F8093B0058091BB00F0E05A
:104F4000EF54FA4F80838091D60581116CC081E0C7
:104F50008093D50584EA60C083E08093D8051092E1
:104F60006C05CFCF80916C05803208F050C0E09185
:104F70006C0581E08E0F80936C058091BB00F0E0A2
:104F8000E359FA4F8083BDCF80916C05803230F4B5
:104F9000E0916C05F0E0E359FA4F10820E94E92697
:104FA00060916C0570E0E091D105F091D2058DE63D
:104FB00095E0099510926C050E94F32636C084E0B6
:104FC0008093D80510928E0510928D05E091D3053F
:104FD000F091D405099580918D05811105C081E07E
:104FE00080938D0510928F05E0918E0581E08E0FE4
:104FF00080938E05F0E0E157FA4F80818093BB00EB
:1050000090918E0580918D05981708F47ACF85E8E8
:105010008093BC000AC085EC8093BC001092D80538
:1050200004C010926B050E94E926FF91EF91BF9199
:10503000AF919F918F917F916F915F914F913F9130
:105040002F910F900FBE0F901F90189520E030E029
:1050500040E0FC015191CF01450F2F5F3F4F2630BB
:105060003105B9F781E0411180E00895CF92DF92D8
:10507000EF92FF920F931F93CF93DF938C01EB017D
:1050800081E08B87F8018081888385818A87C801C8
:105090000E9426288B87F8019181292F2F70907309
:1050A00092959F7009F494E0F0E19F9FC001112454
:1050B000822B8983F801628170E06253710988272D
:1050C00077FD8095982F0E94613120E030E040E22A
:1050D00051E40E9415326B017C01F801638170E09C
:1050E00080E090E00E9461319B01AC01C701B601F4
:1050F0000E945E3020E030E040E251E40E94C63081
:105100006C837D838E839F83F8018481898781816D
:1051100090E026E0959587952A95E1F721E0892B87
:1051200009F420E02887DF91CF911F910F91FF9024
:10513000EF90DF90CF900895EF92FF920F931F931F
:10514000CF93DF93CDB7DEB762970FB6F894DEBF8B
:105150000FBECDBF8C017B016DE573E00E94712F06
:10516000F70180818135D1F4BE016F5F7F4FC701A8
:105170000E9436288C85882389F0BE016F5F7F4F9F
:10518000CE010D960E945E11BE01635F7F4FC80184
:105190000E94872FCE010D960E94032FC8016296B0
:1051A0000FB6F894DEBF0FBECDBFDF91CF911F9138
:1051B0000F91FF90EF9008951F93CF93DF9300D04E
:1051C00000D000D0CDB7DEB7BC01CE0101960E9461
:1051D0009C288D819E81892B39F0BE016F5F7F4FA6
:1051E00082EE95E00E94092D11E02D813E81232B56
:1051F00009F410E0CE0101960E94032F812F26961C
:105200000FB6F894DEBF0FBECDBFDF91CF911F91D7
:1052100008951F920F920FB60F9211242F933F9370
:105220008F939F93AF93BF938091DA059091DB05A5
:10523000A091DC05B091DD053091D90523E0230F65
:105240002D3720F40196A11DB11D05C026E8230FBE
:105250000296A11DB11D2093D9058093DA05909384
:10526000DB05A093DC05B093DD058091DE05909110
:10527000DF05A091E005B091E1050196A11DB11DEA
:105280008093DE059093DF05A093E005B093E105E0
:10529000BF91AF919F918F913F912F910F900FBE32
:1052A0000F901F9018952FB7F8946091DA057091C0
:1052B000DB058091DC059091DD052FBF08953FB798
:1052C000F8948091DE059091DF05A091E005B09102
:1052D000E10526B5A89B05C02F3F19F00196A11D39
:1052E000B11D3FBF6627782F892F9A2F620F711D3E
:1052F000811D911D42E0660F771F881F991F4A95F7
:10530000D1F70895CF92DF92EF92FF92CF93DF9380
:105310006B017C010E945F29EB01C114D104E104FF
:10532000F10489F00E945C300E945F296C1B7D0BA8
:10533000683E734090F381E0C81AD108E108F10893
:10534000C851DC4FEACFDF91CF91FF90EF90DF9013
:10535000CF900895789484B5826084BD84B58160CF
:1053600084BD85B5826085BD85B5816085BDEEE66D
:10537000F0E0808181608083E1E8F0E0108280814C
:1053800082608083808181608083E0E8F0E08081BA
:1053900081608083E1EBF0E0808184608083E0EBDA
:1053A000F0E0808181608083EAE7F0E080818460C2
:1053B000808380818260808380818160808380811E
:1053C000806880831092C1000895833081F028F4B2
:1053D000813099F08230A1F008958730A9F08830AB
:1053E000B9F08430D1F4809180008F7D03C080912A
:1053F00080008F7780938000089584B58F7702C0F6
:1054000084B58F7D84BD08958091B0008F7703C0EF
:105410008091B0008F7D8093B0000895CF93DF938B
:1054200090E0FC01E45FFE4F2491FC01E05EFE4F42
:105430008491882349F190E0880F991FFC01E85B73
:10544000FE4FA591B491825C9E4FFC01C591D49111
:105450009FB7611108C0F8948C91209582238C939A
:10546000888182230AC0623051F4F8948C91322FE3
:10547000309583238C938881822B888304C0F89491
:105480008C91822B8C939FBFDF91CF9108950F93C6
:105490001F93CF93DF931F92CDB7DEB7282F30E055
:1054A000F901E850FF4F8491F901E45FFE4F149138
:1054B000F901E05EFE4F04910023C9F0882321F03A
:1054C00069830E94E5296981E02FF0E0EE0FFF1F5C
:1054D000E25CFE4FA591B4919FB7F8948C91611155
:1054E00003C01095812301C0812B8C939FBF0F9027
:1054F000DF91CF911F910F910895CF93DF93282FC4
:1055000030E0F901E850FF4F8491F901E45FFE4F6C
:10551000D491F901E05EFE4FC491CC2391F081114A
:105520000E94E529EC2FF0E0EE0FFF1FEC5CFE4F30
:10553000A591B4912C912D2381E090E021F480E09D
:1055400002C080E090E0DF91CF910895FC01818D51
:10555000228D90E0805C9F4F821B91098F73992769
:105560000895FC01918D828D981731F0828DE80F9E
:10557000F11D858D90E008958FEF9FEF0895FC0158
:10558000918D828D981761F0828DDF01A80FB11D7A
:105590005D968C91928D9F5F9F73928F90E008959E
:1055A0008FEF9FEF089583E49CE2892B49F080E020
:1055B00090E0892B29F00E94432C81110C9400006B
:1055C0000895FC01848DDF01A80FB11DA35ABF4FC0
:1055D0002C91848D90E001968F739927848FA689F2
:1055E000B7892C93A089B1898C9180648C93938D19
:1055F000848D981306C00288F389E02D80818F7D09
:1056000080830895CF93DF93EC01888D8823C9F0C0
:10561000EA89FB89808185FD05C0A889B9898C91BB
:1056200086FD0FC00FB607FCF5CF808185FFF2CF56
:10563000A889B9898C9185FFEDCFCE010E94E12A1E
:10564000E7CFDF91CF910895CF92DF92FF920F9332
:105650001F93CF93DF931F92CDB7DEB76C01DC01B0
:105660005B969C915B975C968C915C97981307C0B6
:105670005096ED91FC915197808185FD32C0F601E5
:10568000038D10E00F5F1F4F0F731127F02EF601EF
:10569000848DF81211C00FB607FCF9CFD6015096D1
:1056A000ED91FC915197808185FFF1CFC60169830F
:1056B0000E94E12A6981EBCF838DE80FF11DE35A47
:1056C000FF4F6083D6015B960C935B975296ED91EA
:1056D000FC91539780818062808381E058968C93FF
:1056E0000DC0D6015696ED91FC9157976083509668
:1056F000ED91FC91519780818064808381E090E0FE
:105700000F90DF91CF911F910F91FF90DF90CF907D
:105710000895BF92CF92DF92EF92FF92CF93DF93E3
:10572000EC016A017B01B22EE889F98982E080836D
:10573000411581EE580761057105A1F060E079E03F
:105740008DE390E0A70196010E94F13321503109C9
:10575000410951095695479537952795211580E1BF
:10576000380798F0E889F989108260E874E88EE1DA
:1057700090E0A70196010E94F133215031094109BF
:1057800051095695479537952795EC85FD853083CA
:10579000EE85FF852083188EEC89FD89B082EA8929
:1057A000FB89808180618083EA89FB8980818860B0
:1057B0008083EA89FB89808180688083EA89FB890C
:1057C00080818F7D8083DF91CF91FF90EF90DF907C
:1057D000CF90BF9008951F920F920FB60F92112491
:1057E0002F938F939F93EF93FF93E091F205F091A6
:1057F000F3058081E091F805F091F90582FD12C072
:1058000090818091FB058F5F8F732091FC0582173B
:1058100051F0E091FB05F0E0EE51FA4F958F809347
:10582000FB0501C08081FF91EF919F918F912F9196
:105830000F900FBE0F901F9018951F920F920FB6EA
:105840000F9211242F933F934F935F936F937F9306
:105850008F939F93AF93BF93EF93FF9382EE95E067
:105860000E94E12AFF91EF91BF91AF919F918F919B
:105870007F916F915F914F913F912F910F900FBE4C
:105880000F901F90189582EE95E00E94A62A21E0C5
:10589000892B09F420E0822F08951092E5051092DB
:1058A000E40588EE93E0A0E0B0E08093E6059093F5
:1058B000E705A093E805B093E9058CEE93E090939B
:1058C000E3058093E20585EC90E09093EF058093EB
:1058D000EE0584EC90E09093F1058093F00580EC68
:1058E00090E09093F3058093F20581EC90E0909323
:1058F000F5058093F40582EC90E09093F705809392
:10590000F60586EC90E09093F9058093F8051092E7
:10591000FB051092FC051092FD051092FE050895FE
:1059200008950E94AA290E94902C0E943C04C3ED75
:10593000DAE20E94E7042097E1F30E94D32AF9CF2C
:10594000CF92DF92EF92FF920F931F93CF93DF934B
:105950006C017A01EB01E60EF71E00E010E0CE15B7
:10596000DF0561F06991D601ED91FC910190F08124
:10597000E02DC6010995080F191FF1CFC801DF916D
:10598000CF911F910F91FF90EF90DF90CF900895EE
:105990006115710581F0DB010D900020E9F7AD0183
:1059A00041505109461B570BDC01ED91FC910280DF
:1059B000F381E02D099480E090E00895DC01ED9101
:1059C000FC91DB0114964D915C9115976D917C9142
:1059D0000280F381E02D09940C94C82CDC01ED9138
:1059E000FC910190F081E02D09940F931F93CF93C8
:1059F000DF93EC016DE00E94EE2C8C016AE0CE0199
:105A00000E94EE2C800F911FDF91CF911F910F917B
:105A100008950F931F93CF93DF93EC010E94DE2C28
:105A20008C01CE010E94F52C800F911FDF91CF9148
:105A30001F910F9108950F931F93CF93DF93EC0164
:105A40000E94C82C8C01CE010E94F52C800F911F62
:105A5000DF91CF911F910F9108950F931F93CF93D3
:105A6000DF93EC010E94EE2C8C01CE010E94F52CFC
:105A7000800F911FDF91CF911F910F9108958F9209
:105A80009F92AF92BF92CF92DF92EF92FF920F93CD
:105A90001F93CF93DF93CDB7DEB7A1970FB6F894DE
:105AA000DEBF0FBECDBF7C01C42EE52FCB01D22EB1
:105AB00019A221E02D1510F02AE0D22E8E010F5DE3
:105AC0001F4F8D2C912CA12CB12C6C2D7E2FA5015C
:105AD00094010E94F1338C2DD29E80191124015023
