:100000000C94BA020C94E2020C94E2020C94E20208
:100010000C94E2020C94E2020C94E2020C94E202D0
:100020000C94E2020C94E2020C94E2020C94E202C0
:100030000C94E2020C94E2020C94E2020C94E202B0
:100040000C949F290C94E2020C94812C0C94B32CF8
:100050000C94E2020C94E2020C94E2020C94E20290
:100060000C94A9270C94E202DA090F0A0F0A0F0A6E
:100070000F0A0F0A0F0A7B090F0A0F0A0F0A0F0A4D
:100080002C090F0A8E090F0A0F0A0F0A0F0A0F0A0E
:100090000F0A0F0A0F0A0F0A0F0A0F0A0F0A19098F
:1000A0000F0ABE09FF080F0ACF090F0A1009AB0992
:1000B0000F0A0F0A0F0A76090F0A0F0A80090F0AA2
:1000C0002C099A0985090F0A97090F0A130AED09E5
:1000D000FE09D91FDF1FE51FEB1FF11FF71FFE1FD2
:1000E00007634236B79BD8A71A39685618AEBAAB21
:1000F000558C1D3CB7CC5763BD6DEDFD753EF617B5
:100100007231BF000000803F08000000BE92244909
:10011000123EABAAAA2ABECDCCCC4C3E0000008039
:10012000BEABAAAAAA3E00000000BF000000803FAC
:100130000000000000084178D3BB4387D1133D196C
:100140000E3CC3BD4282AD2B3E68EC8276BED98F99
:10015000E1A93E4C80EFFFBE01C4FF7F3F000000DD
:1001600000000A417661696C61626C6520636F6DA5
:100170006D616E64733A0A20203C6E3E612020203F
:10018000202020202020202020202020202020206F
:1001900020202D206163746976697479204C454470
:1001A0002028303D6F66662C20313D6F6E290A2075
:1001B000203C7431303E2C3C74313E2C3C74303E3B
:1001C0002C3C68756D3E632020202D2073657420C3
:1001D00074656D706572617475726520616E6420FE
:1001E00068756D696469747920666F7220747261D4
:1001F0006E736D69740A20203C6E3E6420202020BE
:1002000020202020202020202020202020202020EE
:10021000202D204445425547206D6F6465202830CD
:100220003D737570707265737320545820616E64ED
:1002300020626164207061636B657473290A2020F9
:100240003C6E3E68202020202020202020202020DE
:100250002020202020202020202D2068656967682C
:10026000742061626F766520736561206C657665C8
:100270006C20286D290A20203C6E6E6E6E6E6E3EDC
:100280006620202020202020202020202020202028
:10029000202D206672657175656E63792028352082
:1002A0006B487A20737465707320652E672E203832
:1002B0003638333135290A20203C6E3E6D2020200F
:1002C000202020202020202020202020202020202E
:1002D00020202D20746F67676C65206D6F6465202A
:1002E00028313A2031372E323431206B6270732C32
:1002F00020323A20392E353739206B6270732C202A
:10030000343A20382E383432206B627073290A2038
:10031000203C6E3E70202020202020202020202005
:10032000202020202020202020202D2073686F777F
:1003300020726177207061796C6F616420646174F0
:10034000612028303D6F66662C20313D6F6E2C2079
:10035000323D6F6E6C7920756E6465636F646564A1
:10036000290A20203C6E3E722020202020202020C0
:10037000202020202020202020202020202D20642C
:1003800061746120726174652028303A2031372E03
:10039000323431206B6270732C20313A20392E3583
:1003A0003739206B6270732C20323A20382E383463
:1003B00032206B627073290A20203C6E3E7420202C
:1003C000202020202020202020202020202020202D
:1003D0002020202D20746F67676C65206461746134
:1003E000207261746520696E74657276616C6C2030
:1003F00028303D6E6F20746F67676C652C203E302F
:100400003D7365636F6E6473290A20203C6E3E76EF
:1004100020202020202020202020202020202020DC
:1004200020202020202D2076657273696F6E206158
:100430006E6420636F6E66696775726174696F6E52
:10044000207265706F72740A20203C6E3E78202006
:10045000202020202020202020202020202020209C
:100460002020202D207573656420666F72207465CE
:100470007374730A20203C6E3E79202020202020B7
:100480002020202020202020202020202020202D5F
:100490002052656C61792028303D6E6F2072656C4A
:1004A00061792C20313D52656C61792072656365FC
:1004B00069766564207061636B657473290A202016
:1004C0003C6E3E7A2020202020202020202020204A
:1004D0002020202020202020202D2031203D20649D
:1004E0006973706C617920616E616C797A656420E2
:1004F0006672616D65206461746120696E737465F4
:100500006164206F66206E6F726D616C206461742F
:10051000610A000000000800020100000304070057
:1005200000000000000000010204081020408001CB
:10053000020408102001020408102004040404042A
:100540000404040202020202020303030303030081
:1005500000000023002600290000000000250028DC
:10056000002B0000000000240027002A000079086A
:10057000C726E32C11241FBECFEFD8E0DEBFCDBFCE
:1005800013E0A0E0B1E0E4EFF4E702C005900D92C3
:10059000A63CB107D9F726E0A6ECB3E001C01D9256
:1005A000A935B207E1F715E0C4E7D5E004C022970A
:1005B000FE010E942C35CE36D107C9F70E94272DA7
:1005C0000C94783A0C9400001F93CF93DF93C2E60B
:1005D000D1E0FE011491112371F01A3029F46DE07D
:1005E00088EB95E00E94842D612F88EB95E00E94B6
:1005F000842D2196EECF88EB95E0DF91CF911F916E
:100600000C948B2DCF93DF93EC0101960E94500B3D
:100610001882198E1A8E1B8E1C8EDF91CF91089531
:100620000F931F93CF93DF93EC018C010F5F1F4F4C
:1006300060E070E0C8010E94540BC8010E94240CC5
:100640008883DF91CF911F910F910895FC018081E4
:10065000089501960C94540BAF92BF92CF92DF9203
:10066000EF92FF920F931F93CF93DF931F92CDB71B
:10067000DEB75C018A016DE173E00E940730F8018A
:10068000C680D780E084F18420E030E040E252EC84
:10069000C701B6010E94583187FD7EC020E030E0DE
:1006A0004AEA52E4C701B6010E94033318160CF45B
:1006B00073C064E171E0C5010E947030F80160818F
:1006C000C5010E9493306BE171E0C5010E9470305A
:1006D00020E030E040E251E4F801668177818085D6
:1006E00091850E94073320E030E04AE754E40E94FD
:1006F000F4300E94C431F62EE72E6CE173E0C501A0
:100700000E9470306E2DC5010E9493306CE173E041
:10071000C5010E9470306F2DC5010E94933062E2C6
:1007200071E0C5010E9470306EE171E0C5010E9468
:1007300070306EE171E0C5010E9470306EE171E0D1
:10074000C5010E9470306EE171E0C5010E947030F9
:10075000F8012181828181112C5F6CE173E0C50178
:1007600029830E9470302981622FC5010E94933035
:100770006CE173E0C5010E947030F8016385C5012A
:100780000E9493306CE173E0C5010E947030F80163
:100790006285C5010E949330C5010F90DF91CF9112
:1007A0001F910F91FF90EF90DF90CF90BF90AF908F
:1007B0000895CF92DF92EF92FF920F931F93CF9302
:1007C000DF93CDB7DEB768970FB6F894DEBF0FBEE4
:1007D000CDBF8C016DE173E0CE0143960E940730DE
:1007E000F8018081882309F44FC00E94E929F801AB
:1007F000C18CD28CE38CF48CF0E1CF0EF7E2DF1EDB
:10080000E11CF11C6C157D058E059F05E8F10E9429
:10081000E929F801618F728F838F948F19821B826F
:100820001A8281E08C837801FFEFEF1AFF0AC7017B
:100830000E947A0C6F83788789879A87C7010E9404
:10084000A50C9C878B878C81882399F0AE014F5F24
:100850005F4FB801CE010D960E942C03BE01635F6D
:100860007F4FCE0143960E941D30CE010D960E940F
:10087000992F8F89988D892B39F0BE016D5E7F4F3E
:1008800088EB95E00E949F2D11E02F89388D232B56
:1008900009F410E0CE0143960E94992F812F6896AB
:1008A0000FB6F894DEBF0FBECDBFDF91CF911F9181
:1008B0000F91FF90EF90DF90CF900895CF93C82FC6
:1008C0008093DC040E94F81D8C2F0E94F81D6C2F71
:1008D00086E594E00E94F51C6C2F80E094E0CF91B7
:1008E0000C94F51CCF93DF93EC016430B1F460E01D
:1008F00086E594E00E94311BCE010E9488118C8312
:1009000045E0BE0186E594E00E94191D61E086E5A0
:1009100094E0DF91CF910C94311BDF91CF9108953A
:100920004F925F926F927F92AF92BF92CF92DF927F
:10093000EF92FF920F931F93CF93DF93EC016430FC
:1009400069F58B81811107C099E5A92E93E4B92E31
:10095000C12CD12C06C08BE6A82E85E2B82EC12C66
:10096000D12C2A8130E0A0E6BAEE0E9430352B016E
:100970003C010E94E9297B018C014981E40CF51CB2
:10098000061D171D84E6489FA001112421E06881FF
:100990008AEC93E00E942B0B61E006C06130B1F459
:1009A0008881811113C060E08AEC93E0DF91CF91E0
:1009B0001F910F91FF90EF90DF90CF90BF90AF907D
:1009C0007F906F905F904F900C949E0ADF91CF9133
:1009D0001F910F91FF90EF90DF90CF90BF90AF905D
:1009E0007F906F905F904F900895CF92DF92EF923B
:1009F000FF921F93CF93DF93EC016430A1F5188130
:100A0000812F8F73698170E09AE0899F600D711D5D
:100A10001124882777FD8095982F0E94F7316B016C
:100A20007C016A8170E080E090E00E94F7312DEC5B
:100A30003CEC4CEC5DE30E9407339B01AC01C70129
:100A4000B6010E94F430AB01BC0117FD70582B8138
:100A50008AEC93E0DF91CF911F91FF90EF90DF90B0
:100A6000CF900C94490BDF91CF911F91FF90EF90A5
:100A7000DF90CF900895CF93DF9300D000D000D0C7
:100A8000CDB7DEB767E271E088EB95E00E94822D7A
:100A90006AE271E088EB95E00E94822D6EE288EBBD
:100AA00095E00E94842D6FE371E088EB95E00E9451
:100AB000822D67E571E088EB95E00E94822D66E566
:100AC00074E0CE0101960E94671BBE016F5F7F4FED
:100AD00088EB95E00E94742DCE0101960E94992F1B
:100AE00065E471E088EB95E00E94822D86E594E054
:100AF0000E94FE1CAB01BC012AE030E088EB95E0CF
:100B00000E94802E8091D9049091DA04892BF9F00B
:100B100069E471E088EB95E00E94822D6091D90430
:100B20007091DA044AE050E088EB95E00E94942E40
:100B30006DE471E088EB95E00E94822D4AE050E080
:100B400060910B0188EB95E00E948D2E12C06FE43E
:100B500071E088EB95E00E94822D86E594E00E948A
:100B6000F81CAB01BC012AE030E088EB95E00E9464
:100B7000802E63E571E088EB95E00E94822D80E095
:100B800094E00E94641C882309F466C065E571E066
:100B900088EB95E00E94822D60E074E0CE01019622
:100BA0000E94671BBE016F5F7F4F88EB95E00E943C
:100BB000742DCE0101960E94992F65E471E088EBB7
:100BC00095E00E94822D80E094E00E94FE1CAB0123
:100BD000BC012AE030E088EB95E00E94802E8091F5
:100BE000D7049091D804892BF9F069E471E088EB7F
:100BF00095E00E94822D6091D7047091D8044AE05C
:100C000050E088EB95E00E94942E6DE471E088EB53
:100C100095E00E94822D4AE050E060910A0188EB45
:100C200095E00E948D2E12C06FE471E088EB95E094
:100C30000E94822D80E094E00E94F81CAB01BC0170
:100C40002AE030E088EB95E00E94802E63E571E0B9
:100C500088EB95E00E94822D82EE93E00E942603AD
:100C6000882331F06AE571E088EB95E00E94822DDF
:100C70006DE588EB95E00E94C32D26960FB6F8949B
:100C8000DEBF0FBECDBFDF91CF910895CF92DF922F
:100C9000EF92FF920F931F93CF93DF93CDB7DEB701
:100CA000C154D1090FB6F894DEBF0FBECDBF8C0181
:100CB00060E00E94311BBE016F5F7F4FC8010E9440
:100CC00005188091DB048823A9F0CE0101960E94CB
:100CD000DE21CE0101960E946C13CE0101960E9486
:100CE0005716CE0101960E94180FCE0101960E9460
:100CF000B12422C08091D50461E0813011F58FEFDD
:100D000093E00E945111CE0101967C016E0191E4A5
:100D1000C90ED11CF70161917F0140E150E088EBE1
:100D200095E00E948D2E6CE173E088EB95E00E94C7
:100D3000822DEC14FD0471F788EB95E00E948B2D59
:100D4000A2C08FEF93E00E9451118091DC048823B0
:100D500019F164E671E088EB95E00E94822DCE01E6
:100D600001967C016E0191E1C90ED11CF7016191E0
:100D70007F0140E150E088EB95E00E948D2E6CE110
:100D800073E088EB95E00E94822DEC14FD0471F76E
:100D900088EB95E00E948B2DCE0101960E942A23BC
:100DA000882331F0CE0101960E946E1F482F49C062
:100DB000CE0101960E94761481113CC0CE010196AD
:100DC0000E94B617882311F046E03BC0CE01019681
:100DD0000E94E110811130C0CE0101960E944C2981
:100DE0008111F2CFCE0101960E94A025811126C06B
:100DF0008091D504823021F5CE0101967C016E01EF
:100E000091E4C90ED11CF70161917F0140E150E0EE
:100E100088EB95E00E948D2E6CE173E088EB95E005
:100E20000E94822DEC14FD0471F788EB95E00E947E
:100E30008B2D06C045E005C04CE003C044E001C076
:100E400040E08091D6048823F1F04423E1F060E48F
:100E500070E080E090E022964FAF22970E94182A1F
:100E600022964FAD2297BE016F5F7F4FC8010E944F
:100E7000191D8091DC04882331F063E871E088EB70
:100E800095E00E94B12D61E0C8010E94311BCF5B4B
:100E9000DF4F0FB6F894DEBF0FBECDBFDF91CF910D
:100EA0001F910F91FF90EF90DF90CF9008954F9298
:100EB0005F926F927F928F929F92AF92BF92CF92EA
:100EC000DF92EF92FF920F93CF93DF934C015B0180
:100ED000EA0179012115310509F470C00E94E92960
:100EE000F501408051806280738064157505860528
:100EF000970520F410821182128213820E94E92940
:100F000048EE53E0E49E9001E59E300DF49E300DD6
:100F10001124F501C080D180E280F380C20ED31E7F
:100F2000E11CF11CC616D706E806F90608F046C013
:100F3000C880D980EA80FB80FAE8CF16F2E2DF06AB
:100F4000E104F10491F401FF05C08BE695E2A0E015
:100F5000B0E006C000FF24C089E593E4A0E0B0E063
:100F600088839983AA83BB831BC08BE6C81685E25E
:100F7000D806E104F10449F400FDEECF02FF10C0F1
:100F80008AE892E2A0E0B0E0EBCFE9E5CE16E3E438
:100F9000DE06E104F10421F402FDF2CF01FDD5CF1C
:100FA000488159816A817B81C4010E94321A0E9462
:100FB000E929F5016083718382839383DF91CF9167
:100FC0000F91FF90EF90DF90CF90BF90AF909F90E8
:100FD0008F907F906F905F904F90089526E040E053
:100FE00051EE60E070E088EB95E00E941F2C68EC09
:100FF00070E080E090E00E94182A8091DC04882351
:1010000031F06BE871E088EB95E00E94B12D8091A2
:10101000DC040E945E041092E50482EE93E00E94DC
:10102000100361E08FEF93E00E9481110E94E92993
:101030006093D1047093D2048093D3049093D4042A
:1010400060E08AEC93E00E949E0A86E594E00E94AC
:10105000811B409106015091070160910801709138
:10106000090186E594E00E94911A40911001509187
:101070001101609112017091130186E594E00E94C4
:10108000321A61E086E594E00E94311B80E094E032
:101090000E94641C882309F180E094E00E94811B77
:1010A000409106015091070160910801709109017A
:1010B00080E094E00E94911A40910C0150910D0142
:1010C00060910E0170910F0180E094E00E94321A4D
:1010D00061E080E094E00E94311B8091DC04882371
:1010E00031F06EEC71E088EB95E00E94B12D0C942C
:1010F0003B05EF920F9322E0E22E0AE02DE04CE058
:101100006BE086E594E00E946C1C33E0E32E08E07F
:101110002DE04CE06BE080E094E00E946C1C8FEFCF
:1011200093E00E943B1182EE93E00E94020366E589
:1011300074E08AEC93E00F91EF900C947E0A0F9389
:101140001F93CF93DF9300D000D0CDB7DEB788EBED
:1011500095E00E943C2B892B09F475C188EB95E042
:101160000E94552B082F8C3269F4E091AC0481E089
:101170008E0F8093AC04F0E0E355FB4F8091C603E3
:10118000808351C180ED800F8A3010F52091C60315
:101190003091C7034091C8035091C903AAE0B0E061
:1011A0000E943F356053710981099109112707FD9C
:1011B0001095212F312F600F711F821F931F609395
:1011C000C6037093C7038093C8039093C9033BC1C0
:1011D000802F8F7D81548A3108F02EC1402F5527F2
:1011E00047FD5095652F752FFA01E654F109E53357
:1011F000F10508F014C1EC5CFF4F0C942A3581E036
:101200004091C6035091C7036091C8037091C90310
:10121000452B462B472B09F480E00E945E0403C156
:101220006091C6037091C70382EE93E00E94290388
:10123000FAC061E08091C6039091C703A091C803F2
:10124000B091C903892B8A2B8B2B09F460E08FEFB7
:1012500093E00E948111E7C04091C6035091C703FB
:101260006091C8037091C903413051056105710552
:1012700081F050F0423051056105710571F44AE882
:1012800052E260E070E009C049E553E460E070E0DC
:1012900004C04BE655E260E070E0023759F4409339
:1012A000100150931101609312017093130186E5B0
:1012B00094E019C080E094E049835A836B837C8377
:1012C0000E94641C49815A816B817C81882309F4C6
:1012D000AAC040930C0150930D0160930E017093CE
:1012E0000F0180E094E00E94321A9DC08091C603F5
:1012F00080930B0198C08091C60380930A0193C02C
:101300008091C6038093D5048EC08091C6039091CE
:10131000C7039093DA048093D90485C08091C603F3
:101320009091C7039093D8048093D7047CC00E9407
:101330003B0579C06091AC04E62FF0E0E355FB4F2C
:101340008091C60380836F5F6093AC048DEA94E064
:101350000E94720410C06091AC04E62FF0E0E355E7
:10136000FB4F8091C60380836F5F6093AC048DEA6E
:1013700094E00E9490041092AC0455C06091AC04BB
:10138000E62FF0E0E355FB4F8091C60380836F5F4B
:101390006093AC048DEA94E00E94F504ECCF409198
:1013A000C6035091C7036091C8037091C90386E5D5
:1013B00094E010C080E094E00E94641C882399F1BE
:1013C0004091C6035091C7036091C8037091C9034F
:1013D00080E094E00E94911A26C021E08091C6032B
:1013E0009091C703A091C803B091C903892B8A2BA0
:1013F0008B2B09F420E02093D60415C021E08091C6
:10140000C6039091C703A091C803B091C903892B6B
:101410008A2B8B2B09F420E02093DB0404C00E946C
:101420003B050E94E4021092C6031092C70310927B
:10143000C8031092C90307C00152003220F40E9471
:101440003B050E94E4028AEC93E00E94A10A8823F3
:1014500051F062E08FEF93E00E94511161E086E568
:1014600094E00E94311B82EE93E00E94D90386E54E
:1014700094E00E94B11986E594E00E941718882331
:1014800021F086E594E00E94460680E094E00E9408
:10149000641C882371F080E094E00E94B11980E020
:1014A00094E00E941718882321F080E094E00E94C5
:1014B00046062091D9043091DA0400910B0140E1F5
:1014C00051E061ED74E086E594E00E9457072091B9
:1014D000D7043091D80400910A014CE051E06DEC42
:1014E00074E080E094E00E9457070F900F900F90F7
:1014F0000F90DF91CF911F910F910895FC0171839F
:101500006083128249E553E460E070E043835483D2
:10151000658376831782138A1786108A118A128A46
:1015200080EA9FE091878087148A158A168A178A35
:10153000168612861386148615860895FC0162832A
:101540000895CF92DF92EF92FF920F931F93CF9364
:10155000DF93CDB7DEB761970FB6F894DEBF0FBE4D
:10156000CDBF8C01FC018281882391F00E94E92982
:10157000F80120853185C488D588E688F788C20EB1
:10158000D31EE11CF11C6C157D058E059F0510F422
:1015900080E052C00E94E929F801648B758B868B2C
:1015A000978B8685882361F00E94E929F801C2841F
:1015B000D384E484F5846C157D058E059F05C8F5FC
:1015C000F80187818A8386858B831C828785908931
:1015D000A189B2898D839E83AF83B8871986838959
:1015E0008A87808191810E94F81C6B017C01F8013F
:1015F0004381548165817681808191810E94321A74
:10160000BE01635F7F4FCE0101960E948B1145E0C2
:10161000BE01635F7F4FF801808191810E94191D97
:10162000B701A601F801808191810E94321A81E000
:1016300003C0F8011686C4CF61960FB6F894DEBFDA
:101640000FBECDBFDF91CF911F910F91FF90EF9013
:10165000DF90CF900895AF92BF92CF92DF92EF923A
:10166000FF920F931F93FC01678351874087268762
:10167000E286F38604871587A382B482C582D68268
:101680001F910F91FF90EF90DF90CF90BF90AF90A0
:101690000895FC014787508B618B728B238B0895D3
:1016A000FC01178A168A0895FC01778B668B0895D2
:1016B0008F929F92AF92BF92CF92DF92EF92FF9262
:1016C000FC019B01442737FD4095542F848995895F
:1016D000281B390B41095109A289B3890E943F3562
:1016E0006B017C018FE0F594E794D794C7948A95B9
:1016F000D1F764857585882777FD8095982F2BE035
:10170000660F771F881F991F2A95D1F796014427E6
:1017100037FD4095542F86849784AA2497FCA09483
:10172000BA2C280D391D4A1D5B1D0E940B35C601C0
:10173000820F931FFF90EF90DF90CF90BF90AF90FC
:101740009F908F9008951F93CF93DF931F92CDB7F3
:10175000DEB7162F67E770E08FEE94E049830E94B2
:10176000AF26612F8FEE94E00E944C264981642FB2
:101770008FEE94E00E944C268FEE94E00F90DF9164
:10178000CF911F910C94C426CF93C62F67E770E0CA
:101790008FEE94E00E94AF266C2F8FEE94E00E94B3
:1017A0004C268FEE94E00E94C42667E770E08FEE2F
:1017B00094E00E94AF2641E050E067E770E08FEED2
:1017C00094E00E94A2268FEE94E00E94FC25C82F90
:1017D0008FEE94E00E94C4268C2FCF910895CF9372
:1017E000DF93C62F67E770E08FEE94E00E94AF268C
:1017F0006C2F8FEE94E00E944C268FEE94E00E94B6
:10180000C42667E770E08FEE94E00E94AF2642E0C6
:1018100050E067E770E08FEE94E00E94A2268FEE22
:1018200094E00E94FC25D82F80E0C82F8FEE94E032
:101830000E94FC25C82BD92B8FEE94E00E94C42671
:10184000CE01DF91CF910895CF93DF93EC018FEE1E
:1018500094E00E948B2660EDCE010E94C40B85357A
:1018600009F044C06AEACE010E94EF0B9983888395
:101870006CEACE010E94EF0B9B838A836EEACE0155
:101880000E94EF0B9D838C8360EBCE010E94EF0BD7
:10189000998B888B62EBCE010E94EF0B9B8B8A8B1E
:1018A00064EBCE010E94EF0B9D8B8C8B66EBCE011F
:1018B0000E94EF0B9F838E8368EBCE010E94EF0B9B
:1018C000998788876AEBCE010E94EF0B9B878A87F6
:1018D0006CEBCE010E94EF0B9D878C876EEBCE01E7
:1018E0000E94EF0B9F878E8781E001C080E0DF912F
:1018F000CF910895CF93DF93EC014EE264EF0E9405
:10190000A30B65E070E080E090E00E94182A66EF8B
:10191000CE010E94EF0BBC01CE010E94580B08962D
:1019200034E0959587953A95E1F7BC01882777FDD6
:101930008095982F0E94F73120E030E040E251E49A
:101940000E945C31DF91CF9108952F923F924F9288
:101950005F926F927F928F929F92AF92BF92CF923F
:10196000DF92EF92FF920F931F93CF93DF93CDB748
:10197000DEB72C970FB6F894DEBF0FBECDBF1C01AB
:101980004EE264EF0E94A30B65E070E080E090E01F
:101990000E94182A66EFC1010E94EF0B5C0144EB24
:1019A00064EFC1010E94A30B6EE070E080E090E064
:1019B0000E94182A66EFC1010E94EF0B6C01E12C16
:1019C000F12C5E2D4D2D3C2D222729833A834B830C
:1019D0005C8368EFC1010E94C40B29813A814B816D
:1019E0005C81282B29833A834B835C83B501C10139
:1019F0000E94580B4C01AA2497FCA094BA2C30EA00
:101A0000831A3FE0930AA108B108A5019401C5011A
:101A1000B4010E94C5342B013C010CE0759467941D
:101A2000579447940A95D1F7D1010D911C911197C4
:101A300014960D90BC91A02D0E944A356B017C013B
:101A40008DE0F594E794D794C7948A95D1F7F10186
:101A5000A681B781A30192010E944A35BB2797FD59
:101A6000B095AB2FC80ED91EEA1EFB1EF2E0CF0EBA
:101A7000D11CE11CF11C32E0F594E794D794C79493
:101A80003A95D1F720E8D20EE11CF11CF101A089B2
:101A9000B189A70196010E943F359B01AC016FE01F
:101AA00056954795379527956A95D1F72D833E83AF
:101AB0004F83588789819A81AB81BC8176E0B59547
:101AC000A795979587957A95D1F789839A83AB8364
:101AD000BC836801EE24D7FCE094FE2CA2E0CC0C81
:101AE000DD1CEE1CFF1CAA95D1F7A085B185A301D2
:101AF00092010E944A352B013C01BBE0759467942A
:101B000057944794BA95D1F7A281B381A501940166
:101B10000E944A351BE095958795779567951A95AC
:101B2000D1F7460E571E681E791EC40CD51CE61C44
:101B3000F71C02E0CC0CDD1CEE1CFF1C0A95D1F753
:101B400092E0C90ED11CE11CF11CC701B60124E0D2
:101B500030E040E050E00E940B3589819A81AB81F2
:101B6000BC81821B930BA40BB50B89839A83AB8337
:101B7000BC83A4EDB0E329813A814B815C810E9452
:101B80003F3597FD0DC0660F771F881F991F2D8168
:101B90003E814F8158850E94E93449015A010CC0A9
:101BA0002D813E814F8158850E94E93449015A01B7
:101BB000880C991CAA1CBB1C9927B7FC9A958B2DE5
:101BC0007A2D692D9B01AC010E94C5349B01AC01AB
:101BD000AEEDBBE00E943F356C01FF24D7FCF094D2
:101BE000EF2CA3E4B3EEA50194010E944D35BB2771
:101BF00097FDB095AB2FC80ED91EEA1EFB1E9FECB9
:101C0000C90E9EE0D91EE11CF11CF4E0F594E794A6
:101C1000D794C794FA95D1F7D10156966D917C91DE
:101C20005797882777FD8095982F0E94F73120E0FD
:101C30003AE24DE257E40E945C319B01AC0160E066
:101C400070E080E89FE30E94F33026EF38E248EA34
:101C500050E40E946A339B01AC01C501B4016C0DD4
:101C60007D1D8E1D9F1D29873A874B875C870E94AB
:101C7000F73129853A854B855C850E945C310E944D
:101C8000C4310E94F73120E030E048EC52E40E9479
:101C90005C310E94C431CB012C960FB6F894DEBFA4
:101CA0000FBECDBFDF91CF911F910F91FF90EF90AD
:101CB000DF90CF90BF90AF909F908F907F906F906C
:101CC0005F904F903F902F90089520E030E040E0EB
:101CD000FC015191CF01450F2F5F3F4F2C30310553
:101CE000B9F781E0411180E008950F931F93CF93DE
:101CF000DF938C01EB0181E0898FF801808188837B
:101D0000818189838481282F221F2227221F2D83EE
:101D1000828190E0982F88273381832B9B838A834D
:101D2000918581E096FF80E08E8BF8019185892F67
:101D3000881F8827881F8F8B2223A1F01E821F8275
:101D4000188619861A861B861C861D861E861F8687
:101D5000188A198A1A8A1B8A1C8A1D8A1C82188E64
:101D6000198E61C0F801608570E080E090E00E940B
:101D7000F73120E030E040E05FE30E94073320E0ED
:101D800030E040E053E40E94F4306E837F83888724
:101D90009987F801668170E0762F66278781682B26
:101DA000882777FD8095982F0E94F7316A877B8777
:101DB0008C879D87F80164816F7370E0762F6627AA
:101DC0008581682B75956795882777FD8095982F75
:101DD0000E94F7316E877F87888B998BF801618528
:101DE0006F7370E0762F66278285682B882777FDD2
:101DF0008095982F0E94F73120E030E048EC52E4C3
:101E00000E945C316A8B7B8B8C8B9D8BF80194815B
:101E100081E096FF80E08C83F8018385888FC8017C
:101E20000E94650E898FDF91CF911F910F910895C8
:101E3000EF92FF920F931F93CF93DF93CDB7DEB74F
:101E4000AA970FB6F894DEBF0FBECDBF7C01BE01CE
:101E50006F5F7F4F0E94750E0E94E9290091DD049B
:101E60001091DE042091DF043091E004601B710BBF
:101E7000820B930B9F938F937F936F9321E032E0BC
:101E80003F932F938E01055E1F4F1F930F930E9468
:101E900097370E94E9296093DD047093DE048093F4
:101EA000DF049093E004B80188EB95E00E94822D56
:101EB00067E072E088EB95E00E94822D87010FB603
:101EC000F894DEBF0FBECDBFE12CF12CF80161917B
:101ED0008F0140E150E088EB95E00E948D2E6CE18F
:101EE00073E088EB95E00E94822DFFEFEF1AFF0A66
:101EF0008CE0E816F10451F761E172E088EB95E0BF
:101F00000E94822D8A8D811103C063E172E002C0BC
:101F10006EE172E088EB95E00E94822D66E272E04D
:101F200088EB95E00E94822D40E150E0698188EBCA
:101F300095E00E948D2E6CE173E088EB95E00E94A5
:101F4000822D40E150E06A8188EB95E00E948D2E61
:101F50006AE272E088EB95E00E94822D6B817C81C1
:101F600040E150E088EB95E00E94942E6FE272E031
:101F700088EB95E00E94822D4F81588569857A858E
:101F800022E030E088EB95E00E94852F63E372E069
:101F900088EB95E00E94822D4B855C856D857E8562
:101FA00022E030E088EB95E00E94852F68E372E044
:101FB00088EB95E00E94822D4F85588969897A893E
:101FC00022E030E088EB95E00E94852F6CE372E020
:101FD00088EB95E00E94822D4B895C896D897E8912
:101FE00022E030E088EB95E00E94852F62E472E009
:101FF00088EB95E00E94822D6D8170E04AE050E010
:1020000088EB95E00E94782E69E472E088EB95E019
:102010000E94822D6E8170E04AE050E088EB95E0EE
:102020000E94782E60E572E088EB95E00E94822D98
:102030004AE050E0698D88EB95E00E948D2E88EB98
:1020400095E00E948B2DAA960FB6F894DEBF0FBEC6
:10205000CDBFDF91CF911F910F91FF90EF90089529
:10206000FF920F931F93CF93DF93EC018B016DE1F0
:1020700073E00E94073066E572E0CE010E94703086
:10208000F8016381CE010E9493306CE173E0CE01D0
:102090000E947030F8016281CE010E9493306CE1A1
:1020A00073E0CE010E94703020E030E040E251E465
:1020B000F80166817781808591850E9407330E94AF
:1020C000C431F62E672FCE010E9493306CE173E08D
:1020D000CE010E9470306F2DCE010E9493306CE1D2
:1020E00073E0CE010E947030F801628573858485AB
:1020F00095850E94C431672FCE010E9493306CE118
:1021000073E0CE010E947030F8016285738584858A
:1021100095850E94C931CE010E9493306CE173E035
:10212000CE010E947030F80166857785808991899B
:102130000E94C431672FCE010E9493306CE173E09E
:10214000CE010E947030F80166857785808991897B
:102150000E94C931CE010E9493306CE173E0CE0140
:102160000E94703020E030E048EC52E4F8016289CF
:102170007389848995890E9407330E94C431F62EA1
:10218000672FCE010E9493306CE173E0CE010E9474
:1021900070306F2DCE010E9493306CE173E0CE0160
:1021A0000E947030F8016581660F8481680FCE014E
:1021B0000E949330CE01DF91CF911F910F91FF903C
:1021C00008950F931F93CF93DF93CDB7DEB7A697F4
:1021D0000FB6F894DEBF0FBECDBF8C016DE173E08A
:1021E000CE0181960E940730F8018081853211F579
:1021F0008181982F9F7B9A3211F08034D9F4BE01EF
:102200006F5F7F4FC8010E94750E8A8D882391F001
:10221000BE016F5F7F4FCE014B960E943010BE0112
:10222000655E7F4FCE0181960E941D30CE014B9698
:102230000E94992F8DA19EA1892B39F0BE016F5D5F
:102240007F4F88EB95E00E949F2D11E02DA13EA1CC
:10225000232B09F410E0CE0181960E94992F812F43
:10226000A6960FB6F894DEBF0FBECDBFDF91CF911B
:102270001F910F91089521E0FC0120830895CF93D1
:10228000C62FFC018081882351F061E089E00E9423
:10229000A42A61E06C2789E0CF910C94DD2ACF91CC
:1022A0000895EF92FF920F931F93CF93DF938C01CA
:1022B000662301F16B3008F06AE0C0E0D0E0E62E62
:1022C000F12CCE15DF05B4F461E0C8010E943F1186
:1022D00062E370E080E090E00E94182A60E0C801AC
:1022E0000E943F1162E370E080E090E00E94182AB3
:1022F0002196E7CFDF91CF911F910F91FF90EF9043
:102300000895FC016083611102C00C943F1108958F
:1023100064E00C94DF1D8F929F92AF92BF92CF9298
:10232000DF92EF92FF920F931F93CF93DF938C0175
:10233000EB01FB0180E090E0119201968530910560
:10234000D9F780E98883F80181818695869580692F
:1023500088838181F0E48F9FC00111248983F80173
:102360002281F0E22F9F90011124822B8983F801B2
:102370002381F0E12F9F90011124B82EB22AB98257
:1023800020E030E040E252E4F8016481758186810A
:1023900097810E94F4306B017C0120E030E040E244
:1023A00051E40E945C310E94C431B62AB98220E017
:1023B00030E040E85FE3C701B6010E9439324B01CB
:1023C0005C01C701B6010E94C431CB016AE070E034
:1023D0000E94D53424E0880F991F2A95E1F7FA80EE
:1023E000F82A20E030E040E251E4C501B4010E9447
:1023F000073320E030E040E05FE30E94F4300E94C9
:10240000C431F62AFA82F80121852B838085F0E811
:102410008F9FC0011124822B8B83CE010E948811D3
:102420008C83DF91CF911F910F91FF90EF90DF9000
:10243000CF90BF90AF909F908F900895BF92CF9212
:10244000DF92EF92FF920F931F93CF93DF938C0154
:10245000EB0181E08B87F801F480FA86C8010E94C5
:102460008811F8121B861982F80180818F70F4E0C0
:102470008F9FC001112489833091E504F8012181E7
:10248000922F332311F0907C04C0929596959695E7
:102490009370982B9983F801808182958F7088833F
:1024A000893009F01B86F801818185FB882780F936
:1024B0008A838181829581708B83B28061816F7004
:1024C00070E080E090E00E94F73120E030E048ECDE
:1024D00052E40E94073320E030E0A9010E94F4306A
:1024E0006B017C016B2D62956F7070E080E090E075
:1024F0000E94F73120E030E040E251E40E940733CF
:102500009B01AC01C701B6010E94F4306B017C0154
:102510006B2D6F7070E080E090E00E94F7319B01BE
:10252000AC01C701B6010E94F43020E030E040E287
:1025300051E40E945C3120E030E040E252E40E942D
:10254000F3306C837D838E839F83F8019381892F81
:10255000881F8827881F888783818F778987DF91E5
:10256000CF911F910F91FF90EF90DF90CF90BF9090
:102570000895AF92BF92CF92DF92EF92FF920F93A6
:102580001F93CF93DF9300D000D000D0CDB7DEB73C
:102590005C018B016DE173E0CE0101960E94073072
:1025A00062E672E0CE0101960E947030F80161810E
:1025B000CE0101960E94933060E2CE0101960E9406
:1025C0008030F80181858F77843610F08A3651F497
:1025D000F8018281882319F061E870E008C061E0A9
:1025E00070E005C08D3709F042C062E870E0CE01AE
:1025F00001960E94C03060E2CE0101960E948030B8
:1026000020E030E040E251E4F80164817581868188
:1026100097810E94073320E030E04AE754E40E94AB
:10262000F4300E94C931F62E672FCE0101960E9428
:10263000933060E2CE0101960E9480306F2DCE0172
:1026400001960E94933060E2CE0101960E94803094
:10265000F801C480D580E680F78020E030E040E7D4
:1026600052E4C701B6010E94033387FD06C06DE145
:1026700073E0C5010E94073019C020E030E040E25D
:1026800052ECC701B6010E945831181684F7F801C0
:102690006185808581116068CE0101960E9493302A
:1026A000BE016F5F7F4FC5010E943430CE0101969D
:1026B0000E94992FC50126960FB6F894DEBF0FBE73
:1026C000CDBFDF91CF911F910F91FF90EF90DF90E1
:1026D000CF90BF90AF900895EF92FF920F931F930A
:1026E000CF93DF93CDB7DEB7A1970FB6F894DEBFD7
:1026F0000FBECDBF7C01BE016F5E7F4F0E941E12D8
:102700001D8E1E8E1F8E18A219A22A89FE017D968B
:10271000CE0182963191231709F4DBC0E817F9073F
:10272000C9F70E94E9290091E1041091E204209187
:10273000E3043091E404601B710B820B930B9F93B5
:102740008F937F936F9381E092E09F938F938E019D
:102750000F5F1F4F1F930F930E9497370E94E92925
:102760006093E1047093E2048093E3049093E404A3
:10277000B80188EB95E00E94822D62E972E088EB57
:1027800095E00E94822D87010FB6F894DEBF0FBE40
:10279000CDBFE12CF12CF80161918F014AE050E0AE
:1027A00088EB95E00E948D2E6CE173E088EB95E05C
:1027B0000E94822DFFEFEF1AFF0A85E0E816F10470
:1027C00051F761E172E088EB95E00E94822D8C8DDB
:1027D000811107C063E172E088EB95E00E94822DD1
:1027E00074C06EE172E088EB95E00E94822D66E293
:1027F00072E088EB95E00E94822D4AE050E0698902
:1028000088EB95E00E948D2E6AE272E088EB95E0FD
:102810000E94822D4AE050E06A8988EB95E00E9490
:102820008D2E68E672E088EB95E00E94822D6B8920
:1028300070E04AE050E088EB95E00E94782E62E775
:1028400072E088EB95E00E94822D6C8970E04AE08E
:1028500050E088EB95E00E94782E6AE772E088EB02
:1028600095E00E94822D4D895E896F89788D22E0E6
:1028700030E088EB95E00E94852F61E872E088EBFC
:1028800095E00E94822D698D70E04AE050E088EB6F
:1028900095E00E94782E6CE872E088EB95E00E944B
:1028A000822D4AE050E06A8D88EB95E00E948D2EE3
:1028B00060E572E088EB95E00E94822D4AE050E0EE
:1028C0006B8D88EB95E00E948D2E88EB95E00E9441
:1028D0008B2DA1960FB6F894DEBF0FBECDBFDF9152
:1028E000CF911F910F91FF90EF9008950F931F9339
:1028F000CF93DF93CDB7DEB768970FB6F894DEBFFE
:102900000FBECDBF8C016DE173E0CE0143960E94F6
:102910000730F801808182958F70893031F5BE01D2
:102920006F5F7F4FC8010E941E128C85882391F033
:10293000BE016F5F7F4FCE010D960E94B912BE019E
:10294000635F7F4FCE0143960E941D30CE010D96EE
:102950000E94992F8F89988D892B39F0BE016D5E69
:102960007F4F88EB95E00E949F2D11E02F89388DD5
:10297000232B09F410E0CE0143960E94992F812F5A
:1029800068960FB6F894DEBF0FBECDBFDF91CF9132
:102990001F910F91089565E00C94DF1D8F929F9217
:1029A000AF92BF92CF92DF92EF92FF920F931F935D
:1029B000CF93DF938C01EB0181E08F87F801F580E5
:1029C000FE86C8010E94CB14F81659F08091EA04E3
:1029D000882331F06DE972E088EB95E00E94B12D1B
:1029E0001F86F80180818F708983808182958F7026
:1029F00088838B3059F08091EA04882331F06CEAA7
:102A000072E088EB95E00E94B12D1F86F80161818C
:102A100062956F70F4E66F9FB0011124882777FDEF
:102A20008095982F0E94F7316B017C016A837B832C
:102A30008C839D83F80161816F70FAE06F9FB00114
:102A40001124882777FD8095982F0E94F7319B01EC
:102A5000AC01C701B6010E94F4306B017C016A83AE
:102A60007B838C839D83F801628162956F7070E037
:102A700080E090E00E94F7319B01AC01C701B601F4
:102A80000E94F43020E030E040E05FE30E94073332
:102A90006A837B838C839D83F80162816F70FAE087
:102AA0006F9FB0011124882777FD8095982F0E9491
:102AB000F7316B017C016E837F8388879987F801EA
:102AC000638162956F7070E080E090E00E94F73162
:102AD0009B01AC01C701B6010E94F4306B017C017F
:102AE0006E837F8388879987F80163816F7070E0B8
:102AF00080E090E00E94F7312DEC3CEC4CEC5DE383
:102B00000E9407339B01AC01C701B6010E94F4305B
:102B100020E030E040E252E40E94F3306B017C019F
:102B20006E837F8388879987F801648162956F70CF
:102B300070E080E090E00E94F7314B015C016A8711
:102B40007B878C879D87F80164816F7070E080E0DF
:102B500090E00E94F7312DEC3CEC4CEC5DE30E94E0
:102B600007339B01AC01C501B4010E94F4306A87B0
:102B70007B878C879D8720E030E040E252ECC701E4
:102B8000B6010E94583187FD0AC020E030E040E7DE
:102B900052E4C701B6010E9403331816ACF41F8635
:102BA0008091EA04882381F06BEB72E088EB95E07A
:102BB0000E94822D4E815F816885798522E030E018
:102BC00088EB95E00E94872FCA80DB80EC80FD8037
:102BD00020E030E040E050E4C701B6010E945831E7
:102BE00087FD0AC020E030E046E953E4C701B601A2
:102BF0000E9403331816ACF41F868091EA048823E0
:102C000081F062ED72E088EB95E00E94822D4A81AE
:102C10005B816C817D8122E030E088EB95E00E9451
:102C2000872FCA84DB84EC84FD8420E030E040E020
:102C300050E4C701B6010E94583187FD0AC020E068
:102C400030E040E551E4C701B6010E940333181695
:102C50000CF51F868091EA048823E1F063EE72E0B0
:102C600088EB95E00E94822D4A855B856C857D8589
:102C700022E030E088EB95E0DF91CF911F910F913A
:102C8000FF90EF90DF90CF90BF90AF909F908F908C
:102C90000C94872FDF91CF911F910F91FF90EF90B0
:102CA000DF90CF90BF90AF909F908F900895EF925C
:102CB000FF920F931F93CF93DF93CDB7DEB7A0970B
:102CC0000FB6F894DEBF0FBECDBF7C01BE016F5EB4
:102CD0007F4F0E94CE140E94E9290091E6041091D2
:102CE000E7042091E8043091E904601B710B820B2A
:102CF000930B9F938F937F936F9321E032E03F93E9
:102D00002F938E010F5F1F4F1F930F930E949737D2
:102D10000E94E9296093E6047093E7048093E80435
:102D20009093E904B80188EB95E00E94822D66EF4C
:102D300072E088EB95E00E94822D87010FB6F8942F
:102D4000DEBF0FBECDBFE12CF12CF80161918F01E8
:102D500040E150E088EB95E00E948D2E6CE173E03D
:102D600088EB95E00E94822DFFEFEF1AFF0A86E0C4
:102D7000E816F10451F761E172E088EB95E00E94FA
:102D8000822D88A1811107C063E172E088EB95E094
:102D90000E94822D5DC06EE172E088EB95E00E949A
:102DA000822D66E272E088EB95E00E94822D4AE077
:102DB00050E0698988EB95E00E948D2E6AE272E00E
:102DC00088EB95E00E94822D4AE050E06A8988EB0A
:102DD00095E00E948D2E64E073E088EB95E00E9400
:102DE000822D4B895C896D897E8922E030E088EBF9
:102DF00095E00E94852F6AE772E088EB95E00E94DB
:102E0000822D4F89588D698D7A8D22E030E088EBD4
:102E100095E00E94852F6CE073E088EB95E00E94BE
:102E2000822D4B8D5C8D6D8D7E8D22E030E088EBA8
:102E300095E00E94852F60E572E088EB95E00E94A6
:102E4000822D4AE050E06F8D88EB95E00E948D2E38
:102E500088EB95E00E948B2DA0960FB6F894DEBF0C
:102E60000FBECDBFDF91CF911F910F91FF90EF90DB
:102E70000895FF920F931F93CF93DF93EC018B0183
:102E80006DE173E00E94073063E173E0CE010E94C0
:102E90007030F8016181CE010E9493306AE173E0E5
:102EA000CE010E94703020E030E040E251E4F801B1
:102EB00062817381848195810E94073320E030E034
:102EC0004AE754E40E94F4300E94C431F62E672F82
:102ED000CE010E9493306CE173E0CE010E9470300D
:102EE0006F2DCE010E9493306CE173E0CE010E9401
:102EF000703020E030E040E251E4F80166817781F3
:102F0000808591850E94073320E030E04AE754E451
:102F10000E94F4300E94C431F62E672FCE010E9429
:102F200093306CE173E0CE010E9470306F2DCE01C2
:102F30000E9493306CE173E0CE010E94703020E07B
:102F400030E040E251E4F80162857385848595851F
:102F50000E9407330E94C431CE010E94C030CE01CE
:102F6000DF91CF911F910F91FF9008950F931F93C1
:102F7000CF93DF93CDB7DEB76C970FB6F894DEBF73
:102F80000FBECDBF8C016DE173E0CE0147960E946C
:102F90000730BE016F5F7F4FC8010E94CE14888941
:102FA000882391F0BE016F5F7F4FCE0141960E9452
:102FB0003917BE016F5E7F4FCE0147960E941D30CC
:102FC000CE0141960E94992F8B8D9C8D892B39F0D3
:102FD000BE01695E7F4F88EB95E00E949F2D11E056
:102FE0002B8D3C8D232B09F410E0CE0147960E94D7
:102FF000992F812F6C960FB6F894DEBF0FBECDBF10
:10300000DF91CF911F910F910895FC01158A108ACD
:10301000FB0120E030E0DC01A20FB31F56964C917B
:1030200041932F5F3F4F20343105A9F70895FC01EC
:10303000858908950F931F93CF93DF93DC01862F2B
:1030400013966C91139770E0FB01E55CFA4FE491E5
:10305000F0E0EE0FFF1FE15BFA4FC591D491FB0149
:10306000E95DFA4F649198E014962C91149730E042
:10307000F901E95DFA4F7491F901E55CFA4F249189
:10308000E22FF0E0EE0FFF1FE75AFA4F45915491FF
:10309000FA01208130E0E72FF0E0E095F0952E2353
:1030A0003F23FA01208312962C91129730E0F90108
:1030B000E95DFA4F87FF12C05491F901E55CFA4FC0
:1030C0002491E22FF0E0EE0FFF1FE75AFA4F25910F
:1030D0003491F9014081452B408315C04491F90199
:1030E000E55CFA4FE491F0E0EE0FFF1FE75AFA4F6C
:1030F00005911491F801208130E050E04095509501
:10310000242335232083880F14962C91149730E0C4
:10311000F901E95DFA4F5491F901E55CFA4FE49148
:10312000F0E0EE0FFF1FE75AFA4F25913491F901B5
:103130004081452B40832881262309F081609150EE
:1031400009F092CF14962C9130E0F901E95DFA4F25
:103150009491F901E55CFA4F2491E22FF0E0EE0F33
:10316000FF1FE75AFA4FA591B4912C9130E0E92F57
:10317000F0E0E095F0952E233F232C93DF91CF9143
:103180001F910F9108950F931F93CF93DF93DC014D
:10319000CB0113966C91139770E0FB01E55CFA4F3D
:1031A000E491F0E0EE0FFF1FE15BFA4FC591D4917F
:1031B000FB01E95DFA4F649115962C91159730E06B
:1031C000F901E95DFA4F7491F901E55CFA4F249138
:1031D000E22FF0E0EE0FFF1FE75AFA4F45915491AE
:1031E000FA01208130E0E72FF0E0E095F0952E2302
:1031F0003F23FA01208370E112962C91129730E060
:10320000F901E95DFA4F97FF12C05491F901E55CAD
:10321000FA4F2491E22FF0E0EE0FFF1FE75AFA4F2A
:1032200025913491F9014081452B408318C01491B8
:10323000F901E55CFA4F2491E22FF0E0EE0FFF1F59
:10324000E75AFA4F45915491FA01208130E0E12F7D
:10325000F0E0E095F0952E233F23FA012083880FBC
:10326000991F2881262309F0816014962C911497C8
:1032700030E0F901E95DFA4F5491F901E55CFA4F4C
:10328000E491F0E0EE0FFF1FE75AFA4F25913491D9
:10329000F9014081452B40830000000014962C91D9
:1032A000149730E0F901E95DFA4F4491F901E55CCA
:1032B000FA4FE491F0E0EE0FFF1FE75AFA4F059145
:1032C0001491F801208130E050E04095509524237E
:1032D00035232083715009F08FCF15962C9130E063
:1032E000F901E95DFA4F4491F901E55CFA4FE49187
:1032F000F0E0EE0FFF1FE75AFA4FA591B4912C9121
:10330000242B2C93DF91CF911F910F9108951F9340
:10331000CF93DF93EC01162F60E08D810E94DD2AB0
:10332000612F6F77CE010E941A1860E0CE010E94D3
:103330001A18182F61E08D810E94DD2A812FDF91FC
:10334000CF911F910895FC012081318122303105F8
:1033500019F460E00C94871960E070EB0E94C318C8
:1033600008950F931F93CF93DF93EC018881998188
:103370000297A9F468E2CE010E94871982FF48C033
:1033800000E010E0CE010E94A319FE01E00FF11F42
:10339000868B0F5F1F4F00341105A1F737C060E027
:1033A0008D810E94DD2A000000008B810E94132B7A
:1033B0008C0161E08D810E94DD2A012B89F0188942
:1033C00081E0810F888BCE010E94A319FE01E10FDD
:1033D000F11D868B0E94E929698B7A8B8B8B9C8BE4
:1033E0008889811104C08889803280F411C00E94CC
:1033F000E92909891A892B893C890E5C1F4F2F4FB7
:103400003F4F061717072807390768F781E08D8BAC
:10341000DF91CF911F910F910895EF92FF921F932B
:10342000CF93DF931F92CDB7DEB77C01162F60E0FC
:10343000FC01858149830E94DD2A612F6068C701F4
:103440000E941A184981642FC7010E941A1861E06E
:10345000F70185810F90DF91CF911F91FF90EF9041
:103460000C94DD2ACF92DF92EF92FF92CF93DF93FD
:10347000EC019A01AB01288739874A875B878881ED
:1034800099810297F1F4CA01B901969587957795CC
:103490006795785B87419E4F0E94E93469017A0104
:1034A000432F552763E0CE010E940D1A4C2D64E096
:1034B000CE01DF91CF91FF90EF90DF90CF900C94F1
:1034C0000D1ACA01B9010E94F5319B01AC0160E8F7
:1034D0007FE588EA98E40E945C316B017C0120E082
:1034E00030E0A9010E94033320E030E040E05FE3D8
:1034F00087FD05C0C701B6010E94F43004C0C701B2
:10350000B6010E94F3300E94C431615070E0766CC5
:10351000CE01DF91CF91FF90EF90DF90CF900C9490
:10352000C318CF92DF92EF92FF92CF93DF93EC011B
:103530004C875D876E877F87888199810297B1F577
:10354000A8EEB3E09A01AB010E943F35A2E0660FFE
:10355000771F881F991FAA95D1F729E03DE340E026
:1035600050E00E94E93469017A01B6E0CC0CDD1C20
:10357000EE1CFF1CBA95D1F7A7016627772767E0F5
:10358000CE010E940D1A77276F2D5E2D4D2D68E01C
:10359000CE010E940D1A4C2D69E0CE01DF91CF9132
:1035A000FF90EF90DF90CF900C940D1ACB01BA01F1
:1035B00060567F418D40910925E030E040E050E0C9
:1035C0000E94E934B9017056CE01DF91CF91FF908E
:1035D000EF90DF90CF900C94C318CF93DF93EC0162
:1035E00088819981662369F0029741F461E0CE01F8
:1035F0000E948719482F437E4C600CC068E372E834
:1036000011C0029769F461E0CE010E948719482F2A
:10361000437E446061E0CE01DF91CF910C940D1A9E
:1036200068E072E8CE01DF91CF910C94C3181F932C
:10363000CF93DF93EC0188819981029731F440E1C7
:1036400068E2CE010E940D1A08C010E460E070EB41
:10365000CE010E94C3181150C9F7DF91CF911F917D
:103660000895CF93DF93EC01888199816623B9F0A7
:10367000029741F461E0CE010E948719482F437EF2
:10368000406116C068EC72E8CE010E94C31861E880
:103690007AECCE010E94C31863E87AEC10C002975E
:1036A00061F461E0CE010E948719482F437E446097
:1036B00061E0CE010E940D1A05C068E072E8CE01FB
:1036C0000E94C318CE01DF91CF910C94171BCF93AA
:1036D000DF93EC01FB01808191818130910529F01C
:1036E000029731F465E273E005C06EE173E002C059
:1036F0006DE273E0CE010E940730CE01DF91CF91E1
:1037000008950F931F93CF93DF9300D000D000D084
:10371000CDB7DEB78C01FC0187818823B1F062E36D
:1037200073E088EB95E00E94822DB801CE010196EE
:103730000E94671BBE016F5F7F4F88EB95E00E9480
:103740009F2DCE0101960E94992F61E0F80185819D
:103750000E94DD2A60E0C8010E94311BF8018081CF
:103760009181029709F056C044E061E0C8010E94CF
:103770000D1A40E062E0C8010E940D1A45E065E0C4
:10378000C8010E940D1A43EC66E0C8010E940D1AA0
:103790004FE961E1C8010E940D1A4FE063E1C801E1
:1037A0000E940D1A42E469E1C8010E940D1A40E12D
:1037B00068E2C8010E940D1A4CED69E2C8010E943E
:1037C0000D1A48E86EE2C8010E940D1A4DE26FE240
:1037D000C8010E940D1A44ED60E3C8010E940D1A51
:1037E00048E067E3C8010E940D1A40E468E3C8019D
:1037F0000E940D1A4FE86CE3C8010E940D1A42E1C5
:103800006DE3C8010E940D1A40E36FE6C8010E94F3
:103810000D1A3CC068E072E8C8010E94C31868EE47
:1038200070E8C8010E94C3186AE672ECC8010E94E1
:10383000C31862E17AECC8010E94C31864ED7EEC03
:10384000C8010E94C31861E874ECC8010E94C31843
:1038500060EA74E9C8010E94C31867E77CECC801FC
:103860000E94C31860E578E9C8010E94C31860E0AF
:1038700070EEC8010E94C31860E078ECC8010E9495
:10388000C31860E470ECC8010E94C318F8014485B5
:10389000558566857785C8010E94911AF801408593
:1038A000518562857385C8010E94321AC8010E9441
:1038B000171B26960FB6F894DEBF0FBECDBFDF9163
:1038C000CF911F910F910895FC0181E020813181FA
:1038D000232B09F480E00895EF920F93CF93DF93A9
:1038E000EC01862F6A834B832C830D83EE821F822B
:1038F00049E553E460E070E0488759876A877B8731
:103900004CEC5FE36DE070E04C875D876E877F87EE
:10391000188A198A1A8A1B8A1C8A1D8A61E00E94E9
:10392000A42A60E08B810E94A42A61E08C810E941D
:10393000A42A61E08D810E94A42A60E08E810E9409
:10394000A42A61E08D810E94DD2A198218824AE052
:1039500068E3CE010E940D1A68E3CE010E94871928
:103960008A3079F440E468E3CE010E940D1A68E3DE
:10397000CE010E948719803421F482E090E099837F
:10398000888388819981892B59F56CE072E8CE0192
:103990000E94C3186FE470ECCE010E94C31884E645
:1039A00090E000000197E9F760E070E0CE010E942E
:1039B000C31892FF15C060E470ECCE010E94C318DA
:1039C00084E690E000000197E9F760E070E0CE0146
:1039D0000E94C31892FD04C081E090E0998388831F
:1039E000DF91CF910F91EF900895FC0167830895C7
:1039F000FC0160857185828593850895FC0164854D
:103A000075858685978508951F93CF93DF93EC0185
:103A1000162F60E070E0CE010E94C31897FFF9CF27
:103A2000612F70E0786BCE01DF91CF911F910C94E4
:103A3000C3188F929F92AF92BF92DF92EF92FF9244
:103A40000F931F93CF93DF93EC017B01D42E8881DA
:103A50009981029709F046C06DE3CE010E94871953
:103A6000482F44606DE3CE010E940D1A60E0CE0144
:103A70000E94311BCE010E94171BF89460E08D81DB
:103A80000E94DD2A60E8CE010E941A18BE2C870130
:103A9000802F8B198D1538F4F80161918F01CE01BB
:103AA0000E941A18F5CF61E08D810E94DD2A78947A
:103AB00061E0CE010E94ED1A0E94E9294B015C01F0
:103AC00068E2CE010E94871983FD3AC00E94E9296D
:103AD000681979098A099B09643F7140810591053C
:103AE00078F5EECF61E0CE010E94ED1A6AEACE01D0
:103AF0000E94041D6AEACE010E94041D6AEACE01FA
:103B00000E94041D6DE2CE010E94041D64EDCE01F1
:103B10000E94041D8701AD2CB12CC8018E199F098C
:103B20008A159B053CF4F80161918F01CE010E943A
:103B3000041DF3CF61E070E080E090E00E94182A5D
:103B400060E0CE010E94ED1A8F81882361F16DE360
:103B500073E088EB95E00E94822DE7010D2D10E0C7
:103B6000CE018E199F098017910774F469914AE07C
:103B700050E088EB95E00E948D2E6CE173E088EBBD
:103B800095E00E94822DECCF88EB95E0DF91CF91FC
:103B90001F910F91FF90EF90DF90BF90AF909F909B
:103BA0008F900C948B2DDF91CF911F910F91FF90EF
:103BB000EF90DF90BF90AF909F908F900895FC01A1
:103BC00040E070E0A1E39F01281B390B261737075F
:103BD0006CF4519128E030E0B52FB427440FB7FDC5
:103BE0004A27550F21503109B9F7EDCF842F089599
:103BF0008093EA040895EF92FF920F931F93CF935F
:103C0000DF931F92CDB7DEB77C01162F072F6DE132
:103C100073E049830E9407304981411102C01FEFC0
:103C20000FEF60E2C7010E948030602FC7010E9441
:103C3000933060E2C7010E948030612FC7010E946B
:103C40009330C7010F90DF91CF911F910F91FF909B
:103C5000EF900895EF92FF921F93CF93DF931F92FF
:103C6000CDB7DEB77C01162F6DE173E049830E946A
:103C7000073060E2C7010E9480304981442319F077
:103C8000612F70E002C06FEF70E0C7010E94C0308A
:103C9000C7010F90DF91CF911F91FF90EF90089592
:103CA0009F92AF92BF92CF92DF92EF92FF920F93CB
:103CB0001F93CF93DF9300D000D000D0CDB7DEB7F5
:103CC0005C018B016DE173E00E940730F801948084
:103CD00081E0982687818823C9F0C584D684E7844B
:103CE000F08820E030E040E252ECC701B6010E94CB
:103CF000583187FD0AC02AE939E94FE652E4C70185
:103D0000B6010E94033318160CF4912CF80180853B
:103D1000882329F081898150833608F0CCC099200E
:103D200009F4C9C064E171E0C5010E947030F80176
:103D30006181C5010E9493306CE473E0C5010E946B
:103D4000703020E030E040E251E4F801658576858E
:103D5000878590890E94073320E030E04AE754E4E9
:103D60000E94F4300E94C931F8014781CE010196CA
:103D70000E94FB1DBE016F5F7F4FC5010E9469302D
:103D8000CE0101960E94992FF80140856189CE01EC
:103D900001960E942A1EBE016F5F7F4FC5010E94DF
:103DA0006930CE0101960E94992FF80162897389CA
:103DB000848995890E94C931F8014185CE01019617
:103DC0000E94FB1DBE016F5F7F4FC5010E946930DD
:103DD000CE0101960E94992F20E030E040E251E4AC
:103DE000F80166897789808D918D0E9407330E9442
:103DF000C931F8014385CE0101960E94FB1DBE0129
:103E00006F5F7F4FC5010E946930CE0101960E940D
:103E1000992F20E030E040E251E4F801628D738D8B
:103E2000848D958D0E9407330E94C931F801428527
:103E3000CE0101960E94FB1DBE016F5F7F4FC50141
:103E40000E946930CE0101960E94992F20E030E057
:103E500040E251E4F801668D778D80A191A10E9426
:103E600007330E94C931F8014485CE0101960E94B2
:103E7000FB1DBE016F5F7F4FC5010E946930CE01FF
:103E800001960E94992FF8016281848181116E5FF1
:103E9000F801838181116C5F41E0CE0101960E949F
:103EA0002A1EBE016F5F7F4FC5010E946930CE019F
:103EB00001960E94992FC50126960FB6F894DEBF91
:103EC0000FBECDBFDF91CF911F910F91FF90EF906B
:103ED000DF90CF90BF90AF909F900895FC018181BB
:103EE0008770880F8D5F08952F923F924F925F9257
:103EF0006F927F928F929F92AF92BF92CF92DF92FA
:103F0000EF92FF920F931F93CF93DF93CDB7DEB75E
:103F100063970FB6F894DEBF0FBECDBF8C010E9431
:103F20006E1F8150FE0139969E012F5E3F4F119208
:103F3000E217F307E1F72889AF84CE848D849C844F
:103F4000DB84EA84B984D801682F70E091E0AD0188
:103F5000401B510B461757070CF078C08D91AE01EE
:103F60004F5F5F4FF22E20E030E0E82FE170E98BE9
:103F7000F82FF270FB8BE82FE4706E2EF82FF8709C
:103F80005F2EE82FE0714E2EF82FF0723F2EE82FB3
:103F9000E0742E2EF9013197E730F10520F4E7594E
:103FA000FF4F0C942A35E82FEE0FEE0BE923E9833F
:103FB0002BC0222011F09A8327C01A8225C03320FB
:103FC00011F09B8321C01B821FC0442011F09C83F1
:103FD0001BC01C8219C0552011F09D8315C01D8285
:103FE00013C0662011F09E830FC01E820DC0FB8996
:103FF000FF2311F09F8308C01F8206C079887720B5
:1040000011F0988701C01886FA017190AF017A8A81
:10401000E72DE13009F4F724F82DFF25892C8F24B2
:104020002F5F3F4F2830310549F0EA2DAC2CCF2EC1
:104030009D2CDE2CEB2CBF2CFE2EACCF2A2DAC2CD5
:10404000CF2E9D2CDE2CEB2CBF2C81CFF0E82F9FA8
:104050009001112440E4A49EC0011124822B8B29DD
:1040600090E2C99E90011124822BE0E18E9E900186
:104070001124822BF8E09F9E90011124822B44E0B2
:10408000D49E90011124822BEE0C8E2963960FB6DC
:10409000F894DEBF0FBECDBFDF91CF911F910F917E
:1040A000FF90EF90DF90CF90BF90AF909F908F9058
:1040B0007F906F905F904F903F902F900895CF9298
:1040C000DF92EF92FF92CF93DF93D62FC42F24E697
:1040D000829FC0011124BC01882777FD8095982F0D
:1040E0000E94F73120E030E0A9010E94F4306B011A
:1040F0007C018AE0D89FB0011124882777FD809544
:10410000982F0E94F7319B01AC01C701B6010E94B4
:10411000F4306B017C016C2F70E080E090E00E9435
:10412000F7319B01AC01C701B6010E94F430DF9169
:10413000CF91FF90EF90DF90CF9008957F928F9274
:104140009F92AF92BF92CF92DF92EF92FF920F9326
:104150001F93CF93DF938C01EB0181E08E83188254
:1041600019821A821B821C821F82188619861A865F
:104170001B861C861D861E861F86188A198A1A8A27
:104180001B8A1C8A1D8A1E8A1F8A188E198E1A8EF7
:104190001B8E1C8E1D8E1E8E1F8E18A219A21D82B4
:1041A000C8010E946E1FF801E80FF11D3197F080E1
:1041B000FD82C8010E94741FF8121E82F8018081DE
:1041C00082958F7088838A3009F01E828E818823C1
:1041D00009F4E6C0F80180818F70F4E08F9FC00180
:1041E0001124F80191819295969596959370982B4C
:1041F0009983918181E095FF80E08A83F801918124
:1042000081E094FF80E08C83F80181818F7083FBD3
:10421000882780F98B83818187700D5F1F4FE12C88
:10422000F12CC82ED12C77247394EC14FD040CF0DF
:10423000B7C0FFEFEF1AFF0AF80131979081F8013C
:104240006081892F8F70B62EB2942FE0B2226F70EA
:10425000A62E92959F70923009F45CC030F4992399
:1042600011F1913009F449C098C0933009F46CC041
:10427000943009F092C07C8670E080E1B89E600DB9
:10428000711D1124882777FD8095982F0E94F731A2
:1042900020E030E040E251E40E945C316E8F7F8F7D
:1042A00088A399A37AC07F82462F6B2D0E945F203E
:1042B00020E030E048EC53E40E94F33020E030E0AE
:1042C00040E251E40E945C314B015C016D877E87C6
:1042D0008F87988B20E030E040E752E40E94033360
:1042E0001816B4F020E030E040E252ECC501B40111
:1042F0000E94583187FF51C00BC09887462F6B2D05
:104300000E945F200E94C931698B653608F445C060
:104310001E8243C079866B2D70E0F0E18F9F600DA7
:10432000711D112484E0660F771F8A95E1F76A0DED
:10433000711D882777FD8095982F0E94F7316A8B31
:104340007B8B8C8B9D8B29C07B867A86682F70E057
:1043500080E090E00E94F73120E030E044EB51E44F
:104360000E9407336E8B7F8B888F998F6A2D70E048
:1043700020E1B29E600D711D1124882777FD809584
:10438000982F0E94F73120E030E040E251E40E9493
:104390005C316A8F7B8F8C8F9D8F0E5F1F4F45CF57
:1043A000DF91CF911F910F91FF90EF90DF90CF9011
:1043B000BF90AF909F908F907F900895CF92DF92A3
:1043C000EF92FF920F931F93CF93DF93CDB7DEB79A
:1043D000A2970FB6F894DEBF0FBECDBF8C01BE0111
:1043E0006F5F7F4F0E949E20C8010E946E1FC82EE3
:1043F0008F81882321F16FE473E088EB95E00E94C0
:10440000822D7801D12CC701801B910B8C159D0545
:1044100084F4F70161917F0140E150E088EB95E081
:104420000E948D2E6CE173E088EB95E00E94822D56
:10443000EACF61E172E088EB95E00E94822D8F81E6
:10444000882309F4F8C06EE172E088EB95E00E94E1
:10445000822D66E272E088EB95E00E94822D40E1B9
:1044600050E0698188EB95E00E948D2E6AE272E04F
:1044700088EB95E00E94822D40E150E06A8188EB54
:1044800095E00E948D2E68E672E088EB95E00E9430
:10449000822D6B8170E04AE050E088EB95E00E944D
:1044A000782E68E573E088EB95E00E94822D6C81A0
:1044B00070E04AE050E088EB95E00E94782E62E6DA
:1044C00073E088EB95E00E94822D6D8170E04AE0F8
:1044D00050E088EB95E00E94782E6AE772E088EB66
:1044E00095E00E94822D8885882359F04E855F854E
:1044F0006889798922E030E088EB95E00E94852F79
:1045000006C06AE673E088EB95E00E94822D6CE8B5
:1045100072E088EB95E00E94822D8985882341F026
:104520004AE050E06A8988EB95E00E948D2E06C033
:104530006AE673E088EB95E00E94822D6EE673E0F8
:1045400088EB95E00E94822D8A85882359F04B895B
:104550005C896D897E8922E030E088EB95E00E94DD
:10456000852F06C06AE673E088EB95E00E94822DF5
:1045700065E773E088EB95E00E94822D8B858823A8
:1045800069F04B8D5C8D6D8D7E8D22E030E088EB87
:1045900095E00E94852F6BE873E002C06AE673E045
:1045A00088EB95E00E94822D6CE773E088EB95E044
:1045B0000E94822D8C85882359F04F89588D698DF2
:1045C0007A8D22E030E088EB95E00E94852F06C0CE
:1045D0006AE673E088EB95E00E94822D63E873E061
:1045E00088EB95E00E94822D8D85882369F04F8DA0
:1045F00058A169A17AA122E030E088EB95E00E9401
:10460000852F6AE873E002C06AE673E088EB95E004
:104610000E94822D60E572E088EB95E00E94822D79
:1046200040E150E06E8188EB95E00E948D2E88EB92
:1046300095E00E948B2DA2960FB6F894DEBF0FBEB8
:10464000CDBFDF91CF911F910F91FF90EF90DF9041
:10465000CF9008950F931F93CF93DF93CDB7DEB71D
:10466000AE970FB6F894DEBF0FBECDBF8C016DE1E3
:1046700073E0CE0189960E940730F8018081807A2C
:10468000803A31F5BE016F5F7F4FC8010E949E20C6
:104690008F81882391F0BE016F5F7F4FCE0183969B
:1046A0000E94501EBE016D5D7F4FCE0189960E9413
:1046B0001D30CE0183960E94992F8DA59EA5892B32
:1046C00039F0BE01675D7F4F88EB95E00E949F2D1A
:1046D00011E02DA53EA5232B09F410E0CE0189960B
:1046E0000E94992F812FAE960FB6F894DEBF0FBEB1
:1046F000CDBFDF91CF911F910F910895FC0120E074
:1047000030E080E0A1E3919140E050E0BA01620F17
:10471000731F6431710534F4692F6827880F67FDB2
:104720008A27990F4F5F5F4F4830510579F7285F0F
:104730003F4F2831310539F70895FF920F931F93AA
:10474000CF93DF938C01EB0181E08B87F8018281AD
:10475000F0E18F9FC0011124F801F380F294AFE0E3
:10476000FA22F82AF986C8010E947E23F8121B86D5
:10477000F80180818F7389838081829586958695E3
:1047800083708883833009F01B86F8019181892F1B
:10479000881F8827881F8A83818186FB882780F964
:1047A0008B8361816F73F0E16F9FB0011124F80179
:1047B000828182958F70682B882777FD8095982F4E
:1047C0000E94F7312DEC3CEC4CEC5DE30E9407338A
:1047D00020E030E040E252E40E94F3306C837D83BD
:1047E0008E839F83F80183818F708A878AE688870A
:1047F000DF91CF911F910F91FF900895AF92BF92DB
:10480000CF92DF92EF92FF920F931F93CF93DF939C
:1048100000D000D000D0CDB7DEB75C018B016DE1D8
:1048200073E0CE0101960E94073062E672E0CE018D
:1048300001960E947030F8016181CE0101960E94BC
:10484000933060E2CE0101960E948030F8018085AD
:104850008F77843610F08A3651F4F80182818823EC
:1048600019F061E870E008C061E070E005C08D37C4
:1048700009F042C062E870E0CE0101960E94C030AB
:1048800060E2CE0101960E94803020E030E040E2FC
:1048900051E4F80164817581868197810E94073314
:1048A00020E030E04AE754E40E94F4300E94C9312D
:1048B000F62E672FCE0101960E94933060E2CE0162
:1048C00001960E9480306F2DCE0101960E94933098
:1048D00060E2CE0101960E948030F801C480D5804C
:1048E000E680F78020E030E040E752E4C701B601FF
:1048F0000E94033387FD06C06DE173E0C5010E948D
:10490000073019C020E030E040E252ECC701B601A8
:104910000E945831181684F7F8016085838181114F
:104920006068CE0101960E949330BE016F5F7F4F99
:10493000C5010E943430CE0101960E94992FC50115
:1049400026960FB6F894DEBF0FBECDBFDF91CF9194
:104950001F910F91FF90EF90DF90CF90BF90AF909D
:104960000895EF92FF920F931F93CF93DF93CDB7EC
:10497000DEB7A1970FB6F894DEBF0FBECDBF7C01A6
:10498000BE016F5E7F4F0E949D231D8E1E8E1F8E67
:1049900018A219A22A89FE017D96CE018296319134
:1049A000231709F4C0C0E817F907C9F70E94E929DD
:1049B0000091EB041091EC042091ED043091EE0491
:1049C000601B710B820B930B9F938F937F936F935D
:1049D00081E092E09F938F938E010F5F1F4F1F9393
:1049E0000F930E9497370E94E9296093EB0470931C
:1049F000EC048093ED049093EE04B80188EB95E00D
:104A00000E94822D6FE873E088EB95E00E94822D72
:104A100087010FB6F894DEBF0FBECDBFE12CF12C9D
:104A2000F80161918F014AE050E088EB95E00E9427
:104A30008D2E6CE173E088EB95E00E94822DFFEFF4
:104A4000EF1AFF0A84E0E816F10451F761E172E021
:104A500088EB95E00E94822D8C8D811107C063E167
:104A600072E088EB95E00E94822D59C06EE172E001
:104A700088EB95E00E94822D66E272E088EB95E07B
:104A80000E94822D4AE050E0698988EB95E00E94FF
:104A90008D2E6AE272E088EB95E00E94822D4AE05A
:104AA00050E06A8988EB95E00E948D2E68E672E0FE
:104AB00088EB95E00E94822D6B8970E04AE050E01F
:104AC00088EB95E00E94782E61E872E088EB95E033
:104AD0000E94822D6C8970E04AE050E088EB95E0FE
:104AE0000E94782E6AE772E088EB95E00E94822DA2
:104AF0004D895E896F89788D22E030E088EB95E002
:104B00000E94852F60E572E088EB95E00E94822D7F
:104B10004AE050E06A8D88EB95E00E948D2E88EB8C
:104B200095E00E948B2DA1960FB6F894DEBF0FBEC4
:104B3000CDBFDF91CF911F910F91FF90EF9008951E
:104B40000F931F93CF93DF93CDB7DEB768970FB660
:104B5000F894DEBF0FBECDBF8C016DE173E0CE01D6
:104B600043960E940730F8018081807C803C31F5BB
:104B7000BE016F5F7F4FC8010E949D238C858823F3
:104B800091F0BE016F5F7F4FCE010D960E94FE2314
:104B9000BE01635F7F4FCE0143960E941D30CE0160
:104BA0000D960E94992F8F89988D892B39F0BE011F
:104BB0006D5E7F4F88EB95E00E949F2D11E02F895D
:104BC000388D232B09F410E0CE0143960E94992FD3
:104BD000812F68960FB6F894DEBF0FBECDBFDF9170
:104BE000CF911F910F91089580911F0590E0209122
:104BF0002005821B910908952091200580911F05B1
:104C0000281750F4E22FF0E0EF5DFA4F808190E03A
:104C10002F5F2093200508958FEF9FEF0895E09177
:104C2000200580911F05E81730F4F0E0EF5DFA4FA2
:104C3000808190E008958FEF9FEF08950895CF92BF
:104C4000DF92EF92FF920F931F93CF93DF937C013C
:104C5000CB018A012091FB04222389F0EB016B0137
:104C6000C40ED51ECC15DD0569F06991D701ED9113
:104C7000FC910190F081E02DC7010995F3CF642FDD
:104C80000E948027C801DF91CF911F910F91FF9063
:104C9000EF90DF90CF900895CF93DF931F92CDB721
:104CA000DEB769832091FB042223D1F02091FC041C
:104CB000203240F021E030E0FC013383228380E0A9
:104CC00090E015C08091FD04E82FF0E0E250FB4F2A
:104CD000998190838F5F8093FD048093FC0405C0CD
:104CE00061E0CE0101960E94802781E090E00F9064
:104CF000DF91CF910895FC011382128248EE53E0B8
:104D000060E070E044835583668377838CE993E0A9
:104D10009183808308951092200510921F051092B0
:104D2000FD041092FC040C94CB26862F413208F02F
:104D300040E261E275E00E94E9261092200580932E
:104D40001F05089521E00C94952681E08093FB04D3
:104D500060931E051092FD041092FC0408950C94BB
:104D6000A5260F93062F21E04091FC046EEF74E01E
:104D700080911E050E942D271092FD041092FC04C4
:104D80001092FB040F91089561E00C94B1268FEE10
:104D900094E00C947B261092AE0581E08093AC05E4
:104DA0001092AB0561E082E10E94DD2A61E083E1BF
:104DB0000E94DD2AE9EBF0E080818E7F8083808194
:104DC0008D7F808388E48093B80085E48093BC0065
:104DD0000895413208F03FC09091AE059111FCCF8B
:104DE00091E09093AE052093AC052FEF2093410501
:104DF00010928605240F209385059093AD05909120
:104E0000AD05880F892B8093AD058091AB0581306E
:104E100041F41092AB058091AD058093BB0085EC09
:104E200001C085EE8093BC008091AE058130E1F336
:104E300080918605841710F44091860527E835E0B7
:104E4000FB01D9018A2F821B841718F48D9181935D
:104E5000F9CF842F089580E008950F93413208F030
:104E600046C09091AE059111FCCF92E09093AE05B3
:104E70000093AC059FEF90934105109286054093F7
:104E80008505FB0167E875E0DB019A2F961B9417F7
:104E900018F491919D93F9CF1092AD059091AD05C5
:104EA000880F892B8093AD058091AB05813041F44B
:104EB0001092AB058091AD058093BB0085EC01C0DD
:104EC00085EE8093BC00222321F08091AE058230D4
:104ED000E1F3809141058F3F61F08091410580327F
:104EE00051F080914105803341F483E007C081E0B7
:104EF00005C080E003C082E001C084E00F91089506
:104F0000613298F42091AE05243089F460936305F2
:104F1000FC0185E695E0DC012A2F281B261718F4F2
:104F200021912D93F9CF80E0089581E0089582E0EA
:104F3000089585ED8093BC008091BC0084FDFCCF7A
:104F40001092AE05089585EC8093BC001092AE05DA
:104F500008951F920F920FB60F9211242F933F9333
:104F60004F935F936F937F938F939F93AF93BF9371
:104F7000EF93FF938091B900887F803609F49CC03D
:104F800068F5883209F45BC090F4803109F454C0AC
:104F900038F4882309F4F5C0883009F44DC0F5C011
:104FA000883109F44CC0803209F45DC0EEC0803411
:104FB00009F468C048F4803309F455C0883309F017
:104FC000E4C080934105A8C0803509F44FC08835FE
:104FD00009F45DC0883409F0D8C0D5C0883909F417
:104FE000C6C0A8F4883709F467C038F4883609F4D5
:104FF00063C0803709F460C0C8C0883809F4B7C0FE
:10500000803909F45FC0803809F0BFC05BC0803BC5
:1050100009F485C038F4803A09F466C0883A09F486
:105020007EC0B3C0803C09F4A6C0883C09F4A3C08C
:10503000883B09F489C0A9C08091AD0510C090914A
:10504000860580918505981770F5E091860581E0C9
:105050008E0F80938605F0E0E957FA4F80818093A8
:10506000BB0085EC85C0809341058DC0E09186052D
:1050700081E08E0F809386058091BB00F0E0E957B8
:10508000FA4F808390918605809185056DC0E091EF
:10509000860581E08E0F809386058091BB00F0E04D
:1050A000E957FA4F80838091AC0581116CC081E093
:1050B0008093AB0584EA60C083E08093AE051092D4
:1050C0004205CFCF80914205803208F050C0E09178
:1050D000420581E08E0F809342058091BB00F0E095
:1050E000ED5BFA4F8083BDCF80914205803230F472
:1050F000E0914205F0E0ED5BFA4F10820E949927A3
:105100006091420570E0E091A705F091A80583E465
:1051100095E00995109242050E94A32736C084E0CD
:105120008093AE051092640510926305E091A90585
:10513000F091AA05099580916305811105C081E070
:105140008093630510926505E091640581E08E0F00
:1051500080936405F0E0EB59FA4F80818093BB00A7
:105160009091640580916305981708F47ACF85E8DB
:105170008093BC000AC085EC8093BC001092AE0501
:1051800004C0109241050E949927FF91EF91BF91B1
:10519000AF919F918F917F916F915F914F913F91CF
:1051A0002F910F900FBE0F901F90189520E030E0C8
:1051B00040E0FC015191CF01450F2F5F3F4F26305A
:1051C0003105B9F781E0411180E00895CF92DF9277
:1051D000EF92FF920F931F93CF93DF938C01EB011C
:1051E00081E08B87F8018081888385818A87C80167
:1051F0000E94D6288B87F8019181292F2F709073F8
:1052000092959F7009F494E0F0E19F9FC0011124F2
:10521000822B8983F801628170E0625371098827CB
:1052200077FD8095982F0E94F73120E030E040E232
:1052300051E40E9407336B017C01F801638170E047
:1052400080E090E00E94F7319B01AC01C701B601FC
:105250000E94F43020E030E040E251E40E945C31F2
:105260006C837D838E839F83F8018481898781810C
:1052700090E026E0959587952A95E1F721E0892B26
:1052800009F420E02887DF91CF911F910F91FF90C3
:10529000EF90DF90CF9008950F931F93CF93DF93FC
:1052A000CDB7DEB768970FB6F894DEBF0FBECDBF9F
:1052B0008C016DE173E0CE0143960E940730F80146
:1052C0008081813531F5BE016F5F7F4FC8010E943B
:1052D000E6288C85882391F0BE016F5F7F4FCE0159
:1052E0000D960E94B912BE01635F7F4FCE014396B7
:1052F0000E941D30CE010D960E94992F8F89988DA6
:10530000892B39F0BE016D5E7F4F88EB95E00E94DE
:105310009F2D11E02F89388D232B09F410E0CE0149
:1053200043960E94992F812F68960FB6F894DEBF9E
:105330000FBECDBFDF91CF911F910F9108951F92A6
:105340000F920FB60F9211242F933F938F939F9339
:10535000AF93BF938091B0059091B105A091B20534
:10536000B091B3053091AF0523E0230F2D3720F422
:105370000196A11DB11D05C026E8230F0296A11DAF
:10538000B11D2093AF058093B0059093B105A09314
:10539000B205B093B3058091B4059091B505A09185
:1053A000B605B091B7050196A11DB11D8093B40556
:1053B0009093B505A093B605B093B705BF91AF9193
:1053C0009F918F913F912F910F900FBE0F901F9043
:1053D00018952FB7F8946091B0057091B105809140
:1053E000B2059091B3052FBF08953FB7F89480910F
:1053F000B4059091B505A091B605B091B70526B555
:10540000A89B05C02F3F19F00196A11DB11D3FBFFC
:105410006627782F892F9A2F620F711D811D911D8C
:1054200042E0660F771F881F991F4A95D1F70895AC
:10543000CF92DF92EF92FF92CF93DF936B017C01CB
:105440000E94F529EB01C114D104E104F10489F0B3
:105450000E94F2300E94F5296C1B7D0B683E734060
:1054600090F381E0C81AD108E108F108C851DC4F77
:10547000EACFDF91CF91FF90EF90DF90CF9008952A
:10548000789484B5826084BD84B5816084BD85B51F
:10549000826085BD85B5816085BDEEE6F0E08081E6
:1054A00081608083E1E8F0E0108280818260808307
:1054B000808181608083E0E8F0E08081816080838A
:1054C000E1EBF0E0808184608083E0EBF0E08081BC
:1054D00081608083EAE7F0E080818460808380815E
:1054E0008260808380818160808380818068808306
:1054F0001092C1000895833081F028F4813099F032
:105500008230A1F008958730A9F08830B9F0843056
:10551000D1F4809180008F7D03C0809180008F77CF
:1055200080938000089584B58F7702C084B58F7D05
:1055300084BD08958091B0008F7703C08091B00042
:105540008F7D8093B0000895CF93DF9390E0FC01AE
:10555000E95DFA4F2491FC01E55CFA4F84918823C0
:1055600049F190E0880F991FFC01ED59FA4FA59180
:10557000B491875A9A4FFC01C591D4919FB761119C
:1055800008C0F8948C91209582238C938881822383
:105590000AC0623051F4F8948C91322F30958323F5
:1055A0008C938881822B888304C0F8948C91822B01
:1055B0008C939FBFDF91CF9108950F931F93CF934B
:1055C000DF931F92CDB7DEB7282F30E0F901ED5EF3
:1055D000FA4F8491F901E95DFA4F1491F901E55C04
:1055E000FA4F04910023C9F0882321F069830E94B7
:1055F0007B2A6981E02FF0E0EE0FFF1FE75AFA4F98
:10560000A591B4919FB7F8948C91611103C0109546
:10561000812301C0812B8C939FBF0F90DF91CF918D
:105620001F910F910895CF93DF93282F30E0F90158
:10563000ED5EFA4F8491F901E95DFA4FD491F901D9
:10564000E55CFA4FC491CC2391F081110E947B2A32
:10565000EC2FF0E0EE0FFF1FE15BFA4FA591B49144
:105660002C912D2381E090E021F480E002C080E0C5
:1056700090E0DF91CF910895FC01818D228D90E023
:10568000805C9F4F821B91098F7399270895FC01BD
:10569000918D828D981731F0828DE80FF11D858DE7
:1056A00090E008958FEF9FEF0895FC01918D828D1A
:1056B000981761F0828DDF01A80FB11D5D968C9166
:1056C000928D9F5F9F73928F90E008958FEF9FEF71
:1056D000089589ED9CE2892B49F080E090E0892BC8
:1056E00029F00E94D92C81110C9400000895FC012E
:1056F000848DDF01A80FB11DA35ABF4F2C91848D5B
:1057000090E001968F739927848FA689B7892C938F
:10571000A089B1898C9180648C93938D848D98132A
:1057200006C00288F389E02D80818F7D80830895F3
:10573000CF93DF93EC01888D8823C9F0EA89FB8938
:10574000808185FD05C0A889B9898C9186FD0FC02F
:105750000FB607FCF5CF808185FFF2CFA889B98904
:105760008C9185FFEDCFCE010E94772BE7CFDF91A3
:10577000CF910895CF92DF92FF920F931F93CF9313
:10578000DF931F92CDB7DEB76C01DC015B969C9175
:105790005B975C968C915C97981307C05096ED913F
:1057A000FC915197808185FD32C0F601038D10E098
:1057B0000F5F1F4F0F731127F02EF601848DF81223
:1057C00011C00FB607FCF9CFD6015096ED91FC91B0
:1057D0005197808185FFF1CFC60169830E94772BA5
:1057E0006981EBCF838DE80FF11DE35AFF4F608392
:1057F000D6015B960C935B975296ED91FC91539773
:1058000080818062808381E058968C930DC0D601A0
:105810005696ED91FC91579760835096ED91FC91CF
:10582000519780818064808381E090E00F90DF91C8
:10583000CF911F910F91FF90DF90CF900895BF926D
:10584000CF92DF92EF92FF92CF93DF93EC016A0148
:105850007B01B22EE889F98982E08083411581EECF
:10586000580761057105A1F060E079E08DE390E0F3
:10587000A70196010E94E9342150310941095109DB
:105880005695479537952795211580E1380798F06B
:10589000E889F989108260E874E88EE190E0A70158
:1058A00096010E94E9342150310941095109569568
:1058B000479537952795EC85FD853083EE85FF85E7
:1058C0002083188EEC89FD89B082EA89FB8980816A
:1058D00080618083EA89FB89808188608083EA898E
:1058E000FB89808180688083EA89FB8980818F7D44
:1058F0008083DF91CF91FF90EF90DF90CF90BF90AA
:1059000008951F920F920FB60F9211242F938F9329
:105910009F93EF93FF93E091C805F091C9058081B3
:10592000E091CE05F091CF0582FD12C0908180916B
:10593000D1058F5F8F732091D205821751F0E091CE
:10594000D105F0E0E854FA4F958F8093D10501C05E
:105950008081FF91EF919F918F912F910F900FBEBA
:105960000F901F9018951F920F920FB60F9211244F
:105970002F933F934F935F936F937F938F939F9357
:10598000AF93BF93EF93FF9388EB95E00E94772B43
:10599000FF91EF91BF91AF919F918F917F916F9107
:1059A0005F914F913F912F910F900FBE0F901F90DD
:1059B000189588EB95E00E943C2B21E0892B09F497
:1059C00020E0822F08951092BB051092BA0588EE50
:1059D00093E0A0E0B0E08093BC059093BD05A09358
:1059E000BE05B093BF058CEA93E09093B905809310
:1059F000B80585EC90E09093C5058093C40584ECD0
:105A000090E09093C7058093C60580EC90E090935A
:105A1000C9058093C80581EC90E09093CB058093F5
:105A2000CA0582EC90E09093CD058093CC0586EC7E
:105A300090E09093CF058093CE051092D1051092FF
:105A4000D2051092D3051092D405089508950E94AE
:105A5000402A0E94262D0E94EE07C9E6DBE20E9442
:105A60009F082097E1F30E94692BF9CFCF92DF9234
:105A7000EF92FF920F931F93CF93DF936C017A0104
:105A8000EB01E60EF71E00E010E0CE15DF0561F039
:105A90006991D601ED91FC910190F081E02DC60154
:105AA0000995080F191FF1CFC801DF91CF911F9100
:105AB0000F91FF90EF90DF90CF90089561157105E1
:105AC00081F0DB010D900020E9F7AD014150510953
:105AD000461B570BDC01ED91FC910280F381E02D18
