:100000000C94E1000C9409010C9409010C94090171
:100010000C9409010C9409010C9409010C94090138
:100020000C9409010C9409010C9409010C94090128
:100030000C9409010C9409010C9409010C94090118
:100040000C94CB290C9409010C94B72C0C94E92C3A
:100050000C9409010C9409010C9409010C940901F8
:100060000C94BB270C940901DA060F070F070F0742
:100070000F070F070F0783060F07B0060F070F07BD
:100080000A060F0796060F070F070F070F070F0740
:100090000F070F070F070F070F070F070F07F705CA
:1000A0000F075406DD050F07CF060F07EE050F07F4
:1000B0000F070F070F077E060F07B00688060F070A
:1000C0000A069F068D060F070F070F071107ED069B
:1000D000FE06A51FAB1FB11FB71FBD1FC31FCA1F41
:1000E00007634236B79BD8A71A39685618AEBAAB21
:1000F000558C1D3CB7CC5763BD6DEDFD753EF617B5
:100100007231BF000000803F08000000BE92244909
:10011000123EABAAAA2ABECDCCCC4C3E0000008039
:10012000BEABAAAAAA3E00000000BF000000803FAC
:100130000000000000084178D3BB4387D1133D196C
:100140000E3CC3BD4282AD2B3E68EC8276BED98F99
:10015000E1A93E4C80EFFFBE01C4FF7F3F000000DD
:100160000000000000080002010000030407000076
:10017000000000000000010204081020408001027D
:1001800004081020010204081020040404040404DC
:100190000404020202020202030303030303000039
:1001A0000000230026002900000000002500280090
:1001B0002B0000000000240027002A005805D92643
:1001C000192D11241FBECFEFD8E0DEBFCDBF14E044
:1001D000A0E0B1E0E4E7F4E702C005900D92AE3193
:1001E000B107D9F726E0AEE1B4E001C01D92AD3908
:1001F000B207E1F711E0C2ECD1E004C02297FE01A2
:100200000E940035CC3BD107C9F70E945D2D0C94AC
:10021000383A0C940000CF93C82F809320050E9499
:10022000C41D8C2F0E94C41D6C2F88E994E00E948D
:10023000C11C6C2F82E494E0CF910C94C11CEF920E
:10024000FF920F931F93CF93DF9300D000D0CDB7D1
:10025000DEB7182F7901013069F488E994E0498309
:100260005A836B837C830E942A1B49815A810197A0
:10027000E1F509C00230C9F588E994E00E942A1B23
:10028000029799F517C0113021F4BA0188E994E07A
:1002900005C0123051F5BA0182E494E00F900F903E
:1002A0000F900F90DF91CF911F910F91FF90EF90E2
:1002B0000C941219113031F4F7014181608188E901
:1002C00094E007C0123089F4F7014181608182E433
:1002D00094E00F900F900F900F90DF91CF911F91AE
:1002E0000F91FF90EF900C94081B0F900F900F90C0
:1002F0000F90DF91CF911F910F91FF90EF90089594
:10030000FF920F931F93CF93DF93CDB7DEB7C458FF
:10031000D1090FB6F894DEBF0FBECDBFF82E092F5E
:10032000162F60E088E994E00E94D21AEF2DF02F9A
:10033000819189836FEF610FCC57DF4F6883C45879
:10034000D040DE01149680E090E070E086179707B9
:1003500024F421912D930196F9CF2091140130912D
:100360001501409116015091170168E974E0CE0122
:1003700001960E945B0C61E088E994E00E94D21A29
:10038000CC57DF4F0FB6F894DEBF0FBECDBFDF9165
:10039000CF911F910F91FF900895CF93DF9300D0DD
:1003A00000D000D0CDB7DEB768E171E08CEF95E00A
:1003B0000E94B82D6BE171E08CEF95E00E94B82DA2
:1003C0006EE28CEF95E00E94BA2D60E371E08CEF55
:1003D00095E00E94B82D68E471E08CEF95E00E94F2
:1003E000B82D68E974E0CE0101960E942E1BBE0173
:1003F0006F5F7F4F8CEF95E00E94AA2DCE01019692
:100400000E94CF2F66E371E08CEF95E00E94B82D3B
:1004100088E994E00E94CA1CAB01BC012AE030E0EC
:100420008CEF95E00E94B62E80911B0590911C05E3
:10043000892BF9F06AE371E08CEF95E00E94B82D0A
:1004400060911B0570911C054AE050E08CEF95E02F
:100450000E94CA2E6EE371E08CEF95E00E94B82DE9
:100460004AE050E060910F018CEF95E00E94C32EAE
:1004700012C060E471E08CEF95E00E94B82D88E92D
:1004800094E00E94C41CAB01BC012AE030E08CEF78
:1004900095E00E94B62E64E471E08CEF95E00E9436
:1004A000B82D82E494E00E942B1C882309F466C0D6
:1004B00066E471E08CEF95E00E94B82D62E474E090
:1004C000CE0101960E942E1BBE016F5F7F4F8CEF05
:1004D00095E00E94AA2DCE0101960E94CF2F66E3DF
:1004E00071E08CEF95E00E94B82D82E494E00E94C8
:1004F000CA1CAB01BC012AE030E08CEF95E00E9401
:10050000B62E8091190590911A05892BF9F06AE3AE
:1005100071E08CEF95E00E94B82D60911905709103
:100520001A054AE050E08CEF95E00E94CA2E6EE377
:1005300071E08CEF95E00E94B82D4AE050E06091A8
:100540000E018CEF95E00E94C32E12C060E471E0B2
:100550008CEF95E00E94B82D82E494E00E94C41CC8
:10056000AB01BC012AE030E08CEF95E00E94B62E92
:1005700064E471E08CEF95E00E94B82D82E294E093
:100580000E94F10F882331F06BE471E08CEF95E06D
:100590000E94B82D6DE58CEF95E00E94F92D26960E
:1005A0000FB6F894DEBF0FBECDBFDF91CF91089597
:1005B000CF92DF92EF92FF920F931F93CF93DF932F
:1005C000CDB7DEB7C154D1090FB6F894DEBF0FBE68
:1005D000CDBF8C0160E00E94D21ABE016F5F7F4FD9
:1005E000C8010E94DF17809117058823C9F0CE014A
:1005F00001960E94AA21CE0101960E94EA12CE0124
:1006000001960E940016CE0101960E94860DCE0131
:1006100001960E94A024CE0101960E94FA0A22C0EF
:1006200080911D0561E0813011F581E494E00E9424
:100630006211CE0101967C016E0191E4C90ED11CBC
:10064000F70161917F0140E150E08CEF95E00E945D
:10065000C32E60E673E08CEF95E00E94B82DEC1499
:10066000FD0471F78CEF95E00E94C12D5CC081E420
:1006700094E00E94621180912005882319F165E5BC
:1006800071E08CEF95E00E94B82DCE0101967C01BF
:100690006E0191E1C90ED11CF70161917F0140E12A
:1006A00050E08CEF95E00E94C32E60E673E08CEF83
:1006B00095E00E94B82DEC14FD0471F78CEF95E0E5
:1006C0000E94C12DC8010E94C41C0E94642388237B
:1006D00059F0CE0101960E943723882329F0CE01DC
:1006E00001960E943A1F93C0C8010E94C41C0E9438
:1006F0006314882331F0CE0101960E9436148111D3
:100700005FC0C8010E94C41C0E94C8178823F9F06A
:10071000CE0101960E949B178823C9F046E0809184
:100720001805811153C061E0C8010E94D21ACF5B45
:10073000DF4F0FB6F894DEBF0FBECDBFDF91CF9174
:100740001F910F91FF90EF90DF90CF900895C80117
:100750000E94C41C0E94C30F882331F0CE01019671
:100760000E94960F81112EC0C8010E94C41C0E94D5
:100770006314882331F0CE0101960E949E298111D5
:10078000CDCFC8010E94C41C0E94FD25882331F0F2
:10079000CE0101960E94D025811116C0C8010E9489
:1007A000C41C0E94C90C8823A1F1CE0101960E94AD
:1007B000F90B882371F1CE0101960E94B40A27C07B
:1007C00045E0ADCF4CE0ABCF44E0A9CF442309F4E2
:1007D000AACF60E470E080E090E022964FAF2297CD
:1007E0000E94442A22964FAD2297BE016F5F7F4F31
:1007F000C8010E94E51C80912005882309F493CF4D
:1008000064E771E08CEF95E00E94E72D8CCF482FD4
:1008100086CF80911D05823011F040E080CFCE015F
:1008200001967C016E0191E4C90ED11CF701619122
:100830007F0140E150E08CEF95E00E94C32E60E61E
:1008400073E08CEF95E00E94B82DEC14FD0471F775
:100850008CEF95E00E94C12DE0CF4F925F926F9296
:100860007F928F929F92AF92BF92CF92DF92EF9240
:10087000FF920F93CF93DF934C015B01EA01790163
:100880002115310509F470C00E94152AF501408038
:10089000518062807380641575058605970520F484
:1008A00010821182128213820E94152A48EE53E0B0
:1008B000E49E9001E59E300DF49E300D1124F5016B
:1008C000C080D180E280F380C20ED31EE11CF11CF7
:1008D000C616D706E806F90608F046C0C880D980D3
:1008E000EA80FB80FAE8CF16F2E2DF06E104F104C9
:1008F00091F401FF05C08BE695E2A0E0B0E006C0F0
:1009000000FF24C089E593E4A0E0B0E088839983E8
:10091000AA83BB831BC08BE6C81685E2D806E10418
:10092000F10449F400FDEECF02FF10C08AE892E224
:10093000A0E0B0E0EBCFE9E5CE16E3E4DE06E104AB
:10094000F10421F402FDF2CF01FDD5CF4881598198
:100950006A817B81C4010E94D1190E94152AF50188
:100960006083718382839383DF91CF910F91FF9096
:10097000EF90DF90CF90BF90AF909F908F907F903F
:100980006F905F904F90089526E040E051EE60E058
:1009900070E08CEF95E00E94552C68EC70E080E0F0
:1009A00090E00E94442A80912005882331F06CE772
:1009B00071E08CEF95E00E94E72D809120050E9468
:1009C0000B011092290582E294E00E94DA0F6091F7
:1009D0001E0570911F0582E294E00E94F40F61E011
:1009E00081E494E00E9492110E94152A60931305FD
:1009F00070931405809315059093160588E994E08B
:100A00000E94481B40911001509111016091120108
:100A10007091130188E994E00E94301A40910A0114
:100A200050910B0160910C0170910D0188E994E0E7
:100A30000E94D11961E088E994E00E94D21A82E410
:100A400094E00E942B1C882309F182E494E00E9428
:100A5000481B409110015091110160911201709159
:100A6000130182E494E00E94301A409106015091F3
:100A70000701609108017091090182E494E00E94ED
:100A8000D11961E082E494E00E94D21A809120059D
:100A9000882331F06FEB71E08CEF95E00E94E72D39
:100AA00068EE73E080E090E00E94442A0C94CD014F
:100AB000CF92EF920F93CC24C39482E0E82E0AE009
:100AC0002DE04CE06BE088E994E00E94331CC12CDF
:100AD00093E0E92E08E02DE04CE06BE082E494E046
:100AE0000E94331C81E494E00E944C1182E294E065
:100AF0000F91EF90CF900C94CC0F0F931F93CF9347
:100B0000DF9300D000D0CDB7DEB78CEF95E00E9428
:100B1000722B892B09F493C18CEF95E00E948B2BEB
:100B2000082F8C3269F4E091EE0481E08E0F8093FF
:100B3000EE04F0E0E151FB4F80911E04808371C10F
:100B400080ED800F8A3010F520911E0430911F0433
:100B50004091200450912104AAE0B0E00E940435A5
:100B60006053710981099109112707FD1095212F03
:100B7000312F600F711F821F931F60931E047093AB
:100B80001F04809320049093210459C1802F8F7DEE
:100B900081548A3108F04EC1402F552747FD5095AA
:100BA000652F752FFA01E654F109E533F10508F0D8
:100BB00036C1EC5CFF4F0C94FE3481E040911E0482
:100BC00050911F046091200470912104452B462B05
:100BD000472B09F480E00E940B0123C160911E04A1
:100BE00070911F0482E294E00E94F40F1AC161E048
:100BF00080911E0490911F04A0912004B0912104C3
:100C0000892B8A2B8B2B09F460E081E494E00E940D
:100C1000921107C140911E0450911F04609120045D
:100C200070912104413051056105710581F050F04A
:100C3000423051056105710571F44AE852E260E005
:100C400070E009C049E553E460E070E004C04BE6A1
:100C500055E260E070E0023759F440930A01509386
:100C60000B0160930C0170930D0188E994E019C0A9
:100C700082E494E049835A836B837C830E942B1C1B
:100C800049815A816B817C81882309F4CAC04093D1
:100C9000060150930701609308017093090182E4F3
:100CA00094E00E94D119BDC080911E0490911F0450
:100CB000A0912004B091210481309105A105B105D6
:100CC00081F050F082309105A105B10571F48AE8F8
:100CD00092E2A0E0B0E009C089E593E4A0E0B0E0D2
:100CE00004C08BE695E2A0E0B0E0809314019093FD
:100CF0001501A0931601B093170193C080911E04B3
:100D000080930F018EC080911E0480930E0189C0D4
:100D100080911E0480931D0584C080911E049091D3
:100D20001F0490931C0580931B057BC080911E04BB
:100D300090911F0490931A058093190572C06091D9
:100D4000EE04E62FF0E0E151FB4F80911E0480831A
:100D50006F5F6093EE048FEE94E00E9480011CC0F0
:100D60009091EE0440911E0450911F046091200464
:100D700070912104E92FF0E0E151FB4F40839F5F28
:100D80009093EE040F3411F482E001C081E0092F4A
:100D90002FEE34E00E941F011092EE0442C04091F9
:100DA0001E0450911F04609120047091210488E971
:100DB00094E010C082E494E00E942B1C882389F107
:100DC00040911E0450911F046091200470912104F1
:100DD00082E494E00E94301A24C021E080911E0435
:100DE00090911F04A0912004B0912104892B8A2B9B
:100DF0008B2B09F420E02093180513C021E080918B
:100E00001E0490911F04A0912004B0912104892B0D
:100E10008A2B8B2B09F420E02093170502C00E9437
:100E2000CD0110921E0410921F0410922004109203
:100E3000210405C00152003210F40E94CD0182E26B
:100E400094E00E941F1188E994E00E94501988E9FB
:100E500094E00E94F117882321F088E994E00E9431
:100E6000D80282E494E00E942B1C882371F082E473
:100E700094E00E94501982E494E00E94F1178823C4
:100E800021F082E494E00E94D80220911B05309169
:100E90001C0500910F014AE051E063E175E088E92B
:100EA00094E00E942D042091190530911A050091BB
:100EB0000E0146E051E06FE075E082E494E00E94AC
:100EC0002D040F900F900F900F90DF91CF911F91F5
:100ED0000F910895FC0110821182128213820895ED
:100EE000FC0140835183628373830895CF92DF9224
:100EF000EF92FF92FC01808D918D481B590B610987
:100F00007109A689B7899A01AB010E9404356B016A
:100F10007C018FE0F594E794D794C7948A95D1F734
:100F200060897189882777FD8095982F2BE0660F5F
:100F3000771F881F991F2A95D1F722893389442763
:100F400037FD4095542F2C0D3D1D4E1D5F1D0E94F9
:100F5000DF342C0D3D1D4E1D5F1DCA01B901FF90F0
:100F6000EF90DF90CF9008951F93CF93DF931F9260
:100F7000CDB7DEB7162F67E770E083E395E04983CE
:100F80000E94C126612F83E395E00E945E2649817D
:100F9000642F83E395E00E945E2683E395E00F9043
:100FA000DF91CF911F910C94D626CF93C62F67E780
:100FB00070E083E395E00E94C1266C2F83E395E007
:100FC0000E945E2683E395E00E94D62667E770E0E4
:100FD00083E395E00E94C12641E050E067E770E0BE
:100FE00083E395E00E94B42683E395E00E940E26F9
:100FF000C82F83E395E00E94D6268C2FCF910895C9
:10100000CF93DF93C62F67E770E083E395E00E94FC
:10101000C1266C2F83E395E00E945E2683E395E072
:101020000E94D62667E770E083E395E00E94C12620
:1010300042E050E067E770E083E395E00E94B42669
:1010400083E395E00E940E26D82F80E0C82F83E32B
:1010500095E00E940E26C82BD92B83E395E00E94D1
:10106000D626CE01DF91CF910895CF93DF93EC0187
:1010700083E395E00E949D2660EDCE010E94D50796
:10108000853509F044C06AEACE010E9400089D83BC
:101090008C836CEACE010E9400089F838E836EEAE7
:1010A000CE010E9400089987888760EBCE010E94DC
:1010B00000089D8B8C8B62EBCE010E9400089F8BF9
:1010C0008E8B64EBCE010E940008998F888F66EBAF
:1010D000CE010E9400089B878A8768EBCE010E94A0
:1010E00000089D878C876AEBCE010E9400089F87CD
:1010F0008E876CEBCE010E940008998B888B6EEB7B
:10110000CE010E9400089B8B8A8B81E001C080E0A9
:10111000DF91CF910895CF93DF93EC014EE264EF1E
:101120000E94B40765E070E080E090E00E94442AED
:1011300066EFCE01DF91CF910C940008CF93DF933F
:10114000EC010E948B08AC0160E070E0CE010E94CF
:101150007607685F7F4F8F4F9F4F34E09595879557
:10116000779567953A95D1F70E942D3220E030E0CF
:1011700040E251E40E949231DF91CF910895CF92E5
:10118000DF92EF92FF92CF93DF93EC0144EB64EF99
:101190000E94B4076EE070E080E090E00E94442A74
:1011A00066EFCE010E9400086C01E12CF12CFE2CB0
:1011B000ED2CDC2CCC2468EFCE010E94D507A701D2
:1011C0009601282BCA01B90156E096958795779527
:1011D00067955A95D1F7DF91CF91FF90EF90DF900F
:1011E000CF9008952F923F924F925F926F927F928D
:1011F0008F929F92AF92BF92CF92DF92EF92FF9227
:101200000F931F93CF93DF93CDB7DEB72C970FB615
:10121000F894DEBF0FBECDBF1C010E948B088C016D
:10122000C1010E94BF086D837E838F839887A801C8
:1012300060E070E0C1010E9476074B015C0180EA2A
:10124000881A8FE0980AA108B108A5019401C50188
:10125000B4010E94AD342B013C010CE075946794FD
:10126000579447940A95D1F7D10114960D911C918A
:10127000159718960D90BC91A02D0E940F356B010B
:101280007C018DE0F594E794D794C7948A95D1F7C3
:10129000F101A285B385A30192010E940F35BB27FE
:1012A00097FDB095AB2FC80ED91EEA1EFB1EF2E0CB
:1012B000CF0ED11CE11CF11C32E0F594E794D794D9
:1012C000C7943A95D1F780E8D80EE11CF11CF101E2
:1012D000A489B589A70196010E940435DC01CB01E0
:1012E0004FE0B695A795979587954A95D1F789834D
:1012F0009A83AB83BC836801EE24D7FCE094FE2C78
:1013000052E0CC0CDD1CEE1CFF1C5A95D1F7A485D5
:10131000B585A30192010E940F352B013C016BE0C2
:1013200075946794579447946A95D1F7A681B781CD
:10133000A50194010E940F35EBE09595879577956F
:101340006795EA95D1F7460E571E681E791EC40CA4
:10135000D51CE61CF71CF2E0CC0CDD1CEE1CFF1CBF
:10136000FA95D1F792E0C90ED11CE11CF11CC7011E
:10137000B60124E030E040E050E00E94DF348D818F
:101380009E81AF81B885821B930BA40BB50B9C018A
:10139000AD01A4EDB0E30E94043597FD0DC0660FCA
:1013A000771F881F991F29813A814B815C810E9498
:1013B000BD3449015A010CC029813A814B815C81BD
:1013C0000E94BD3449015A01880C991CAA1CBB1CFF
:1013D0009927B7FC9A958B2D7A2D692D9B01AC012D
:1013E0000E94AD349B01AC01AEEDBBE00E94043520
:1013F0006C01FF24D7FCF094EF2CA3E4B3EEA5011D
:1014000094010E941235BB2797FDB095AB2FC80EF3
:10141000D91EEA1EFB1E9FECC90E9EE0D91EE11CE0
:10142000F11CA4E0F594E794D794C794AA95D1F75A
:10143000D1016D917D918D919C910E942D3220E082
:101440003AE24DE257E40E9492319B01AC0160E028
:1014500070E080E89FE30E94293126EF38E248EAF5
:1014600050E40E9444339B01AC01C501B4016C0DF2
:101470007D1D8E1D9F1D29873A874B875C870E94A3
:101480002D3229853A854B855C850E9492310E94D8
:10149000FA310E942D3220E030E048EC52E40E9404
:1014A00092310E94FA312C960FB6F894DEBF0FBE2F
:1014B000CDBFDF91CF911F910F91FF90EF90DF9003
:1014C000CF90BF90AF909F908F907F906F905F90E4
:1014D0004F903F902F900895DF92EF92FF920F93DD
:1014E0001F93CF93DF938C01EB0181E08A831882F5
:1014F0001982F801628184E0860FE82EF12CEE0D4E
:10150000FF1D3197D080D9826D5FC8010E94AB1D4D
:10151000D8121A82F80180818C3C09F01A828A81E3
:101520008823D1F0F801818188838281FE01ED5703
:10153000FF4F808383E090E0F1E0EF1AF1088E1511
:101540009F0554F4F801E80FF91F2081FE01E80F10
:10155000F91F20830196F3CFDF91CF911F910F9157
:10156000FF90EF90DF900895FC0182818C5F0895D9
:10157000CF92DF92EF92FF920F931F93CF93DF935F
:10158000EC017B0161E673E00E943D3062EF71E0A7
:10159000CE010E94A630F7016081CE010E94C930C1
:1015A00060E673E0CE010E94A63000E010E0670123
:1015B000F3E8CF0ED11CF601808190E008171907DF
:1015C0007CF4F701E00FF11F6381CE010E94C93066
:1015D00060E673E0CE010E94A6300F5F1F4FEBCF95
:1015E000CE01DF91CF911F910F91FF90EF90DF908F
:1015F000CF900895CF92DF92EF92FF920F931F93B7
:10160000CF93DF93CDB7DEB7C458D1090FB6F894A6
:10161000DEBF0FBECDBF8C01BE016F5F7F4F0E944A
:101620006C0AF801C280F4E0CF0E69EF71E08CEF34
:1016300095E00E94B82D7801D12CC701801B910B39
:101640008C159D0584F4F70161917F0140E150E024
:101650008CEF95E00E94C32E60E673E08CEF95E07E
:101660000E94B82DEACF68E072E08CEF95E00E940E
:10167000B82D8B81811107C06BE072E08CEF95E093
:101680000E94E72D62C066E172E08CEF95E00E9457
:10169000B82D6EE172E08CEF95E00E94B82D40E12C
:1016A00050E069818CEF95E00E94C32E65E272E004
:1016B0008CEF95E00E94B82D4AE050E0CC57DF4F08
:1016C0006881C458D0408CEF95E00E94C32E66E339
:1016D00072E08CEF95E00E94B82D7E01F4E0EF0EF1
:1016E000F11C00E010E0CC57DF4F8881C458D04097
:1016F00090E008171907C4F462E472E08CEF95E0FB
:101700000E94B82DF70161917F0140E150E08CEF1C
:1017100095E00E94C32E60E673E08CEF95E00E9496
:10172000B82D0F5F1F4FDFCF6DE372E08CEF95E0B8
:101730000E94B82D40E150E06A818CEF95E00E9454
:10174000C32E8CEF95E00E94C12DCC57DF4F0FB612
:10175000F894DEBF0FBECDBFDF91CF911F910F91E7
:10176000FF90EF90DF90CF900895EF92FF920F934C
:101770001F93CF93DF93CDB7DEB7CA58D1090FB609
:10178000F894DEBF0FBECDBF8C017B0161E673E034
:101790000E943D30F70180818C3CE1F4BE016F5F17
:1017A0007F4FC7010E946C0A8B81882399F0BE018C
:1017B0006F5F7F4FCE018B579F4F0E94B80ABE01CB
:1017C0006B577F4FC8010E945330CE018B579F4FFC
:1017D0000E94CF2FC801C657DF4F0FB6F894DEBF67
:1017E0000FBECDBFDF91CF911F910F91FF90EF9072
:1017F00008951F93CF93DF9300D000D000D0CDB7D2
:10180000DEB7BC01CE0101960E94B50B8D819E8191
:10181000892B39F0BE016F5F7F4F8CEF95E00E94FE
:10182000D52D11E02D813E81232B09F410E0CE014E
:1018300001960E94CF2F812F26960FB6F894DEBF17
:101840000FBECDBFDF91CF911F910895CF93DF934E
:10185000FB01DB0120E030E01D922F5F3F4F20387D
:101860003105D1F72CEC2083DC012C912183AD577D
:10187000BF4F2C912283AF014D5F5F4F20E030E0DE
:101880006C91C62FD0E02C173D0754F4EC01C20F29
:10189000D31F6B81EA016993AE012F5F3F4FF0CFF9
:1018A0002396CE0FDF1F6D5FCF010E94AB1D888393
:1018B000DF91CF910895CF92DF92EF92FF920F9335
:1018C0001F93CF93DF93CDB7DEB7C458D1090FB6BE
:1018D000F894DEBF0FBECDBF8B01BE016F5F7F4F9F
:1018E000CF57DF4F2883C158D040CE57DF4F3883C2
:1018F000C258D040CD57DF4F4883C358D040CC5753
:10190000DF4F5883C458D0400E94260C60E0C801C5
:101910000E94D21AC8010E94C41C6B017C01CF57DF
:10192000DF4F2881C158D040CE57DF4F3881C25891
:10193000D040CD57DF4F4881C358D040CC57DF4F00
:101940005881C458D040BA01A901C8010E94D119D8
:101950004B814C5FBE016F5F7F4FC8010E94E51C49
:10196000B701A601C8010E94D11961E0C8010E9417
:10197000D21ACC57DF4F0FB6F894DEBF0FBECDBFE3
:10198000DF91CF911F910F91FF90EF90DF90CF905B
:10199000089581E0089520E030E040E0FC0151919D
:1019A000CF01450F2F5F3F4F2C303105B9F781E054
:1019B000411180E008950F931F93CF93DF938C0123
:1019C000EB0181E0898FF80180818883818189839F
:1019D0008481282F221F2227221F2D83828190E0BD
:1019E000982F88273381832B9B838A83918581E07D
:1019F00096FF80E08E8BF8019185892F881F8827BC
:101A0000881F8F8B2223A1F01E821F8218861986C1
:101A10001A861B861C861D861E861F86188A198AB2
:101A20001A8A1B8A1C8A1D8A1C82188E198E61C014
:101A3000F801608570E080E090E00E942D3220E0A7
:101A400030E040E05FE30E94E13220E030E040E03F
:101A500053E40E942A316E837F8388879987F80137
:101A6000668170E0762F66278781682B882777FD4F
:101A70008095982F0E942D326A877B878C879D875F
:101A8000F80164816F7370E0762F66278581682B7B
:101A900075956795882777FD8095982F0E942D3240
:101AA0006E877F87888B998BF80161856F7370E0F3
:101AB000762F66278285682B882777FD8095982F5B
:101AC0000E942D3220E030E048EC52E40E94923136
:101AD0006A8B7B8B8C8B9D8BF801948181E096FFC8
:101AE00080E08C83F8018385888FC8010E94CB0C2D
:101AF000898FF80186818A3A21F487818A3A09F42C
:101B0000198EDF91CF911F910F910895EF92FF925F
:101B10000F931F93CF93DF93CDB7DEB7AA970FB67E
:101B2000F894DEBF0FBECDBF7C01BE016F5F7F4F5B
:101B30000E94DB0C0E94152A0091210510912205BC
:101B40002091230530912405601B710B820B930BB0
:101B50009F938F937F936F9325E432E03F932F936E
:101B60008E01055E1F4F1F930F930E9457370E94EF
:101B7000152A609321057093220580932305909385
:101B80002405B8018CEF95E00E94B82D6BE472E05B
:101B90008CEF95E00E94B82D87010FB6F894DEBF58
:101BA0000FBECDBFE12CF12CF80161918F0140E116
:101BB00050E08CEF95E00E94C32E60E673E08CEF5E
:101BC00095E00E94B82DFFEFEF1AFF0A8CE0E816AF
:101BD000F10451F765E572E08CEF95E00E94B82DB5
:101BE0008A8D811103C06BE072E002C066E172E091
:101BF0008CEF95E00E94B82D67E572E08CEF95E0E0
:101C00000E94B82D40E150E069818CEF95E00E9480
:101C1000C32E60E673E08CEF95E00E94B82D40E1A2
:101C200050E06A818CEF95E00E94C32E6BE572E074
:101C30008CEF95E00E94B82D6B817C8140E150E0F3
:101C40008CEF95E00E94CA2E60E672E08CEF95E082
:101C50000E94B82D4F81588569857A8522E030E051
:101C60008CEF95E00E94BB2F64E672E08CEF95E06C
:101C70000E94B82D4B855C856D857E8522E030E025
:101C80008CEF95E00E94BB2F69E672E08CEF95E047
:101C90000E94B82D4F85588969897A8922E030E001
:101CA0008CEF95E00E94BB2F6DE672E08CEF95E023
:101CB0000E94B82D4B895C896D897E8922E030E0D5
:101CC0008CEF95E00E94BB2F63E772E08CEF95E00C
:101CD0000E94B82D6D8170E04AE050E08CEF95E0F5
:101CE0000E94AE2E6AE772E08CEF95E00E94B82D5C
:101CF0006E8170E04AE050E08CEF95E00E94AE2EDD
:101D000061E872E08CEF95E00E94B82D4AE050E067
:101D1000698D8CEF95E00E94C32E8CEF95E00E94B8
:101D2000C12DAA960FB6F894DEBF0FBECDBFDF91CE
:101D3000CF911F910F91FF90EF900895FF920F9315
:101D40001F93CF93DF93EC018B0161E673E00E9458
:101D50003D3067E872E0CE010E94A630F801638151
:101D6000CE010E94C93060E673E0CE010E94A63029
:101D7000F8016281CE010E94C93060E673E0CE01B5
:101D80000E94A63020E030E040E251E4F801668194
:101D90007781808591850E94E1320E94FA31F62E8A
:101DA000672FCE010E94C93060E673E0CE010E9429
:101DB000A6306F2DCE010E94C93060E673E0CE01DF
:101DC0000E94A630F80162857385848595850E94FE
:101DD000FA31672FCE010E94C93060E673E0CE0170
:101DE0000E94A630F80162857385848595850E94DE
:101DF000FF31CE010E94C93060E673E0CE010E943F
:101E0000A630F80166857785808991890E94FA312C
:101E1000672FCE010E94C93060E673E0CE010E94B8
:101E2000A630F80166857785808991890E94FF3107
:101E3000CE010E94C93060E673E0CE010E94A63058
:101E400020E030E048EC52E4F8016289738984892B
:101E500095890E94E1320E94FA31F62E672FCE0159
:101E60000E94C93060E673E0CE010E94A6306F2D5B
:101E7000CE010E94C93060E673E0CE010E94A63018
:101E8000F8016581660F8481680FCE010E94C93018
:101E9000CE01DF91CF911F910F91FF900895EF92A6
:101EA000FF920F931F93CF93DF93CDB7DEB7A09729
:101EB0000FB6F894DEBF0FBECDBF8C017B0161E68B
:101EC00073E00E943D30F7018081853209F5818100
:101ED000982F9F7B9A3211F08034D1F4BE016F5F4E
:101EE0007F4FC7010E94DB0C8A8D882389F0BE01D9
:101EF0006F5F7F4FCE014B960E949E0EBE01655EC6
:101F00007F4FC8010E945330CE014B960E94CF2FC5
:101F1000C801A0960FB6F894DEBF0FBECDBFDF910B
:101F2000CF911F910F91FF90EF9008951F93CF9342
:101F3000DF9300D000D000D0CDB7DEB7BC01CE011A
:101F400001960E944F0F8D819E81892B39F0BE0131
:101F50006F5F7F4F8CEF95E00E94D52D11E02D81B2
:101F60003E81232B09F410E0CE0101960E94CF2F71
:101F7000812F26960FB6F894DEBF0FBECDBFDF913E
:101F8000CF911F91089521E06B367542810591052F
:101F900009F020E0822F0895CF93DF93EC010196A2
:101FA0000E946A0718821B8E1C8E1D8E1E8EDF916A
:101FB000CF9108950F931F93CF93DF93EC018C0182
:101FC0000F5F1F4F40E050E0BA01C8010E94700748
:101FD000C8010E9435088883DF91CF911F910F912E
:101FE0000895FC0180810895AB01662757FD609537
:101FF000762F01960C947007AF92BF92CF92DF922A
:10200000EF92FF920F931F93CF93DF931F92CDB761
:10201000DEB75C018A0161E673E00E943D30F801A1
:10202000C680D780E084F18420E030E040E252ECCA
:10203000C701B6010E948E3187FD7EC020E030E0EE
:102040004AEA52E4C701B6010E94DD3218160CF4C8
:1020500073C063E972E0C5010E94A630F801608197
:10206000C5010E94C9306AE972E0C5010E94A6302C
:1020700020E030E040E251E4F8016681778180851C
:1020800091850E94E13220E030E04AE754E40E946A
:102090002A310E94FA31F62EE72E60E673E0C50180
:1020A0000E94A6306E2DC5010E94C93060E673E023
:1020B000C5010E94A6306F2DC5010E94C93061EA9A
:1020C00072E0C5010E94A6306DE972E0C5010E9470
:1020D000A6306DE972E0C5010E94A6306DE972E09C
:1020E000C5010E94A6306DE972E0C5010E94A630CC
:1020F000F8012181828181112C5F60E673E0C501C6
:1021000029830E94A6302981622FC5010E94C9300F
:1021100060E673E0C5010E94A630F8016385C50141
:102120000E94C93060E673E0C5010E94A630F80144
:102130006285C5010E94C930C5010F90DF91CF9122
:102140001F910F91FF90EF90DF90CF90BF90AF90D5
:1021500008958F929F92AF92BF92CF92DF92EF92AB
:10216000FF920F931F93CF93DF93CDB7DEB76297A4
:102170000FB6F894DEBF0FBECDBF7C018B0161E6C8
:1021800073E00E943D30F8018081882309F443C048
:102190000E94152AF801838C948CA58CB68CF0E1F2
:1021A0008F0EF7E29F1EA11CB11C681579058A05E8
:1021B0009B0588F10E94152AF801638F748F858F23
:1021C000968F19821B821A8281E08C836801FFEF4F
:1021D000CF1ADF0AC6010E949E086F83788789871D
:1021E0009A87C6010E94F2087C876B878C818823BE
:1021F00091F0AE014F5F5F4FB801CE010D960E9486
:10220000FC0FBE01635F7F4FC7010E945330CE01B8
:102210000D960E94CF2FC70162960FB6F894DEBFCD
:102220000FBECDBFDF91CF911F910F91FF90EF9027
:10223000DF90CF90BF90AF909F908F9008951F93A5
:10224000CF93DF9300D000D000D0CDB7DEB7BC0174
:10225000CE0101960E94A9108D819E81892B39F0B3
:10226000BE016F5F7F4F8CEF95E00E94D52D11E08E
:102270002D813E81232B09F410E0CE0101960E94AE
:10228000CF2F812F26960FB6F894DEBF0FBECDBF9D
:10229000DF91CF911F91089521E0FC0120830895E3
:1022A000CF93C62FFC018081882351F061E089E043
:1022B0000E94DA2A61E06C2789E0CF910C94132BFD
:1022C000CF910895EF92FF920F931F93CF93DF93D7
:1022D0008C01662301F16B3008F06AE0C0E0D0E0C9
:1022E000E62EF12CCE15DF05B4F461E0C8010E94A2
:1022F000501162E370E080E090E00E94442A60E0C8
:10230000C8010E94501162E370E080E090E00E94FA
:10231000442A2196E7CFDF91CF911F910F91FF9033
:10232000EF900895FC016083611102C00C9450117C
:10233000089564E00C94AB1DBF92CF92DF92EF92B0
:10234000FF920F931F93CF93DF938C01EB0181E0FA
:102350008B87F801F480FA86C8010E949911F8125F
:102360001B861982F80180818F70F4E08F9FC00175
:102370001124898330912905F8012181922F33237B
:1023800011F0907C04C09295969596959370982B39
:102390009983F801808182958F708883893009F054
:1023A0001B86F801818185FB882780F98A838181DA
:1023B000829581708B83B28061816F7070E080E064
:1023C00090E00E942D3220E030E048EC52E40E9480
:1023D000E13220E030E0A9010E942A316B017C014A
:1023E0006B2D62956F7070E080E090E00E942D325E
:1023F00020E030E040E251E40E94E1329B01AC0178
:10240000C701B6010E942A316B017C016B2D6F70F0
:1024100070E080E090E00E942D329B01AC01C7018A
:10242000B6010E942A3120E030E040E251E40E94EF
:10243000923120E030E040E252E40E9429316C8386
:102440007D838E839F83F8019381892F881F88273E
:10245000881F888783818F778987DF91CF911F912C
:102460000F91FF90EF90DF90CF90BF900895AF92C3
:10247000BF92CF92DF92EF92FF920F931F93CF9371
:10248000DF9300D000D000D0CDB7DEB75C018B0168
:1024900061E673E0CE0101960E943D3066EA72E08B
:1024A000CE0101960E94A630F8016181CE0101960D
:1024B0000E94C93060E2CE0101960E94B630F80158
:1024C00081858F77843610F08A3651F4F801828145
:1024D000882319F061E870E008C061E070E005C091
:1024E0008D3709F042C062E870E0CE0101960E948B
:1024F000F63060E2CE0101960E94B63020E030E076
:1025000040E251E4F80164817581868197810E94DF
:10251000E13220E030E04AE754E40E942A310E9490
:10252000FF31F62E672FCE0101960E94C93060E27E
:10253000CE0101960E94B6306F2DCE0101960E9409
:10254000C93060E2CE0101960E94B630F801C48025
:10255000D580E680F78020E030E040E752E4C70114
:10256000B6010E94DD3287FD06C061E673E0C50159
:102570000E943D3019C020E030E040E252ECC7013B
:10258000B6010E948E31181684F7F80161858085A6
:1025900081116068CE0101960E94C930BE016F5F53
:1025A0007F4FC5010E946A30CE0101960E94CF2F55
:1025B000C50126960FB6F894DEBF0FBECDBFDF91E2
:1025C000CF911F910F91FF90EF90DF90CF90BF9030
:1025D000AF900895EF92FF920F931F93CF93DF93E5
:1025E000CDB7DEB7A1970FB6F894DEBF0FBECDBF53
:1025F0007C01BE016F5E7F4F0E949C111D8E1E8E5E
:102600001F8E18A219A22A89FE017D96CE018296FC
:102610003191231709F4DBC0E817F907C9F70E94C5
:10262000152A009125051091260520912705309146
:102630002805601B710B820B930B9F938F937F93E5
:102640006F9385E492E09F938F938E010F5F1F4FEE
:102650001F930F930E9457370E94152A60932505F8
:10266000709326058093270590932805B8018CEF79
:1026700095E00E94B82D66ED72E08CEF95E00E9427
:10268000B82D87010FB6F894DEBF0FBECDBFE12C89
:10269000F12CF80161918F0140E150E08CEF95E061
:1026A0000E94C32E60E673E08CEF95E00E94B82D87
:1026B000FFEFEF1AFF0A85E0E816F10451F765E530
:1026C00072E08CEF95E00E94B82D8C8D811107C0CF
:1026D0006BE072E08CEF95E00E94B82D74C066E16B
:1026E00072E08CEF95E00E94B82D67E572E08CEF08
:1026F00095E00E94B82D4AE050E069898CEF95E0A2
:102700000E94C32E6BE572E08CEF95E00E94B82D1D
:102710004AE050E06A898CEF95E00E94C32E6CEA93
:1027200072E08CEF95E00E94B82D6B8970E04AE072
:1027300050E08CEF95E00E94AE2E66EB72E08CEFDD
:1027400095E00E94B82D6C8970E04AE050E08CEF73
:1027500095E00E94AE2E6EEB72E08CEF95E00E9449
:10276000B82D4D895E896F89788D22E030E08CEF3D
:1027700095E00E94BB2F65EC72E08CEF95E00E9423
:10278000B82D698D70E04AE050E08CEF95E00E9432
:10279000AE2E60ED72E08CEF95E00E94B82D4AE01D
:1027A00050E06A8D8CEF95E00E94C32E61E872E0E4
:1027B0008CEF95E00E94B82D4AE050E06B8D8CEFD5
:1027C00095E00E94C32E8CEF95E00E94C12DA1964A
:1027D0000FB6F894DEBF0FBECDBFDF91CF911F9132
:1027E0000F91FF90EF900895EF92FF920F931F9338
:1027F000CF93DF93CDB7DEB762970FB6F894DEBF05
:102800000FBECDBF8C017B0161E673E00E943D30BD
:10281000F701808182958F708930D1F4BE016F5F9E
:102820007F4FC7010E949C118C85882389F0BE01CF
:102830006F5F7F4FCE010D960E943712BE01635F1E
:102840007F4FC8010E945330CE010D960E94CF2FBA
:10285000C80162960FB6F894DEBF0FBECDBFDF9100
:10286000CF911F910F91FF90EF9008951F93CF93F9
:10287000DF9300D000D000D0CDB7DEB7BC01CE01D1
:1028800001960E94F4138D819E81892B39F0BE013F
:102890006F5F7F4F8CEF95E00E94D52D11E02D8169
:1028A0003E81232B09F410E0CE0101960E94CF2F28
:1028B000812F26960FB6F894DEBF0FBECDBFDF91F5
:1028C000CF911F910895693523E472078105910521
:1028D00049F021E06B3675428105910509F020E051
:1028E000822F089581E0089565E00C94AB1D8F92CE
:1028F0009F92AF92BF92CF92DF92EF92FF920F938F
:102900001F93CF93DF938C01EB0181E08F87F80158
:10291000F580FE86C8010E947414F81659F0809163
:102920002E05882331F061EE72E08CEF95E00E9475
:10293000E72D1F86F80180818F70898380818295C1
:102940008F7088838B3059F080912E05882331F069
:1029500060EF72E08CEF95E00E94E72D1F86F80192
:10296000618162956F70F4E66F9FB0011124882732
:1029700077FD8095982F0E942D326B017C016A8330
:102980007B838C839D83F80161816F70FAE06F9F78
:10299000B0011124882777FD8095982F0E942D3251
:1029A0009B01AC01C701B6010E942A316B017C0179
:1029B0006A837B838C839D83F801628162956F704B
:1029C00070E080E090E00E942D329B01AC01C701D5
:1029D000B6010E942A3120E030E040E05FE30E942F
:1029E000E1326A837B838C839D83F80162816F70FF
:1029F000FAE06F9FB0011124882777FD8095982F0A
:102A00000E942D326B017C016E837F8388879987BA
:102A1000F801638162956F7070E080E090E00E9441
:102A20002D329B01AC01C701B6010E942A316B0116
:102A30007C016E837F8388879987F80163816F703B
:102A400070E080E090E00E942D322DEC3CEC4CECEC
:102A50005DE30E94E1329B01AC01C701B6010E9417
:102A60002A3120E030E040E252E40E9429316B013B
:102A70007C016E837F8388879987F80164816295E2
:102A80006F7070E080E090E00E942D324B015C019D
:102A90006A877B878C879D87F80164816F7070E0FF
:102AA00080E090E00E942D322DEC3CEC4CEC5DE39C
:102AB0000E94E1329B01AC01C501B4010E942A31A0
:102AC0006A877B878C879D8720E030E040E252EC6C
:102AD000C701B6010E948E3187FD0AC020E030E0B8
:102AE00040E752E4C701B6010E94DD321816ACF48B
:102AF0001F8680912E05882381F06FEF72E08CEFA6
:102B000095E00E94B82D4E815F816885798522E02D
:102B100030E08CEF95E00E94BD2FCA80DB80EC8016
:102B2000FD8020E030E040E050E4C701B6010E94A3
:102B30008E3187FD0AC020E030E046E953E4C7014A
:102B4000B6010E94DD321816ACF41F8680912E0566
:102B5000882381F066E173E08CEF95E00E94B82D48
:102B60004A815B816C817D8122E030E08CEF95E0D1
:102B70000E94BD2FCA84DB84EC84FD8420E030E019
:102B800040E050E4C701B6010E948E3187FD0AC0C3
:102B900020E030E040E551E4C701B6010E94DD329B
:102BA00018160CF51F8680912E058823E1F067E248
:102BB00073E08CEF95E00E94B82D4A855B856C85AB
:102BC0007D8522E030E08CEF95E0DF91CF911F9181
:102BD0000F91FF90EF90DF90CF90BF90AF909F90BC
:102BE0008F900C94BD2FDF91CF911F910F91FF908B
:102BF000EF90DF90CF90BF90AF909F908F9008950F
:102C0000EF92FF920F931F93CF93DF93CDB7DEB771
:102C1000A0970FB6F894DEBF0FBECDBF7C01BE01FA
:102C20006F5E7F4F0E9477140E94152A00912A053B
:102C300010912B0520912C0530912D05601B710BF7
:102C4000820B930B9F938F937F936F9325E432E0D6
:102C50003F932F938E010F5F1F4F1F930F930E947F
:102C600057370E94152A60932A0570932B0580938D
:102C70002C0590932D05B8018CEF95E00E94B82D9E
:102C80006AE373E08CEF95E00E94B82D87010FB6E0
:102C9000F894DEBF0FBECDBFE12CF12CF80161919D
:102CA0008F0140E150E08CEF95E00E94C32E60E67A
:102CB00073E08CEF95E00E94B82DFFEFEF1AFF0A4A
:102CC00086E0E816F10451F765E572E08CEF95E0D7
:102CD0000E94B82D88A1811107C06BE072E08CEFD3
:102CE00095E00E94B82D5DC066E172E08CEF95E042
:102CF0000E94B82D67E572E08CEF95E00E94B82D38
:102D00004AE050E069898CEF95E00E94C32E6BE5A4
:102D100072E08CEF95E00E94B82D4AE050E06A899D
:102D20008CEF95E00E94C32E68E473E08CEF95E091
:102D30000E94B82D4B895C896D897E8922E030E044
:102D40008CEF95E00E94BB2F6EEB72E08CEF95E06C
:102D50000E94B82D4F89588D698D7A8D22E030E020
:102D60008CEF95E00E94BB2F60E573E08CEF95E05F
:102D70000E94B82D4B8D5C8D6D8D7E8D22E030E0F4
:102D80008CEF95E00E94BB2F61E872E08CEF95E03C
:102D90000E94B82D4AE050E06F8D8CEF95E00E94C4
:102DA000C32E8CEF95E00E94C12DA0960FB6F8942B
:102DB000DEBF0FBECDBFDF91CF911F910F91FF906E
:102DC000EF900895FF920F931F93CF93DF93EC0141
:102DD0008B0161E673E00E943D3067E573E0CE0150
:102DE0000E94A630F8016181CE010E94C9306EE5D3
:102DF00073E0CE010E94A63020E030E040E251E4D2
:102E0000F80162817381848195810E94E13220E022
:102E100030E04AE754E40E942A310E94FA31F62E4B
:102E2000672FCE010E94C93060E673E0CE010E9498
:102E3000A6306F2DCE010E94C93060E673E0CE014E
:102E40000E94A63020E030E040E251E4F8016681C3
:102E50007781808591850E94E13220E030E04AE769
:102E600054E40E942A310E94FA31F62E672FCE01D7
:102E70000E94C93060E673E0CE010E94A6306F2D3B
:102E8000CE010E94C93060E673E0CE010E94A630F8
:102E900020E030E040E251E4F801628573858485EA
:102EA00095850E94E1320E94FA31CE010E94F630EF
:102EB000CE01DF91CF911F910F91FF900895EF9276
:102EC000FF920F931F93CF93DF93CDB7DEB7669733
:102ED0000FB6F894DEBF0FBECDBF8C017B0161E65B
:102EE00073E00E943D30BE016F5F7F4FC7010E94BB
:102EF00077148889882389F0BE016F5F7F4FCE01E8
:102F000041960E94E216BE016F5E7F4FC8010E948B
:102F10005330CE0141960E94CF2FC80166960FB65E
:102F2000F894DEBF0FBECDBFDF91CF911F910F91FF
:102F3000FF90EF9008951F93CF93DF9300D000D0C0
:102F400000D0CDB7DEB7BC01CE0101960E945F175D
:102F50008D819E81892B39F0BE016F5F7F4F8CEF91
:102F600095E00E94D52D11E02D813E81232B09F49F
:102F700010E0CE0101960E94CF2F812F26960FB62A
:102F8000F894DEBF0FBECDBFDF91CF911F910895A2
:102F90006A3822E272078105910579F06B3635E2D5
:102FA00073078105910549F021E069357344810576
:102FB000910509F020E0822F089581E00895FC0139
:102FC000158A108AFB0120E030E0DC01A20FB31F5C
:102FD00056964C9141932F5F3F4F20343105A9F70E
:102FE0000895FC0185890895EF92FF921F93CF9376
:102FF000DF931F92CDB7DEB77C0118E0F701848123
:1030000090E0FC01EA58FE4F2491FC01E657FE4F88
:103010008491E82FF0E0EE0FFF1FE855FE4FA591D9
:10302000B4918C9190E0E22FF0E0E095F0958E2342
:103030009F238C93F701828190E0FC01EA58FE4FB8
:1030400067FF11C02491FC01E657FE4F8491E82FE1
:10305000F0E0EE0FFF1FE855FE4FA591B4918C9163
:10306000822B8C9316C04491FC01E657FE4F84914D
:10307000E82FF0E0EE0FFF1FE855FE4FA591B49149
:103080002C9130E0E42FF0E0E095F0952E233F23E3
:103090002C93660FF701848190E0FC01EA58FE4F03
:1030A0002491FC01E657FE4FE491F0E0EE0FFF1F84
:1030B000E855FE4FA591B4918C91822B8C93F7012A
:1030C000838169830E94492B6981892B09F06160A2
:1030D000115009F093CFF701848190E0FC01EA5888
:1030E000FE4F4491FC01E657FE4F8491E82FF0E03B
:1030F000EE0FFF1FE855FE4FA591B4912C9130E0E3
:10310000E42FF0E0E095F0952E233F232C93862FBB
:103110000F90DF91CF911F91FF90EF900895FF9254
:103120000F931F93CF93DF93EC018B0160E08D81B0
:103130000E94132B80E1F82E8A8190E0FC01EA586E
:10314000FE4F17FF10C02491FC01E657FE4F8491FB
:10315000E82FF0E0EE0FFF1FE855FE4FA591B49168
:103160008C91822B15C02491FC01E657FE4F84916F
:10317000E82FF0E0EE0FFF1FE855FE4FA591B49148
:103180008C9190E0E22FF0E0E095F0958E239F2364
:103190008C93000F111F8B810E94492B892B09F002
:1031A00001608C8190E0FC01EA58FE4F2491FC0103
:1031B000E657FE4FE491F0E0EE0FFF1FE855FE4F9B
:1031C000A591B4918C91822B8C9381E090E00E9428
:1031D0006C2A8C8190E0FC01EA58FE4F2491FC019E
:1031E000E657FE4F8491E82FF0E0EE0FFF1FE85501
:1031F000FE4FA591B4918C9190E0E22FF0E0E09524
:10320000F0958E239F238C93FA9409F095CF61E07B
:103210008D810E94132BC801DF91CF911F910F91D7
:10322000FF900895CF93DF93EB010E948F1862E621
:1032300073E08CEF95E00E94B82D4AE050E0BE01AB
:103240008CEF95E0DF91CF910C94CA2E1F93CF9312
:10325000DF93EC01162F60E08D810E94132B612F0C
:103260006F77CE010E94F41760E0CE010E94F41740
:10327000182F61E08D810E94132B812FDF91CF9158
:103280001F910895FC01208131812230310519F40C
:1032900060E00C94261960E070EB0E948F1808958E
:1032A0000F931F93CF93DF93EC018881998102974D
:1032B000A9F468E2CE010E94261982FF48C000E00E
:1032C00010E0CE010E944219FE01E00FF11F868B33
:1032D0000F5F1F4F00341105A1F737C060E08D81EB
:1032E0000E94132B000000008B810E94492B8C014F
:1032F00061E08D810E94132B012B89F0188981E0F8
:10330000810F888BCE010E944219FE01E10FF11D51
:10331000868B0E94152A698B7A8B8B8B9C8B888974
:10332000811104C08889803280F411C00E94152A5E
:1033300009891A892B893C890E5C1F4F2F4F3F4FFB
:10334000061717072807390768F781E08D8BDF918B
:10335000CF911F910F910895EF92FF921F93CF93FA
:10336000DF931F92CDB7DEB77C01162F60E0FC0122
:10337000858149830E94132B612F6068C7010E94D9
:10338000F4174981642FC7010E94F41761E0F70127
:1033900085810F90DF91CF911F91FF90EF900C945A
:1033A000132BCF92DF92EF92FF92CF93DF93EC013A
:1033B0009A01AB01288739874A875B878881998181
:1033C0000297F1F4CA01B9019695879577956795AB
:1033D000785B87419E4F0E94BD3469017A01432F7B
:1033E000552763E0CE010E94AC194C2D64E0CE015C
:1033F000DF91CF91FF90EF90DF90CF900C94AC19BC
:10340000CA01B9010E942B329B01AC0160E87FE543
:1034100088EA98E40E9492316B017C0120E030E060
:10342000A9010E94DD3220E030E040E05FE387FD4B
:1034300005C0C701B6010E942A3104C0C701B60108
:103440000E9429310E94FA31615070E0766CCE0101
:10345000DF91CF91FF90EF90DF90CF900C948F1879
:10346000CF92DF92EF92FF92CF93DF93EC014C87E4
:103470005D876E877F87888199810297B1F5A8EE75
:10348000B3E09A01AB010E940435A2E0660F771FFA
:10349000881F991FAA95D1F729E03DE340E050E04D
:1034A0000E94BD3469017A01B6E0CC0CDD1CEE1C33
:1034B000FF1CBA95D1F7A7016627772767E0CE01F1
:1034C0000E94AC1977276F2D5E2D4D2D68E0CE013F
:1034D0000E94AC194C2D69E0CE01DF91CF91FF9095
:1034E000EF90DF90CF900C94AC19CB01BA016056ED
:1034F0007F418D40910925E030E040E050E00E949E
:10350000BD34B9017056CE01DF91CF91FF90EF909D
:10351000DF90CF900C948F18CF93DF93EC018881CC
:103520009981662369F0029741F461E0CE010E941F
:103530002619482F437E4C600CC068E372E811C026
:10354000029769F461E0CE010E942619482F437E5C
:10355000446061E0CE01DF91CF910C94AC1968E03A
:1035600072E8CE01DF91CF910C948F181F93CF9307
:10357000DF93EC0188819981029741F440E168E290
:10358000CE01DF91CF911F910C94AC1910E460E053
:1035900070EBCE010E948F181150C9F7DF91CF91C7
:1035A0001F910895CF93DF93EC0188819981662361
:1035B000B9F0029741F461E0CE010E942619482F2C
:1035C000437E406116C068EC72E8CE010E948F18FD
:1035D00061E87AECCE010E948F1863E87AEC10C0A3
:1035E000029761F461E0CE010E942619482F437EC4
:1035F000446061E0CE010E94AC1905C068E072E849
:10360000CE010E948F18CE01DF91CF910C94B61A93
:10361000CF93DF93D62FC42F0E94AC1969E673E0D5
:103620008CEF95E00E94B82D4AE050E06D2F8CEFB2
:1036300095E00E94C32E63E773E08CEF95E00E9453
:10364000B82D4AE050E06C2F8CEF95E0DF91CF91E0
:103650000C94C32EFC01808191810895CF93DF9358
:10366000EC01FB01808191818130910529F0029765
:1036700031F46DE773E005C066E773E002C065E80A
:1036800073E0CE010E943D30CE01DF91CF910895CD
:103690000F931F93CF93DF9300D000D000D0CDB70E
:1036A000DEB78C01FC0187818823B1F06AE873E002
:1036B0008CEF95E00E94B82DB801CE0101960E94D2
:1036C0002E1BBE016F5F7F4F8CEF95E00E94D52DC2
:1036D000CE0101960E94CF2F61E0F80185810E9402
:1036E000132B60E0C8010E94D21AF80180819181F9
:1036F000029709F056C044E061E0C8010E94AC198D
:1037000040E062E0C8010E94AC1945E065E0C801F4
:103710000E94AC1943EC66E0C8010E94AC194FE965
:1037200061E1C8010E94AC194FE063E1C8010E9449
:10373000AC1942E469E1C8010E94AC1940E168E2B9
:10374000C8010E94AC194CED69E2C8010E94AC1995
:1037500048E86EE2C8010E94AC194DE26FE2C80170
:103760000E94AC1944ED60E3C8010E94AC1948E026
:1037700067E3C8010E94AC1940E468E3C8010E94F5
:10378000AC194FE86CE3C8010E94AC1942E16DE34B
:10379000C8010E94AC1940E36FE6C8010E94AC1951
:1037A0003CC068E072E8C8010E948F1868EE70E8BB
:1037B000C8010E948F186AE672ECC8010E948F1837
:1037C00062E17AECC8010E948F1864ED7EECC801BA
:1037D0000E948F1861E874ECC8010E948F1860EA9B
:1037E00074E9C8010E948F1867E77CECC8010E9449
:1037F0008F1860E578E9C8010E948F1860E070EECC
:10380000C8010E948F1860E078ECC8010E948F18F0
:1038100060E470ECC8010E948F18F801448555855A
:1038200066857785C8010E94301AF8014085518568
:1038300062857385C8010E94D119C8010E94B61A19
:1038400026960FB6F894DEBF0FBECDBFDF91CF91A5
:103850001F910F910895FC0181E020813181232B7C
:1038600009F480E00895CF92EF920F93CF93DF9306
:10387000EC01862F6A834B832C830D83EE821F829B
:1038800049E553E460E070E0488759876A877B87A1
:103890004CEC5FE36DE070E04C875D876E877F875F
:1038A000188A198A1A8A1B8A1C8A1D8A61E00E945A
:1038B000DA2A60E08B810E94DA2A61E08C810E9422
:1038C000DA2A61E08D810E94DA2A61E08D810E940E
:1038D000132B198218824AE068E3CE010E94AC19CA
:1038E00068E3CE010E9426198A3079F440E468E347
:1038F000CE010E94AC1968E3CE010E9426198034E3
:1039000021F482E090E09983888388819981892BD2
:1039100091F5C1102CC06CE072E8CE010E948F18A6
:1039200088EE93E000000197E9F76FE470ECCE01B8
:103930000E948F1888EE93E000000197E9F760E09D
:1039400070E0CE010E948F1892FF15C060E470EC09
:10395000CE010E948F1888EE93E000000197E9F7EE
:1039600060E070E0CE010E948F1892FD04C081E0FB
:1039700090E099838883DF91CF910F91EF90CF9062
:103980000895FC0167830895FC0160857185828537
:1039900093850895FC0164857585868597850895CE
:1039A0001F93CF93DF93EC01162F60E070E0CE0100
:1039B0000E948F1897FFF9CF612F70E0786BCE01CE
:1039C000DF91CF911F910C948F188F929F92AF929D
:1039D000BF92DF92EF92FF920F931F93CF93DF93EB
:1039E000EC017B01D42E88819981029709F046C0B1
:1039F0006DE3CE010E942619482F44606DE3CE018D
:103A00000E94AC1960E0CE010E94D21ACE010E9441
:103A1000B61AF89460E08D810E94132B60E8CE0105
:103A20000E94F417BE2C8701802F8B198D1538F456
:103A3000F80161918F01CE010E94F417F5CF61E08A
:103A40008D810E94132B789461E0CE010E948C1A24
:103A50000E94152A4B015C0168E2CE010E942619E2
:103A600083FD3AC00E94152A681979098A099B09C1
:103A7000643F71408105910578F5EECF61E0CE019C
:103A80000E948C1A6AEACE010E94D01C6AEACE011A
:103A90000E94D01C6AEACE010E94D01C6DE2CE01C9
:103AA0000E94D01C64EDCE010E94D01C8701AD2C79
:103AB000B12CC8018E199F098A159B053CF4F801A9
:103AC00061918F01CE010E94D01CF3CF61E070E0C4
:103AD00080E090E00E94442A60E0CE010E948C1AAF
:103AE0008F81882361F165E973E08CEF95E00E9496
:103AF000B82DE7010D2D10E0CE018E199F0980171A
:103B0000910774F469914AE050E08CEF95E00E94CF
:103B1000C32E60E673E08CEF95E00E94B82DECCFE9
:103B20008CEF95E0DF91CF911F910F91FF90EF9077
:103B3000DF90BF90AF909F908F900C94C12DDF913C
:103B4000CF911F910F91FF90EF90DF90BF90AF90BA
:103B50009F908F900895FC0140E070E0A1E39F01E9
:103B6000281B390B261737076CF4519128E030E0F9
:103B7000B52FB427440FB7FD4A27550F21503109FF
:103B8000B9F7EDCF842F089580932E050895EF9215
:103B9000FF920F931F93CF93DF931F92CDB7DEB7A2
:103BA0007C01162F072F61E673E049830E943D30A8
:103BB0004981411102C01FEF0FEF60E2C7010E946F
:103BC000B630602FC7010E94C93060E2C7010E9471
:103BD000B630612FC7010E94C930C7010F90DF9135
:103BE000CF911F910F91FF90EF900895EF92FF9268
:103BF0001F93CF93DF931F92CDB7DEB77C01162FB3
:103C000061E673E049830E943D3060E2C7010E9493
:103C1000B6304981442319F0612F70E002C06FEF84
:103C200070E0C7010E94F630C7010F90DF91CF917D
:103C30001F91FF90EF9008959F92AF92BF92CF9205
:103C4000DF92EF92FF920F931F93CF93DF9300D0F9
:103C500000D000D0CDB7DEB75C018B0161E673E028
:103C60000E943D30F801948081E098268781882366
:103C7000C9F0C584D684E784F08820E030E040E2D3
:103C800052ECC701B6010E948E3187FD0AC02AE9B5
:103C900039E94FE652E4C701B6010E94DD32181639
:103CA0000CF4912CF8018085882329F081898150BA
:103CB000833608F0CCC0992009F4C9C063E972E0EA
:103CC000C5010E94A630F8016181C5010E94C9307A
:103CD00064EA73E0C5010E94A63020E030E040E2D3
:103CE00051E4F80165857685878590890E94E132E7
:103CF00020E030E04AE754E40E942A310E94FF317C
:103D0000F8014781CE0101960E94C71DBE016F5F79
:103D10007F4FC5010E949F30CE0101960E94CF2F98
:103D2000F80140856189CE0101960E94F61DBE0111
:103D30006F5F7F4FC5010E949F30CE0101960E94A8
:103D4000CF2FF80162897389848995890E94FF3198
:103D5000F8014185CE0101960E94C71DBE016F5F2B
:103D60007F4FC5010E949F30CE0101960E94CF2F48
:103D700020E030E040E251E4F80166897789808DE7
:103D8000918D0E94E1320E94FF31F8014385CE01FE
:103D900001960E94C71DBE016F5F7F4FC5010E9443
:103DA0009F30CE0101960E94CF2F20E030E040E20C
:103DB00051E4F801628D738D848D958D0E94E132FE
:103DC0000E94FF31F8014285CE0101960E94C71D75
:103DD000BE016F5F7F4FC5010E949F30CE010196EB
:103DE0000E94CF2F20E030E040E251E4F801668DE0
:103DF000778D80A191A10E94E1320E94FF31F801EC
:103E00004485CE0101960E94C71DBE016F5F7F4FA2
:103E1000C5010E949F30CE0101960E94CF2FF8016C
:103E20006281848181116E5FF801838181116C5FF1
:103E300041E0CE0101960E94F61DBE016F5F7F4FEB
:103E4000C5010E949F30CE0101960E94CF2FC5016F
:103E500026960FB6F894DEBF0FBECDBFDF91CF918F
:103E60001F910F91FF90EF90DF90CF90BF90AF9098
:103E70009F900895FC0181818770880F8D5F089560
:103E80002F923F924F925F926F927F928F929F926A
:103E9000AF92BF92CF92DF92EF92FF920F931F9358
:103EA000CF93DF93CDB7DEB763970FB6F894DEBF3D
:103EB0000FBECDBF8C010E943A1F8150FE01399682
:103EC0009E012F5E3F4F1192E217F307E1F7288919
:103ED000AF84CE848D849C84DB84EA84B984D80149
:103EE000682F70E091E0AD01401B510B461757075A
:103EF0000CF078C08D91AE014F5F5F4FF22E20E045
:103F000030E0E82FE170E98BF82FF270FB8BE82F9F
:103F1000E4706E2EF82FF8705F2EE82FE0714E2EB1
:103F2000F82FF0723F2EE82FE0742E2EF901319712
:103F3000E730F10520F4E759FF4F0C94FE34E82FE9
:103F4000EE0FEE0BE923E9832BC0222011F09A83B8
:103F500027C01A8225C0332011F09B8321C01B8209
:103F60001FC0442011F09C831BC01C8219C0552027
:103F700011F09D8315C01D8213C0662011F09E8331
:103F80000FC01E820DC0FB89FF2311F09F8308C064
:103F90001F8206C07988772011F0988701C01886A3
:103FA000FA017190AF017A8AE72DE13009F4F72424
:103FB000F82DFF25892C8F242F5F3F4F28303105A6
:103FC00049F0EA2DAC2CCF2E9D2CDE2CEB2CBF2CF7
:103FD000FE2EACCF2A2DAC2CCF2E9D2CDE2CEB2C24
:103FE000BF2C81CFF0E82F9F9001112440E4A49EC4
:103FF000C0011124822B8B2990E2C99E90011124CB
:10400000822BE0E18E9E90011124822BF8E09F9E8E
:1040100090011124822B44E0D49E90011124822B24
:10402000EE0C8E2963960FB6F894DEBF0FBECDBF9F
:10403000DF91CF911F910F91FF90EF90DF90CF9084
:10404000BF90AF909F908F907F906F905F904F90B8
:104050003F902F900895CF92DF92EF92FF92CF93EF
:10406000DF93D62FC42F24E6829FC0011124BC0108
:10407000882777FD8095982F0E942D3220E030E030
:10408000A9010E942A316B017C018AE0D89FB0010E
:104090001124882777FD8095982F0E942D329B014F
:1040A000AC01C701B6010E942A316B017C016C2F63
:1040B00070E080E090E00E942D329B01AC01C701CE
:1040C000B6010E942A31DF91CF91FF90EF90DF90EF
:1040D000CF9008957F928F929F92AF92BF92CF928E
:1040E000DF92EF92FF920F931F93CF93DF938C0198
:1040F000EB0181E08E83188219821A821B821C8256
:104100001F82188619861A861B861C861D861E86A7
:104110001F86188A198A1A8A1B8A1C8A1D8A1E8A77
:104120001F8A188E198E1A8E1B8E1C8E1D8E1E8E47
:104130001F8E18A219A21D82C8010E943A1FF80101
:10414000E80FF11D3197F080FD82C8010E94401FE9
:10415000F8121E82F801808182958F7088838A30E0
:1041600009F01E828E81882309F4E6C0F80180815F
:104170008F70F4E08F9FC0011124F8019181929516
:10418000969596959370982B9983918181E095FFF0
:1041900080E08A83F801918181E094FF80E08C8344
:1041A000F80181818F7083FB882780F98B8381815F
:1041B00087700D5F1F4FE12CF12CC82ED12C772476
:1041C0007394EC14FD040CF0B7C0FFEFEF1AFF0A74
:1041D000F80131979081F8016081892F8F70B62E98
:1041E000B2942FE0B2226F70A62E92959F709230FB
:1041F00009F45CC030F4992311F1913009F449C0FD
:1042000098C0933009F46CC0943009F092C07C8659
:1042100070E080E1B89E600D711D1124882777FD44
:104220008095982F0E942D3220E030E040E251E44A
:104230000E9492316E8F7F8F88A399A37AC07F826C
:10424000462F6B2D0E942B2020E030E048EC53E4F9
:104250000E94293120E030E040E251E40E94923196
:104260004B015C016D877E878F87988B20E030E063
:1042700040E752E40E94DD321816B4F020E030E04E
:1042800040E252ECC501B4010E948E3187FF51C05B
:104290000BC09887462F6B2D0E942B200E94FF3168
:1042A000698B653608F445C01E8243C079866B2D44
:1042B00070E0F0E18F9F600D711D112484E0660FA6
:1042C000771F8A95E1F76A0D711D882777FD809524
:1042D000982F0E942D326A8B7B8B8C8B9D8B29C0F3
:1042E0007B867A86682F70E080E090E00E942D3215
:1042F00020E030E044EB51E40E94E1326E8B7F8B92
:10430000888F998F6A2D70E020E1B29E600D711D3B
:104310001124882777FD8095982F0E942D3220E068
:1043200030E040E251E40E9492316A8F7B8F8C8FA3
:104330009D8F0E5F1F4F45CFDF91CF911F910F9142
:10434000FF90EF90DF90CF90BF90AF909F908F90B5
:104350007F900895CF92DF92EF92FF920F931F9379
:10436000CF93DF93CDB7DEB7A2970FB6F894DEBF39
:104370000FBECDBF8C01BE016F5F7F4F0E946A20D0
:10438000C8010E943A1FC82E8F81882321F167EA55
:1043900073E08CEF95E00E94B82D7801D12CC70115
:1043A000801B910B8C159D0584F4F70161917F01B1
:1043B00040E150E08CEF95E00E94C32E60E673E090
:1043C0008CEF95E00E94B82DEACF65E572E08CEFA6
:1043D00095E00E94B82D8F81882309F4F8C066E12A
:1043E00072E08CEF95E00E94B82D67E572E08CEFEB
:1043F00095E00E94B82D40E150E069818CEF95E096
:104400000E94C32E6BE572E08CEF95E00E94B82D00
:1044100040E150E06A818CEF95E00E94C32E6CEA87
:1044200072E08CEF95E00E94B82D6B8170E04AE05D
:1044300050E08CEF95E00E94AE2E60EB73E08CEFC5
:1044400095E00E94B82D6C8170E04AE050E08CEF5E
:1044500095E00E94AE2E6AEB73E08CEF95E00E942F
:10446000B82D6D8170E04AE050E08CEF95E00E943D
:10447000AE2E6EEB72E08CEF95E00E94B82D888531
:10448000882359F04E855F856889798922E030E07C
:104490008CEF95E00E94BB2F06C062EC73E08CEFBE
:1044A00095E00E94B82D60ED72E08CEF95E00E94DF
:1044B000B82D8985882341F04AE050E06A898CEF65
:1044C00095E00E94C32E06C062EC73E08CEF95E08D
:1044D0000E94B82D66EC73E08CEF95E00E94B82D39
:1044E0008A85882359F04B895C896D897E8922E011
:1044F00030E08CEF95E00E94BB2F06C062EC73E0C9
:104500008CEF95E00E94B82D6DEC73E08CEF95E098
:104510000E94B82D8B85882369F04B8D5C8D6D8D45
:104520007E8D22E030E08CEF95E00E94BB2F63EEA1
:1045300073E002C062EC73E08CEF95E00E94B82D4E
:1045400064ED73E08CEF95E00E94B82D8C85882394
:1045500059F04F89588D698D7A8D22E030E08CEFCB
:1045600095E00E94BB2F06C062EC73E08CEF95E0F3
:104570000E94B82D6BED73E08CEF95E00E94B82D92
:104580008D85882369F04F8D58A169A17AA122E019
:1045900030E08CEF95E00E94BB2F62EE73E002C02A
:1045A00062EC73E08CEF95E00E94B82D61E872E058
:1045B0008CEF95E00E94B82D40E150E06E818CEFC9
:1045C00095E00E94C32E8CEF95E00E94C12DA2962B
:1045D0000FB6F894DEBF0FBECDBFDF91CF911F9114
:1045E0000F91FF90EF90DF90CF900895EF92FF92A0
:1045F0000F931F93CF93DF93CDB7DEB7A8970FB676
:10460000F894DEBF0FBECDBF8C017B0161E673E085
:104610000E943D30F7018081807A803AD1F4BE015A
:104620006F5F7F4FC7010E946A208F81882389F0C6
:10463000BE016F5F7F4FCE0183960E941C1EBE019C
:104640006D5D7F4FC8010E945330CE0183960E945A
:10465000CF2FC801A8960FB6F894DEBF0FBECDBF0E
:10466000DF91CF911F910F91FF90EF9008951F93CD
:10467000CF93DF9300D000D000D0CDB7DEB7BC0120
:10468000CE0101960E94F6228D819E81892B39F000
:10469000BE016F5F7F4F8CEF95E00E94D52D11E03A
:1046A0002D813E81232B09F410E0CE0101960E945A
:1046B000CF2F812F26960FB6F894DEBF0FBECDBF49
:1046C000DF91CF911F91089521E06A3872428105F0
:1046D000910509F020E0822F0895FC0120E030E0F0
:1046E00080E0A1E3919140E050E0BA01620F731FB6
:1046F0006431710534F4692F6827880F67FD8A27B4
:10470000990F4F5F5F4F4830510579F7285F3F4F52
:104710002831310539F70895FF920F931F93CF93F6
:10472000DF938C01EB0181E08B87F8018281F0E15E
:104730008F9FC0011124F801F380F294AFE0FA22B8
:10474000F82AF986C8010E946D23F8121B86F80129
:1047500080818F7389838081829586958695837009
:104760008883833009F01B86F8019181892F881F87
:104770008827881F8A83818186FB882780F98B831D
:1047800061816F73F0E16F9FB0011124F8018281A4
:1047900082958F70682B882777FD8095982F0E94CF
:1047A0002D322DEC3CEC4CEC5DE30E94E13220E03C
:1047B00030E040E252E40E9429316C837D838E8395
:1047C0009F83F80183818F708A878AE68887DF91CB
:1047D000CF911F910F91FF900895AF92BF92CF920A
:1047E000DF92EF92FF920F931F93CF93DF9300D04E
:1047F00000D000D0CDB7DEB75C018B0161E673E07D
:10480000CE0101960E943D3066EA72E0CE0101962B
:104810000E94A630F8016181CE0101960E94C93044
:1048200060E2CE0101960E94B630F80180858F7754
:10483000843610F08A3651F4F8018281882319F009
:1048400061E870E008C061E070E005C08D3709F0F4
:1048500042C062E870E0CE0101960E94F63060E24C
:10486000CE0101960E94B63020E030E040E251E4F3
:10487000F80164817581868197810E94E13220E090
:1048800030E04AE754E40E942A310E94FF31F62EBC
:10489000672FCE0101960E94C93060E2CE010196D9
:1048A0000E94B6306F2DCE0101960E94C93060E2A1
:1048B000CE0101960E94B630F801C480D580E68012
:1048C000F78020E030E040E752E4C701B6010E94E3
:1048D000DD3287FD06C061E673E0C5010E943D3010
:1048E00019C020E030E040E252ECC701B6010E945E
:1048F0008E31181684F7F801608583818111606814
:10490000CE0101960E94C930BE016F5F7F4FC50185
:104910000E946A30CE0101960E94CF2FC5012696D3
:104920000FB6F894DEBF0FBECDBFDF91CF911F91C0
:104930000F91FF90EF90DF90CF90BF90AF900895D0
:10494000EF92FF920F931F93CF93DF93CDB7DEB714
:10495000A1970FB6F894DEBF0FBECDBF7C01BE019C
:104960006F5E7F4F0E948C231D8E1E8E1F8E18A29D
:1049700019A22A89FE017D96CE01829631912317D4
:1049800009F4C0C0E817F907C9F70E94152A009179
:104990002F05109130052091310530913205601BB3
:1049A000710B820B930B9F938F937F936F9385E48F
:1049B00092E09F938F938E010F5F1F4F1F930F9372
:1049C0000E9457370E94152A60932F057093300577
:1049D0008093310590933205B8018CEF95E00E94E9
:1049E000B82D67EE73E08CEF95E00E94B82D87013B
:1049F0000FB6F894DEBF0FBECDBFE12CF12CF8014D
:104A000061918F014AE050E08CEF95E00E94C32E47
:104A100060E673E08CEF95E00E94B82DFFEFEF1A8F
:104A2000FF0A84E0E816F10451F765E572E08CEFC7
:104A300095E00E94B82D8C8D811107C06BE072E06B
:104A40008CEF95E00E94B82D59C066E172E08CEFC2
:104A500095E00E94B82D67E572E08CEF95E00E942A
:104A6000B82D4AE050E069898CEF95E00E94C32E92
:104A70006BE572E08CEF95E00E94B82D4AE050E0C3
:104A80006A898CEF95E00E94C32E6CEA72E08CEF8D
:104A900095E00E94B82D6B8970E04AE050E08CEF01
:104AA00095E00E94AE2E65EC72E08CEF95E00E94DE
:104AB000B82D6C8970E04AE050E08CEF95E00E94E0
:104AC000AE2E6EEB72E08CEF95E00E94B82D4D8912
:104AD0005E896F89788D22E030E08CEF95E00E944E
:104AE000BB2F61E872E08CEF95E00E94B82D4AE0A0
:104AF00050E06A8D8CEF95E00E94C32E8CEF95E01C
:104B00000E94C12DA1960FB6F894DEBF0FBECDBF97
:104B1000DF91CF911F910F91FF90EF900895EF9249
:104B2000FF920F931F93CF93DF93CDB7DEB76297BA
:104B30000FB6F894DEBF0FBECDBF8C017B0161E6DE
:104B400073E00E943D30F7018081807C803CD1F48D
:104B5000BE016F5F7F4FC7010E948C238C85882325
:104B600089F0BE016F5F7F4FCE010D960E94ED234D
:104B7000BE01635F7F4FC8010E945330CE010D9686
:104B80000E94CF2FC80162960FB6F894DEBF0FBE09
:104B9000CDBFDF91CF911F910F91FF90EF900895BE
:104BA0001F93CF93DF9300D000D000D0CDB7DEB7F6
:104BB000BC01CE0101960E948F258D819E81892B9B
:104BC00039F0BE016F5F7F4F8CEF95E00E94D52DCD
:104BD00011E02D813E81232B09F410E0CE010196D6
:104BE0000E94CF2F812F26960FB6F894DEBF0FBEFE
:104BF000CDBFDF91CF911F91089521E069357344B6
:104C00008105910509F020E0822F089580916305C8
:104C100090E020916405821B91090895209164051C
:104C200080916305281750F4E22FF0E0EB59FA4F1A
:104C3000808190E02F5F2093640508958FEF9FEFB0
:104C40000895E091640580916305E81730F4F0E081
:104C5000EB59FA4F808190E008958FEF9FEF089510
:104C60000895CF92DF92EF92FF920F931F93CF930D
:104C7000DF937C01CB018A0120913F05222389F03B
:104C8000EB016B01C40ED51ECC15DD0569F06991F1
:104C9000D701ED91FC910190F081E02DC7010995BC
:104CA000F3CF642F0E949227C801DF91CF911F910B
:104CB0000F91FF90EF90DF90CF900895CF93DF9307
:104CC0001F92CDB7DEB7698320913F052223D1F033
:104CD00020914005203240F021E030E0FC01338398
:104CE000228380E090E015C080914105E82FF0E03C
:104CF000EE5BFA4F998190838F5F8093410580939B
:104D0000400505C061E0CE0101960E94922781E036
:104D100090E00F90DF91CF910895FC0113821282F1
:104D200048EE53E060E070E0448355836683778308
:104D300084EF93E09183808308951092640510922C
:104D4000630510924105109240050C94DD26862FD4
:104D5000413208F040E265E675E00E94FB261092C1
:104D6000640580936305089521E00C94A72681E0F3
:104D700080933F05609362051092410510924005B3
:104D800008950C94B7260F93062F21E0409140051B
:104D900062E475E0809162050E943F271092410510
:104DA0001092400510923F050F91089561E00C9418
:104DB000C32683E395E00C948D261092F20581E0E2
:104DC0008093F0051092EF0561E082E10E94132BC1
:104DD00061E083E10E94132BE9EBF0E080818E7F9C
:104DE000808380818D7F808388E48093B80085E410
:104DF0008093BC000895413208F03FC09091F205C5
:104E00009111FCCF91E09093F2052093F0052FEFE4
:104E1000209385051092CA05240F2093C90590930D
:104E2000F1059091F105880F892B8093F105809110
:104E3000EF05813041F41092EF058091F1058093E8
:104E4000BB0085EC01C085EE8093BC008091F2052B
:104E50008130E1F38091CA05841710F44091CA05AE
:104E60002BEC35E0FB01D9018A2F821B841718F443
:104E70008D918193F9CF842F089580E008950F9349
:104E8000413208F046C09091F2059111FCCF92E0BA
:104E90009093F2050093F0059FEF90938505109293
:104EA000CA054093C905FB016BEC75E0DB019A2F45
:104EB000961B941718F491919D93F9CF1092F105D8
:104EC0009091F105880F892B8093F1058091EF0572
:104ED000813041F41092EF058091F1058093BB0081
:104EE00085EC01C085EE8093BC00222321F08091E7
:104EF000F2058230E1F3809185058F3F61F080916A
:104F00008505803251F080918505803341F483E03E
:104F100007C081E005C080E003C082E001C084E0FA
:104F20000F910895613298F42091F205243089F4AC
:104F30006093A705FC0189EA95E0DC012A2F281B74
:104F4000261718F421912D93F9CF80E0089581E080
:104F5000089582E0089585ED8093BC008091BC00A7
:104F600084FDFCCF1092F205089585EC8093BC007F
:104F70001092F20508951F920F920FB60F9211240E
:104F80002F933F934F935F936F937F938F939F9351
:104F9000AF93BF93EF93FF938091B900887F8036E2
:104FA00009F49CC068F5883209F45BC090F4803144
:104FB00009F454C038F4882309F4F5C0883009F4A2
:104FC0004DC0F5C0883109F44CC0803209F45DC091
:104FD000EEC0803409F468C048F4803309F455C049
:104FE000883309F0E4C080938505A8C0803509F4B2
:104FF0004FC0883509F45DC0883409F0D8C0D5C0E9
:10500000883909F4C6C0A8F4883709F467C038F4B1
:10501000883609F463C0803709F460C0C8C0883896
:1050200009F4B7C0803909F45FC0803809F0BFC007
:105030005BC0803B09F485C038F4803A09F466C04F
:10504000883A09F47EC0B3C0803C09F4A6C0883C0D
:1050500009F4A3C0883B09F489C0A9C08091F10577
:1050600010C09091CA058091C905981770F5E0911C
:10507000CA0581E08E0F8093CA05F0E0E553FA4F30
:1050800080818093BB0085EC85C0809385058DC0B1
:10509000E091CA0581E08E0F8093CA058091BB0024
:1050A000F0E0E553FA4F80839091CA058091C905DD
:1050B0006DC0E091CA0581E08E0F8093CA05809192
:1050C000BB00F0E0E553FA4F80838091F005811139
:1050D0006CC081E08093EF0584EA60C083E0809338
:1050E000F20510928605CFCF80918605803208F0B8
:1050F00050C0E091860581E08E0F809386058091F7
:10510000BB00F0E0E957FA4F8083BDCF8091860560
:10511000803230F4E0918605F0E0E957FA4F1082D2
:105120000E94AB276091860570E0E091EB05F0915D
:10513000EC0587E895E00995109286050E94B52751
:1051400036C084E08093F2051092A8051092A7055E
:10515000E091ED05F091EE0509958091A70581118B
:1051600005C081E08093A7051092A905E091A805EC
:1051700081E08E0F8093A805F0E0E755FA4F80811B
:105180008093BB009091A8058091A705981708F41B
:105190007ACF85E88093BC000AC085EC8093BC0080
:1051A0001092F20504C0109285050E94AB27FF9172
:1051B000EF91BF91AF919F918F917F916F915F918F
:1051C0004F913F912F910F900FBE0F901F90189508
:1051D00020E030E040E0FC015191CF01450F2F5F0E
:1051E0003F4F26303105B9F781E0411180E0089545
:1051F000CF92DF92EF92FF920F931F93CF93DF93A3
:105200008C01EB0181E08B87F801808188838581A7
:105210008A87C8010E94E8288B87F8019181292F8D
:105220002F70907392959F7009F494E0F0E19F9F26
:10523000C0011124822B8983F801628170E06253DE
:105240007109882777FD8095982F0E942D3220E0E4
:1052500030E040E251E40E94E1326B017C01F80150
:10526000638170E080E090E00E942D329B01AC01F0
:10527000C701B6010E942A3120E030E040E251E44B
:105280000E9492316C837D838E839F83F801848199
:105290008987818190E026E0959587952A95E1F7A9
:1052A00021E0892B09F420E02887DF91CF911F911D
:1052B0000F91FF90EF90DF90CF900895EF92FF92C3
:1052C0000F931F93CF93DF93CDB7DEB762970FB6DF
:1052D000F894DEBF0FBECDBF8C017B0161E673E0A9
:1052E0000E943D30F70180818135D1F4BE016F5FAE
:1052F0007F4FC7010E94F8288C85882389F0BE0162
:105300006F5F7F4FCE010D960E943712BE01635F23
:105310007F4FC8010E945330CE010D960E94CF2FBF
:10532000C80162960FB6F894DEBF0FBECDBFDF9105
:10533000CF911F910F91FF90EF9008951F93CF93FE
:10534000DF9300D000D000D0CDB7DEB7BC01CE01D6
:1053500001960E945E298D819E81892B39F0BE01C4
:105360006F5F7F4F8CEF95E00E94D52D11E02D816E
:105370003E81232B09F410E0CE0101960E94CF2F2D
:10538000812F26960FB6F894DEBF0FBECDBFDF91FA
:10539000CF911F9108951F920F920FB60F92112473
:1053A0002F933F938F939F93AF93BF938091F40577
:1053B0009091F505A091F605B091F7053091F305B0
:1053C00023E0230F2D3720F40196A11DB11D05C048
:1053D00026E8230F0296A11DB11D2093F3058093AB
:1053E000F4059093F505A093F605B093F705809129
:1053F000F8059091F905A091FA05B091FB05019689
:10540000A11DB11D8093F8059093F905A093FA05AD
:10541000B093FB05BF91AF919F918F913F912F91D9
:105420000F900FBE0F901F9018952FB7F8946091B2
:10543000F4057091F5058091F6059091F7052FBF61
:1054400008953FB7F8948091F8059091F905A091DF
:10545000FA05B091FB0526B5A89B05C02F3F19F0B2
:105460000196A11DB11D3FBF6627782F892F9A2F66
:10547000620F711D811D911D42E0660F771F881F0D
:10548000991F4A95D1F70895CF92DF92EF92FF923C
:10549000CF93DF936B017C010E94212AEB01C114A1
:1054A000D104E104F10489F00E9428310E94212AEC
:1054B0006C1B7D0B683E734090F381E0C81AD108E5
:1054C000E108F108C851DC4FEACFDF91CF91FF909E
:1054D000EF90DF90CF900895019739F0880F991FD2
:1054E000880F991F02970197F1F70895789484B572
:1054F000826084BD84B5816084BD85B5826085BDD0
:1055000085B5816085BDEEE6F0E0808181608083B5
:10551000E1E8F0E010828081826080838081816098
:105520008083E0E8F0E0808181608083E1EBF0E05F
:10553000808184608083E0EBF0E080818160808303
:10554000EAE7F0E0808184608083808182608083EC
:105550008081816080838081806880831092C10017
:105560000895833081F028F4813099F08230A1F0E1
:1055700008958730A9F08830B9F08430D1F4809153
:1055800080008F7D03C0809180008F7780938000A2
:10559000089584B58F7702C084B58F7D84BD08954A
:1055A0008091B0008F7703C08091B0008F7D809391
:1055B000B0000895CF93DF9390E0FC01EA58FE4FCE
:1055C0002491FC01E657FE4F8491882349F190E035
:1055D000880F991FFC01EE54FE4FA591B491885598
:1055E0009E4FFC01C591D4919FB7611108C0F894FA
:1055F0008C91209582238C93888182230AC062300B
:1056000051F4F8948C91322F309583238C938881B8
:10561000822B888304C0F8948C91822B8C939FBF3B
:10562000DF91CF9108950F931F93CF93DF931F9234
:10563000CDB7DEB7282F30E0F901EE59FE4F849147
:10564000F901EA58FE4F1491F901E657FE4F049113
:105650000023C9F0882321F069830E94B12A69815F
:10566000E02FF0E0EE0FFF1FE855FE4FA591B4913B
:105670009FB7F8948C91611103C01095812301C0EC
:10568000812B8C939FBF0F90DF91CF911F910F9132
:105690000895CF93DF93282F30E0F901EE59FE4FA4
:1056A0008491F901EA58FE4FD491F901E657FE4F73
:1056B000C491CC2391F081110E94B12AEC2FF0E02B
:1056C000EE0FFF1FE256FE4FA591B4912C912D23B2
:1056D00081E090E021F480E002C080E090E0DF9182
:1056E000CF910895FC01818D228D90E0805C9F4FC9
:1056F000821B91098F7399270895FC01918D828DEA
:10570000981731F0828DE80FF11D858D90E0089596
:105710008FEF9FEF0895FC01918D828D981761F0B6
:10572000828DDF01A80FB11D5D968C91928D9F5FD8
:105730009F73928F90E008958FEF9FEF08958FE011
:105740009DE2892B49F080E090E0892B29F00E94AE
:105750000F2D81110C9400000895FC01848DDF0150
:10576000A80FB11DA35ABF4F2C91848D90E00196D4
:105770008F739927848FA689B7892C93A089B189C3
:105780008C9180648C93938D848D981306C00288CD
:10579000F389E02D80818F7D80830895CF93DF93FF
:1057A000EC01888D8823C9F0EA89FB89808185FD19
:1057B00005C0A889B9898C9186FD0FC00FB607FC7A
:1057C000F5CF808185FFF2CFA889B9898C9185FFBB
:1057D000EDCFCE010E94AD2BE7CFDF91CF910895A1
:1057E000CF92DF92FF920F931F93CF93DF931F927D
:1057F000CDB7DEB76C01DC015B969C915B975C9644
:105800008C915C97981307C05096ED91FC9151973D
:10581000808185FD32C0F601038D10E00F5F1F4FC0
:105820000F731127F02EF601848DF81211C00FB6F8
:1058300007FCF9CFD6015096ED91FC9151978081EC
:1058400085FFF1CFC60169830E94AD2B6981EBCF43
:10585000838DE80FF11DE35AFF4F6083D6015B96FD
:105860000C935B975296ED91FC91539780818062E7
:10587000808381E058968C930DC0D6015696ED91A9
:10588000FC91579760835096ED91FC9151978081E0
:105890008064808381E090E00F90DF91CF911F9131
:1058A0000F91FF90DF90CF900895BF92CF92DF923B
:1058B000EF92FF92CF93DF93EC016A017B01B22E4E
:1058C000E889F98982E08083411581EE58076105F6
:1058D0007105A1F060E079E08DE390E0A701960109
:1058E0000E94BD342150310941095109569547950F
:1058F00037952795211580E1380798F0E889F989CF
:10590000108260E874E88EE190E0A70196010E94A1
:10591000BD342150310941095109569547953795B4
:105920002795EC85FD853083EE85FF852083188ED5
:10593000EC89FD89B082EA89FB898081806180835E
:10594000EA89FB89808188608083EA89FB8980817C
:1059500080688083EA89FB8980818F7D8083DF91E5
:10596000CF91FF90EF90DF90CF90BF9008951F925E
:105970000F920FB60F9211242F938F939F93EF9353
:10598000FF93E0910C06F0910D068081E0911206E4
:10599000F091130682FD12C09081809115068F5FF1
:1059A0008F7320911606821751F0E0911506F0E0F2
:1059B000E450FA4F958F8093150601C08081FF91C6
:1059C000EF919F918F912F910F900FBE0F901F908D
:1059D00018951F920F920FB60F9211242F933F9399
:1059E0004F935F936F937F938F939F93AF93BF93E7
:1059F000EF93FF938CEF95E00E94AD2BFF91EF9119
:105A0000BF91AF919F918F917F916F915F914F91D6
:105A10003F912F910F900FBE0F901F9018958CEF14
:105A200095E00E94722B21E0892B09F420E0822F5F
:105A300008951092FF051092FE0588EE93E0A0E015
:105A4000B0E08093000690930106A0930206B09305
:105A5000030684E094E09093FD058093FC0585ECBB
:105A600090E0909309068093080684EC90E0909370
:105A70000B0680930A0680EC90E090930D068093CD
:105A80000C0681EC90E090930F0680930E0682EC5A
:105A900090E0909311068093100686EC90E090932E
:105AA0001306809312061092150610921606109295
:105AB000170610921806089508950E94762A0E94EB
:105AC0005C2D0E94C404CFE9DBE20E947D05209793
:105AD000E1F30E949F2BF9CFCF92DF92EF92FF92DA
