:100000000C94BB010C94E3010C94E3010C94E30108
:100010000C94E3010C94E3010C94E3010C94E301D0
:100020000C94E3010C94E3010C94E3010C94E301C0
:100030000C94E3010C94E3010C94E3010C94E301B0
:100040000C9413120C94E3010C94E4130C943214EA
:100050000C94E3010C94E3010C94E3010C94E30190
:100060000C94E3010C94E3010A417661696C6162CE
:100070006C6520636F6D6D616E64733A0A20203C7D
:100080006E3E6120202020202020202020202020C3
:1000900020202020202020202D2061637469766993
:1000A0007479204C45442028303D6F66662C203101
:1000B0003D6F6E290A20203C6E3E642020202020C7
:1000C0002020202020202020202020202020202030
:1000D0002D204445425547206D6F64652028303DF2
:1000E000737570707265737320545820616E64204C
:1000F000626164207061636B657473290A20203C1F
:100100006E3E722020202020202020202020202031
:1001100020202020202020202D2064617461207266
:100120006174652028303D31372E323431206B62C6
:1001300070732C20313D392E353739206B62707346
:10014000290A20203C6E6E6E6E6E6E3E6620202068
:10015000202020202020202020202020202D20664C
:1001600072657175656E6379202835206B487A2039
:10017000737465707320652E672E203836383331DE
:1001800035290A20203C6E3E74202020202020208B
:1001900020202020202020202020202020202D2052
:1001A000746F67676C652064617461207261746547
:1001B00020696E74657276616C6C2028303D6E6FBC
:1001C00020746F67676C652C203E303D7365636FEC
:1001D0006E6473290A20203C6E3E76202020202069
:1001E000202020202020202020202020202020200F
:1001F0002D2076657273696F6E20616E6420636F67
:100200006E66696775726174696F6E207265706F72
:1002100072740A20203C6E3E78202020202020206E
:1002200020202020202020202020202020202D20C1
:100230007573656420666F722074657374730A2029
:10024000203C7431303E2C3C74313E2C3C74303EAA
:100250002C3C68756D3E632020202D207365742032
:1002600074656D706572617475726520616E64206D
:1002700068756D696469747920666F722074726143
:100280006E736D69740A20203C69643E2C3C696E73
:10029000743E2C3C6E62743E2C3C64723E6920209D
:1002A000202D207365742074686520706172616D03
:1002B000657465727320666F72207468652074724D
:1002C000616E736D6974206C6F6F700A20206231EB
:1002D0002C62322C62332C623473202020202020A8
:1002E000202020202020202D2073656E642074683B
:1002F0006520706173736564206279746573207022
:100300006C7573207468652063616C63756C6174CF
:100310006564204352430000000000240027002AA7
:100320000000000000250028002B00000000002332
:100330000026002900040404040404040402020248
:100340000202020303030303030102040810204016
:10035000800102040810200102040810200000009F
:100360000700020100000304060000000000000076
:10037000000045029E1511241FBECFEFD8E0DEBF5E
:10038000CDBF13E0A0E0B1E0EAE6FEE302C00590D5
:100390000D92AA3BB107D9F715E0AAEBB3E001C073
:1003A0001D92A630B107E1F713E0C6E7D3E004C021
:1003B0002297FE010E942F1FC237D107C9F70E9462
:1003C000F4150C94331F0C940000FB01DC0102C0F7
:1003D00001900D9241505040D8F70895FB01DC0187
:1003E00001900D920020E1F70895FB019F01E89430
:1003F0004230C4F04532B4F44A3029F497FB1EF47D
:10040000909581959F4F642F77270E94191F805DDB
:100410008A330CF0895D8193CB010097A1F716F424
:100420005DE251931082C9010C941602DC01FC01BB
:10043000672F71917723E1F7329704C07C916D9318
:1004400070836291AE17BF07C8F308951F93CF93CF
:10045000DF93C8E6D0E0FE0121961491112369F0E4
:100460001A3029F480EE94E06DE00E942D1680EEA3
:1004700094E0612F0E942D16EECF80EE94E00E9452
:100480003516DF91CF911F910895CF92DF92EF92B1
:100490000F9343E2C42E44E0D42EC6016BE04CE03F
:1004A0002DE00AE032E0E32E0E948E098EE294E015
:1004B0000E94C5118FE294E0B6010E9476060F916A
:1004C000EF90DF90CF90089580EE94E060E071E0CF
:1004D0000E94721780EE94E063E071E00E94721750
:1004E00080EE94E06EE20E942D1680EE94E068E1CA
:1004F00071E00E94721780EE94E06EE171E00E945C
:1005000072178091BB039091BC03892BA9F080EEF8
:1005100094E061E271E00E9472176091BB037091F8
:10052000BC0380EE94E04AE050E00E94FC1680EEAE
:1005300094E06DE271E00DC080919E0390919F0365
:10054000839719F066E371E002C062E471E080EE27
:1005500094E00E94721780EE94E06DE471E00E94D6
:10056000721783E294E00E943E07AB01BC0180EE6B
:1005700094E02AE030E00E94ED1680EE94E061E520
:1005800071E00E94721780EE94E06DE50E945516AE
:1005900008950F931F93DF93CF93CDB7DEB7619785
:1005A0000FB6F894DEBF0FBECDBF182F84E18F8346
:1005B00081E088871986612F70E080E090E00E94DA
:1005C0004A1D6A877B878C879D871E861F8780913F
:1005D000BA03882379F180EE94E066E571E00E9429
:1005E00072174A855B856C857D8580EE94E022E0FC
:1005F00030E00E94591880EE94E06DE571E00E94B1
:10060000721780EE94E06F854AE050E00E940D176B
:1006100080EE94E061E671E00E947217688580EEDA
:1006200094E070E04AE050E00E945F1780EE94E0B2
:100630000E943516CE0106968E010F5F1F4FB8013E
:100640000E94C00B83E294E0B80145E00E941F09BC
:1006500083E294E061E00E94290861960FB6F89465
:10066000DEBF0FBECDBFCF91DF911F910F910895D7
:10067000DF92EF92FF920F931F93CF93DF93EC01E2
:100680006430B9F5D8802D2D30E02F733070B9016A
:10069000E3E0660F771FEA95E1F7220F331F620F41
:1006A000731F2981620F711D882777FD8095982F10
:1006B0000E944C1D7B018C016A8170E0882777FDC8
:1006C0008095982F0E944C1D2DEC3CEC4CEC5DE38A
:1006D0000E945E1E9B01AC01C801B7010E94491C2B
:1006E000AB01BC01D7FC70588FE294E02B810E94D3
:1006F000B106DF91CF911F910F91FF90EF90DF90A6
:100700000895AF92BF92CF92DF92EF92FF920F9334
:100710001F93CF93DF93EC01643079F5A8801981A2
:10072000BA800E945B126B017C018B81882319F0D7
:10073000C3E2D0E002C0C3E1D0E004E6109F800134
:1007400011246B2D70E080E090E020E63AEE40E06E
:1007500050E00E94C51EC60ED71EE81EF91E8FE28D
:1007600094E06A2DA80121E0870176016E010E94C4
:1007700099068FE294E061E008C0613041F488811D
:10078000882329F48FE294E060E00E949606DF91CE
:10079000CF911F910F91FF90EF90DF90CF90BF907E
:1007A000AF900895CF93DF93EC016430A1F483E21E
:1007B00094E060E00E942908CE010E94AF0A8C8379
:1007C00083E294E0BE0145E00E941F0983E294E0C9
:1007D00061E00E942908DF91CF9108951F93182F9F
:1007E0001092BA03882319F081E08093BA03812F15
:1007F0000E94E209812F0E94E20983E294E0612FC6
:100800000E9493081F91089580EE94E040E051EE1D
:1008100060E070E00E946D1468EC70E080E090E0B1
:100820000E9469128091BA03882331F080EE94E02F
:1008300066E671E00E946F188091BA030E94EE0391
:1008400010924E048EE294E061E00E94DC110E945E
:100850005B126093BD037093BE038093BF039093BC
:10086000C00383E294E00E949A084091A003509153
:10087000A1036091A2037091A30383E294E00E941C
:100880004F0860919E0370919F0383E294E00E9461
:100890006C088FE294E060E00E94960683E294E0A8
:1008A00061E00E9429088091BA03882331F080EE2C
:1008B00094E069EA71E00E946F180E946402089552
:1008C0001F93182F8C3269F48091E103E82FF0E038
:1008D000EF53FC4F9091490490838F5F8093E10325
:1008E000DCC080538A3028F56091490470914A0435
:1008F00080914B0490914C042AE030E040E050E0BD
:100900000E94C51E6053704080409040212F3327C5
:1009100027FD3095432F532F260F371F481F591F90
:100920002093490430934A0440934B0450934C0461
:10093000C4C0812F81568A3108F0B8C0193609F435
:1009400077C01A367CF4133609F485C0143624F4C3
:10095000113609F09EC022C01436B1F0163609F0E7
:1009600098C08AC0143709F446C0153734F41237DA
:1009700041F1133709F08DC04AC0163709F444C05D
:10098000183709F086C005C0809149040E94EE0323
:1009900084C0809149040E94C9027FC060E08091B8
:1009A000490490914A04A0914B04B0914C040097E3
:1009B000A105B10509F061E08EE294E00E94DC112E
:1009C0006CC08091490490914A04A0914B04B0916D
:1009D0004C040097A105B10519F463E170E002C071
:1009E00063E270E070939F0360939E0383E294E060
:1009F0000E946C0852C08091490490914A049093DF
:100A0000BC038093BB0349C00E94640246C060914E
:100A1000E103E62FF0E0EF53FC4F8091490480831F
:100A20006F5F6093E10381EC93E00E94D20310C0FA
:100A30006091E103E62FF0E0EF53FC4F8091490411
:100A400080836F5F6093E10381EC93E00E948103F8
:100A50001092E10322C06091E103E62FF0E0EF5332
:100A6000FC4F8091490480836F5F6093E10381ECC8
:100A700093E00E943803ECCF4091490450914A041E
:100A800060914B0470914C0483E294E00E944F0803
:100A900004C00E9464020E9426021092490410922F
:100AA0004A0410924B0410924C0407C011521032A9
:100AB00020F40E9464020E9426021F910895EF9282
:100AC000FF920F931F93CF93DF9380EE94E00E94E9
:100AD000F414892B31F080EE94E00E9425150E94D9
:100AE00060048091BB039091BC03892B09F45BC027
:100AF0000E945B122091BD033091BE034091BF0361
:100B00005091C003621773078407950740F4109251
:100B1000BD031092BE031092BF031092C0030E9447
:100B20005B124091BB035091BC0328EE33E0F90106
:100B30004E9F90014F9F300D5E9F300D112440E07D
:100B400050E0E090BD03F090BE030091BF03109110
:100B5000C0032E0D3F1D401F511F261737074807A2
:100B6000590708F580919E0390919F03839719F48C
:100B700083E190E002C083E290E090939F03809332
:100B80009E0360919E0370919F0383E294E00E9414
:100B90006C080E945B126093BD037093BE03809348
:100BA000BF039093C0038FE294E00E94B8068823AD
:100BB00061F08EE294E062E00E94E31183E294E04F
:100BC00061E00E9429081092220483E294E00E94CE
:100BD00000098823C1F01091220483E294E00E946E
:100BE0001A08E12FF0E0EE51FC4F80831F5F109355
:100BF00022040E945B126093450470934604809324
:100C000047049093480480912204882399F00E941D
:100C10005B12209145043091460440914704509165
:100C200048042E5C3F4F4F4F5F4F2617370748074A
:100C3000590728F080912204803208F450C083E2E2
:100C400094E060E00E9429088EE294E061E00E9456
:100C5000E3118091BA03882329F180EE94E06CEDD2
:100C600071E00E947217C0E0D0E011C0FE01EE51A9
:100C7000FC4F80EE94E0608140E150E00E940D174F
:100C800080EE94E06BEF71E00E94721721968091E4
:100C9000220490E00197C817D90744F380EE94E04E
:100CA0000E94351682EE93E00E94610B882381F446
:100CB00082EE93E00E94930E882351F482EE93E03B
:100CC0000E948F10882321F482EE93E00E94681125
:100CD0001092220483E294E061E00E942908DF91EF
:100CE000CF911F910F91FF90EF900895FC017183B8
:100CF0006083128283E190E0948383831582118A5A
:100D000080E090E0A0E0B0E085879687A787B08B71
:100D100080EA9FE097838683128A138A148A158A51
:100D2000148610861186128613860895FC0162834C
:100D30000895CF92DF92EF92FF920F931F93FC01E1
:100D40006583578346832487E086F186028713876D
:100D5000D482C3821F910F91FF90EF90DF90CF90CC
:100D60000895FC01458756876787708B218B08950E
:100D7000CF92DF92EF92FF920F931F93DF93CF9367
:100D8000CDB7DEB761970FB6F894DEBF0FBECDBF0B
:100D90006C01FC018281882309F460C00E945B120F
:100DA000F6012681378140E050E0E288F38804892B
:100DB00015892E0D3F1D401F511F621773078407B1
:100DC000950708F44BC00E945B12F601628B738B8F
:100DD000848B958B8485882369F00E945B12F601D1
:100DE00020853185428553856217730784079507EF
:100DF00008F01486F60185818F838485888719869B
:100E000085859685A785B0898A879B87AC87BD87AE
:100E10001E8681898F87808191810E9444077C0191
:100E2000F60163817481808191810E946C08CE01FA
:100E300006968E010F5F1F4FB8010E94C00BF6018E
:100E400080819181B80145E00E941F09F6018081EF
:100E50009181B7010E946C0881E001C080E0619639
:100E60000FB6F894DEBF0FBECDBFCF91DF911F91BB
:100E70000F91FF90EF90DF90CF900895FC01678174
:100E80007085818592850895FC01868190E00895A2
:100E9000EF92FF920F931F93CF93DF93DC01119694
:100EA000EC9111978E2F90E0FC01EB5CFC4FE491EC
:100EB000F0E0EE0FFF1FE55DFC4F05911491875B9D
:100EC0009C4FFC0144911396EC9113972E2F30E028
:100ED000F901EB5CFC4FE4918E2F90E0880F991F95
:100EE0008F5D9C4FFC01C591D4918881275B3C4F5D
:100EF000F901949190958923888350E0C42FD0E024
:100F0000EC9177FF17C02E2F30E0F901EB5CFC4F1E
:100F1000E4918E2F90E0880F991F8F5D9C4FFC010C
:100F2000E590F490F7018081275B3C4FF9019491A3
:100F3000892B17C02E2F30E0F901EB5CFC4FE491B8
:100F40008E2F90E0880F991F8F5D9C4FFC01E590DC
:100F5000F490F7018081275B3C4FF90194919095C3
:100F60008923F7018083660F771FF801808190E065
:100F70008C239D23892B09F061601296EC911297C6
:100F80002E2F30E0F901EB5CFC4FE4918E2F90E0C6
:100F9000880F991F8F5D9C4FFC01E590F490F7013D
:100FA0008081275B3C4FF9019491892BF701808365
:100FB000000000001296EC9112972E2F30E0F901FC
:100FC000EB5CFC4FE4918E2F90E0880F991F8F5DB2
:100FD0009C4FFC01E590F490F7018081275B3C4F2A
:100FE000F901949190958923F70180835F5F5031D7
:100FF00009F086CF13968C91282F30E0F901EB5C35
:10100000FC4FE4918E2F90E0880F991F8F5D9C4FCD
:10101000FC01A591B4918C91275B3C4FF90194910F
:10102000892B8C93CB01DF91CF911F910F91FF9072
:10103000EF90089560E070EB0E94480708956623E2
:1010400019F068E372E802C068E072E80E9448079D
:1010500008951F93CF93DF93EC016623C1F068ECF2
:1010600072E80E944807CE0161E87AEC0E944807C6
:10107000CE0163E87AEC0E94480710E0CE0160E000
:1010800070EB0E9448071F5F1233C1F704C068E08D
:1010900072E80E944807DF91CF911F9108950F9346
:1010A0001F938C01FC0147835087618772874056EC
:1010B0005F416D407040CB01BA0125E030E040E077
:1010C00050E00E94F71E20503046C801B9010E942E
:1010D00048071F910F910895FC01668370E0766CBC
:1010E0000E9448070895CF93DF93EC01CE0160E0A2
:1010F00070E00E94480797FFF9CFDF91CF910895E4
:10110000EF92FF920F931F937C01062F0E947308AA
:1011100010E0186BC701B8010E9448071F910F919A
:10112000FF90EF900895FC011582662311F081E095
:10113000858308950F931F93CF93DF93EC018B81E9
:1011400061E00E943C1300E010E06AE070E080E0A3
:1011500090E00E9469120F5F1F4F0A301105A9F736
:10116000CE0168E072E80E944807CE0168EE70E8A0
:101170000E9448076E8170E0766CCE010E9448079D
:10118000CE016AE672EC0E944807CE0162E17AEC79
:101190000E944807CE0164ED7EEC0E944807CE0114
:1011A0006FE974EC0E944807CE0160EA74E90E947E
:1011B0004807CE0167E77CEC0E944807CE0160E556
:1011C00078E90E944807CE0160E070EE0E9448076F
:1011D000CE0160E078EC0E944807CE0160E470EC3C
:1011E0000E94480710E0CE0160E070EB0E944807C3
:1011F0001F5F1233C1F7DF91CF911F910F910895B7
:10120000EF92FF920F931F938C01FC01838160E0AA
:101210000E943C1300000000F80181810E9490139D
:101220007C01F801838161E00E943C1380E0EF289B
:1012300009F081E01F910F91FF90EF900895BF9208
:10124000CF92DF92EF92FF920F931F93CF93DF9392
:101250008C016B01B42EFC018581882319F180EE8D
:1012600094E06DEF71E00E947217C0E0D0E0EB2CCB
:10127000FF2411C0F601EC0FFD1F80EE94E06081A9
:101280004AE050E00E940D1780EE94E06CE072E0BE
:101290000E9472172196CE15DF0564F380EE94E06C
:1012A0000E943516C80161E00E941F08C8016AEA61
:1012B0000E948008C8016AEA0E948008C8016AEAA0
:1012C0000E948008C8016DE20E948008C80164ED98
:1012D0000E948008C0E0D0E0EB2CFF2408C0F6019B
:1012E000EC0FFD1FC80160810E9480082196CE1579
:1012F000DF05ACF361E070E080E090E00E946912ED
:10130000C80160E00E941F08DF91CF911F910F91EB
:10131000FF90EF90DF90CF90BF900895CF92DF9233
:10132000EF920F936C01862FF60160834183228335
:101330000383E482158293E19683178210861186D7
:10134000128661E00E94FD12F601818160E00E9438
:10135000FD12F601828161E00E94FD12F601838197
:1013600061E00E94FD12F601848160E00E94FD129E
:101370000F91EF90DF90CF900895CF93DF93EC0122
:1013800040E050E070E0A62FB0E091E314C0FE0111
:10139000E40FF51FE08120E030E08E2F8727770FE4
:1013A00087FD79272F5F3F4F2830310511F0EE0F71
:1013B000F4CF4F5F5F4F4A175B074CF3872FDF91E6
:1013C000CF91089510924D04882319F081E0809305
:1013D0004D0408958F929F92AF92BF92CF92DF9269
:1013E000EF92FF920F931F93DF93CF93CDB7DEB7AA
:1013F00027970FB6F894DEBF0FBECDBF4C015B013F
:101400008E010F5F1F4FC8016EE072E00E94F0195D
:10141000C8016FE072E00E94AD19C801F501618159
:101420000E946E19C80160E20E949A19F501918527
:10143000943640F09A3631F0892F8058843610F077
:101440009A3E71F4F5018281882319F461E070E01D
:1014500002C061E870E08E010F5F1F4FC8010BC032
:101460009D3719F09D3F09F04DC08E010F5F1F4F52
:10147000C80162E870E00E943D19C80160E20E9464
:101480009A19F501648175818681978120E030E0A9
:1014900040E251E40E945E1E20E030E04AE754E45E
:1014A0000E94491C0E941E1D6B017C018E010F5F72
:1014B0001F4FC8016D2D0E946E19C80160E20E9485
:1014C0009A19C8016C2D0E946E19C80160E20E9431
:1014D0009A19F501E480F58006811781C801B701EA
:1014E00020E030E040E752E40E945A1E87FF0AC025
:1014F000C801B70120E030E040E252EC0E94AD1C90
:10150000181634F0C4016EE072E00E94F0190FC0AA
:10151000F50161858085811160688E010F5F1F4F25
:10152000C8010E946E19C401B8010E94211ACE019F
:1015300001960E942C1AC40127960FB6F894DEBFBC
:101540000FBECDBFCF91DF911F910F91FF90EF9014
:10155000DF90CF90BF90AF909F908F90089564E000
:101560000E94BD0908958F929F92AF92BF92CF9231
:10157000DF92EF92FF920F931F93CF93DF934C0173
:10158000EB0181E08B87F40114811A87C4010E946A
:10159000AF0A18131B861982F401808190E08F70C6
:1015A0009070880F991F880F991F982F89838091B9
:1015B0004E042181882311F0207C04C022952695B9
:1015C00026952370922B9983F401808182958F70E8
:1015D0008883893009F01B8690E0F401818185FDC4
:1015E00091E09A8390E0F401818184FD91E09B83F6
:1015F000F401E28061816F7070E0882777FD80954B
:10160000982F0E944C1D20E030E048EC52E40E94EC
:101610005E1E20E030E040E050E00E94491C5B018B
:101620006C016E2D62956F7070E0882777FD809554
:10163000982F0E944C1D20E030E040E251E40E94CF
:101640005E1E9B01AC01C601B5010E94491C5B01F5
:101650006C01FFE0EF22FF240027F7FC0095102F1C
:10166000C801B7010E944C1D9B01AC01C601B50128
:101670000E94491C20E030E040E251E40E94B11C8D
:1016800020E030E040E252E40E94481C6C837D83FD
:101690008E839F8390E0F401838187FD91E098879A
:1016A000F40183818F778987DF91CF911F910F910B
:1016B000FF90EF90DF90CF90BF90AF909F908F9072
:1016C0000895CF92DF92EF92FF920F931F93DF93D3
:1016D000CF93CDB7DEB76A970FB6F894DEBF0FBED3
:1016E000CDBF8C016E010894C11CD11CC6016EE0F7
:1016F00072E00E94F019F801808182958F70893024
:1017000029F53FE0E32EF12CEC0EFD1EC801B701D8
:101710000E94B30A8A8D882371F08E01085F1F4FE3
:10172000C801B7010E94EA09C601B8010E940A1A5D
:10173000C8010E942C1A8D819E81892B39F080EE80
:1017400094E0BE016F5F7F4F0E94B51810E08D815D
:101750009E81892B09F011E0CE0101960E942C1A7E
:10176000812F6A960FB6F894DEBF0FBECDBFCF9122
:10177000DF911F910F91FF90EF90DF90CF90089530
:101780008F929F92AF92BF92CF92DF92EF92FF9291
:101790000F931F93CF93DF934C01EB0180E090E018
:1017A000FE01E80FF91F1082019685309105C1F7FF
:1017B00080E98883F4018181869586958069888394
:1017C000818190E056E0880F991F5A95E1F789834F
:1017D00022812295220F207E282B298313811295A6
:1017E000107F122B1983648175818681978120E097
:1017F00030E040E252E40E94491C5B016C0120E0B1
:1018000030E040E251E40E94B11C0E94191D162BE9
:101810001983C601B50120E030E040E85FE30E9493
:101820008E1D7B018C01C601B5010E94191DDC01D2
:10183000CB016AE070E00E94E41E6C0144E0CC0C35
:10184000DD1C4A95E1F7C801B70120E030E040E235
:1018500051E40E945E1E20E030E040E05FE30E9421
:10186000491C0E94191DC62A8A818C298A83F40189
:1018700091859B838085879588278795892B8B8386
:10188000CE010E94AF0A8C83DF91CF911F910F91FF
:10189000FF90EF90DF90CF90BF90AF909F908F9090
:1018A00008958F929F92AF92BF92CF92DF92EF9264
:1018B000FF920F931F93D82EC92E4B0166E772E05B
:1018C0000E94F0198D2D9C2D67E772E00E94AD19E2
:1018D0008D2D9C2DF40161810E946E198D2D9C2D02
:1018E0006EE772E00E94AD19F40162817381848118
:1018F000958120E030E040E251E40E945E1E20E04D
:1019000030E04AE754E40E94491C0E94191D7B0103
:101910008C01672F770F770B8D2D9C2D0E946E19F0
:1019200092E8A92E92E0B92E8D2D9C2DB5010E9432
:10193000AD198D2D9C2D6E2D0E946E198D2D9C2D17
:10194000B5010E94AD19F40166817781808591858A
:1019500020E030E040E251E40E945E1E20E030E0F2
:101960004AE754E40E94491C0E94191D7B018C0126
:101970006F2D772767FD7A958D2D9C2D0E946E190E
:101980008D2D9C2DB5010E94AD198D2D9C2D6E2D98
:101990000E946E198D2D9C2DB5010E94AD19F40188
:1019A000628573858485958520E030E040E251E4CE
:1019B0000E945E1E0E94191D9B01AC018D2D9C2D65
:1019C000B9010E943D198D2D9C2D1F910F91FF9003
:1019D000EF90DF90CF90BF90AF909F908F90089541
:1019E00065E00E94BD0908958F929F92AF92BF92C9
:1019F000CF92DF92EF92FF920F931F93CF93DF93DB
:101A00004C01EB0181E08F87F40115811E87C40131
:101A10000E94F00C181759F080914D04882331F082
:101A200080EE94E064E872E00E946F181F86F40173
:101A300080818F708983808182958F7088838B30BD
:101A400059F080914D04882331F080EE94E063E9F1
:101A500072E00E946F181F86F401818182958F7059
:101A600090E024E630E0829FB001839F700D929F4A
:101A7000700D1124882777FD8095982F0E944C1DAA
:101A80007B018C016A837B838C839D83F40121819C
:101A900030E02F703070B901B3E0660F771FBA9550
:101AA000E1F7220F331F620F731F882777FD8095A0
:101AB000982F0E944C1D9B01AC01C801B7010E94E8
:101AC000491C7B018C016A837B838C839D83F40199
:101AD000628162956F7070E0882777FD8095982FFE
:101AE0000E944C1D9B01AC01C801B7010E94491C1A
:101AF00020E030E040E05FE30E945E1E6A837B836B
:101B00008C839D83F401228130E02F703070B90105
:101B1000F3E0660F771FFA95E1F7220F331F620F8C
:101B2000731F882777FD8095982F0E944C1D7B019D
:101B30008C016E837F8388879987F4016381629526
:101B40006F7070E0882777FD8095982F0E944C1D5C
:101B50009B01AC01C801B7010E94491C7B018C01AB
:101B60006E837F8388879987F401638170E06F704B
:101B70007070882777FD8095982F0E944C1D2DEC62
:101B80003CEC4CEC5DE30E945E1E9B01AC01C80185
:101B9000B7010E94491C20E030E040E252E40E947C
:101BA000481C5B016C016E837F8388879987F401F1
:101BB000648162956F7070E0882777FD8095982F1B
:101BC0000E944C1D7B018C016A877B878C879D87D7
:101BD000F401648170E06F707070882777FD8095E4
:101BE000982F0E944C1D2DEC3CEC4CEC5DE30E94C8
:101BF0005E1E9B01AC01C801B7010E94491C6A87A7
:101C00007B878C879D87C601B50120E030E040E2EC
:101C100052EC0E94AD1C87FD0AC0C601B50120E050
:101C200030E040E752E40E945A1E1816ACF41F86BA
:101C300080914D04882381F080EE94E062EA72E0A6
:101C40000E9472174E815F816885798580EE94E0ED
:101C500022E030E00E945C18EA80FB800C811D814C
:101C6000C801B70120E030E040E050E40E94AD1C24
:101C700087FD0AC0C801B70120E030E046E953E41F
:101C80000E945A1E1816ACF41F8680914D048823BA
:101C900081F080EE94E069EB72E00E9472174A8155
:101CA0005B816C817D8180EE94E022E030E00E94D7
:101CB0005C18EA84FB840C851D85C801B70120E00F
:101CC00030E040E050E40E94AD1C87FD0AC0C8012E
:101CD000B70120E030E040E551E40E945A1E18169A
:101CE000ACF41F8680914D04882381F080EE94E04F
:101CF0006AEC72E00E9472174A855B856C857D856F
:101D000080EE94E022E030E00E945C18DF91CF91F9
:101D10001F910F91FF90EF90DF90CF90BF90AF9009
:101D20009F908F900895CF92DF92EF92FF920F9342
:101D30001F93DF93CF93CDB7DEB76E970FB6F894AE
:101D4000DEBF0FBECDBF8C016E010894C11CD11C3B
:101D5000C60166E772E00E94F0198FE0E82EF12CD0
:101D6000EC0EFD1EC801B7010E94F40C8E8D882375
:101D700071F08E01085F1F4FC801B7010E94510C1E
:101D8000C601B8010E940A1AC8010E942C1A8D814E
:101D90009E81892B39F080EE94E0BE016F5F7F4F0A
:101DA0000E94B51800E08D819E81892B09F001E029
:101DB000CE0101960E942C1A802F6E960FB6F894D1
:101DC000DEBF0FBECDBFCF91DF911F910F91FF906E
:101DD000EF90DF90CF9008950F931F93CF93DF93F1
:101DE0008C01EB0181E0898FF801808188838181FA
:101DF000898390E0848187FD91E09D83F801928141
:101E000080E0238130E0822B932B9B838A8390E0B8
:101E1000818586FD91E09E8B90E0F801818587FDAC
:101E200091E09F8B8D818823C1F080E090E0A0E05D
:101E3000B0E08E839F83A887B9878A879B87AC870A
:101E4000BD878E879F87A88BB98B8A8B9B8BAC8B2A
:101E5000BD8B1C82188E198E79C0F801608570E0E8
:101E6000882777FD8095982F0E944C1D20E030E058
:101E700040E05FE30E945E1E20E030E040E053E47B
:101E80000E94491C6E837F8388879987F801768139
:101E900060E0278130E0622B732B882777FD8095E7
:101EA000982F0E944C1D6A877B878C879D87F8013D
:101EB000848190E08F739070982F8827258130E07F
:101EC000822B932B62E070E00E94E41E882777FD4E
:101ED0008095982F0E944C1D6E877F87888B998BE9
:101EE000F801618570E06F737070762F6627228528
:101EF00030E0622B732B882777FD8095982F0E9406
:101F00004C1D20E030E048EC52E40E94B11C6A8B8A
:101F10007B8B8C8B9D8B90E0F801848186FD91E01A
:101F20009C83F8018385888F20E030E090E0F80101
:101F3000E20FF31F8081980F2F5F3F4F2C30310548
:101F4000B1F7198E992311F481E0898FDF91CF9138
:101F50001F910F9108958F929F92AF92BF92CF924F
:101F6000DF92EF92FF920F931F93D82EC92E4B0151
:101F70006BE273E00E94F0198D2D9C2D6CE273E0F2
:101F80000E94AD19F40163818D2D9C2D0E946E1964
:101F900078E3A72E73E0B72E8D2D9C2DB5010E94FE
:101FA000AD198D2D9C2DF40162810E946E198D2D2D
:101FB0009C2DB5010E94AD19F40166817781808561
:101FC000918520E030E040E251E40E945E1E0E94D4
:101FD000191D7B018C016F2D772767FD7A958D2D5B
:101FE0009C2D0E946E198D2D9C2DB5010E94AD195E
:101FF0008D2D9C2D6E2D0E946E198D2D9C2DB50161
:102000000E94AD19F40162857385848595850E94CF
:10201000191D9B01AC01232F330F330B8D2D9C2DEC
:10202000622F0E946E198D2D9C2DB5010E94AD1955
:10203000F40162857385848595850E941E1D9B0130
:10204000AC018D2D9C2D622F0E946E198D2D9C2D23
:10205000B5010E94AD19F401668577858089918963
:102060000E94191D9B01AC01232F330F330B8D2DC3
:102070009C2D622F0E946E198D2D9C2DB5010E9402
:10208000AD19F40166857785808991890E941E1DAE
:102090009B01AC018D2D9C2D622F0E946E198D2D00
:1020A0009C2DB5010E94AD19F40162897389848960
:1020B000958920E030E048EC52E40E945E1E0E94C8
:1020C000191D7B018C01672F770F770B8D2D9C2DB0
:1020D0000E946E198D2D9C2DB5010E94AD198D2D7C
:1020E0009C2D6E2D0E946E198D2D9C2DB5010E9488
:1020F000AD19F4016581660F8481680F8D2D9C2DCB
:102100000E946E198D2D9C2D1F910F91FF90EF90C5
:10211000DF90CF90BF90AF909F908F900895EF92F7
:10212000FF920F931F93DF93CF93CDB7DEB7A8979E
:102130000FB6F894DEBF0FBECDBF8C01CE01019665
:102140006BE273E00E94F019F8018081853211F58D
:1021500081818A3621F08A3211F08034D9F4EFE09F
:10216000EE2EF12CEC0EFD1EC801B7010E94EC0E04
:1021700088A5882379F08E01085F1F4FC801B70139
:102180000E94AB0FCE010196B8010E940A1AC80145
:102190000E942C1A8D819E81892B39F080EE94E06B
:1021A000BE016F5F7F4F0E94B51810E08D819E8148
:1021B000892B09F011E0CE0101960E942C1A812F83
:1021C000A8960FB6F894DEBF0FBECDBFCF91DF91BA
:1021D0001F910F91FF90EF900895CF92DF92EF92B1
:1021E000FF920F931F93CF93DF936C01EB0181E07C
:1021F0008B87F6018081888385818A8720E030E0A3
:1022000090E0F601E20FF31F8081980F2F5F3F4FA0
:1022100026303105B1F71B86992311F481E08B87B5
:10222000F6012181822F90E08073907044E09595B3
:1022300087954A95E1F7982F882309F494E09295C1
:10224000907F2F70922B9983F601628170E0625328
:102250007040882777FD8095982F0E944C1D20E0C4
:1022600030E040E251E40E945E1E7B018C01F601E9
:10227000638170E0882777FD8095982F0E944C1D20
:102280009B01AC01C801B7010E94491C20E030E06D
:1022900040E251E40E94B11C6C837D838E839F8356
:1022A000F6018481898720E0818190E036E0959570
:1022B00087953A95E1F7892B09F021E02887DF918E
:1022C000CF911F910F91FF90EF90DF90CF900895E5
:1022D000CF92DF92EF92FF920F931F93DF93CF93F2
:1022E000CDB7DEB76A970FB6F894DEBF0FBECDBF8D
:1022F0008C016E010894C11CD11CC6016FE873E00B
:102300000E94F019F8018081813529F55FE0E52E02
:10231000F12CEC0EFD1EC801B7010E94ED108A8D54
:10232000882371F08E01085F1F4FC801B7010E941A
:10233000EA09C601B8010E940A1AC8010E942C1AB3
:102340008D819E81892B39F080EE94E0BE016F5F14
:102350007F4F0E94B51810E08D819E81892B09F076
:1023600011E0CE0101960E942C1A812F6A960FB6B9
:10237000F894DEBF0FBECDBFCF91DF911F910F91BB
:10238000FF90EF90DF90CF900895FC0181E0808373
:1023900008951F93FC01162F8081882359F089E04E
:1023A00061E00E94FD1260E0112309F461E089E020
:1023B0000E943C131F910895FC016083662311F471
:1023C0000E94C9110895EF92FF920F931F93CF932C
:1023D000DF937C01662301F16B3008F06AE0C0E016
:1023E000D0E0062F10E015C0C70161E00E94C911BE
:1023F00062E370E080E090E00E946912C70160E053
:102400000E94C91162E370E080E090E00E946912CE
:102410002196C017D10744F3DF91CF911F910F91FF
:10242000FF90EF9008951F920F920FB60F92112414
:102430002F933F938F939F93AF93BF9380915304B8
:1024400090915404A0915504B091560430915704D2
:102450000196A11DB11D232F2D5F2D3720F02D5783
:102460000196A11DB11D20935704809353049093AE
:102470005404A0935504B093560480914F04909156
:102480005004A0915104B09152040196A11DB11DB8
:1024900080934F0490935004A0935104B09352043E
:1024A000BF91AF919F918F913F912F910F900FBE50
:1024B0000F901F9018958FB7F89420915304309186
:1024C000540440915504509156048FBFB901CA017C
:1024D00008959B01AC017FB7F89480914F049091CF
:1024E0005004A0915104B091520466B5A89B05C058
:1024F0006F3F19F00196A11DB11D7FBFBA2FA92F03
:10250000982F8827860F911DA11DB11D62E0880FAD
:10251000991FAA1FBB1F6A95D1F7BC012DC0FFB739
:10252000F89480914F0490915004A0915104B0917F
:102530005204E6B5A89B05C0EF3F19F00196A11D16
:10254000B11DFFBFBA2FA92F982F88278E0F911D7D
:10255000A11DB11DE2E0880F991FAA1FBB1FEA95BC
:10256000D1F7861B970B885E9340C8F2215030400C
:102570004040504068517C4F2115310541055105BF
:1025800071F60895789484B5826084BD84B58160C5
:1025900084BD85B5826085BD85B5816085BDEEE66B
:1025A000F0E0808181608083E1E8F0E0108280814A
:1025B00082608083808181608083E0E8F0E08081B8
:1025C00081608083E1EBF0E0808184608083E0EBD8
:1025D000F0E0808181608083EAE7F0E080818460C0
:1025E000808380818260808380818160808380811C
:1025F000806880831092C1000895CF93DF93482FA5
:1026000050E0CA01875B9C4FFC0134914B5C5C4FEE
:10261000FA018491882369F190E0880F991FFC01E9
:10262000E95EFC4FA591B491FC01EF5DFC4FC591B3
:10263000D491662351F42FB7F8948C91932F9095F1
:1026400089238C93888189230BC0623061F42FB772
:10265000F8948C91932F909589238C938881832B68
:1026600088832FBF06C09FB7F8948C91832B8C93DF
:102670009FBFDF91CF910895482F50E0CA01835A40
:102680009C4FFC012491CA01875B9C4FFC019491F3
:102690004B5C5C4FFA013491332309F440C0222390
:1026A00051F1233071F0243028F42130A1F0223090
:1026B00011F514C02630B1F02730C1F02430D9F420
:1026C00004C0809180008F7703C0809180008F7D4F
:1026D0008093800010C084B58F7702C084B58F7D51
:1026E00084BD09C08091B0008F7703C08091B00095
:1026F0008F7D8093B000E32FF0E0EE0FFF1FEF5DC2
:10270000FC4FA591B4912FB7F894662321F48C91D6
:102710009095892302C08C91892B8C932FBF0895AB
:10272000682F70E0CB01835A9C4FFC012491CB01B0
:10273000875B9C4FFC0144916B5C7C4FFB01949147
:10274000992319F420E030E03CC0222351F12330DA
:1027500071F0243028F42130A1F0223011F514C09A
:102760002630B1F02730C1F02430D9F404C0809174
:1027700080008F7703C0809180008F7D80938000E0
:1027800010C084B58F7702C084B58F7D84BD09C029
:102790008091B0008F7703C08091B0008F7D8093CF
:1027A000B000892F90E0880F991F855D9C4FFC0138
:1027B000A591B4918C9120E030E0842311F021E0C8
:1027C00030E0C901089508951F920F920FB60F923D
:1027D00011242F933F934F938F939F93EF93FF93E6
:1027E0008091C00082FD1DC04091C60020919804D8
:1027F000309199042F5F3F4F2F73307080919A046E
:1028000090919B042817390771F0E0919804F0919A
:102810009904E85AFB4F408330939904209398041D
:1028200002C08091C600FF91EF919F918F914F91CF
:102830003F912F910F900FBE0F901F901895E09130
:10284000EC04F091ED04E05CFF4F819191912081C7
:102850003181821B930B8F739070892B11F00E9432
:10286000E31308951F920F920FB60F9211242F9326
:102870003F938F939F93EF93FF932091DC043091CC
:10288000DD048091DE049091DF042817390731F4CC
:102890008091C1008F7D8093C10014C0E091DE045F
:1028A000F091DF04E456FB4F20818091DE0490918B
:1028B000DF0401968F7390709093DF048093DE04A1
:1028C0002093C600FF91EF919F918F913F912F919F
:1028D0000F900FBE0F901F901895AF92BF92DF928E
:1028E000EF92FF920F931F93CF93DF93EC017A0146
:1028F0008B01DD24403081EE580780E0680780E0DE
:10290000780711F0DD24D39491E0A92EB12CEC8945
:10291000FD89DD2069F0C50108A002C0880F991F5C
:102920000A94E2F7808360E079E08DE390E005C0EF
:10293000108260E874E88EE190E0A80197010E949F
:10294000F71E2150304040405040569547953795EE
:10295000279580E12030380720F0DD2011F0DD24BC
:10296000D6CFE889F9893083EA89FB89208319A2C7
:10297000EE89FF89408121E030E0C9010C8C02C062
:10298000880F991F0A94E2F7482B4083EE89FF894C
:102990004081C9010D8C02C0880F991F0A94E2F78B
:1029A000482B4083EE89FF894081C9010E8C02C00B
:1029B000880F991F0A94E2F7482B4083EE89FF891C
:1029C00080810F8C02C0220F331F0A94E2F72095FA
:1029D00028232083DF91CF911F910F91FF90EF90DB
:1029E000DF90BF90AF900895DC011C96ED91FC91B3
:1029F0001D97E05CFF4F2191319180819181281BCF
:102A0000390B2F733070C9010895DC011C96ED91CC
:102A1000FC911D97E05CFF4F20813181E054F04034
:102A2000DF01AE5BBF4F8D919C911197281739073D
:102A300019F42FEF3FEF07C08D919C91E80FF91F1C
:102A40008081282F30E0C9010895DC011C96ED91AA
:102A5000FC911D97E05CFF4F20813181E054F040F4
:102A6000DF01AE5BBF4F8D919C91119728173907FD
:102A700019F42FEF3FEF10C08D919C911197E80F43
:102A8000F91F20818D919C91119701968F73907001
:102A900011969C938E9330E0C9010895DC019196C4
:102AA0008C919197882339F05496ED91FC9155972C
:102AB000808186FFF9CF91961C920895CF93DF9382
:102AC000EC01EE85FF85E05CFF4F20813181E05411
:102AD000F0402F5F3F4F2F733070DF01AE5BBF4F71
:102AE0008D919C91119728173907D1F3E05CFF4F26
:102AF00080819181E054F040E80FF91F6083EE85FA
:102B0000FF85E05CFF4F31832083EE89FF892081C0
:102B100081E090E00F8C02C0880F991F0A94E2F7C1
:102B2000282B208381E089A3EC89FD898081806442
:102B3000808381E090E0DF91CF9108951092E304CB
:102B40001092E20488EE93E0A0E0B0E08093E40409
:102B50009093E504A093E604B093E7048EEA93E033
:102B60009093E1048093E00488E594E09093ED0471
:102B70008093EC048CE994E09093EF048093EE044E
:102B800085EC90E09093F1048093F00484EC90E065
:102B90009093F3048093F20480EC90E09093F5041A
:102BA0008093F40481EC90E09093F7048093F60412
:102BB00082EC90E09093F9048093F80486EC90E026
:102BC0009093FB048093FA0484E08093FC0483E0F8
:102BD0008093FD0487E08093FE0485E08093FF04EA
:102BE00081E0809300050895CF93DF930E94C21285
:102BF0000E940404CFE1D4E10E945F052097E1F335
:102C00000E941F14F9CFCF92DF92EF92FF920F93A1
:102C10001F93CF93DF937C016B018A01C0E0D0E06A
:102C20000FC0D6016D916D01D701ED91FC9101901E
:102C3000F081E02DC7010995C80FD91F0150104040
:102C40000115110571F7CE01DF91CF911F910F9101
:102C5000FF90EF90DF90CF900895DC01ED91FC9113
:102C60000190F081E02D09950895EF92FF920F9366
:102C70001F938C01DC01ED91FC910190F081E02D1E
:102C80006DE009957C01D801ED91FC910190F081F6
:102C9000E02DC8016AE009959C012E0D3F1DC90178
:102CA0001F910F91FF90EF900895EF92FF920F9375
:102CB0001F937C01DC01ED91FC910190F081E02DEE
:102CC00009958C01C7010E943516080F191FC8010C
:102CD0001F910F91FF90EF900895CF93DF93EC0138
:102CE0006115710519F420E030E00FC0DB010D9093
:102CF0000020E9F71197A61BB70BE881F981028044
:102D0000F381E02DAD0109959C01C901DF91CF91BF
:102D100008954F925F927F928F929F92AF92BF924F
:102D2000CF92DF92EF92FF920F931F93DF93CF9397
:102D3000CDB7DEB7A1970FB6F894DEBF0FBECDBFFB
:102D40002C01742ECB01223008F42AE019A231E2C2
:102D5000C32ED12CCC0EDD1E822E9924AA24BB2496
:102D6000672D752FA50194010E94F71E79018A0134
:102D7000C801B701A50194010E94C51E472D461B3D
:102D80000894C108D1084A3014F4405D01C0495C80
:102D9000F6014083E114F1040105110521F07E2CB8
:102DA0005F2DC801DDCFC201B6010E946D16A1964C
:102DB0000FB6F894DEBF0FBECDBFCF91DF911F914C
:102DC0000F91FF90EF90DF90CF90BF90AF909F90CA
:102DD0008F907F905F904F900895DC012115310511
:102DE00041F4ED91FC910190F081E02D642F099563
:102DF00008950E9489160895EF92FF920F931F93F2
:102E00009A017B0100E010E0B801A7010E94ED16D5
:102E10001F910F91FF90EF900895EF92FF920F9303
:102E20001F939A01E62EFF2400E010E0B801A701ED
:102E30000E94ED161F910F91FF90EF900895CF9291
:102E4000DF92EF92FF920F931F93CF93DF93EC01EA
:102E50006A017B012115310541F4E881F981019076
:102E6000F081E02D642F09951FC02A303105D1F47F
:102E700077FF17C0E881F9810190F081E02D6DE2C4
:102E800009958C0144275527BA014C195D096E0933
:102E90007F09CE012AE00E9489169801280F391F68
:102EA00004C02AE00E9489169C01C901DF91CF91DC
:102EB0001F910F91FF90EF90DF90CF900895EF92C8
:102EC000FF920F931F937B019A010027F7FC009557
:102ED000102FB801A7010E941F171F910F91FF909B
:102EE000EF9008950E946D1608957F928F929F92A1
:102EF000AF92BF92CF92DF92EF92FF920F931F9308
:102F0000CF93DF934C017A018B01722ECB01BA0172
:102F1000A80197010E94C11E882321F0C40160E925
:102F200073E021C0C0E0D0E057016801E894D7F811
:102F3000C601B5012FEF3FEF4FE75FE70E94C11ECB
:102F4000882351F4C601B5012FEF3FEF4FE75FE74C
:102F50000E94AD1C181614F0C1E0D0E0219739F0A2
:102F6000C40164E973E00E946D16EC0193C0C801CE
:102F7000B7012FEF3FEF4FE75FE40E945A1E18168C
:102F800054F0C801B7012FEF3FEF4FE75FEC0E940D
:102F9000AD1C882324F4C40168E973E0E4CFC801C0
:102FA000B70120E030E040E050E00E94AD1C87FD1A
:102FB00003C0C0E0D0E00EC0D401ED91FC910190BF
:102FC000F081E02DC4016DE20995EC0117FB10952D
:102FD00017F9109520E030E040E05FE3DD240BC0FE
:102FE000CA01B90120E030E040E251E40E94B11C86
:102FF0009B01AC01D394D71498F3C801B7010E9488
:10300000491C5B016C010E941E1D7B018C01C401E7
:10301000B801A7012AE030E00E94ED16C80FD91FC1
:10302000772039F0C4016CE973E00E946D16C80F77
:10303000D91FC801B7010E944A1D9B01AC01C601FE
:10304000B5010E94481C24C020E030E040E251E479
:103050000E945E1E7B018C010E94191D5B016C01A8
:10306000CC24B7FCC094DC2CC401B601A5012AE035
:1030700030E00E941F17C80FD91FC601B5010E947A
:103080004C1D9B01AC01C801B7010E94481C7A94F9
:103090007720D1F6CE01DF91CF911F910F91FF9054
:1030A000EF90DF90CF90BF90AF909F908F907F90E8
:1030B00008950E9475170895EF92FF920F931F9342
:1030C0007C010E9475178C01C7010E943516080FFC
:1030D000191FC8011F910F91FF90EF900895EF9273
:1030E000FF920F931F937C010E946D168C01C70104
:1030F0000E943516080F191FC8011F910F91FF90EC
:10310000EF900895AF92BF92CF92DF92EF92FF922D
:103110000F931F93CF93DF935C016B01EE24FF2489
:10312000C0E0D0E010C0D501ED91FC91008111818B
:10313000C601BE010E94C918682FC501F801099592
:10314000E80EF91E2196F60184819581C817D907EA
:1031500050F3C701DF91CF911F910F91FF90EF9036
:10316000DF90CF90BF90AF900895EF92FF920F93B2
:103170001F937C010E9482188C01C7010E943516A2
:103180009C01200F311FC9011F910F91FF90EF90FB
:103190000895FC01848195816817790748F40190AE
:1031A000F081E02D309721F0E60FF71F8081089520
:1031B00080E008950F931F93CF93DF93EC018B0171
:1031C0006F5F7F4F888199810E94671B009711F480
:1031D00080E005C0998388831B830A8381E0DF91A7
:1031E000CF911F910F910895CF93DF93EC018881C8
:1031F0009981892B29F08A819B818617970760F432
:10320000CE010E94DA18882341F08C819D81892BA0
:1032100019F4E881F981108281E0DF91CF9108955E
:10322000EF92FF920F931F93CF93DF93EC017B01FB
:103230006C817D81E114F104C1F04115510599F0D3
:103240008A01060F171FB8010E94F418882369F03D
:10325000888199812C813D81820F931FB7010E9443
:10326000EE011D830C8381E001C080E0DF91CF91EE
:103270001F910F91FF90EF900895EF92FF920F939F
:103280001F93DF93CF93CDB7DEB727970FB6F89490
:10329000DEBF0FBECDBF7C01CB018E010F5F1F4F84
:1032A000B8014AE050E00E94F501F80101900020C9
:1032B000E9F73197E01BF10BC701B801AF010E949C
:1032C000101927960FB6F894DEBF0FBECDBFCF9171
:1032D000DF911F910F91FF90EF900895EF92FF9271
:1032E0000F931F93DF93CF9300D000D0CDB7DEB7FD
:1032F0007C01862F90E08E010F5F1F4FB8014AE0DE
:1033000050E00E94F501F80101900020E9F73197A3
:10331000E01BF10BC701B801AF010E9410190F901B
:103320000F900F900F90CF91DF911F910F91FF9011
:10333000EF900895DF93CF9300D0CDB7DEB76983C8
:103340001A82BE016F5F7F4F41E050E00E9410196A
:103350000F900F90CF91DF9108956115710511F4D1
:1033600080E00895DB010D900020E9F71197A61B7E
:10337000B70BAD010E9410190895CF93DF93EC01B4
:1033800088819981009711F00E94CF1A19821882C2
:103390001D821C821B821A82DF91CF910895EF92C9
:1033A000FF920F931F93CF93DF93EC017B018A0170
:1033B000BA010E94F418882321F4CE010E94BD199D
:1033C00007C01D830C8388819981B7010E94EE019B
:1033D000CE01DF91CF911F910F91FF90EF90089553
:1033E000CF93DF93EC01198218821B821A821D820F
:1033F0001C821E826115710551F0DB010D900020C9
:10340000E9F71197A61BB70BAD010E94CF19DF9109
:10341000CF910895CF93DF93EC01FB0186179707B7
:1034200061F0608171816115710529F044815581D8
:103430000E94CF1902C00E94BD19CE01DF91CF9129
:103440000895FC0111821082138212821582148267
:1034500016820E940A1A0895FC01808191810E94BF
:10346000CF1A08950F931F93CF93DF93BC0182303F
:10347000910510F462E070E0E0910405F09105051B
:1034800040E050E0A0E0B0E024C080819181861748
:103490009707D0F08617970771F482819381109770
:1034A00029F013969C938E9312972CC09093050548
:1034B0008093040527C04115510519F0841795071D
:1034C00018F48D01AC01EF01DF01828193819C0131
:1034D000F9013097D1F641155105F9F0CA01861B63
:1034E000970B8430910580F48A819B810115110529
:1034F00021F0F8019383828304C0909305058093A3
:103500000405FE01329645C0FE01E80FF91F6193E4
:1035100071930297998388833CC0809102059091B2
:103520000305892B41F48091A6039091A703909302
:103530000305809302054091A8035091A90341150A
:10354000510541F44DB75EB78091A4039091A50356
:10355000481B590B209102053091030524173507AC
:10356000B0F4CA01821B930B8617970780F0AB015A
:103570004E5F5F4F8417950750F0420F531F5093D3
:10358000030540930205F9016193719302C0E0E0E5
:10359000F0E0CF01DF91CF911F910F910895CF936C
:1035A000DF939C01009709F48FC0EC0122971B82E6
:1035B0001A8260910405709105056115710581F409
:1035C00088819981820F931F209102053091030514
:1035D0002817390739F5D0930305C093020574C045
:1035E000DB0140E050E0AC17BD0708F1BB83AA83C4
:1035F000FE0121913191E20FF31FAE17BF0779F45D
:103600008D919C911197280F391F2E5F3F4F398361
:10361000288312968D919C9113979B838A834115E1
:10362000510571F4D0930505C09304054DC0129661
:103630008D919C911397AD01009711F0DC01D3CFD0
:10364000DA011396DC93CE931297FA01219131910E
:10365000E20FF31FCE17DF0769F488819981280FE5
:10366000391F2E5F3F4FFA01318320838A819B816E
:1036700093838283E0E0F0E0DB0112968D919C91D0
:103680001397009719F0BC01FD01F6CFAB014E5F17
:103690005F4FDB018D919C91840F951F2091020556
:1036A000309103052817390779F4309729F41092DF
:1036B00005051092040502C0138212824250504048
:1036C0005093030540930205DF91CF9108956F92C7
:1036D0007F928F929F92AF92BF92CF92DF92EF92A2
:1036E000FF920F931F93CF93DF938C01009729F4E0
:1036F000CB010E94321A8C01BBC08EEFE82E8FEFF7
:10370000F82EE00EF11E4801860E971E8E149F04BF
:1037100008F4ACC0D7014D915C911197461757073B
:10372000B8F04530510508F4A3C0CA0104978617C4
:10373000970708F49DC042505040461B570BF401B8
:10374000419351936D937C93CF010E94CF1A90C007
:103750005B01A41AB50A3801640E751EA091040518
:10376000B0910505E0E0F0E0CC24DD2447C0A615CB
:10377000B705A9F5CD91DC911197CE0102968A1576
:103780009B0568F1CE018A199B09029612962C912D
:10379000129713963C91059758F0F40122833383D6
:1037A000CA19DB09D183C083D7016D937C9309C00B
:1037B0004E5F5F4F4C0F5D1FF70151834083C9017E
:1037C000FC01C114D10431F0D6011396FC93EE93A1
:1037D00012974EC0F0930505E093040549C08D9102
:1037E0009C911197E817F90708F4FC016D011296F6
:1037F0008C91129713969C919C01D901109709F016
:10380000B6CF809102059091030586159705E9F4DE
:10381000E617F707D0F42091A8033091A9032115EA
:10382000310541F42DB73EB78091A4039091A503D3
:10383000281B390B82169306C8F4909203058092D8
:103840000205F7017183608313C0CB010E94321A15
:10385000EC01009759F0D7014D915C91B8010E949D
:10386000E501C8010E94CF1A8E0102C000E010E0FD
:10387000C801DF91CF911F910F91FF90EF90DF90E2
:10388000CF90BF90AF909F908F907F906F90089552
:103890005058BB27AA270ED0D3C1C4D130F0C9D10C
:1038A00020F031F49F3F11F41EF4B9C10EF4E095FD
:1038B000E7FB9FC1E92FD5D180F3BA1762077307E1
:1038C0008407950718F071F49EF5EDC10EF4E095AC
:1038D0000B2EBA2FA02D0B01B90190010C01CA01CA
:1038E000A0011124FF27591B99F0593F50F4503E75
:1038F00068F11A16F040A22F232F342F4427585F67
:10390000F3CF469537952795A795F0405395C9F77E
:103910007EF41F16BA0B620B730B840BBAF0915036
:10392000A1F0FF0FBB1F661F771F881FC2F70EC0D5
:10393000BA0F621F731F841F48F4879577956795A8
:10394000B795F7959E3F08F0B3CF9395880F08F091
:103950009927EE0F97958795089527D108F481E070
:1039600008950CD06DC165D140F05CD130F021F4E8
:103970005F3F19F03EC1511197C151C172D198F307
:103980009923C9F35523B1F3951B550BBB27AA27E0
:1039900062177307840738F09F5F5F4F220F331F52
:1039A000441FAA1FA9F333D00E2E3AF0E0E830D01E
:1039B00091505040E695001CCAF729D0FE2F27D021
:1039C000660F771F881FBB1F261737074807AB07EF
:1039D000B0E809F0BB0B802DBF01FF2793585F4F64
:1039E0002AF09E3F510568F004C15EC15F3FECF3D1
:1039F000983EDCF3869577956795B795F7959F5F29
:103A0000C9F7880F911D9695879597F90895E1E07C
:103A1000660F771F881FBB1F621773078407BA07DB
:103A200020F0621B730B840BBA0BEE1F88F7E09536
:103A3000089504D06894B11137C108951AD188F05F
:103A40009F5790F0B92F9927B751A0F0D1F0660F8A
:103A5000771F881F991F1AF0BA95C9F712C0B130A5
:103A600081F021D1B1E008951EC1672F782F8827FA
:103A7000B85F39F0B93FCCF3869577956795B395E4
:103A8000D9F73EF490958095709561957F4F8F4F53
:103A90009F4F0895E89409C097FB3EF49095809558
:103AA000709561957F4F8F4F9F4F9923A9F0F92F04
:103AB00096E9BB279395F695879577956795B79582
:103AC000F111F8CFFAF4BB0F11F460FF1BC06F5F68
:103AD0007F4F8F4F9F4F16C0882311F096E911C07A
:103AE000772321F09EE8872F762F05C0662371F09B
:103AF00096E8862F70E060E02AF09A95660F771FAF
:103B0000881FDAF7880F9695879597F908958AD0D8
:103B100018F011F08ED038F482C0C6C0E92FA1D0C1
:103B2000B0F35523C9F3E7FB6217730784079507C2
:103B3000A8F199F3E92FFF2788232AF03197660F20
:103B4000771F881FDAF7952F5527442332F09150BD
:103B50005040220F331F441FD2F7BB27E91BF50B40
:103B6000621B730B840BB109C1F222F4620F731F45
:103B7000841FB11D31972AF0660F771F881FBB1F66
:103B8000EFCF915050405AF041F0882332F0660F49
:103B9000771F881F91505040C1F7939530C086958C
:103BA000779567959F5FD9F7F8CF990F0008550F64
:103BB000AA0BE0E8FEEF16161706E807F907C0F0B3
:103BC00012161306E407F50798F0621B730B840BBB
:103BD000950B39F40A2661F0232B242B252B21F495
:103BE00008950A2609F4A140A6958FEF811D811D35
:103BF000089597F99F6780E870E060E008959F3F1F
:103C000049F0915028F4869577956795B7959F5F11
:103C100080389F4F880F9695879597F908959FEF65
:103C200080EC089500240A94161617061806090653
:103C3000089500240A941216130614060506089522
:103C4000092E0394000C11F4882352F0BB0F40F4AA
:103C5000BF2B11F460FF04C06F5F7F4F8F4F9F4FEA
:103C6000089557FD9058440F551F59F05F3F71F06C
:103C70004795880F97FB991F61F09F3F79F08795D3
:103C80000895121613061406551FF2CF4695F1DF5C
:103C900008C0161617061806991FF1CF86957105EC
:103CA000610508940895E894BB2766277727CB0120
:103CB00097F908957ADF08F48FEF08950BD0C0CFFD
:103CC000B1DF28F0B6DF18F0952309F092CFA7CF27
:103CD0001124EACFC6DFA0F3959FD1F3950F50E0F2
:103CE000551F629FF001729FBB27F00DB11D639FAE
:103CF000AA27F00DB11DAA1F649F6627B00DA11D54
:103D0000661F829F2227B00DA11D621F739FB00DF9
:103D1000A11D621F839FA00D611D221F749F332769
:103D2000A00D611D231F849F600D211D822F762F02
:103D30006A2F11249F5750408AF0E1F088234AF0FF
:103D4000EE0FFF1FBB1F661F771F881F915050404B
:103D5000A9F79E3F510570F04CCFA6CF5F3FECF323
:103D6000983EDCF3869577956795B795F795E79537
:103D70009F5FC1F7FE2B880F911D9695879597F948
:103D8000089513DF880B990B0895629FD001739FEC
:103D9000F001829FE00DF11D649FE00DF11D929FE7
:103DA000F00D839FF00D749FF00D659FF00D992726
:103DB000729FB00DE11DF91F639FB00DE11DF91F4A
:103DC000BD01CF011124089597FB092E07260AD0C3
:103DD00077FD04D02ED006D000201AF4709561959E
:103DE0007F4F0895F6F7909581959F4F0895A1E232
:103DF0001A2EAA1BBB1BFD010DC0AA1FBB1FEE1F65
:103E0000FF1FA217B307E407F50720F0A21BB30BAF
:103E1000E40BF50B661F771F881F991F1A9469F72B
:103E200060957095809590959B01AC01BD01CF0187
:103E30000895AA1BBB1B51E107C0AA1FBB1FA617F1
:103E4000B70710F0A61BB70B881F991F5A95A9F743
:103E500080959095BC01CD010895EE0FFF1F059050
:0A3E6000F491E02D0994F894FFCFCF
:103E6A000A5B004C6143726F7373654954506C75F9
:103E7A00735265616465720031302E3165002040ED
:103E8A00004175746F546F67676C65200020536535
:103E9A00636F6E64730031372E323431206B627077
:103EAA007300392E353739206B62707300202F204A
:103EBA0000206B487A0054583A20543D0020483D6F
:103ECA0000204E423D002A2A2A204C6143726F7319
:103EDA0073652077656174686572207374617469AB
:103EEA006F6E20776972656C65737320726563659E
:103EFA006976657220666F722049542B2073656E4D
:103F0A00736F7273202A2A2A00526164696F2073C0
:103F1A006574757020636F6D706C6574652E2053BF
:103F2A0074617274696E6720746F20726563656963
:103F3A007665206D65737361676573000A456E6403
:103F4A0020726563656976696E672C20484558203A
:103F5A0072617720646174613A2000200053656EB3
:103F6A0064696E6720646174613A20002000004F22
:103F7A004B2039200020005D00204352433A57521B
:103F8A004F4E4700204352433A4F4B0020533A00CA
:103F9A002049443A00204E6577426174743A002001
:103FAA0042697431323A002054656D703A002057E4
:103FBA0065616B426174743A002048756D3A00205D
:103FCA004352433A002530366420004C6143726FF5
:103FDA00737365205B00004F4B204C532000203048
:103FEA0020002000232320435243204641494C20ED
:103FFA002323004E6F2076616C69642073746172AA
:10400A0074004E6F2076616C69642054656D70652A
:10401A007261747572653A20004E6F2076616C6920
:10402A0064204C6576656C3A20004E6F2076616C90
:10403A00696420566F6C746167653A2000253036D2
:10404A006420004C6576656C53656E646572205B0E
:10405A00005D00204352433A57524F4E47002043D7
:10406A0052433A4F4B0020533A002049443A002029
:10407A004C6576656C3A002054656D703A0020569E
:10408A006F6C743A00204352433A00004F4B20456C
:10409A004D5437313130200020002530366420005D
:1040AA00454D5437313130205B005D002043524387
:1040BA003A57524F4E4700204352433A4F4B002043
:1040CA00533A002049443A0020563A00206D413ABA
:1040DA000020573A00206B57683A0020436F6E2E33
:1040EA003A0020506169723A00204352433A000074
:1040FA006E616E00696E66006F7666002E001300B0
:10410A00CC3F0D00800006050000000000005E158F
:0A411A000316F414251505154E15C3
:00000001FF
