:100000000C949A010C94C2010C94C2010C94C2018C
:100010000C94C2010C94C2010C94C2010C94C20154
:100020000C94C2010C94C2010C94C2010C94C20144
:100030000C94C2010C94C2010C94C2010C94C20134
:100040000C9464110C94C2010C9435130C9483131A
:100050000C94C2010C94C2010C94C2010C94C20114
:100060000C94C2010C94C2010A417661696C616210
:100070006C6520636F6D6D616E64733A0A20203C7D
:100080006E3E6120202020202020202020202020C3
:1000900020202020202020202D2061637469766993
:1000A0007479204C45442028303D6F66662C203101
:1000B0003D6F6E290A20203C6E3E642020202020C7
:1000C0002020202020202020202020202020202030
:1000D0002D204445425547206D6F64652028303DF2
:1000E000737570707265737320545820616E64204C
:1000F000626164207061636B657473290A20203C1F
:100100006E3E722020202020202020202020202031
:1001100020202020202020202D2064617461207266
:100120006174652028303D31372E323431206B62C6
:1001300070732C20313D392E353739206B62707346
:10014000290A20203C6E3E742020202020202020E0
:10015000202020202020202020202020202D20743E
:100160006F67676C652064617461207261746520DB
:10017000696E74657276616C6C2028303D6E6F20FC
:10018000746F67676C652C203E303D7365636F6EDE
:100190006473290A20203C6E3E76202020202020F7
:1001A0002020202020202020202020202020202D42
:1001B0002076657273696F6E20616E6420636F6E66
:1001C00066696775726174696F6E207265706F72AF
:1001D000740A20203C6E3E78202020202020202001
:1001E000202020202020202020202020202D2075AD
:1001F00073656420666F722074657374730A2020BF
:100200003C7431303E2C3C74313E2C3C74303E2CDE
:100210003C68756D3E632020202D2073657420742A
:10022000656D706572617475726520616E642068B9
:10023000756D696469747920666F72207472616E7D
:10024000736D69740A20203C69643E2C3C696E74AD
:100250003E2C3C6E62743E2C3C64723E6920202031
:100260002D207365742074686520706172616D65FE
:100270007465727320666F72207468652074726191
:100280006E736D6974206C6F6F700A202062312C60
:1002900062322C62332C62347320202020202020F4
:1002A0002020202020202D2073656E642074686536
:1002B0002070617373656420627974657320706C5B
:1002C0007573207468652063616C63756C61746517
:1002D00064204352430000000000240027002A004D
:1002E00000000000250028002B0000000000230073
:1002F0002600290004040404040404040202020287
:1003000002020303030303030102040810204080D8
:100310000102040810200102040810200000000758
:1003200000020100000304060000000000000000BD
:100330002402EF1411241FBECFEFD8E0DEBFCDBFE3
:1003400013E0A0E0B1E0ECE0FDE302C005900D9207
:10035000AE3AB107D9F714E0AEEAB3E001C01D929E
:10036000A33FB107E1F713E0C4E3D3E004C0229751
:10037000FE010E94801EC033D107C9F70E944515B7
:100380000C94841E0C940000FB01DC0102C001905F
:100390000D9241505040D8F70895FB01DC010190C7
:1003A0000D920020E1F70895FB019F01E89442308F
:1003B000C4F04532B4F44A3029F497FB1EF490950A
:1003C00081959F4F642F77270E946A1E805D8A3334
:1003D0000CF0895D8193CB010097A1F716F45DE2E3
:1003E00051931082C9010C94F501DC01FC01672FC7
:1003F00071917723E1F7329704C07C916D937083FC
:100400006291AE17BF07C8F308951F93CF93DF9390
:10041000C8E6D0E0FE0121961491112369F01A304C
:1004200029F48DEC94E06DE00E947E158DEC94E053
:10043000612F0E947E15EECF8DEC94E00E94861510
:10044000DF91CF911F910895CF92DF92EF920F939A
:1004500047E1C42E44E0D42EC6016BE04CE02DE011
:100460000AE032E0E32E0E94E6088EE194E00E946A
:1004700016118FE194E0B6010E94EC050F91EF9008
:10048000DF90CF9008958DEC94E060E071E00E94E1
:10049000C3168DEC94E063E071E00E94C3168DEC0E
:1004A00094E06EE20E947E158DEC94E068E171E0CC
:1004B0000E94C3168DEC94E06EE171E00E94C316B9
:1004C0008091AF039091B003892BA9F08DEC94E05B
:1004D00061E271E00E94C3166091AF037091B003B6
:1004E0008DEC94E04AE050E00E944D168DEC94E0D3
:1004F0006DE271E00DC08091950390919603839712
:1005000019F066E371E002C062E471E08DEC94E002
:100510000E94C3168DEC94E06DE50E94A615089527
:100520000F931F93DF93CF93CDB7DEB761970FB6CD
:10053000F894DEBF0FBECDBF182F84E18F8381E01A
:1005400088871986612F70E080E090E00E949B1CF4
:100550006A877B878C879D871E861F878091AE0365
:10056000882379F18DEC94E06DE471E00E94C3166C
:100570004A855B856C857D858DEC94E022E030E0DA
:100580000E94AA178DEC94E064E571E00E94C31606
:100590008DEC94E06F854AE050E00E945E168DEC91
:1005A00094E068E571E00E94C31668858DEC94E0E4
:1005B00070E04AE050E00E94B0168DEC94E00E949A
:1005C0008615CE0106968E010F5F1F4FB8010E945F
:1005D000140B87E194E0B80145E00E94770887E1B9
:1005E00094E061E00E94990761960FB6F894DEBF2F
:1005F0000FBECDBFCF91DF911F910F910895DF9274
:10060000EF92FF920F931F93CF93DF93EC0164302F
:10061000B9F5D8802D2D30E02F733070B901E3E0AB
:10062000660F771FEA95E1F7220F331F620F731FE2
:100630002981620F711D882777FD8095982F0E9470
:100640009D1C7B018C016A8170E0882777FD809575
:10065000982F0E949D1C2DEC3CEC4CEC5DE30E941D
:10066000AF1D9B01AC01C801B7010E949A1BAB01F1
:10067000BC01D7FC70588FE194E02B810E942706C3
:10068000DF91CF911F910F91FF90EF90DF90089530
:10069000AF92BF92CF92DF92EF92FF920F931F9390
:1006A000CF93DF93EC01643079F5A8801981BA808B
:1006B0000E94AC116B017C018B81882319F0C3E28D
:1006C000D0E002C0C3E1D0E004E6109F8001112415
:1006D0006B2D70E080E090E020E63AEE40E050E0E4
:1006E0000E94161EC60ED71EE81EF91E8FE194E06A
:1006F0006A2DA80121E0870176016E010E940F0694
:100700008FE194E061E008C0613041F48881882382
:1007100029F48FE194E060E00E940C06DF91CF9114
:100720001F910F91FF90EF90DF90CF90BF90AF900F
:100730000895CF93DF93EC016430A1F487E194E056
:1007400060E00E949907CE010E94030A8C8387E132
:1007500094E0BE0145E00E94770887E194E061E003
:100760000E949907DF91CF9108951F93182F10923F
:10077000AE03882319F081E08093AE03812F0E949D
:100780003609812F0E943609812F0E943609812F58
:100790000E94360987E194E0612F0E94E6071F91CD
:1007A00008958DEC94E040E051EE60E070E00E942E
:1007B000BE1368EC70E080E090E00E94BA11809176
:1007C000AE03882331F08DEC94E06DE571E00E947A
:1007D000C0178091AE030E94B50310923B048EE1D6
:1007E00094E061E00E942D110E94AC116093B1036E
:1007F0007093B2038093B3039093B40387E194E0C2
:100800000E94ED07609195037091960387E194E053
:100810000E94BF078FE194E060E00E940C0687E130
:1008200094E061E00E9499078091AE03882331F043
:100830008DEC94E060EA71E00E94C0170E944302D0
:100840000895382F8C3269F48091D503E82FF0E0B9
:10085000EB54FC4F9091390490838F5F8093D503C4
:1008600099C080538A3058F4809139042AE0829FDD
:10087000C0011124380F3053309339040895832F69
:1008800081568A3108F089C0323779F133377CF4E8
:10089000333609F46AC0343624F4313609F076C0B0
:1008A0001AC0343671F0393609F070C04BC0343795
:1008B00071F13437B4F1363789F1383709F066C051
:1008C00005C0809139040E94B50364C08091390449
:1008D0000E9490025FC060E080913904811161E064
:1008E0008EE194E00E942D1155C080913904882337
:1008F00019F463E170E002C063E270E07093960364
:100900006093950387E194E00E94BF0743C0809104
:1009100039048093AF031092B0033CC00E9443029D
:1009200039C06091D503E62FF0E0EB54FC4F809185
:10093000390480836F5F6093D50385EB93E00E9459
:10094000990310C06091D503E62FF0E0EB54FC4F03
:100950008091390480836F5F6093D50385EB93E0CA
:100960000E9448031092D50315C06091D503E62F6D
:10097000F0E0EB54FC4F8091390480836F5F60930B
:10098000D50385EB93E00E94FF02ECCF0E94430267
:100990000E9405021092390408953152303220F439
:1009A0000E9443020E9405020895EF92FF920F9366
:1009B0001F93CF93DF938DEC94E00E944514892B15
:1009C00031F08DEC94E00E9476140E942104809115
:1009D000AF039091B003892B09F45BC00E94AC1166
:1009E0002091B1033091B2034091B3035091B4030D
:1009F000621773078407950740F41092B1031092B1
:100A0000B2031092B3031092B4030E94AC11409150
:100A1000AF035091B00328EE33E0F9014E9F9001EF
:100A20004F9F300D5E9F300D112440E050E0E0906C
:100A3000B103F090B2030091B3031091B4032E0DF3
:100A40003F1D401F511F261737074807590708F554
:100A50008091950390919603839719F483E190E038
:100A600002C083E290E09093960380939503609197
:100A700095037091960387E194E00E94BF070E945E
:100A8000AC116093B1037093B2038093B30390935E
:100A9000B4038FE194E00E942E06882361F08EE17A
:100AA00094E062E00E94341187E194E061E00E94EA
:100AB00099071092160487E194E00E945808882351
:100AC000C1F01091160487E194E00E948A07E12F9B
:100AD000F0E0EA52FC4F80831F5F109316040E94DF
:100AE000AC1160933504709336048093370490936F
:100AF000380480911604882399F00E94AC1120914B
:100B000035043091360440913704509138042E5CFE
:100B10003F4F4F4F5F4F261737074807590728F0B9
:100B200080911604803208F450C087E194E060E0C0
:100B30000E9499078EE194E061E00E943411809157
:100B4000AE03882329F18DEC94E063ED71E00E94FF
:100B5000C316C0E0D0E011C0FE01EA52FC4F8DEC9C
:100B600094E0608140E150E00E945E168DEC94E0DC
:100B700062EF71E00E94C31621968091160490E006
:100B80000197C817D90744F38DEC94E00E948615AD
:100B900086ED93E00E94B50A882381F486ED93E008
:100BA0000E94E70D882351F486ED93E00E94E20F46
:100BB000882321F486ED93E00E94B9101092160468
:100BC00087E194E061E00E949907DF91CF911F9146
:100BD0000F91FF90EF900895FC0171836083128262
:100BE00083E190E0948383831582118A80E090E012
:100BF000A0E0B0E085879687A787B08B80EA9FE06A
:100C000097838683128A138A148A158A148610861B
:100C10001186128613860895FC0162830895CF928F
:100C2000DF92EF92FF920F931F93FC01658357832E
:100C300046832487E086F18602871387D482C382A5
:100C40001F910F91FF90EF90DF90CF900895FC01DE
:100C5000458756876787708B218B0895CF92DF92E7
:100C6000EF92FF920F931F93DF93CF93CDB7DEB731
:100C700061970FB6F894DEBF0FBECDBF6C01FC01CB
:100C80008281882309F460C00E94AC11F60126819C
:100C9000378140E050E0E288F388048915892E0D01
:100CA0003F1D401F511F621773078407950708F403
:100CB0004BC00E94AC11F601628B738B848B958BB9
:100CC0008485882369F00E94AC11F6012085318566
:100CD00042855385621773078407950708F01486C9
:100CE000F60185818F838485888719868585968519
:100CF000A785B0898A879B87AC87BD871E86818937
:100D00008F87808191810E94B4067C01F601638106
:100D10007481808191810E94BF07CE0106968E0169
:100D20000F5F1F4FB8010E94140BF6018081918163
:100D3000B80145E00E947708F60180819181B701F2
:100D40000E94BF0781E001C080E061960FB6F89471
:100D5000DEBF0FBECDBFCF91DF911F910F91FF90EE
:100D6000EF90DF90CF900895FC01868190E0089588
:100D7000EF92FF920F931F93CF93DF93DC011196B5
:100D8000EC9111978E2F90E0FC01EC50FD4FE49117
:100D9000F0E0EE0FFF1FE651FD4F05911491885FC3
:100DA0009C4FFC0144911396EC9113972E2F30E049
:100DB000F901EC50FD4FE4918E2F90E0880F991FC0
:100DC00080529D4FFC01C591D4918881285F3C4F92
:100DD000F901949190958923888350E0C42FD0E045
:100DE000EC9177FF17C02E2F30E0F901EC50FD4F4A
:100DF000E4918E2F90E0880F991F80529D4FFC0147
:100E0000E590F490F7018081285F3C4FF9019491BF
:100E1000892B17C02E2F30E0F901EC50FD4FE491E3
:100E20008E2F90E0880F991F80529D4FFC01E59016
:100E3000F490F7018081285F3C4FF90194919095DF
:100E40008923F7018083660F771FF801808190E086
:100E50008C239D23892B09F061601296EC911297E7
:100E60002E2F30E0F901EC50FD4FE4918E2F90E0F1
:100E7000880F991F80529D4FFC01E590F490F70177
:100E80008081285F3C4FF9019491892BF701808381
:100E9000000000001296EC9112972E2F30E0F9011D
:100EA000EC50FD4FE4918E2F90E0880F991F8052F7
:100EB0009D4FFC01E590F490F7018081285F3C4F45
:100EC000F901949190958923F70180835F5F5031F8
:100ED00009F086CF13968C91282F30E0F901EC5061
:100EE000FD4FE4918E2F90E0880F991F80529D4F07
:100EF000FC01A591B4918C91285F3C4FF90194912C
:100F0000892B8C93CB01DF91CF911F910F91FF9093
:100F1000EF90089560E070EB0E94B8060895662394
:100F200019F068E372E802C068E072E80E94B8064F
:100F300008951F93CF93DF93EC016623C1F068EC13
:100F400072E80E94B806CE0161E87AEC0E94B80609
:100F5000CE0163E87AEC0E94B80610E0CE0160E0B2
:100F600070EB0E94B8061F5F1233C1F704C068E03F
:100F700072E80E94B806DF91CF911F910895FC019D
:100F8000668370E0766C0E94B8060895CF93DF9375
:100F9000EC01CE0160E070E00E94B80697FFF9CF47
:100FA000DF91CF910895EF92FF920F931F937C01F1
:100FB000062F0E94C60710E0186BC701B8010E94F7
:100FC000B8061F910F91FF90EF900895FC011582D4
:100FD000662311F081E0858308950F931F93CF93CB
:100FE000DF93EC018B8161E00E948D1200E010E044
:100FF0006AE070E080E090E00E94BA110F5F1F4F3E
:101000000A301105A9F7CE0168E072E80E94B8061F
:10101000CE0168EE70E80E94B806CE016CE776EA71
:101020000E94B8066E8170E0766CCE010E94B80610
:10103000CE016AE672EC0E94B806CE0162E17AEC5B
:101040000E94B806CE0164ED7EEC0E94B806CE0187
:101050006FE974EC0E94B806CE0160EA74E90E9460
:10106000B806CE0167E77CEC0E94B806CE0160E5C9
:1010700078E90E94B806CE0160E070EE0E94B806E2
:10108000CE0160E078EC0E94B806CE0160E470EC1E
:101090000E94B80610E0CE0160E070EB0E94B80636
:1010A0001F5F1233C1F7DF91CF911F910F91089508
:1010B000EF92FF920F931F938C01FC01838160E0FC
:1010C0000E948D1200000000F80181810E94E1124F
:1010D0007C01F801838161E00E948D1280E0EF289D
:1010E00009F081E01F910F91FF90EF900895BF925A
:1010F000CF92DF92EF92FF920F931F93CF93DF93E4
:101100008C016B01B42EFC018581882319F18DECD3
:1011100094E064EF71E00E94C316C0E0D0E0EB2CD5
:10112000FF2411C0F601EC0FFD1F8DEC94E06081EF
:101130004AE050E00E945E168DEC94E063E072E0BD
:101140000E94C3162196CE15DF0564F38DEC94E062
:101150000E948615C80161E00E948F07C8016AEAF3
:101160000E94D307C8016AEA0E94D307C8016AEA4D
:101170000E94D307C8016DE20E94D307C80164ED45
:101180000E94D307C0E0D0E0EB2CFF2408C0F6019A
:10119000EC0FFD1FC80160810E94D3072196CE1578
:1011A000DF05ACF361E070E080E090E00E94BA11EE
:1011B000C80160E00E948F07DF91CF911F910F91CE
:1011C000FF90EF90DF90CF90BF900895CF92DF9285
:1011D000EF920F936C01862FF60160834183228387
:1011E0000383E482158293E1968361E00E944E12AC
:1011F000F601818160E00E944E12F601828161E079
:101200000E944E12F601838161E00E944E12F601A7
:10121000848160E00E944E120F91EF90DF90CF909A
:101220000895CF93DF93EC0140E050E070E0A62FEB
:10123000B0E091E314C0FE01E40FF51FE08120E06F
:1012400030E08E2F8727770F87FD79272F5F3F4F5D
:101250002830310511F0EE0FF4CF4F5F5F4F4A1782
:101260005B074CF3872FDF91CF91089510923A04DA
:10127000882319F081E080933A0408958F929F9219
:10128000AF92BF92CF92DF92EF92FF920F931F9394
:10129000DF93CF93CDB7DEB727970FB6F894DEBFB5
:1012A0000FBECDBF4C015B018E010F5F1F4FC80108
:1012B00065E072E00E944119C80166E072E00E9498
:1012C000FE18C801F50161810E94BF18C80160E2E3
:1012D0000E94EB18F5019185943640F09A3631F072
:1012E000892F8058843610F09A3E71F4F50182817E
:1012F000882319F461E070E002C061E870E08E01BB
:101300000F5F1F4FC8010BC09D3719F09D3F09F0BB
:101310004DC08E010F5F1F4FC80162E870E00E9450
:101320008E18C80160E20E94EB18F5016481758196
:101330008681978120E030E040E251E40E94AF1DB9
:1013400020E030E04AE754E40E949A1B0E946F1CA0
:101350006B017C018E010F5F1F4FC8016D2D0E9434
:10136000BF18C80160E20E94EB18C8016C2D0E94F2
:10137000BF18C80160E20E94EB18F501E480F58017
:1013800006811781C801B70120E030E040E752E450
:101390000E94AB1D87FF0AC0C801B70120E030E002
:1013A00040E252EC0E94FE1B181634F0C40165E0C6
:1013B00072E00E9441190FC0F5016185808581119D
:1013C00060688E010F5F1F4FC8010E94BF18C401E3
:1013D000B8010E947219CE0101960E947D19C401C4
:1013E00027960FB6F894DEBF0FBECDBFCF91DF9129
:1013F0001F910F91FF90EF90DF90CF90BF90AF9033
:101400009F908F90089564E00E94110908958F9233
:101410009F92AF92BF92CF92DF92EF92FF920F9383
:101420001F93CF93DF934C01EB0181E08B87F40195
:1014300014811A87C4010E94030A18131B8619829B
:10144000F401808190E08F709070880F991F880F51
:10145000991F982F898380913B042181882311F063
:10146000207C04C02295269526952370922B998383
:10147000F401808182958F708883893009F01B8602
:1014800090E0F401818185FD91E09A8390E0F40180
:10149000818184FD91E09B83F401E28061816F7022
:1014A00070E0882777FD8095982F0E949D1C20E092
:1014B00030E048EC52E40E94AF1D20E030E040E014
:1014C00050E00E949A1B5B016C016E2D62956F705B
:1014D00070E0882777FD8095982F0E949D1C20E062
:1014E00030E040E251E40E94AF1D9B01AC01C60117
:1014F000B5010E949A1B5B016C01FFE0EF22FF2403
:101500000027F7FC0095102FC801B7010E949D1C11
:101510009B01AC01C601B5010E949A1B20E030E09E
:1015200040E251E40E94021C20E030E040E252E43C
:101530000E94991B6C837D838E839F8390E0F401CE
:10154000838187FD91E09887F40183818F77898774
:10155000DF91CF911F910F91FF90EF90DF90CF908F
:10156000BF90AF909F908F900895CF92DF92EF92AF
:10157000FF920F931F93DF93CF93CDB7DEB76A9798
:101580000FB6F894DEBF0FBECDBF8C016E0108947C
:10159000C11CD11CC60165E072E00E944119F8012E
:1015A000808182958F70893029F53FE0E32EF12C00
:1015B000EC0EFD1EC801B7010E94070A8A8D882320
:1015C00071F08E01085F1F4FC801B7010E943E09EC
:1015D000C601B8010E945B19C8010E947D198D8166
:1015E0009E81892B39F08DEC94E0BE016F5F7F4FB7
:1015F0000E94061810E08D819E81892B09F011E070
:10160000CE0101960E947D19812F6A960FB6F8943B
:10161000DEBF0FBECDBFCF91DF911F910F91FF9025
:10162000EF90DF90CF9008958F929F92AF92BF92EC
:10163000CF92DF92EF92FF920F931F93CF93DF939E
:101640004C01EB0180E090E0FE01E80FF91F1082F1
:10165000019685309105C1F780E98883F401818185
:101660008695869580698883818190E056E0880F11
:10167000991F5A95E1F7898322812295220F207EB6
:10168000282B298313811295107F122B19836481D3
:1016900075818681978120E030E040E252E40E942B
:1016A0009A1B5B016C0120E030E040E251E40E94B3
:1016B000021C0E946A1C162B1983C601B50120E08A
:1016C00030E040E85FE30E94DF1C7B018C01C60133
:1016D000B5010E946A1CDC01CB016AE070E00E9447
:1016E000351E6C0144E0CC0CDD1C4A95E1F7C801C5
:1016F000B70120E030E040E251E40E94AF1D20E05D
:1017000030E040E05FE30E949A1B0E946A1CC62AF8
:101710008A818C298A83F40191859B8380858795B2
:1017200088278795892B8B83CE010E94030A8C839F
:10173000DF91CF911F910F91FF90EF90DF90CF90AD
:10174000BF90AF909F908F9008958F929F92AF928D
:10175000BF92CF92DF92EF92FF920F931F93D82EFA
:10176000C92E4B016DE672E00E9441198D2D9C2D12
:101770006EE672E00E94FE188D2D9C2DF4016181B1
:101780000E94BF188D2D9C2D65E772E00E94FE1807
:10179000F401628173818481958120E030E040E230
:1017A00051E40E94AF1D20E030E04AE754E40E947B
:1017B0009A1B0E946A1C7B018C01672F770F770BA5
:1017C0008D2D9C2D0E94BF1899E7A92E92E0B92E6D
:1017D0008D2D9C2DB5010E94FE188D2D9C2D6E2DFA
:1017E0000E94BF188D2D9C2DB5010E94FE18F4019A
:1017F000668177818085918520E030E040E251E488
:101800000E94AF1D20E030E04AE754E40E949A1B9A
:101810000E946A1C7B018C016F2D772767FD7A95EA
:101820008D2D9C2D0E94BF188D2D9C2DB5010E94E1
:10183000FE188D2D9C2D6E2D0E94BF188D2D9C2D78
:10184000B5010E94FE18F401628573858485958533
:1018500020E030E040E251E40E94AF1D0E946A1C8B
:101860009B01AC018D2D9C2DB9010E948E188D2DF0
:101870009C2D1F910F91FF90EF90DF90CF90BF9024
:10188000AF909F908F90089565E00E941109089590
:101890008F929F92AF92BF92CF92DF92EF92FF9280
:1018A0000F931F93CF93DF934C01EB0181E08F8760
:1018B000F40115811E87C4010E94440C181759F0C9
:1018C00080913A04882331F08DEC94E06BE772E06C
:1018D0000E94C0171F86F40180818F7089838081E8
:1018E00082958F7088838B3059F080913A048823D9
:1018F00031F08DEC94E06AE872E00E94C0171F8618
:10190000F401818182958F7090E024E630E0829F1F
:10191000B001839F700D929F700D1124882777FD71
:101920008095982F0E949D1C7B018C016A837B838C
:101930008C839D83F401218130E02F703070B901D8
:10194000B3E0660F771FBA95E1F7220F331F620FDE
:10195000731F882777FD8095982F0E949D1C9B01FF
:10196000AC01C801B7010E949A1B7B018C016A83FC
:101970007B838C839D83F401628162956F7070E03C
:10198000882777FD8095982F0E949D1C9B01AC01B4
:10199000C801B7010E949A1B20E030E040E05FE3FD
:1019A0000E94AF1D6A837B838C839D83F401228117
:1019B00030E02F703070B901F3E0660F771FFA95B1
:1019C000E1F7220F331F620F731F882777FD809581
:1019D000982F0E949D1C7B018C016E837F838887DA
:1019E0009987F401638162956F7070E0882777FDB5
:1019F0008095982F0E949D1C9B01AC01C801B701E6
:101A00000E949A1B7B018C016E837F838887998754
:101A1000F401638170E06F707070882777FD8095A6
:101A2000982F0E949D1C2DEC3CEC4CEC5DE30E9439
:101A3000AF1D9B01AC01C801B7010E949A1B20E0B9
:101A400030E040E252E40E94991B5B016C016E831E
:101A50007F8388879987F401648162956F7070E055
:101A6000882777FD8095982F0E949D1C7B018C0113
:101A70006A877B878C879D87F401648170E06F7033
:101A80007070882777FD8095982F0E949D1C2DEC03
:101A90003CEC4CEC5DE30E94AF1D9B01AC01C80126
:101AA000B7010E949A1B6A877B878C879D87C60136
:101AB000B50120E030E040E252EC0E94FE1B87FDC1
:101AC0000AC0C601B50120E030E040E752E40E94C0
:101AD000AB1D1816ACF41F8680913A04882381F060
:101AE0008DEC94E069E972E00E94C3164E815F813B
:101AF000688579858DEC94E022E030E00E94AD1796
:101B0000EA80FB800C811D81C801B70120E030E034
:101B100040E050E40E94FE1B87FD0AC0C801B701E7
:101B200020E030E046E953E40E94AB1D1816ACF407
:101B30001F8680913A04882381F08DEC94E060EB5D
:101B400072E00E94C3164A815B816C817D818DECBD
:101B500094E022E030E00E94AD17EA84FB840C851B
:101B60001D85C801B70120E030E040E050E40E944C
:101B7000FE1B87FD0AC0C801B70120E030E040E548
:101B800051E40E94AB1D1816ACF41F8680913A04F4
:101B9000882381F08DEC94E061EC72E00E94C31622
:101BA0004A855B856C857D858DEC94E022E030E094
:101BB0000E94AD17DF91CF911F910F91FF90EF9091
:101BC000DF90CF90BF90AF909F908F900895CF926D
:101BD000DF92EF92FF920F931F93DF93CF93CDB7D6
:101BE000DEB76E970FB6F894DEBF0FBECDBF8C0187
:101BF0006E010894C11CD11CC6016DE672E00E9402
:101C000041198FE0E82EF12CEC0EFD1EC801B70142
:101C10000E94480C8E8D882371F08E01085F1F4F43
:101C2000C801B7010E94A50BC601B8010E945B194B
:101C3000C8010E947D198D819E81892B39F08DEC20
:101C400094E0BE016F5F7F4F0E94061800E08D8117
:101C50009E81892B09F001E0CE0101960E947D1939
:101C6000802F6E960FB6F894DEBF0FBECDBFCF911A
:101C7000DF911F910F91FF90EF90DF90CF9008952B
:101C80000F931F93CF93DF938C01EB0181E0898F3A
:101C9000F801808188838181898390E0848187FD38
:101CA00091E09D83F801928180E0238130E0822BD6
:101CB000932B9B838A8390E0818586FD91E09E8BA8
:101CC00090E0F801818587FD91E09F8B8D818823CD
:101CD000B9F080E090E0A0E0B0E08E839F83A88719
:101CE000B9878A879B87AC87BD878E879F87A88B9C
:101CF000B98B8A8B9B8BAC8BBD8B1C82188E77C06B
:101D0000F801608570E0882777FD8095982F0E9404
:101D10009D1C20E030E040E05FE30E94AF1D20E02A
:101D200030E040E053E40E949A1B6E837F838887F3
:101D30009987F801768160E0278130E0622B732B70
:101D4000882777FD8095982F0E949D1C6A877B8746
:101D50008C879D87F801848190E08F739070982F15
:101D60008827258130E0822B932B62E070E00E946F
:101D7000351E882777FD8095982F0E949D1C6E87C1
:101D80007F87888B998BF801618570E06F73707025
:101D9000762F6627228530E0622B732B882777FD0C
:101DA0008095982F0E949D1C20E030E048EC52E482
:101DB0000E94021C6A8B7B8B8C8B9D8B90E0F801C0
:101DC000848186FD91E09C83F8018385888F20E0E3
:101DD00030E090E0F801E20FF31F8081980F2F5F51
:101DE0003F4F2C303105B1F7198E992311F481E062
:101DF000898FDF91CF911F910F9108958F929F92BC
:101E0000AF92BF92CF92DF92EF92FF920F931F9308
:101E1000D82EC92E4B0162E273E00E9441198D2D2C
:101E20009C2D63E273E00E94FE18F40163818D2D06
:101E30009C2D0E94BF187FE2A72E73E0B72E8D2D38
:101E40009C2DB5010E94FE188D2D9C2DF401628100
:101E50000E94BF188D2D9C2DB5010E94FE18F40123
:101E6000668177818085918520E030E040E251E411
:101E70000E94AF1D0E946A1C7B018C016F2D772789
:101E800067FD7A958D2D9C2D0E94BF188D2D9C2D60
:101E9000B5010E94FE188D2D9C2D6E2D0E94BF183D
:101EA0008D2D9C2DB5010E94FE18F401628573856D
:101EB000848595850E946A1C9B01AC01232F330FFA
:101EC000330B8D2D9C2D622F0E94BF188D2D9C2DC4
:101ED000B5010E94FE18F40162857385848595859D
:101EE0000E946F1C9B01AC018D2D9C2D622F0E94C6
:101EF000BF188D2D9C2DB5010E94FE18F40166853A
:101F00007785808991890E946A1C9B01AC01232FEF
:101F1000330F330B8D2D9C2D622F0E94BF188D2DFA
:101F20009C2DB5010E94FE18F40166857785808995
:101F300091890E946F1C9B01AC018D2D9C2D622FFD
:101F40000E94BF188D2D9C2DB5010E94FE18F40132
:101F5000628973898489958920E030E048EC52E4F5
:101F60000E94AF1D0E946A1C7B018C01672F770FB6
:101F7000770B8D2D9C2D0E94BF188D2D9C2DB501AA
:101F80000E94FE188D2D9C2D6E2D0E94BF188D2D48
:101F90009C2DB5010E94FE18F4016581660F8481B5
:101FA000680F8D2D9C2D0E94BF188D2D9C2D1F918B
:101FB0000F91FF90EF90DF90CF90BF90AF909F90E8
:101FC0008F900895EF92FF920F931F93DF93CF931B
:101FD000CDB7DEB7A8970FB6F894DEBF0FBECDBF62
:101FE0008C01CE01019662E273E00E944119F80172
:101FF0008081853201F581818A3611F08A32D9F4E7
:10200000EFE0EE2EF12CEC0EFD1EC801B7010E9490
:10201000400E88A5882379F08E01085F1F4FC80104
:10202000B7010E94FE0ECE010196B8010E945B1915
:10203000C8010E947D198D819E81892B39F08DEC1C
:1020400094E0BE016F5F7F4F0E94061810E08D8103
:102050009E81892B09F011E0CE0101960E947D1925
:10206000812FA8960FB6F894DEBF0FBECDBFCF91DB
:10207000DF911F910F91FF90EF900895CF92DF9223
:10208000EF92FF920F931F93CF93DF936C01EB01BD
:1020900081E08B87F6018081888385818A8720E0B3
:1020A00030E090E0F601E20FF31F8081980F2F5F80
:1020B0003F4F26303105B1F71B86992311F481E09B
:1020C0008B87F6012181822F90E08073907044E02D
:1020D000959587954A95E1F7982F882309F494E020
:1020E0009295907F2F70922B9983F601628170E018
:1020F00062537040882777FD8095982F0E949D1C21
:1021000020E030E040E251E40E94AF1D7B018C01F1
:10211000F601638170E0882777FD8095982F0E94F3
:102120009D1C9B01AC01C801B7010E949A1B20E0D5
:1021300030E040E251E40E94021C6C837D838E8378
:102140009F83F6018481898720E0818190E036E0D9
:10215000959587953A95E1F7892B09F021E0288735
:10216000DF91CF911F910F91FF90EF90DF90CF9073
:102170000895CF92DF92EF92FF920F931F93DF9318
:10218000CF93CDB7DEB76A970FB6F894DEBF0FBE18
:10219000CDBF8C016E010894C11CD11CC60166E83C
:1021A00073E00E944119F8018081813529F55FE0D3
:1021B000E52EF12CEC0EFD1EC801B7010E943E1069
:1021C0008A8D882371F08E01085F1F4FC801B70107
:1021D0000E943E09C601B8010E945B19C8010E9415
:1021E0007D198D819E81892B39F08DEC94E0BE01A3
:1021F0006F5F7F4F0E94061810E08D819E81892BB2
:1022000009F011E0CE0101960E947D19812F6A9696
:102210000FB6F894DEBF0FBECDBFCF91DF911F91F7
:102220000F91FF90EF90DF90CF900895FC0181E037
:10223000808308951F93FC01162F8081882359F015
:1022400089E061E00E944E1260E0112309F461E030
:1022500089E00E948D121F910895FC01608366231E
:1022600011F40E941A110895EF92FF920F931F9399
:10227000CF93DF937C01662301F16B3008F06AE0B5
:10228000C0E0D0E0062F10E015C0C70161E00E9459
:102290001A1162E370E080E090E00E94BA11C70179
:1022A00060E00E941A1162E370E080E090E00E941A
:1022B000BA112196C017D10744F3DF91CF911F9136
:1022C0000F91FF90EF9008951F920F920FB60F920B
:1022D00011242F933F938F939F93AF93BF9380913C
:1022E000400490914104A0914204B0914304309184
:1022F00044040196A11DB11D232F2D5F2D3720F021
:102300002D570196A11DB11D2093440480934004D4
:1023100090934104A0934204B093430480913C0401
:1023200090913D04A0913E04B0913F040196A11DFF
:10233000B11D80933C0490933D04A0933E04B09360
:102340003F04BF91AF919F918F913F912F910F903B
:102350000FBE0F901F9018958FB7F89420914004EE
:102360003091410440914204509143048FBFB90120
:10237000CA0108959B01AC017FB7F89480913C0499
:1023800090913D04A0913E04B0913F0466B5A89B96
:1023900005C06F3F19F00196A11DB11D7FBFBA2F77
:1023A000A92F982F8827860F911DA11DB11D62E0CE
:1023B000880F991FAA1FBB1F6A95D1F7BC012DC0BA
:1023C000FFB7F89480913C0490913D04A0913E04A5
:1023D000B0913F04E6B5A89B05C0EF3F19F0019608
:1023E000A11DB11DFFBFBA2FA92F982F88278E0FCF
:1023F000911DA11DB11DE2E0880F991FAA1FBB1FEF
:10240000EA95D1F7861B970B885E9340C8F221505E
:1024100030404040504068517C4F21153105410506
:10242000510571F60895789484B5826084BD84B5B1
:10243000816084BD85B5826085BD85B5816085BDBF
:10244000EEE6F0E0808181608083E1E8F0E01082D8
:10245000808182608083808181608083E0E8F0E019
:10246000808181608083E1EBF0E080818460808303
:10247000E0EBF0E0808181608083EAE7F0E080813A
:10248000846080838081826080838081816080839A
:102490008081806880831092C1000895CF93DF937C
:1024A000482F50E0CA01885F9C4FFC0134914C508A
:1024B0005D4FFA018491882369F190E0880F991F9C
:1024C000FC01EA52FD4FA591B491FC01E052FD4F91
:1024D000C591D491662351F42FB7F8948C91932F22
:1024E000909589238C93888189230BC0623061F495
:1024F0002FB7F8948C91932F909589238C93888192
:10250000832B88832FBF06C09FB7F8948C91832BB1
:102510008C939FBFDF91CF910895482F50E0CA015F
:10252000845E9C4FFC012491CA01885F9C4FFC0192
:1025300094914C505D4FFA013491332309F440C01B
:10254000222351F1233071F0243028F42130A1F0FE
:10255000223011F514C02630B1F02730C1F02430FC
:10256000D9F404C0809180008F7703C080918000EF
:102570008F7D8093800010C084B58F7702C084B5B2
:102580008F7D84BD09C08091B0008F7703C080919A
:10259000B0008F7D8093B000E32FF0E0EE0FFF1FBF
:1025A000E052FD4FA591B4912FB7F894662321F422
:1025B0008C919095892302C08C91892B8C932FBF8D
:1025C0000895682F70E0CB01845E9C4FFC0124913C
:1025D000CB01885F9C4FFC0144916C507D4FFB0107
:1025E0009491992319F420E030E03CC0222351F16A
:1025F000233071F0243028F42130A1F0223011F57D
:1026000014C02630B1F02730C1F02430D9F404C012
:10261000809180008F7703C0809180008F7D8093B0
:10262000800010C084B58F7702C084B58F7D84BDD3
:1026300009C08091B0008F7703C08091B0008F7D7A
:102640008093B000892F90E0880F991F86519D4F8D
:10265000FC01A591B4918C9120E030E0842311F02D
:1026600021E030E0C901089508951F920F920FB63E
:102670000F9211242F933F934F938F939F93EF9338
:10268000FF938091C00082FD1DC04091C600209143
:102690008504309186042F5F3F4F2F7330708091F7
:1026A0008704909188042817390771F0E091850418
:1026B000F0918604EB5BFB4F4083309386042093BC
:1026C000850402C08091C600FF91EF919F918F9188
:1026D0004F913F912F910F900FBE0F901F90189523
:1026E000E091D904F091DA04E05CFF4F819191917F
:1026F00020813181821B930B8F739070892B11F095
:102700000E94341308951F920F920FB60F92112456
:102710002F933F938F939F93EF93FF932091C9043F
:102720003091CA048091CB049091CC0428173907CA
:1027300031F48091C1008F7D8093C10014C0E0917D
:10274000CB04F091CC04E757FB4F20818091CB0460
:102750009091CC0401968F7390709093CC048093E9
:10276000CB042093C600FF91EF919F918F913F91F1
:102770002F910F900FBE0F901F901895AF92BF92A0
:10278000DF92EF92FF920F931F93CF93DF93EC01B1
:102790007A018B01DD24403081EE580780E0680724
:1027A00080E0780711F0DD24D39491E0A92EB12CBC
:1027B000EC89FD89DD2069F0C50108A002C0880F01
:1027C000991F0A94E2F7808360E079E08DE390E05E
:1027D00005C0108260E874E88EE190E0A8019701DE
:1027E0000E94481E21503040404050405695479529
:1027F0003795279580E12030380720F0DD2011F053
:10280000DD24D6CFE889F9893083EA89FB892083E2
:1028100019A2EE89FF89408121E030E0C9010C8CCA
:1028200002C0880F991F0A94E2F7482B4083EE8973
:10283000FF894081C9010D8C02C0880F991F0A943D
:10284000E2F7482B4083EE89FF894081C9010E8C55
:1028500002C0880F991F0A94E2F7482B4083EE8943
:10286000FF8980810F8C02C0220F331F0A94E2F788
:10287000209528232083DF91CF911F910F91FF9006
:10288000EF90DF90BF90AF900895DC011C96ED9122
:10289000FC911D97E05CFF4F2191319180819181E6
:1028A000281B390B2F733070C9010895DC011C9669
:1028B000ED91FC911D97E05CFF4F20813181E05448
:1028C000F040DF01AE5BBF4F8D919C9111972817AF
:1028D000390719F42FEF3FEF07C08D919C91E80F56
:1028E000F91F8081282F30E0C9010895DC011C9672
:1028F000ED91FC911D97E05CFF4F20813181E05408
:10290000F040DF01AE5BBF4F8D919C91119728176E
:10291000390719F42FEF3FEF10C08D919C9111975B
:10292000E80FF91F20818D919C91119701968F736B
:10293000907011969C938E9330E0C9010895DC014C
:1029400091968C919197882339F05496ED91FC9152
:102950005597808186FFF9CF91961C920895CF9369
:10296000DF93EC01EE85FF85E05CFF4F2081318134
:10297000E054F0402F5F3F4F2F733070DF01AE5BAC
:10298000BF4F8D919C91119728173907D1F3E05CC7
:10299000FF4F80819181E054F040E80FF91F608380
:1029A000EE85FF85E05CFF4F31832083EE89FF8950
:1029B000208181E090E00F8C02C0880F991F0A945B
:1029C000E2F7282B208381E089A3EC89FD898081AF
:1029D0008064808381E090E0DF91CF910895109230
:1029E000D0041092CF0488EE93E0A0E0B0E0809392
:1029F000D1049093D204A093D304B093D40481EA79
:102A000093E09093CE048093CD0485E494E090937A
:102A1000DA048093D90489E894E09093DC048093ED
:102A2000DB0485EC90E09093DE048093DD0484EC7D
:102A300090E09093E0048093DF0480EC90E090932A
:102A4000E2048093E10481EC90E09093E4048093AD
:102A5000E30482EC90E09093E6048093E50486EC36
:102A600090E09093E8048093E70484E08093E90485
:102A700083E08093EA0487E08093EB0485E0809311
:102A8000EC0481E08093ED040895CF93DF930E94DE
:102A900013120E94D103C0E7D3E10E94D50420970E
:102AA000E1F30E947013F9CFCF92DF92EF92FF9281
:102AB0000F931F93CF93DF937C016B018A01C0E0DA
:102AC000D0E00FC0D6016D916D01D701ED91FC9161
:102AD0000190F081E02DC7010995C80FD91F015061
:102AE00010400115110571F7CE01DF91CF911F91B3
:102AF0000F91FF90EF90DF90CF900895DC01ED9162
:102B0000FC910190F081E02D09950895EF92FF92DC
:102B10000F931F938C01DC01ED91FC910190F081EA
:102B2000E02D6DE009957C01D801ED91FC910190BB
:102B3000F081E02DC8016AE009959C012E0D3F1D32
:102B4000C9011F910F91FF90EF900895EF92FF92AE
:102B50000F931F937C01DC01ED91FC910190F081BA
:102B6000E02D09958C01C7010E948615080F191FD9
:102B7000C8011F910F91FF90EF900895CF93DF93BD
:102B8000EC016115710519F420E030E00FC0DB01A4
:102B90000D900020E9F71197A61BB70BE881F9818A
:102BA0000280F381E02DAD0109959C01C901DF91FF
:102BB000CF9108954F925F927F928F929F92AF92A2
:102BC000BF92CF92DF92EF92FF920F931F93DF930A
:102BD000CF93CDB7DEB7A1970FB6F894DEBF0FBE87
:102BE000CDBF2C01742ECB01223008F42AE019A2AB
:102BF00031E2C32ED12CCC0EDD1E822E9924AA24C4
:102C0000BB24672D752FA50194010E94481E7901F0
:102C10008A01C801B701A50194010E94161E472D23
:102C2000461B0894C108D1084A3014F4405D01C025
:102C3000495CF6014083E114F1040105110521F01E
:102C40007E2C5F2DC801DDCFC201B6010E94BE15EA
:102C5000A1960FB6F894DEBF0FBECDBFCF91DF9126
:102C60001F910F91FF90EF90DF90CF90BF90AF90AA
:102C70009F908F907F905F904F900895DC01211579
:102C8000310541F4ED91FC910190F081E02D642F2C
:102C9000099508950E94DA150895EF92FF920F9317
:102CA0001F939A017B0100E010E0B801A7010E9488
:102CB0003E161F910F91FF90EF900895EF92FF92B3
:102CC0000F931F939A01E62EFF2400E010E0B80155
:102CD000A7010E943E161F910F91FF90EF9008955B
:102CE000CF92DF92EF92FF920F931F93CF93DF93D8
:102CF000EC016A017B012115310541F4E881F9817C
:102D00000190F081E02D642F09951FC02A30310514
:102D1000D1F477FF17C0E881F9810190F081E02DAF
:102D20006DE209958C0144275527BA014C195D09BC
:102D30006E097F09CE012AE00E94DA159801280F5A
:102D4000391F04C02AE00E94DA159C01C901DF91F5
:102D5000CF911F910F91FF90EF90DF90CF9008954A
:102D6000EF92FF920F931F937B019A010027F7FCCC
:102D70000095102FB801A7010E9470161F910F91A6
:102D8000FF90EF9008950E94BE1508957F928F9254
:102D90009F92AF92BF92CF92DF92EF92FF920F93EA
:102DA0001F93CF93DF934C017A018B01722ECB01DD
:102DB000BA01A80197010E94121E882321F0C401C4
:102DC00067E873E021C0C0E0D0E057016801E894F3
:102DD000D7F8C601B5012FEF3FEF4FE75FE70E943D
:102DE000121E882351F4C601B5012FEF3FEF4FE7C4
:102DF0005FE70E94FE1B181614F0C1E0D0E0219797
:102E000039F0C4016BE873E00E94BE15EC0193C079
:102E1000C801B7012FEF3FEF4FE75FE40E94AB1D02
:102E2000181654F0C801B7012FEF3FEF4FE75FECE2
:102E30000E94FE1B882324F4C4016FE873E0E4CFF2
:102E4000C801B70120E030E040E050E00E94FE1BE6
:102E500087FD03C0C0E0D0E00EC0D401ED91FC912D
:102E60000190F081E02DC4016DE20995EC0117FBA2
:102E7000109517F9109520E030E040E05FE3DD2485
:102E80000BC0CA01B90120E030E040E251E40E94E9
:102E9000021C9B01AC01D394D71498F3C801B7016D
:102EA0000E949A1B5B016C010E946F1C7B018C01CC
:102EB000C401B801A7012AE030E00E943E16C80F05
:102EC000D91F772039F0C40163E973E00E94BE1571
:102ED000C80FD91FC801B7010E949B1C9B01AC0100
:102EE000C601B5010E94991B24C020E030E040E2F9
:102EF00051E40E94AF1D7B018C010E946A1C5B01A2
:102F00006C01CC24B7FCC094DC2CC401B601A50133
:102F10002AE030E00E947016C80FD91FC601B50123
:102F20000E949D1C9B01AC01C801B7010E94991B26
:102F30007A947720D1F6CE01DF91CF911F910F9136
:102F4000FF90EF90DF90CF90BF90AF909F908F90C9
:102F50007F9008950E94C6160895EF92FF920F93F6
:102F60001F937C010E94C6168C01C7010E94861522
:102F7000080F191FC8011F910F91FF90EF9008953E
:102F8000EF92FF920F931F937C010E94BE158C015C
:102F9000C7010E948615080F191FC8011F910F91C4
:102FA000FF90EF900895AF92BF92CF92DF92EF9291
:102FB000FF920F931F93CF93DF935C016B01EE247D
:102FC000FF24C0E0D0E010C0D501ED91FC9100815C
:102FD0001181C601BE010E941A18682FC501F801AF
:102FE0000995E80EF91E2196F60184819581C8178E
:102FF000D90750F3C701DF91CF911F910F91FF9037
:10300000EF90DF90CF90BF90AF900895EF92FF9236
:103010000F931F937C010E94D3178C01C7010E945C
:1030200086159C01200F311FC9011F910F91FF9040
:10303000EF900895FC01848195816817790748F421
:103040000190F081E02D309721F0E60FF71F80818D
:10305000089580E008950F931F93CF93DF93EC01C1
:103060008B016F5F7F4F888199810E94B81A00970A
:1030700011F480E005C0998388831B830A8381E073
:10308000DF91CF911F910F910895CF93DF93EC01C2
:1030900088819981892B29F08A819B8186179707DE
:1030A00060F4CE010E942B18882341F08C819D8111
:1030B000892B19F4E881F981108281E0DF91CF91A9
:1030C0000895EF92FF920F931F93CF93DF93EC013C
:1030D0007B016C817D81E114F104C1F04115510542
:1030E00099F08A01060F171FB8010E94451888231E
:1030F00069F0888199812C813D81820F931FB701EE
:103100000E94CD011D830C8381E001C080E0DF912E
:10311000CF911F910F91FF90EF900895EF92FF9242
:103120000F931F93DF93CF93CDB7DEB727970FB6DB
:10313000F894DEBF0FBECDBF7C01CB018E010F5FC7
:103140001F4FB8014AE050E00E94D401F8010190FD
:103150000020E9F73197E01BF10BC701B801AF017F
:103160000E94611827960FB6F894DEBF0FBECDBF40
:10317000CF91DF911F910F91FF90EF900895EF9203
:10318000FF920F931F93DF93CF9300D000D0CDB762
:10319000DEB77C01862F90E08E010F5F1F4FB801D4
:1031A0004AE050E00E94D401F80101900020E9F7C4
:1031B0003197E01BF10BC701B801AF010E94611804
:1031C0000F900F900F900F90CF91DF911F910F9163
:1031D000FF90EF900895DF93CF9300D0CDB7DEB787
:1031E00069831A82BE016F5F7F4F41E050E00E9409
:1031F00061180F900F90CF91DF91089561157105BF
:1032000011F480E00895DB010D900020E9F711979B
:10321000A61BB70BAD010E9461180895CF93DF93F1
:10322000EC0188819981009711F00E94201A19827F
:1032300018821D821C821B821A82DF91CF91089511
:10324000EF92FF920F931F93CF93DF93EC017B01DB
:103250008A01BA010E944518882321F4CE010E94F8
:103260000E1907C01D830C8388819981B7010E94C4
:10327000CD01CE01DF91CF911F910F91FF90EF9083
:103280000895CF93DF93EC01198218821B821A8272
:103290001D821C821E826115710551F0DB010D90AB
:1032A0000020E9F71197A61BB70BAD010E9420196A
:1032B000DF91CF910895CF93DF93EC01FB01861747
:1032C000970761F0608171816115710529F0448172
:1032D00055810E94201902C00E940E19CE01DF9173
:1032E000CF910895FC0111821082138212821582FF
:1032F000148216820E945B190895FC0180819181DD
:103300000E94201A08950F931F93CF93DF93BC015F
:103310008230910510F462E070E0E091F104F091E8
:10332000F20440E050E0A0E0B0E024C08081918150
:1033300086179707D0F08617970771F482819381DB
:10334000109729F013969C938E9312972CC090930C
:10335000F2048093F10427C04115510519F0841738
:10336000950718F48D01AC01EF01DF018281938193
:103370009C01F9013097D1F641155105F9F0CA01C8
:10338000861B970B8430910580F48A819B810115FF
:10339000110521F0F8019383828304C09093F20415
:1033A0008093F104FE01329645C0FE01E80FF91F3B
:1033B000619371930297998388833CC08091EF0455
:1033C0009091F004892B41F48091990390919A0394
:1033D0009093F0048093EF0440919B0350919C03E1
:1033E0004115510541F44DB75EB780919703909117
:1033F0009803481B590B2091EF043091F0042417D7
:103400003507B0F4CA01821B930B8617970780F02B
:10341000AB014E5F5F4F8417950750F0420F531F6B
:103420005093F0044093EF04F9016193719302C04B
:10343000E0E0F0E0CF01DF91CF911F910F9108956F
:10344000CF93DF939C01009709F48FC0EC01229782
:103450001B821A826091F1047091F204611571056A
:1034600081F488819981820F931F2091EF0430911C
:10347000F0042817390739F5D093F004C093EF040E
:1034800074C0DB0140E050E0AC17BD0708F1BB831E
:10349000AA83FE0121913191E20FF31FAE17BF07FE
:1034A00079F48D919C911197280F391F2E5F3F4F12
:1034B0003983288312968D919C9113979B838A83DD
:1034C0004115510571F4D093F204C093F1044DC03D
:1034D00012968D919C911397AD01009711F0DC012C
:1034E000D3CFDA011396DC93CE931297FA01219190
:1034F0003191E20FF31FCE17DF0769F488819981BC
:10350000280F391F2E5F3F4FFA01318320838A81B4
:103510009B8193838283E0E0F0E0DB0112968D9142
:103520009C911397009719F0BC01FD01F6CFAB01F8
:103530004E5F5F4FDB018D919C91840F951F209111
:10354000EF043091F0042817390779F4309729F403
:103550001092F2041092F10402C0138212824250BF
:1035600050405093F0044093EF04DF91CF910895C1
:103570006F927F928F929F92AF92BF92CF92DF9283
:10358000EF92FF920F931F93CF93DF938C010097DD
:1035900029F4CB010E9483198C01BBC08EEFE82E69
:1035A0008FEFF82EE00EF11E4801860E971E8E1446
:1035B0009F0408F4ACC0D7014D915C911197461758
:1035C0005707B8F04530510508F4A3C0CA01049765
:1035D0008617970708F49DC042505040461B570B72
:1035E000F401419351936D937C93CF010E94201A73
:1035F00090C05B01A41AB50A3801640E751EA09133
:10360000F104B091F204E0E0F0E0CC24DD2447C006
:10361000A615B705A9F5CD91DC911197CE010296BB
:103620008A159B0568F1CE018A199B0902961296AC
:103630002C91129713963C91059758F0F401228330
:103640003383CA19DB09D183C083D7016D937C937F
:1036500009C04E5F5F4F4C0F5D1FF70151834083E0
:10366000C901FC01C114D10431F0D6011396FC93B9
:10367000EE9312974EC0F093F204E093F10449C028
:103680008D919C911197E817F90708F4FC016D01E1
:1036900012968C91129713969C919C01D9011097C8
:1036A00009F0B6CF8091EF049091F004861597054C
:1036B000E9F4E617F707D0F420919B0330919C03BF
:1036C0002115310541F42DB73EB7809197039091B4
:1036D0009803281B390B82169306C8F49092F004C5
:1036E0008092EF04F7017183608313C0CB010E94C5
:1036F0008319EC01009759F0D7014D915C91B80105
:103700000E94C401C8010E94201A8E0102C000E07C
:1037100010E0C801DF91CF911F910F91FF90EF90C2
:10372000DF90CF90BF90AF909F908F907F906F90E1
:1037300008955058BB27AA270ED0D3C1C4D130F06A
:10374000C9D120F031F49F3F11F41EF4B9C10EF439
:10375000E095E7FB9FC1E92FD5D180F3BA17620747
:1037600073078407950718F071F49EF5EDC10EF408
:10377000E0950B2EBA2FA02D0B01B90190010C0181
:10378000CA01A0011124FF27591B99F0593F50F499
:10379000503E68F11A16F040A22F232F342F4427F1
:1037A000585FF3CF469537952795A795F0405395E9
:1037B000C9F77EF41F16BA0B620B730B840BBAF0B9
:1037C0009150A1F0FF0FBB1F661F771F881FC2F724
:1037D0000EC0BA0F621F731F841F48F48795779538
:1037E0006795B795F7959E3F08F0B3CF9395880FEF
:1037F00008F09927EE0F97958795089527D108F43B
:1038000081E008950CD06DC165D140F05CD130F0FD
:1038100021F45F3F19F03EC1511197C151C172D1DE
:1038200098F39923C9F35523B1F3951B550BBB2787
:10383000AA2762177307840738F09F5F5F4F220F34
:10384000331F441FAA1FA9F333D00E2E3AF0E0E82D
:1038500030D091505040E695001CCAF729D0FE2F79
:1038600027D0660F771F881FBB1F2617370748070B
:10387000AB07B0E809F0BB0B802DBF01FF279358C1
:103880005F4F2AF09E3F510568F004C15EC15F3F63
:10389000ECF3983EDCF3869577956795B795F795A9
:1038A0009F5FC9F7880F911D9695879597F90895A1
:1038B000E1E0660F771F881FBB1F6217730784073D
:1038C000BA0720F0621B730B840BBA0BEE1F88F74C
:1038D000E095089504D06894B11137C108951AD1C4
:1038E00088F09F5790F0B92F9927B751A0F0D1F0E9
:1038F000660F771F881F991F1AF0BA95C9F712C073
:10390000B13081F021D1B1E008951EC1672F782F29
:103910008827B85F39F0B93FCCF3869577956795DE
:10392000B395D9F73EF490958095709561957F4F4A
:103930008F4F9F4F0895E89409C097FB3EF49095F0
:103940008095709561957F4F8F4F9F4F9923A9F078
:10395000F92F96E9BB279395F69587957795679507
:10396000B795F111F8CFFAF4BB0F11F460FF1BC04B
:103970006F5F7F4F8F4F9F4F16C0882311F096E9DE
:1039800011C0772321F09EE8872F762F05C066238C
:1039900071F096E8862F70E060E02AF09A95660F45
:1039A000771F881FDAF7880F9695879597F90895FE
:1039B0008AD018F011F08ED038F482C0C6C0E92F3A
:1039C000A1D0B0F35523C9F3E7FB6217730784074F
:1039D0009507A8F199F3E92FFF2788232AF031975B
:1039E000660F771F881FDAF7952F5527442332F08B
:1039F00091505040220F331F441FD2F7BB27E91BC1
:103A0000F50B621B730B840BB109C1F222F4620F38
:103A1000731F841FB11D31972AF0660F771F881F0F
:103A2000BB1FEFCF915050405AF041F0882332F045
:103A3000660F771F881F91505040C1F7939530C093
:103A40008695779567959F5FD9F7F8CF990F00080E
:103A5000550FAA0BE0E8FEEF16161706E807F90760
:103A6000C0F012161306E407F50798F0621B730BFB
:103A7000840B950B39F40A2661F0232B242B252B7C
:103A800021F408950A2609F4A140A6958FEF811D1F
:103A9000811D089597F99F6780E870E060E00895C0
:103AA0009F3F49F0915028F4869577956795B79593
:103AB0009F5F80389F4F880F9695879597F9089557
:103AC0009FEF80EC089500240A9416161706180636
:103AD0000906089500240A94121613061406050612
:103AE0000895092E0394000C11F4882352F0BB0FA3
:103AF00040F4BF2B11F460FF04C06F5F7F4F8F4F06
:103B00009F4F089557FD9058440F551F59F05F3F40
:103B100071F04795880F97FB991F61F09F3F79F0EF
:103B200087950895121613061406551FF2CF469571
:103B3000F1DF08C0161617061806991FF1CF8695F3
:103B40007105610508940895E894BB2766277727D7
:103B5000CB0197F908957ADF08F48FEF08950BD021
:103B6000C0CFB1DF28F0B6DF18F0952309F092CF6F
:103B7000A7CF1124EACFC6DFA0F3959FD1F3950F0D
:103B800050E0551F629FF001729FBB27F00DB11DE1
:103B9000639FAA27F00DB11DAA1F649F6627B00D71
:103BA000A11D661F829F2227B00DA11D621F739F5A
:103BB000B00DA11D621F839FA00D611D221F749F68
:103BC0003327A00D611D231F849F600D211D822FAF
:103BD000762F6A2F11249F5750408AF0E1F08823F6
:103BE0004AF0EE0FFF1FBB1F661F771F881F915003
:103BF0005040A9F79E3F510570F04CCFA6CF5F3FD4
:103C0000ECF3983EDCF3869577956795B795F79535
:103C1000E7959F5FC1F7FE2B880F911D96958795BD
:103C200097F9089513DF880B990B0895629FD001CF
:103C3000739FF001829FE00DF11D649FE00DF11D67
:103C4000929FF00D839FF00D749FF00D659FF00D16
:103C50009927729FB00DE11DF91F639FB00DE11D03
:103C6000F91FBD01CF011124089597FB092E0726E6
:103C70000AD077FD04D02ED006D000201AF470951B
:103C800061957F4F0895F6F7909581959F4F089520
:103C9000A1E21A2EAA1BBB1BFD010DC0AA1FBB1F50
:103CA000EE1FFF1FA217B307E407F50720F0A21BC2
:103CB000B30BE40BF50B661F771F881F991F1A942F
:103CC00069F760957095809590959B01AC01BD0159
:103CD000CF010895AA1BBB1B51E107C0AA1FBB1F40
:103CE000A617B70710F0A61BB70B881F991F5A9588
:103CF000A9F780959095BC01CD010895EE0FFF1FA7
:0C3D00000590F491E02D0994F894FFCF99
:103D0C000A5B004C6143726F7373654954506C7558
:103D1C00735265616465720031302E31630020404E
:103D2C00004175746F546F67676C65200020536594
:103D3C00636F6E64730031372E323431206B6270D6
:103D4C007300392E353739206B6270730054583A32
:103D5C0020543D0020483D00204E423D002A2A2A96
:103D6C00204C6143726F737365207765617468656D
:103D7C00722073746174696F6E20776972656C65FB
:103D8C00737320726563656976657220666F722045
:103D9C0049542B2073656E736F7273202A2A2A0084
:103DAC00526164696F20736574757020636F6D70F8
:103DBC006C6574652E205374617274696E6720741F
:103DCC006F2072656365697665206D6573736167D5
:103DDC006573000A456E6420726563656976696E69
:103DEC00672C204845582072617720646174613AD1
:103DFC002000200053656E64696E672064617461F5
:103E0C003A20002000004F4B2039200020005D009C
:103E1C00204352433A57524F4E4700204352433AA5
:103E2C004F4B0020533A002049443A00204E65770E
:103E3C00426174743A002042697431323A00205461
:103E4C00656D703A00205765616B426174743A007D
:103E5C002048756D3A00204352433A0025303664B1
:103E6C0020004C6143726F737365205B00004F4BF5
:103E7C00204C5320002030200020002323204352CC
:103E8C0043204641494C202323004E6F2076616C21
:103E9C006964207374617274004E6F2076616C6972
:103EAC00642054656D70657261747572653A20009A
:103EBC004E6F2076616C6964204C6576656C3A2097
:103ECC00004E6F2076616C696420566F6C7461676C
:103EDC00653A20002530366420004C6576656C53BD
:103EEC00656E646572205B005D00204352433A5757
:103EFC00524F4E4700204352433A4F4B0020533A07
:103F0C00002049443A00204C6576656C3A002054F8
:103F1C00656D703A0020566F6C743A002043524322
:103F2C003A00004F4B20454D5437313130200020A2
:103F3C0000253036642000454D5437313130205B3C
:103F4C00005D00204352433A57524F4E47002043E6
:103F5C0052433A4F4B0020533A002049443A002038
:103F6C00563A00206D413A0020573A00206B5768B2
:103F7C003A0020436F6E2E3A0020506169723A006D
:103F8C00204352433A00006E616E00696E66006F0A
:103F9C007666002E0013008000F304000000000081
:0E3FAC0000AF1454154514761456149F1400DB
:00000001FF
