:100000000C946B000C94F51D0C94221E0C94930020
:100010000C9493000C9493000C9493000C94930014
:100020000C9493000C9493000C9493000C94930004
:100030000C9493000C94F2120C9493000C94930083
:100040000C944F1E0C9493000C94A7190C94F51962
:100050000C9493000C9493000C9493000C949300D4
:100060000C9493000C94930020557365206F6E657B
:10007000206F66200000000000240027002A0000F6
:10008000000000250028002B0000000000230026AF
:10009000002900040404040404040402020202020D
:1000A000020303030303030102040810204080013C
:1000B00002040810200102040810200000000700BC
:1000C0000201000003040600000000000000000020
:1000D0005613611B4F1311241FBECFEFD8E0DEBFB4
:1000E000CDBF12E0A0E0B1E0E6E5FAE402C0059081
:1000F0000D92A835B107D9F715E0A8E5B2E001C027
:100100001D92A835B107E1F710E0C4EDD0E004C0BE
:100110002297FE010E94E324C03DD107C9F70E9447
:10012000B71B0C941E250C9400000F931F93CF93C4
:10013000DF93689F8001699F100D789F100D112437
:10014000C8010E94B100EC01009729F060E070E066
:10015000A8010E94ED02CE01DF91CF911F910F9176
:100160000895CF93DF93BC018230910510F462E0D3
:1001700070E0A0915605B0915705ED01E0E0F0E088
:1001800040E050E021C0888199818617970769F483
:100190008A819B81309719F09383828304C0909366
:1001A000570580935605FE0134C06817790738F467
:1001B0004115510519F08417950708F4AC01FE01AB
:1001C0008A819B819C01E9012097E9F6411551053F
:1001D000A9F1CA01861B970B049708F4BA01E0E065
:1001E000F0E02AC08D919C91119784179507F9F43E
:1001F0006417750781F412968D919C91139730972F
:1002000019F09383828304C0909357058093560519
:10021000FD0132964CC0CA01861B970BFD01E80F09
:10022000F91F6193719302978D939C9340C0FD01D8
:10023000828193819C01D9011097A1F68091540588
:1002400090915505892B41F48091140290911502EB
:1002500090935505809354054091160250911702D2
:100260004115510541F44DB75EB78091120290914E
:100270001302481B590B2091540530915505CA01B2
:10028000821B930B8617970780F0AB014E5F5F4F81
:100290008417950750F0420F531F50935505409314
:1002A0005405F9016193719302C0E0E0F0E0CF01E1
:1002B000DF91CF910895CF93DF93009709F450C059
:1002C000EC0122971B821A82A0915605B091570526
:1002D000109709F140E050E0AC17BD0708F1BB836F
:1002E000AA83FE0121913191E20FF31FAE17BF07E0
:1002F00079F48D919C911197280F391F2E5F3F4FF4
:100300003983288312968D919C9113979B838A83BE
:100310004115510571F4D0935705C093560520C07F
:1003200012968D919C911397AD01009711F0DC010D
:10033000D3CFFA01D383C28321913191E20FF31F0E
:10034000CE17DF0769F488819981280F391F2E5F46
:100350003F4FFA01318320838A819B81938382837B
:10036000DF91CF910895A0E0B0E0E9EBF1E00C94CB
:10037000E9246C01009729F4CB010E94B1006C01C3
:10038000C1C08EEF882E8FEF982E8C0C9D1C86019D
:10039000060F171F0815190508F4B2C0F401A08153
:1003A000B181A617B707B8F0A530B10508F4AAC007
:1003B000CD0104978617970708F4A4C01297A61BCF
:1003C000B70BF801A193B193D4016D937C93CF0146
:1003D0000E945B0197C07B01EA1AFB0AEEEFFFEF78
:1003E000EE0EFF1E36016A0E7B1EC0915605D0919F
:1003F000570544245524AA24BB244AC0C615D70552
:10040000E1F5488159814E155F05B8F1CA0104979D
:100410008E159F05B0F41296A40FB51FF401B18399
:10042000A0832A813B814114510431F0D2011396FB
:100430003C932E93129766C0309357052093560530
:1004400061C08A819B81F80193838283425050402E
:100450004E195F09518340834114510431F0D20198
:1004600013961C930E93129704C010935705009394
:100470005605F4017183608345C088819981A8166F
:10048000B90608F45C012E018A819B819C01E90177
:10049000209709F0B3CF80915405909155058615AA
:1004A0009705E9F4A616B706D0F42091160230910C
:1004B00017022115310541F42DB73EB78091120284
:1004C00090911302281B390B02171307C8F41093DD
:1004D000550500935405D4016D937C9313C0CB0153
:1004E0000E94B100EC01009759F0F4014081518164
:1004F000B6010E94D202C6010E945B016E0102C0D9
:10050000CC24DD24C601CDB7DEB7E0E10C9405258F
:10051000FC0188279927E89421912032E9F32930BA
:1005200010F02E30C8F32B3241F02D3239F468949C
:1005300004C00E949703820F911D219120532A30FD
:10054000C0F31EF4909581959F4F08951F93FC0171
:1005500099278827BC01E89411911032E9F31930EA
:1005600010F01E30C8F31B3251F01D3249F468946C
:1005700006C00E948203610F711D811D911D1191A2
:1005800010531A30B0F33EF49095809570956195B4
:100590007F4F8F4F9F4F1F91089548E552E00E9473
:1005A0002F030895FB01DC0102C001900D92415020
:1005B0005040D8F708956817790768F4FB01DC010B
:1005C000E40FF51FA40FB51F02C002900E92415018
:1005D0005040D8F708950C94D202DC0101C06D930D
:1005E00041505040E0F70895FC018191861721F0B9
:1005F0008823D9F7992708953197CF010895FB01F2
:10060000DC0101900D920020E1F70895FB01DC016F
:100610004150504048F001900D920020C9F701C0B0
:100620001D9241505040E0F70895FB015191552330
:10063000A9F0BF01DC014D9145174111E1F759F4D3
:10064000CD010190002049F04D9140154111C9F3B1
:10065000FB014111EFCF81E090E0019708950097F1
:1006600031F4DA018D919C91009709F40EC0DC0100
:10067000FB013D912191222319F03217C9F3FACFE2
:10068000332331F4DA011D921C92882799270895AB
:100690001197AF93BF93FB013D912191321771F4F4
:1006A000332321F488279927119702C01E921196AF
:1006B000FA01A193B0839F918F910895222369F746
:1006C000EACFFB019F01E8944230C4F04532B4F414
:1006D0004A3029F497FB1EF4909581959F4F642F23
:1006E00077270E949824805D8A330CF0895D81937E
:1006F000CB010097A1F716F45DE251931082C90176
:100700000C94CC05592F482F372F262F660F771FB3
:10071000881F991F660F771F881F991F620F731F0D
:10072000841F951F660F771F881F991F08957AE011
:10073000979F902D879F802D910D11240895FB0187
:100740009F01423074F0453264F4642F77270E9491
:100750009824805D8A330CF0895D8193CB010097EA
:10076000A1F71082C9010C94CC05AEE0B0E0EBEB30
:10077000F3E00C94F5240D891E8986E08C831A839E
:1007800009838FEF9FE79E838D839E01275E3F4FF6
:10079000CE0101966F89788DA9010E94D9032F811E
:1007A0003885020F131FF80110822E96E4E00C9496
:1007B0001125ABE0B0E0EFEDF3E00C94E7243C0151
:1007C0002B015A01FC0117821682838181FD03C02F
:1007D0006FEF7FEFC6C19AE0892E1E010894211C9D
:1007E000311CF3012381F20123FD859123FF8191C7
:1007F0002F01882309F4B2C1853239F423FD859194
:1008000023FF81912F01853229F490E0B3010E94EA
:10081000DC05E7CF982FFF24EE249924FFE1FF1594
:10082000D0F09B3269F09C3228F4903259F0933228
:1008300091F40EC09D3249F0903369F441E024C038
:1008400052E0F52A84E0F82A28C098E0F92A25C069
:10085000E0E1FE2A22C0F7FC29C0892F80538A30AC
:1008600070F4F6FE05C0989C902C1124980E15C0CB
:10087000E89CE02C1124E80EF0E2FF2A0EC09E3224
:1008800029F4F6FC6BC140E4F42A07C09C3619F445
:1008900050E8F52A02C0983649F4F20123FD9591FB
:1008A00023FF91912F01992309F0B8CF892F855407
:1008B000833018F08052833038F444E050E0A40EC6
:1008C000B51E5FE359830FC0933631F0933779F04B
:1008D000933509F056C020C0F5018081898342E03C
:1008E00050E0A40EB51E610101E010E012C0F50158
:1008F000C080D180F6FC03C06FEF7FEF02C0692D8E
:1009000070E042E050E0A40EB51EC6010E94C10591
:100910008C015FE7F52214C0F501C080D180F6FCA0
:1009200003C06FEF7FEF02C0692D70E042E050E03E
:10093000A40EB51EC6010E94B6058C0150E8F52A2A
:10094000F3FE07C01AC080E290E0B3010E94DC050C
:10095000EA948E2D90E008171907A8F30EC0F6014F
:10096000F7FC8591F7FE81916F0190E0B3010E9441
:10097000DC05E110EA94015010400115110579F7EA
:10098000EAC0943611F0993669F5F7FE08C0F50112
:10099000208131814281538184E090E00AC0F501D9
:1009A000808191819C01442737FD4095542F82E03E
:1009B00090E0A80EB91E9FE6F92257FF09C0509596
:1009C0004095309521953F4F4F4F5F4FE0E8FE2A0D
:1009D000CA01B901A1012AE030E00E940806D82E20
:1009E000D21840C0953729F41F2D1F7E2AE030E031
:1009F0001DC01F2D197F9F3661F0903720F4983568
:100A000009F0ACC00FC0903739F0983709F0A6C094
:100A100004C028E030E00AC0106114FD146020E139
:100A200030E004C014FD166020E132E017FF08C07A
:100A3000F501608171818281938144E050E008C0BA
:100A4000F50180819181BC0180E090E042E050E0BE
:100A5000A40EB51EA1010E940806D82ED2188FE759
:100A6000F82EF122F6FE0BC05EEFF522D91438F411
:100A7000F4FE07C0F2FC05C08FEEF82202C01D2D67
:100A800001C0192DF4FE0DC0FE01ED0DF11D808198
:100A9000803319F499EEF92208C01F5FF2FE05C0F9
:100AA00003C08F2D867809F01F5F0F2DF3FC14C053
:100AB000F0FE0FC01E1510F09D2C0BC09D2C9E0C3F
:100AC000911A1E2D06C080E290E0B3010E94DC0561
:100AD0001F5F1E15C0F304C01E1510F4E11A01C0FB
:100AE000EE2404FF0FC080E390E0B3010E94DC0518
:100AF00002FF1DC001FD03C088E790E00EC088E53D
:100B000090E00BC0802F867891F001FF02C08BE24D
:100B100001C080E2F7FC8DE290E0B3010E94DC05A9
:100B200006C080E390E0B3010E94DC059A94D914DA
:100B3000C0F3DA94F101ED0DF11D808190E0B30175
:100B40000E94DC05DD20A9F706C080E290E0B30139
:100B50000E94DC05EA94EE20C1F743CEF3016681E2
:100B60007781CB012B96E2E10C940325FC010590E3
:100B7000615070400110D8F7809590958E0F9F1F9F
:100B80000895FC016150704001900110D8F78095E4
:100B900090958E0F9F1F0895DC01FC01672F7191C6
:100BA0007723E1F7329704C07C916D937083629153
:100BB000AE17BF07C8F308950F931F93CF93DF932A
:100BC0008C01EB018B8181FF1BC082FF0DC02E8148
:100BD0003F818C819D812817390764F4E881F98170
:100BE0000193F983E88306C0E885F985802F09958C
:100BF000892B31F48E819F8101969F838E8302C061
:100C00000FEF1FEFC801DF91CF911F910F91089552
:100C1000FA01AA27283051F1203181F1E8946F932D
:100C20006E7F6E5F7F4F8F4F9F4FAF4FB1E03ED0D3
:100C3000B4E03CD0670F781F891F9A1FA11D680F71
:100C4000791F8A1F911DA11D6A0F711D811D911DA4
:100C5000A11D20D009F468943F912AE0269F112419
:100C60003019305D3193DEF6CF010895462F47707D
:100C7000405D4193B3E00FD0C9F7F6CF462F4F70D8
:100C8000405D4A3318F0495D31FD4052419302D036
:100C9000A9F7EACFB4E0A6959795879577956795DC
:100CA000BA95C9F700976105710508959B01AC01DC
:100CB0000A2E06945795479537952795BA95C9F703
:100CC000620F731F841F951FA01D0895DC011296EB
:100CD0002C91129717968C9117972817D8F5ED91AC
:100CE000FC911197E20FF11D862F992787FD9095B2
:100CF00016960C90169702C0880F991F0A94E2F777
:100D00002081282B208313968C9113978F5F139645
:100D10008C93139716962C91169714963C911497D2
:100D2000822F90E0831B910997FD04C0231B169628
:100D30002C93089587E016968C93169712968C91B3
:100D400012978F5F12968C931297ED91FC91E80F9A
:100D5000F11D10820895FC018781681710F08FEF54
:100D600008950190F081E02DE60FF11D8081089536
:100D7000DC0190E007C0ED91FC911197E90FF11DA6
:100D800010829F5F17968C9117979817A0F3129671
:100D90001C92129713961C92139787E016968C93C9
:100DA0000895FC01808191810E945B010895CF9399
:100DB000DF93EC01842F6C831D824F8390E061E010
:100DC00070E00E94950088839983CE010E94B80646
:100DD00047E0E7E0F0E061E070E00BC0CB0102C06B
:100DE000880F991F2A95E2F79C018D81822B8D83B4
:100DF0004150242F30E08C81DF01A81BB109A217DC
:100E0000B30764F3DF91CF910895FC0112A2A1858D
:100E1000B2850384F485E02D208131818D919C91F0
:100E20001197918380832D933C93DB018D919C914D
:100E3000918380830895BF92CF92DF92EF92FF92C9
:100E40000F931F93CF93DF93EC018B01B9A040E088
:100E500021E0C22ED12C2DC0F901EE0FFF1FE00FB3
:100E6000F11FD901AE0DBF1DAC19BD09AA0FBB1FE3
:100E7000AC0FBD1F0190F081E02D53968D919C9198
:100E80005497E81BF90BF7FF03C0F095E195FF4F6E
:100E90008D859E858E179F075CF02617370711F406
:100EA000842F11C05F5F252F30E062177307A4F60F
:100EB0004F5F4B1538F4F8016081718151E0E42EE9
:100EC000FF24F1CF8FEFDF91CF911F910F91FF9012
:100ED000EF90DF90CF90BF90089508950895089502
:100EE000FC018381948108952F923F924F925F92EB
:100EF0006F927F929F92AF92BF92CF92DF92EF92CA
:100F0000FF920F931F93DF93CF9300D000D0CDB704
:100F1000DEB79C838B83DC0113968D919C91149793
:100F2000019709F0A0C091962C9191972150822FA2
:100F3000992787FD9095885E9E4F5D01A80EB91E8A
:100F4000885191408C01000F111F0D5E1F4F0A0F39
:100F50001B1F922ECC24DD249A838983F5E12F2E4A
:100F6000F1E03F2E2A0E3B1EE5E24E2E512C4A0E9A
:100F70005B1E77C069807A806C0C7D1CF801208133
:100F80003181121613060CF463C0EE24FF24E21A1A
:100F9000F30AF9E6EF16F2E4FF06ACF0AB81BC8190
:100FA0001296EC911297FF27E7FDF095EE0FFF1FC9
:100FB000EA0FFB1F63897489C7010E94AC24683261
:100FC00071050CF045C0EB81FC818281482F5527CB
:100FD00047FD5095FA01EE0FFF1F8B819C81E80FB2
:100FE000F91F838994892827392737FF31C033E0D7
:100FF000880F991F3A95E1F7E816F9064CF1D501EB
:101000008C91873028F5F1016081F20130E00CC04D
:10101000818190E08615970529F4808190E08417FE
:10102000950721F03F5F3196361790F3361781F020
:10103000AB81BC8193969C92939782E090E014964A
:101040009C938E931397A25EBE4F3C9381E010C099
:101050009A940894A108B1080894C108D1080250D4
:10106000104097FE87CF8FEFEB81FC8183A380E058
:101070000F900F900F900F90CF91DF911F910F91D4
:10108000FF90EF90DF90CF90BF90AF909F907F90B8
:101090006F905F904F903F902F9008956F927F9246
:1010A0008F929F92AF92BF92CF92DF92EF92FF9278
:1010B0000F931F93CF93DF93EC018FEF8A8389A067
:1010C000AA24AA94BA2C992475E1672E71E0772E90
:1010D0006C0E7D1E74C08FEFA8168FEFB80689F5D1
:1010E000C92CDD24F601EE0FFF1FEC0FFD1F8389D5
:1010F000948997FD26C0FE01EC0DFD1DE85EFE4FB4
:10110000608170E0882777FD8095982F0E94622388
:101110007B018C01F301608170E0882777FD809569
:10112000982F0E9462232BE734E14EE25EE30E9497
:1011300016249B01AC01C801B7010E9412241816A5
:10114000E4F1C92CDD24F601EE0FFF1FEC0FFD1FAB
:101150002389348937FD30C0F501EE0FFF1FEC0FF6
:10116000FD1F838994892817390734F5FE01EC0D9A
:10117000FD1DE85EFE4F608170E0882777FD809559
:10118000982F0E9462237B018C01F301608170E043
:10119000882777FD8095982F0E9462232BE734E102
:1011A0004EE25EE30E9416249B01AC01C801B70128
:1011B0000E94122418160CF065019394560198149D
:1011C00008F489CFFFEFAF16FFEFBF0611F480E000
:1011D00006C0AA8281E090E09C838B8381E0DF914E
:1011E000CF911F910F91FF90EF90DF90CF90BF9024
:1011F000AF909F908F907F906F900895DC01A85ED4
:10120000BE4F1D921D921D921D921D921C92AD51BA
:10121000B140442399F4AB5EBE4F4C91A551B1400F
:101220000DC0FD01E60FF11D85A1FD01E80FF11DC7
:10123000E85EFE4F80818F5F80836F5F641788F365
:1012400008952F923F924F925F926F927F928F926A
:101250009F92AF92BF92CF92DF92EF92FF920F9345
:101260001F93DF93CF9300D00F92CDB7DEB76C0101
:1012700060E040E00E94FE08442405E1202E01E0E9
:10128000302E2C0C3D1CF7C0242D2F5F2983522EAD
:10129000842D90E05C01AA0CBB1CAC0CBD1C43E18E
:1012A00050E0A40EB51E3601680E791E88E191E06B
:1012B000680E791ED9C0852C9924F401EE0FFF1F0A
:1012C000EC0DFD1DA389B489BB83AA839D01B7FFE3
:1012D00003C0309521953F4FB901882777FD809550
:1012E000982F0E946223F60127853089418952890F
:1012F0000E9416247B018C01D5018D919C91EA817D
:10130000FB81E81BF90BFB83EA83F7FF05C0F0952F
:10131000E195FF4FFB83EA83C801B70120E030E08D
:1013200040E05FE30E9416249B01AC01C801B701B5
:101330000E94CB220E942F232A813B8162177307D0
:101340000CF491C090E008C0F601E90FF11D85A1F1
:10135000851509F445A29F5FD1018C919817A0F3E0
:10136000F3018081E82EFF24F601E80DF91DE85E07
:10137000FE4F8081282F30E0A9014E0D5F1D5B8359
:101380004A83F401EE0FFF1F452B29F5EC0DFD1DDF
:1013900083899489DC012A9FC0012B9F900D3A9F7D
:1013A000900D112460E070E00E94AC249B01F501D7
:1013B00080819181AC01E49EC001E59E900DF49E78
:1013C000900D112460E070E00E94AC24260F371FBE
:1013D0003183208310C0EC0DFD1D83899489D501D4
:1013E0002D913C91820F931F62E070E00E94AC242B
:1013F000F50171836083F601E80DF91DE85EFE4F8B
:10140000208130E08401000F111F0C0D1D1DD8013B
:1014100053968D919C915497FC012E9FC0012F9F54
:10142000900D3E9F900D11246A817B810E94AC2417
:10143000FB01D3018C9190E0D5012D913C91AC0141
:10144000429FC001439F900D529F900D11246A81CD
:101450007B810E94AC24E60FF71FD501ED93FC932E
:10146000F801148A138A5394D60191968C915816D8
:1014700008F421CF4980F60181A1481608F404CF71
:101480000F900F900F90CF91DF911F910F91FF90D0
:10149000EF90DF90CF90BF90AF909F908F907F9014
:1014A0006F905F904F903F902F900895CF93DF9370
:1014B000EC010E942109CE0160E040E00E94FE089C
:1014C000CB5EDE4F8881C551D140883230F0CE01ED
:1014D0000E944E08CE010E947407DF91CF910895BB
:1014E000DC01ED91FC910190F081E02D09950895CA
:1014F0008F929F92AF92BF92CF92DF92EF92FF9224
:101500000F931F93CF93DF936C01DC011296ED9143
:10151000FC91139781A1843008F4E2C0EB5EFE4F8A
:10152000608170E0882777FD8095982F0E94622364
:1015300029E23CE54FE05EE30E9416240E9434233A
:10154000762FAA24AA94BA2C8824992460E030E04B
:1015500079C0A32FB0E0FE01EA0FFB1FE85EFE4F4B
:10156000E080E71608F46DC0AA0FBB1FAC0FBD1FCB
:1015700053964D915C91549714161506A4F5F601F7
:1015800025812F3F69F0822F992787FD9095880F3D
:10159000991FC80FD91F8B899C89841795070CF454
:1015A000232FD60115962C93159717962C911797E4
:1015B0002F3F89F01296ED91FC911397822F992776
:1015C00087FD9095880F991FE80FF91F83899489EB
:1015D000481759070CF4232F6E0D8394A40EB51EE3
:1015E000F60127832EC0D60114962C912F3F69F067
:1015F000822F992787FD9095880F991FC80FD91FB3
:101600008B899C89481759070CF4232FF6012483F2
:1016100026812F3F81F00280F381E02D822F9927D0
:1016200087FD9095880F991FE80FF91F838994898A
:10163000841795070CF4232F6E199394D6011696F0
:101640002C933F5FF601C281D38189A1381708F43A
:1016500080CF70E0882777FD8095982F0E946223C5
:101660007B018C01CB5EDE4F688170E0882777FDBF
:101670008095982F0E9462232AE037ED43EA5CE3CD
:101680000E9416249B01AC01C801B7010E941224DC
:10169000181634F1981421F5C50163E070E00E943A
:1016A000AC24D60119967C936E93189714969C914E
:1016B00014979F3FA9F016968C9116978F3F81F053
:1016C000981771F015962C9115972F3F49F01796A2
:1016D0009C919F3F29F080E0291719F081E001C01B
:1016E00080E0DF91CF911F910F91FF90EF90DF90FD
:1016F000CF90BF90AF909F908F9008958F929F92C0
:10170000AF92BF92CF92DF92EF92FF921F93DF933F
:10171000CF9300D00F92CDB7DEB76C017B01DE0115
:101720001196E9E0F1E083E001900D928150E1F73C
:10173000D601ED91FC91628183E0689FB001112494
:10174000C7010E94C020E114F10499F110E05E018C
:101750000894A11CB11C74E0872E71E0972E23C061
:10176000CF01612F0E94AB0600D000D000D0EDB7B2
:10177000FEB73196ADB7BEB71296BC92AE92119736
:1017800093828282848315820E94B5038DB79EB7AF
:1017900006960FB6F8949EBF0FBE8DBFC701B50168
:1017A0000E9479211F5FD601ED91FC918281811702
:1017B000B8F60F900F900F90CF91DF911F91FF908F
:1017C000EF90DF90CF90BF90AF909F908F90089553
:1017D000FC018FEF848385838683878384E18287FE
:1017E000808191810E94B80608950F931F938C0108
:1017F000FC0111A2148213828FEF8283878D90A146
:101800000E94B806F80116861586148A138A168A6D
:10181000158A108E178A128E118E148E138E168EC4
:10182000158E1F910F910895CF93DF93EC010E94C5
:10183000F50BCB5EDE4F1882C551D14019A21CA218
:101840001C821B828FEF8BA38A83FE01DE01A85EC0
:10185000BE4F80E0148A138A1D928F5F32968630C5
:10186000C9F71AA286E990E09E878D878AE999E9EF
:10187000A9E9BEE38F87988BA98BBA8BC25EDE4F36
:101880001882289719921882DF91CF910895EF92CC
:10189000FF920F931F938C01FC017383628388E096
:1018A00090E00E94D71BF82EE92E61E04EE10E94E5
:1018B000D706F801F082E182C8010E94E80B1F916F
:1018C0000F91FF90EF900895EF92FF920F931F9367
:1018D0008C0187E392E0F8019183808388E090E0B7
:1018E0000E94D71BF82EE92E62E041E00E94D70645
:1018F000F801F78EE0A21086178216821582C801C1
:10190000059692878187C80107969487838712A2DC
:10191000C8010E94F50B1F910F91FF90EF90089561
:101920000F931F938C010E94640C8BE292E0F801EC
:10193000918380831682158210861782C8010596CE
:1019400092878187C8010796948783878FEF83A347
:10195000C8010E94140C1F910F910895AF92BF927D
:10196000CF92DF92EF92FF920F931F938C010E9410
:10197000900C8FE192E0F8019183808360E7A62EBE
:1019800061E0B62EA00EB11E50E0E52E51E0F52E1E
:10199000C501B7010E94C42147E7C42E41E0D42EFF
:1019A000C00ED11EC601B7010E94C421C50166E464
:1019B00070E00E94C020C60164E170E00E94C02077
:1019C00001591E4FF80110821F910F91FF90EF9067
:1019D000DF90CF90BF90AF9008951F93CF93DF9388
:1019E000EC0110E040E096C0442309F5FD01E10F51
:1019F000F11D85A1282F30E08C81992787FD9095D6
:101A00002817390789F08D81992787FD9095281728
:101A1000390709F0BBC008C08F81992787FD9095D1
:101A20002817390709F075C0A25EBE4F1C93AA8122
:101A3000BB81412F50E0FD01E40FF51F85A1282F48
:101A400030E08C81992787FD90952817390741F060
:101A50008D81992787FD90952817390709F09FC038
:101A60004881598160E0220F331FA20FB31F5396A4
:101A70008D919C91549797FF61E0CA010E94660680
:101A80003FC08F81992787FD90952817390709F066
:101A900090C0AB5EBE4F8C91A551B14090E00197D4
:101AA000481759070CF085C0FD01E40FF51F86A10A
:101AB000282F30E02617370741F08F81992787FDBF
:101AC00090952817390709F074C04881598160E062
:101AD000220F331FA20FB31F53968D919C915497E1
:101AE00097FF61E0CA010E9466061F5F09C08881F6
:101AF00099810E94B806EA81FB81E25EFE4F108365
:101B000041E007C020E0E881F98183818317C8F1B3
:101B100037C01F5FAA81BB81FD01EB5EFE4F808154
:101B2000181708F461CF181721F5A25EBE4F8C91EB
:101B30008230F8F0181B1083EA81FB81E25EFE4FD1
:101B40006081EE51F14070E06B5D7F4F6E0F7F1F43
:101B5000EB5EFE4F408150E04F5F5F4FCF01805FF3
:101B600090400E94DB02EA81FB81EA5EFE4F81E049
:101B7000808320E0E881F98193818A85981708F0B5
:101B800021E0822FDF91CF911F9108958E819927B7
:101B900087FD90952817390709F03ECF45CF8E81F4
:101BA000682F772767FD70952617370709F069CFEB
:101BB00070CF3A85AB5EBE4F8C9190E0831B91094C
:101BC000481759070CF493CF9DCFEF92FF920F93D4
:101BD0001F93DF93CF9300D000D0CDB7DEB78C0139
:101BE0000B5E1E4FD8018C910551114090E08F3E45
:101BF0009105ACF0095E1E4F81E0F801808307512A
:101C00001140D801ED91FC910680F781E02DC801CB
:101C100009950A5E1E4FF801108206511140D80145
:101C200094961C9294971996ED91FC911A972081A5
:101C300031811B96ED91FC911C970190F081E02D74
:101C40000B5E1E4FD8014C910551114090915A02E4
:101C5000D80191968C919197891710F491969C9345
:101C60000B5E1E4FD8018C91055111408823B1F0B5
:101C7000EE2480E090E0E227F327F7FF02C081E046
:101C800090E020E030E04F3E11F021E030E0822390
:101C90009323892B41F0EE24E39405C0F80111A2AF
:101CA00010925A02EE2481E090E09A8389831C828C
:101CB0001B82D8011996ED91FC911A978081918130
:101CC0009C838B83C801BE016F5F7F4F0E941B07FF
:101CD000F82E87FD2EC00B5E1E4FF8018081055146
:101CE0001140F801E80FF11DF5A2823030F084A117
:101CF0008F1519F4C8010E94140CEF2DFF27E7FD82
:101D0000F095EE0FFF1FE00FF11F8B819C8123895F
:101D10003489820F931F62E070E00E94AC24748BC0
:101D2000638BF801EB5EFE4F80818F5F8083FF2421
:101D300019C0C80160E040E00E94FE08D8019196F9
:101D40008C91863069F480915A02F801E80FF11DF8
:101D5000E85EFE4F8081823018F0EE24FF2404C03C
:101D6000FF24F394EE2009F50B5E1E4FF8018081ED
:101D700005511140883278F081E0D80192968C9319
:101D80009297ED91FC910680F781E02DC8010995AD
:101D900010925A026FC0EE2041F4C8010E94140C48
:101DA000F80112A210925A020DC00B5E1E4FD8010C
:101DB0008C9105511140883228F083E090E0F801C1
:101DC00094838383FF2009F455C00B5E1E4FD80116
:101DD0004C910551114050915A02842F90E0849605
:101DE000F801E80FF91F20E030E0DC0195971BC0F7
:101DF00080812F5F3F4F31978517A9F46F5F7F4F29
:101E0000461B0B5E1E4FF8014083055111406B5D70
:101E10007F4F600F711F50E04F5F5F4FC801859685
:101E20000E94DB0207C0BD01621B730B8FEF6F3F87
:101E30007807F1F620915A02E22FF0E0EE0FFF1F33
:101E4000E00FF11F8B819C81948B838BD801AB5E5B
:101E5000BE4F8C91F801E80FF11D25A38F5F8C9385
:101E60002F5F20935A02263029F410925A02D8018B
:101E700091962C930F900F900F900F90CF91DF9130
:101E80001F910F91FF90EF9008950F931F93CF93A1
:101E9000DF938C01DC0192961C92929719960D901B
:101EA000BC91A02DEC01EB85FC85208131818D91C9
:101EB0009C911197918380832D933C93DB018D91AD
:101EC0009C9191838083C8010E94E50D8AA1DF91D6
:101ED000CF911F910F9108950F931F93CF93DF938D
:101EE0008C01EB01CB0167E070E00E94C0202097DD
:101EF00079F0CE016EE071E00E947921F8016085F1
:101F00007185CE010E940921CE016BE30E946621FA
:101F1000DF91CF911F910F9108950F931F93CF934E
:101F2000DF938C01EB01CB0160E270E00E94C020E6
:101F3000209709F470C0CE0161E171E00E9479211F
:101F4000D8011296ED91FC91139714968C919927D4
:101F500087FD9095880F991FE80FF91F6389748991
:101F6000CE010E940921CE016BE30E946621CE01C1
:101F700065E171E00E947921D8011296ED91FC9102
:101F8000139715968C91992787FD9095880F991F27
:101F9000E80FF91F63897489CE010E940921CE01DF
:101FA0006BE30E946621CE0169E171E00E94792114
:101FB000D8011296ED91FC91139716968C91992762
:101FC00087FD9095880F991FE80FF91F6389748921
:101FD000CE010E940921CE016BE30E946621CE0151
:101FE0006DE171E00E947921D8011296ED91FC918A
:101FF000139717968C91992787FD9095880F991FB5
:10200000E80FF91F63897489CE010E940921CE016E
:102010006BE30E946621DF91CF911F910F9108958C
:10202000CF93DF93FC01C081D181209731F0CE01A5
:102030000E94D106CE010E94D41BDF91CF9108955A
:10204000CF92DF92EF92FF920F931F937A01690173
:1020500005E215E0C8010E94781DC801B7010E9481
:10206000781DC801B6010E94781D1F910F91FF9045
:10207000EF90DF90CF900895BF92CF92DF92EF92D2
:10208000FF920F931F93CF93DF936C01F62EB42E24
:10209000E80185E295E0B9010E94781DEE2417C0A1
:1020A00086010F0D111D85E295E0F80165A14AE05A
:1020B00050E00E94DE1CF80185A1E82688E09CE83B
:1020C000E0FAE6940EF4E9268A95D1F7F394BF146A
:1020D00038F785E295E0BE010E94781D8E2DDF91D4
:1020E000CF911F910F91FF90EF90DF90CF90BF9015
:1020F00008956F927F928F929F92AF92BF92CF92EC
:10210000DF92EF92FF920F931F93DF93CF93CDB7A0
:10211000DEB762970FB6F894DEBF0FBECDBF7C016D
:102120008C010B5E1E4FF8018081883208F445C295
:102130007E2C6F2CC7010E94560AF701838194817F
:102140008230910509F039C12EE131E0E20EF31E33
:10215000F701608122EE3EEFE20EF31E462F4E5F46
:10216000F7018281C82EDD24C7FCD094D801F70185
:10217000E40FF11D85A190E08C159D0569F426A161
:1021800030E0F70183A1992787FD9095281739073B
:1021900019F4415011E005C04E5F8C91481738F397
:1021A00010E025E131E0E20EF31EF70180812BEE15
:1021B0003EEFE20EF31E842E841708F4882E872D3E
:1021C000962D482D0E94FE08112389F0882D90E05D
:1021D0004EE151E0E40EF51EF701208142EE5EEF84
:1021E000E40EF51E821B910988974CF4E1C087012B
:1021F0000B5E1E4FF8018081803F08F0A5C040E7CC
:10220000A42E41E0B42EAE0CBF1CC50160E071E00D
:102210000E94DE2137E7C32E31E0D32ECE0CDF1C27
:10222000C60160E071E00E94DE21C50162E00E940B
:102230006621C50161E271E00E947921C5016BE36D
:102240000E946621992426C0092D10E0F701E00FB5
:10225000F11FE85EFE4F80818823D9F0C50160E55B
:102260000E946621C501692D0E943A21C50164E2E0
:1022700071E00E947921000F111F0E0D1F1DF80142
:1022800063897489C5010E940921C5016BE30E941D
:1022900066219394F70181A19816B0F2C50166E218
:1022A00071E00E947921C6016BE30E946621C6019C
:1022B00069E271E00E947921F7016281772767FD69
:1022C0007095C6010E940921C6016BE30E94662138
:1022D000C6016DE271E00E947921F70163A17727C1
:1022E00067FD7095C6010E940921C6016BE30E943B
:1022F000662127E131E0E20EF31EF701808129EE2D
:102300003EEFE20EF31E882349F0C60161E371E05F
:102310000E947921C6016BE30E946621C60163E039
:102320000E946621C6016AE00E946621F701E25E12
:10233000FE4FC7016081482D950186010E943C1027
:1023400081E0F70182A321C19EE1C92E91E0D92E3F
:10235000CE0CDF1CF6018081823050F1882D90E098
:102360008F3E91052CF185E295E063E371E00E94D8
:10237000621DF8014081F6016081461BF80140832F
:1023800070E06B5D7F4F6E0D7F1D50E04F5F5F4FC4
:10239000C70185960E94DB0226E131E0E20EF31EC2
:1023A00081E0F70180832AEE3EEFE20EF31EEDC0DE
:1023B000872D962D0E94140CE8C0019709F0E3C008
:1023C000F8018081883208F4DEC080E7A82E81E021
:1023D000B82EAE0CBF1CC50160E071E00E94DE218A
:1023E00007E7C02E01E0D02ECE0CDF1CC60160E056
:1023F00071E00E94DE21C50162E00E94662118E0C2
:10240000812E912C8C0E9D1EC401B7010E94470C99
:10241000C4010E94E80BC4010E94780A882309F4D1
:10242000C1C0C4010E94ED0C882309F4BBC08E0119
:102430000F5F1F4FC80160E071E00E94C421C80116
:1024400066E271E00E94DE21C401B8010E947E0BA9
:10245000C50168E371E00E947921C5016BE30E9428
:102460006621C401B5010E948D0FC6016BE30E9475
:102470006621C401B6010E946C0FC60163E00E9490
:102480006621C6016AE00E946621C701B501A80164
:1024900096010E942010C8010E94C4226CC0092D20
:1024A00010E0F701E00FF11FE85EFE4F8081882306
:1024B000E1F0C5016BE371E00E947921C501692D4E
:1024C0000E943A21C50164E271E00E947921000F67
:1024D000111F0E0D1F1DF80163897489C5010E942B
:1024E0000921C5016BE30E9466219394F70181A144
:1024F0009816A8F2C50166E271E00E947921C60132
:102500006BE30E946621C60169E271E00E947921B5
:10251000F7016281772767FD7095C6010E94092146
:10252000C6016BE30E94662127E131E0E20EF31E53
:10253000F701808129EE3EEFE20EF31E882349F079
:10254000C60161E371E00E947921C6016BE30E943C
:102550006621C60163E00E946621C6016AE00E940E
:102560006621F701EB5EFE4FC70160E040819501F7
:1025700086010E943C1081E0F70182A3CE010896FB
:102580000E94101002C0F70112A226E131E0E20E13
:10259000F31EF7018081882381F4872D962D0E94F8
:1025A000140C0BC0C5016DE371E00E947921C501D7
:1025B0006BE30E946621992499CF62960FB6F89436
:1025C000DEBF0FBECDBFCF91DF911F910F91FF9066
:1025D000EF90DF90CF90BF90AF909F908F907F90C3
:1025E0006F9008951F920F920FB60F9211242F93A0
:1025F0003F934F935F936F937F938F939F93AF938B
:10260000BF93EF93FF93E0915E02F0915F02099513
:10261000FF91EF91BF91AF919F918F917F916F91BA
:102620005F914F913F912F910F900FBE0F901F9090
:10263000189581309105D9F46F5F7F4F79F580E56A
:102640008093600210926102809161028093630224
:10265000809163028093620285E093E062EB71E017
:102660000E94C4218DE093E00E94AE0C0895892B56
:10267000A9F46F5F7F4F91F48FE192E090930E0386
:1026800080930D0384E894E00E94C4228DE794E0D7
:102690000E94C42285E093E00E94C422089580E055
:1026A00090E06FEF7FEF0E941913089581E090E0B2
:1026B0006FEF7FEF0E9419130895FF920F931F93FE
:1026C000CF93DF93F82E05E215E0C80163EB71E0CC
:1026D0000E94621DC8016F2D4AE050E00E94DE1C7E
:1026E000C8016EEB71E00E94621DCF2DD0E093E037
:1026F000CC0FDD1F9A95E1F7FE01E15DFB4F608194
:102700007181C8014AE050E00E94301DC80162ECAE
:1027100071E00E94621DC25DDB4F6881772767FD13
:102720007095C8014AE050E00E94301DC80167EC76
:1027300071E00E94651DDF91CF911F910F91FF9075
:102740000895EF92FF920F931F93DF93CF93CDB72E
:10275000DEB762970FB6F894DEBF0FBECDBF8E0115
:10276000075F1F4F85E093E0B8014AE050E023E0A7
:1027700030E00E947920C80167EC71E00E94CD0230
:102780000E948802F82EDE011196EFE3F2E088E065
:1027900001900D928150E1F785E093E061E070E0F7
:1027A0000E940520813421F000E010E0EE2425C0D5
:1027B00080E090E067EC71E00E94CD020E94880208
:1027C000E82E80E090E067EC71E00E94CD020E946C
:1027D00088028C01EB829D838C83EF2DF0E033E047
:1027E000EE0FFF1F3A95E1F7E45DFB4FDE01119616
:1027F00088E00D9001928150E1F785E093E061E07F
:1028000070E00E940520823599F4EB821D830C83D1
:10281000EF2DF0E023E0EE0FFF1F2A95E1F7E45DD6
:10282000FB4FDE01119688E00D9001928150E1F797
:102830008F2D0E945D1380917C0490E001962F2DD6
:1028400030E0821793071CF4F394F0927C046296B4
:102850000FB6F894DEBF0FBECDBFCF91DF911F91B1
:102860000F91FF90EF9008950E94971E9B01AC017D
:1028700080918B0490918C04A0918D04B0918E0472
:10288000281739074A075B0748F480918F04909115
:10289000900401969093900480938F0420938B046E
:1028A00030938C0440938D0450938E04CA01B90177
:1028B00028EE33E040E050E00E94BF24C9010895B3
:1028C0001F9311E017C085E295E00E94E81A682F77
:1028D0008A3049F08B301CF4882329F007C08D30F2
:1028E00011F0833219F410930C0304C085E093E0D7
:1028F0000E94662185E295E00E94B71A892B19F79C
:102900001F910895609104038DE00E94A21F109210
:10291000040308956F927F928F929F92AF92BF921D
:10292000DF92EF92FF920F931F93DF93CF93CDB778
:10293000DEB72E970FB6F894DEBF0FBECDBF3C01B9
:1029400085E093E064E40E94742062E0D62ED80E05
:102950004E010894811C911C58E0A52EB12CAC0EA0
:10296000BD1E3BC00894E11CF11CC50165E073E08D
:102970004D2D50E097010E945A22C5010E94272048
:10298000162FC5010E94C422012F10E0000F111F55
:10299000060D171D60E0F8018081918197FF61E0CD
:1029A0008BE00E94A21FF8018081918197FF03C0F4
:1029B000909581959F4FFFE181349F075CF068EE11
:1029C00073E00E94AC24882777FD8095982F0E94A1
:1029D000CB1E02C00E94F11ED394ED2CFF24C40133
:1029E00067EC71E00E94C42185E093E0B4014D2DB5
:1029F00050E00E9438208C01C4010E94C422E016DD
:102A0000F1060CF4AFCF8BE060E00E94A21F2E967F
:102A10000FB6F894DEBF0FBECDBFCF91DF911F91EF
:102A20000F91FF90EF90DF90BF90AF909F908F90AD
:102A30007F906F900895EF92FF920F931F93082F4E
:102A4000E62E8BE061E00E94A21F10E08091190247
:102A500090911A029C01029FC001039F900D129F4A
:102A6000900D11240E94F11E8BE060E00E94A21FD5
:102A7000FF248091190290911A029C01E29EC001EC
:102A8000E39E900DF29E900D11240E94F11E1F9165
:102A90000F91FF90EF90089580E00E94E21D08954D
:102AA00080E065E978E141E050E00E94BF1D0895B3
:102AB00085E093E061E070E00E940520813511F42B
:102AC0000E944C1585E093E061E070E00E940520D3
:102AD000853411F40E94501508952F923F924F9221
:102AE0005F926F927F928F929F92AF92BF92CF929E
:102AF000DF92EF92FF920F931F93DF93CF93CDB7A7
:102B0000DEB7ED970FB6F894DEBF0FBECDBF85E000
:102B100093E061E070E00E940520823509F0EBC08F
:102B2000FE01F2968CE0DF011D928A95E9F77E01A5
:102B30000894E11CF11CC70162EB71E00E94C42102
:102B40008E01085F1F4FC80167EC71E00E94C4212D
:102B500085E093E0B80142E050E00E943820B82EB2
:102B6000C8010E94C422AA2486E1282E312C2C0EF2
:102B70003D1E67010BE2402E512C4C0E5D1E1DE1E7
:102B8000612E712C6C0E7D1EB4E28B2E912C8C0E5E
:102B90009D1E3FC0C60162E070E00E9405208D339B
:102BA00009F097C0C301B60141E050E022E030E0F7
:102BB0000E945A22C3010E942720162FC3010E949F
:102BC000C422C401B60143E050E00E94A122C40126
:102BD0000E942720E12FF0E0EE0FFF1FEC0DFD1DFE
:102BE00072AB61ABC40112C0C60161E070E00E942B
:102BF00005208D3369F4C201B60142E050E00E9425
:102C0000A122C2010E942720A62EC2010E94C42236
:102C1000B02E0B2D112707FD109578010894E11CAB
:102C2000F11C85E093E0B7010E940520843409F48B
:102C300059C085E093E064E40E947420E816F90628
:102C40000CF050C0CE010F9667EC71E00E94C421D9
:102C50000E5F1F4F85E093E0BE01615F7F4FA801CB
:102C60000E943820082FCE010F960E94C422202FE8
:102C7000332727FD3095C10165E073E0A7010E946D
:102C80005A22C601B1010E94AD22C1010E94C42294
:102C9000C60160E070E00E9405208035D1F47ACF53
:102CA000C7010E948A1462E070E080E090E00E9418
:102CB000CB1E1F5F1A15A0F30E94501585E295E008
:102CC00065E073E00E94AB1DCE0101960E94C42214
:102CD00012C0C60160E070E00E940520823509F054
:102CE00097CF82CF0E944C1510E072E3E72EF12CB3
:102CF000EC0EFD1EDFCFED960FB6F894DEBF0FBED3
:102D0000CDBFCF91DF911F910F91FF90EF90DF909A
:102D1000CF90BF90AF909F908F907F906F905F907B
:102D20004F903F902F900895EF92FF920F931F9333
:102D3000CF93DF937C010E944C1500E010E024C08B
:102D400081E06FE10E941B15E70119C0813371F02A
:102D5000863449F0803391F481E063E00E941B15D2
:102D600081E063E009C081E063E002C083E061E0EC
:102D70000E941B1583E061E00E941B15219688814B
:102D8000882321F70F5F1F4F8091180290E00817EA
:102D90001907B4F20E945015DF91CF911F910F9146
:102DA000FF90EF900895EF92FF920F931F93DF93A0
:102DB000CF93CDB7DEB7EA970FB6F894DEBF0FBE5C
:102DC000CDBF85E093E061E070E00E94052084378C
:102DD00031F185E093E061E070E00E9405208237E8
:102DE00029F58E010C5F1F4FC80165E073E042E0DA
:102DF00050E00E94A122C8017E010894E11CF11C50
:102E0000B70143E050E020E030E00E947920C801A3
:102E10000E94C422C7010E9488028093180285E2A2
:102E200095E065E073E00E94AB1D97C085E093E0FC
:102E300061E070E00E940520833731F58DE061E0AC
:102E40000E94A21F8E01055F1F4FC80165E073E05D
:102E500042E050E00E94A1222EE2E22EF12CEC0E84
:102E6000FD1EC801B7014DE050E020E030E00E94B7
:102E70007920C8010E94C422C7010E9494168DE0E7
:102E800060E00E94A21FCBCF85E093E061E070E09C
:102E90000E9405208336A9F48E010E5E1F4FC801E3
:102EA00065E073E042E050E00E94A122C8010E9468
:102EB000272070931A0260931902C8010E94C4224D
:102EC000AECF85E093E061E070E00E94052080379E
:102ED00009F043C099E1E92EF12CEC0EFD1EC7016B
:102EE00062EB71E00E94C421C70164E170E00E94BE
:102EF000C020C70169EC71E00E94DE218E01005EF6
:102F00001F4FC801609118024AE00E942822C701A1
:102F1000B8010E948921C8010E94C422C70164ED42
:102F200071E00E9479218E01095D1F4F60911902A5
:102F300070911A02C8014AE00E94F721C701B80146
:102F40000E948921C8010E94C42285E295E0B70150
:102F50000E94AB1DC7010E94C422EA960FB6F894E6
:102F6000DEBF0FBECDBFCF91DF911F910F91FF90BC
:102F7000EF900895DF93CF9300D0CDB7DEB785E013
:102F800093E060E070E00E9405208F3309F056C0A6
:102F900085E295E06FE30E94271C85E295E068E6F4
:102FA00070E00E94041C85E295E066E50E94271C03
:102FB00085E295E060E20E94271C85E295E069E6E3
:102FC0000E94271C85E295E060E20E94271C85E2B2
:102FD00095E062E50E94271C85E295E060E20E9490
:102FE000271C85E295E064E70E94271C85E295E0B6
:102FF00060E20E94271C85E295E068E50E94271C9C
:1030000085E295E060E20E94271C85E295E066E497
:103010000E94271C85E295E060E20E94271C85E261
:1030200095E063E50E94271C85E295E060E20E943E
:10303000271C85E295E062EB71E00CC085E093E02F
:1030400060E070E00E940520863539F485E295E065
:1030500066ED71E00E94651D63C085E093E060E06D
:1030600070E00E940520823571F4809154059091A2
:103070005505009711F488E595E0BE016F5F7F4F1D
:10308000681B790B31C085E093E060E070E00E943E
:103090000520893649F48DE093E00E947007892B62
:1030A00089F40E94D3163CC085E093E060E070E0B4
:1030B0000E940520833569F48DE093E00E9470073B
:1030C000892B21F081E080930C032AC00E946D15AA
:1030D00027C085E093E060E070E00E94052084371F
:1030E00051F40E943414BC0185E295E04AE050E0BE
:1030F0000E94431D15C085E093E060E070E00E94EF
:103100000520883519F40E9458150AC085E093E01F
:1031100060E070E00E940520863411F40E94A11343
:103120000F900F90CF91DF910895AF92BF92CF9201
:10313000DF92EF92FF920F931F9380919104882367
:10314000A1F481E994E00E94C61B892B71F00E94D2
:10315000A51E6093990470939A0480939B049093A6
:103160009C0481E994E00E94D01B0E94A51E7B0173
:103170008C0182E00E94D51FAC018091990490914E
:103180009A04A0919B04B0919C0457016801A81A6D
:10319000B90ACA0ADB0AD601C501E0929904F09285
:1031A0009A0400939B0410939C048A359105A10511
:1031B000B10594F181302DE7920720E0A20720E0CD
:1031C000B2071CF021E03DE701C09501452B19F045
:1031D000309521953F4F809161028035E8F48091D0
:1031E00061028F5F80936102809162026091600250
:1031F00090E070E00E94982480936202E091620265
:10320000F0E0EE0FFF1FEC59FD4F318320838091DA
:1032100062028F5F809362021F910F91FF90EF9087
:10322000DF90CF90BF90AF900895FF920F931F93C0
:10323000DF93CF9300D0CDB7DEB780910C03882306
:10324000D1F110920C030E94BA1780910C038823CD
:1032500031F485E093E062EB71E00E94DE2181E0D1
:103260008093040328C080916102815080936102A1
:10327000809163026091600290E070E00E94982467
:103280008093630280916302E82FF0E0EE0FFF1F4E
:10329000EC59FD4F208131818F5F809363023A8327
:1032A00029838DE093E0B8010E94700A882341F0E1
:1032B000F092040305C08E010F5F1F4FFF24F394AB
:1032C00080916102882379F60F900F90CF91DF9162
:1032D0001F910F91FF90089585E295E040E051EE37
:1032E00060E070E00E94301A82E060E00E94361FC9
:1032F0008BE061E00E94361F8DE061E00E94361F86
:10330000E1E8F0E080E180831092800082E0809329
:103310005D0288EA91E690935C0280935B02909351
:1033200087008093860082E1808382E894E1909315
:103330005F0280935E0281E080936F000E945015CF
:1033400085E093E064E170E00E94C02008951F9240
:103350000F920FB60F9211242F933F934F938F9399
:103360009F93EF93FF938091C00082FD1DC0409119
:10337000C6002091DD043091DE042F5F3F4F2F7394
:1033800030708091DF049091E0042817390771F0C4
:10339000E091DD04F091DE04E356FB4F408330936F
:1033A000DE042093DD0402C08091C600FF91EF91FE
:1033B0009F918F914F913F912F910F900FBE0F9042
:1033C0001F901895E0913105F0913205E05CFF4FB8
:1033D0008191919120813181821B930B8F73907029
:1033E000892B11F00E94601408951F920F920FB65E
:1033F0000F9211242F933F938F939F93EF93FF93FB
:10340000209121053091220580912305909124057A
:103410002817390731F48091C1008F7D8093C10056
:1034200014C0E0912305F0912405EF51FB4F20815A
:10343000809123059091240501968F73907090934D
:103440002405809323052093C600FF91EF919F915F
:103450008F913F912F910F900FBE0F901F90189555
:10346000AF92BF92DF92EF92FF920F931F93CF9391
:10347000DF93EC017A018B01DD24403081EE5807A7
:1034800080E0680780E0780711F0DD24D39491E0B4
:10349000A92EB12CEC89FD89DD2069F0C50108A0B9
:1034A00002C0880F991F0A94E2F7808360E079E0F8
:1034B0008DE390E005C0108260E874E88EE190E052
:1034C000A80197010E94BF24215030404040504045
:1034D000569547953795279580E12030380720F09D
:1034E000DD2011F0DD24D6CFE889F9893083EA891F
:1034F000FB89208319A2EE89FF89408121E030E019
:10350000C9010C8C02C0880F991F0A94E2F7482B5E
:103510004083EE89FF894081C9010D8C02C0880F6C
:10352000991F0A94E2F7482B4083EE89FF89408176
:10353000C9010E8C02C0880F991F0A94E2F7482B2C
:103540004083EE89FF8980810F8C02C0220F331FD8
:103550000A94E2F7209528232083DF91CF911F91D1
:103560000F91FF90EF90DF90BF90AF900895DC0136
:103570001C96ED91FC911D97E05CFF4F21913191DC
:1035800080819181281B390B2F733070C9010895F8
:10359000DC011C96ED91FC911D97E05CFF4F2081B2
:1035A0003181E054F040DF01AE5BBF4F8D919C91C3
:1035B00011972817390719F42FEF3FEF07C08D91A6
:1035C0009C91E80FF91F8081282F30E0C9010895F0
:1035D000DC011C96ED91FC911D97E05CFF4F208172
:1035E0003181E054F040DF01AE5BBF4F8D919C9183
:1035F00011972817390719F42FEF3FEF10C08D915D
:103600009C911197E80FF91F20818D919C91119742
:1036100001968F73907011969C938E9330E0C90140
:103620000895DC0191968C919197882339F05496F6
:10363000ED91FC915597808186FFF9CF91961C9270
:103640000895CF93DF93EC01EE85FF85E05CFF4F9B
:1036500020813181E054F0402F5F3F4F2F73307055
:10366000DF01AE5BBF4F8D919C91119728173907F1
:10367000D1F3E05CFF4F80819181E054F040E80F8E
:10368000F91F6083EE85FF85E05CFF4F3183208367
:10369000EE89FF89208181E090E00F8C02C0880FC5
:1036A000991F0A94E2F7282B208381E089A3EC89F3
:1036B000FD8980818064808381E090E0DF91CF91FB
:1036C0000895109228051092270588EE93E0A0E057
:1036D000B0E08093290590932A05A0932B05B09321
:1036E0002C058BE492E090932605809325058DE9C7
:1036F00094E0909332058093310581EE94E09093AD
:1037000034058093330585EC90E0909336058093E3
:10371000350584EC90E0909338058093370580EC74
:1037200090E090933A058093390581EC90E0909376
:103730003C0580933B0582EC90E090933E0580939E
:103740003D0586EC90E09093400580933F0584E032
:103750008093410583E08093420587E08093430591
:1037600085E08093440581E0809345050895CF93DB
:10377000DF930E94FB1E0E946C19C2EED9E10E94E9
:1037800015192097E1F30E94E219F9CFFC0120E01E
:1037900030E08081882311F421E030E0C9010895F0
:1037A000FC0181E0808308950E945B0108950E94DE
:1037B000B1000895CF92DF92EF92FF920F931F9383
:1037C000CF93DF937C016B018A01C0E0D0E00FC092
:1037D000D6016D916D01D701ED91FC910190F081C1
:1037E000E02DC7010995C80FD91F015010400115E0
:1037F000110571F7CE01DF91CF911F910F91FF90CD
:10380000EF90DF90CF900895EF92FF920F931F9368
:10381000CF93DF937C018B01C0E0D0E0F8010F5F14
:103820001F4F6491662359F0D701ED91FC910190EF
:10383000F081E02DC7010995C80FD91FEFCFCE0148
:10384000DF91CF911F910F91FF90EF900895DC01D0
:10385000ED91FC910190F081E02D09950895EF9292
:10386000FF920F931F938C01DC01ED91FC9101906D
:10387000F081E02D6DE009957C01D801ED91FC917E
:103880000190F081E02DC8016AE009959C012E0DA0
:103890003F1DC9011F910F91FF90EF900895CF93A5
:1038A000DF93EC016115710519F420E030E00FC0E1
:1038B000DB010D900020E9F71197A61BB70BE881FB
:1038C000F9810280F381E02DAD0109959C01C901C8
:1038D000DF91CF9108954F925F927F928F929F9246
:1038E000AF92BF92CF92DF92EF92FF920F931F930E
:1038F000DF93CF93CDB7DEB7A1970FB6F894DEBFB5
:103900000FBECDBF2C01742ECB01223008F42AE06B
:1039100019A231E2C32ED12CCC0EDD1E822E9924A9
:10392000AA24BB24672D752FA50194010E94BF24F2
:1039300079018A01C801B701A50194010E94792487
:10394000472D461B0894C108D1084A3014F4405D45
:1039500001C0495CF6014083E114F1040105110541
:1039600021F07E2C5F2DC801DDCFC201B6010E947F
:103970004F1CA1960FB6F894DEBF0FBECDBFCF91FE
:10398000DF911F910F91FF90EF90DF90CF90BF904C
:10399000AF909F908F907F905F904F900895DC0143
:1039A0002115310541F4ED91FC910190F081E02D5C
:1039B000642F099508950E946B1C0895EF92FF9261
:1039C0000F931F939A01E62EFF2400E010E0B80148
:1039D000A7010E94CF1C1F910F91FF90EF900895B7
:1039E000CF92DF92EF92FF920F931F93CF93DF93CB
:1039F000EC016A017B012115310541F4E881F9816F
:103A00000190F081E02D642F09951FC02A30310507
:103A1000D1F477FF17C0E881F9810190F081E02DA2
:103A20006DE209958C0144275527BA014C195D09AF
:103A30006E097F09CE012AE00E946B1C9801280FB5
:103A4000391F04C02AE00E946B1C9C01C901DF9150
:103A5000CF911F910F91FF90EF90DF90CF9008953D
:103A6000EF92FF920F931F937B019A010027F7FCBF
:103A70000095102FB801A7010E94F01C1F910F9113
:103A8000FF90EF900895CF92DF92EF92FF920F9305
:103A90001F936C017B019A010027F7FC0095102F02
:103AA000B801A7010E94F01C8C01C6010E942F1CC6
:103AB000080F191FC8011F910F91FF90EF90DF9021
:103AC000CF9008950E944F1C0895EF92FF920F939C
:103AD0001F937C010E944F1C8C01C7010E942F1C68
:103AE000080F191FC8011F910F91FF90EF900895C3
:103AF000AF92BF92CF92DF92EF92FF920F931F93FC
:103B0000CF93DF935C016B01EE24FF24C0E0D0E093
:103B100010C0D501ED91FC9100811181C601BE015B
:103B20000E941620682FC501F8010995E80EF91EBC
:103B30002196F60184819581C817D90750F3C701F2
:103B4000DF91CF911F910F91FF90EF90DF90CF9079
:103B5000BF90AF900895EF92FF920F931F937C0157
:103B60000E94781D8C01C7010E942F1C9C01200F10
:103B7000311FC9011F910F91FF90EF90089582307E
:103B800000F5E82FF0E0EE0FFF1FE95BFA4F7183BD
:103B90006083882319F08130A1F408C08091690006
:103BA0008C7F842B80936900E89A08958091690046
:103BB000440F551F440F551F837F842B809369004A
:103BC000E99A0895823080F4882319F0813021F435
:103BD00002C0E89801C0E998E82FF0E0EE0FFF1F5F
:103BE000E95BFA4F1182108208951F920F920FB66F
:103BF0000F9211242F933F934F935F936F937F9373
:103C00008F939F93AF93BF93EF93FF93809147055B
:103C100090914805892B29F0E0914705F0914805DE
:103C20000995FF91EF91BF91AF919F918F917F91F6
:103C30006F915F914F913F912F910F900FBE0F9019
:103C40001F9018951F920F920FB60F9211242F9369
:103C50003F934F935F936F937F938F939F93AF9314
:103C6000BF93EF93FF938091490590914A05892B6B
:103C700029F0E0914905F0914A050995FF91EF91EE
:103C8000BF91AF919F918F917F916F915F914F9174
:103C90003F912F910F900FBE0F901F9018951F927C
:103CA0000F920FB60F9211242F933F938F939F93F0
:103CB000AF93BF9380914F0590915005A09151050E
:103CC000B0915205309153050196A11DB11D232FCE
:103CD0002D5F2D3720F02D570196A11DB11D20938A
:103CE000530580934F0590935005A0935105B093D1
:103CF000520580914B0590914C05A0914D05B091D6
:103D00004E050196A11DB11D80934B0590934C0566
:103D1000A0934D05B0934E05BF91AF919F918F91A8
:103D20003F912F910F900FBE0F901F9018958FB756
:103D3000F89420914F0530915005409151055091D4
:103D400052058FBFB901CA0108959FB7F894209119
:103D50004B0530914C0540914D0550914E0586B56F
:103D6000A89B06C08F3F21F02F5F3F4F4F4F5F4F03
:103D70009FBF542F432F322F2227280F311D411D63
:103D8000511D82E0220F331F441F551F8A95D1F722
:103D9000B901CA010895EF92FF920F931F93CF9339
:103DA000DF937B018C010E94A51EEB010EC00E94D7
:103DB000A51E6C1B7D0B685E7340C8F30894E10878
:103DC000F10801091109C851DC4FE114F1040105A2
:103DD000110569F7DF91CF911F910F91FF90EF903F
:103DE0000895019739F0880F991F880F991F02973E
:103DF0000197F1F70895789484B5826084BD84B505
:103E0000816084BD85B5826085BD85B5816085BDD5
:103E1000EEE6F0E0808181608083E1E8F0E01082EE
:103E2000808182608083808181608083E0E8F0E02F
:103E3000808181608083E1EBF0E080818460808319
:103E4000E0EBF0E0808181608083EAE7F0E0808150
:103E500084608083808182608083808181608083B0
:103E60008081806880831092C1000895CF93DF9392
:103E7000482F50E0CA0189559F4FFC0134914D569F
:103E80005F4FFA018491882369F190E0880F991FB0
:103E9000FC01EB58FF4FA591B491FC01E158FF4F95
:103EA000C591D491662351F42FB7F8948C91932F38
:103EB000909589238C93888189230BC0623061F4AB
:103EC0002FB7F8948C91932F909589238C938881A8
:103ED000832B88832FBF06C09FB7F8948C91832BC8
:103EE0008C939FBFDF91CF910895833071F0843020
:103EF00028F48130A1F0823021F514C08630B1F071
:103F00008730D1F08430E9F404C0809180008F774D
:103F100003C0809180008F7D80938000089584B5D8
:103F20008F7702C084B58F7D84BD08958091B000E5
:103F30008F778093B00008958091B0008F7D80933B
:103F4000B0000895FF920F931F93F62E482F50E074
:103F5000CA0185549F4FFC012491CA0189559F4F86
:103F6000FC0114914D565F4FFA0104910023C9F0F2
:103F7000222319F0822F0E94751FE02FF0E0EE0F30
:103F8000FF1FE158FF4FA591B4919FB7F894FF2010
:103F900021F48C911095812302C08C91812B8C93FC
:103FA0009FBF1F910F91FF9008950F931F93482F6C
:103FB00050E0CA0185549F4FFC012491CA018955E4
:103FC0009F4FFC0104914D565F4FFA01149111234C
:103FD00019F420E030E015C0222319F0822F0E944E
:103FE000751F812F90E0880F991F87579F4FFC0105
:103FF000A591B4918C9120E030E0802311F021E074
:1040000030E0C9011F910F910895FC0184819581D1
:104010006817790748F40190F081E02D309721F07E
:10402000E60FF71F8081089580E00895FC018481E8
:1040300095816817790748F40190F081E02D309759
:1040400021F0E60FF71F8081089580E00895FC01BC
:1040500080819181009729F420E030E040E050E039
:1040600004C00E94A6029B01AC01B901CA010895D7
:10407000CF93DF93FC01DB018481958148175907B9
:1040800060F4C081D1816D917C91CE01840F951F28
:104090000E9415039C01009719F42FEF3FEF02C017
:1040A0002C1B3D0BC901DF91CF910895CF93DF9376
:1040B000FC01848195814817590768F4C081D1813A
:1040C000772767FD7095CE01840F951F0E94F4023B
:1040D0009C01009719F42FEF3FEF02C02C1B3D0B02
:1040E000C901DF91CF91089540E050E00E94562031
:1040F00008950F931F93CF93DF93FC018B0141151C
:104100005105F9F061157105E1F084819581281759
:10411000390718F0FB01108214C041505040EC01E7
:10412000C21BD30B4C175D0708F4EA016081718153
:10413000620F731FC801AE010E940603C00FD11F9A
:104140001882DF91CF911F910F9108950F931F93C4
:10415000CF93DF93EC018B016F5F7F4F8881998153
:104160000E94B301009711F480E005C09983888311
:104170001B830A8381E0DF91CF911F910F910895F6
:10418000CF93DF93EC0188819981892B29F08A8173
:104190009B818617970760F4CE010E94A620882392
:1041A00041F08C819D81892B19F4E881F98110827D
:1041B00081E0DF91CF910895EF92FF920F931F93CB
:1041C000CF93DF93EC017B016C817D81E114F104DD
:1041D000C1F04115510599F08A01060F171FB8016A
:1041E0000E94C020882369F0888199812C813D81BB
:1041F000820F931FB7010E94FF021D830C8381E091
:1042000001C080E0DF91CF911F910F91FF90EF905F
:104210000895EF92FF920F931F93DF93CF93CDB743
:10422000DEB727970FB6F894DEBF0FBECDBF7C0177
:10423000CB018E010F5F1F4FB8014AE050E00E9492
:104240006103F80101900020E9F73197E01BF10BC1
:10425000C701B801AF010E94DC2027960FB6F89481
:10426000DEBF0FBECDBFCF91DF911F910F91FF90A9
:10427000EF900895EF92FF920F931F93DF93CF93E8
:1042800000D000D0CDB7DEB77C01862F90E08E0144
:104290000F5F1F4FB8014AE050E00E946103F80130
:1042A00001900020E9F73197E01BF10BC701B8013D
:1042B000AF010E94DC200F900F900F900F90CF91D4
:1042C000DF911F910F91FF90EF900895DF93CF93AF
:1042D00000D0CDB7DEB769831A82BE016F5F7F4F12
:1042E00041E050E00E94DC200F900F90CF91DF91D1
:1042F00008956115710511F480E00895DB010D90BA
:104300000020E9F71197A61BB70BAD010E94DC2036
:104310000895FB0160817181448155810E94DC20F8
:104320000895CF93DF93EC0188819981009711F074
:104330000E945B01198218821D821C821B821A82D4
:10434000DF91CF910895EF92FF920F931F93CF9338
:10435000DF93EC017B018A01BA010E94C02088230F
:1043600021F4CE010E94912107C01D830C83888116
:104370009981B7010E94FF02CE01DF91CF911F9179
:104380000F91FF90EF900895CF93DF93EC01198286
:1043900018821B821A821D821C821E826115710581
:1043A00051F0DB010D900020E9F71197A61BB70B28
:1043B000AD010E94A321DF91CF9108950F931F9328
:1043C000182F092F6115710559F0DB010D900020A0
:1043D000E9F71197A61BB70BAD010E94A32102C0FC
:1043E0000E949121812F902F1F910F910895EF929C
:1043F000FF920F931F93DF93CF93CDB7DEB76297F2
:104400000FB6F894DEBF0FBECDBF8C01CB01F80113
:1044100011821082138212821582148216827E010A
:104420000894E11CF11CB70150E00E946103C8012F
:10443000B7010E94DE2162960FB6F894DEBF0FBE70
:10444000CDBFCF91DF911F910F91FF90EF90089515
:10445000EF92FF920F931F93DF93CF93CDB7DEB709
:1044600029970FB6F894DEBF0FBECDBF8C01862F03
:10447000F801118210821382128215821482168230
:1044800090E07E010894E11CF11CB70150E00E940D
:104490009F03C801B7010E94DE2129960FB6F89448
:1044A000DEBF0FBECDBFCF91DF911F910F91FF9067
:1044B000EF900895BF92CF92DF92EF92FF920F9309
:1044C0001F93CF93DF93082FB92E6B017A01E90177
:1044D0002417350710F4EA017901802F9B2D61E143
:1044E00072E00E94C421D60114968D919C9115977B
:1044F0008E159F05D0F08C179D0708F4EC01D601AE
:10450000ED91FC911197EC0FFD1F108110826D91C0
:104510007C916E0D7F1D802F9B2D0E94DE21D60188
:10452000ED91FC91EC0FFD1F1083802F9B2DDF91EF
:10453000CF911F910F91FF90EF90DF90CF90BF90A0
:1045400008950F931F938C01FB01248135810E94F4
:104550005A22C8011F910F910895CF93DF93EC0168
:10456000FB018617970761F0608171816115710504
:1045700029F0448155810E94A32102C00E9491210B
:10458000CE01DF91CF910895FC01808191810E943D
:104590005B0108955058BB27AA270ED009C1FAD055
:1045A00030F0FFD020F031F49F3F11F41EF4EFC043
:1045B0000EF4E095E7FBE5C0E92F0BD180F3BA17C5
:1045C000620773078407950718F071F49EF523C1FD
:1045D0000EF4E0950B2EBA2FA02D0B01B90190011E
:1045E0000C01CA01A0011124FF27591B99F0593F62
:1045F00050F4503E68F11A16F040A22F232F342FAA
:104600004427585FF3CF469537952795A795F040F7
:104610005395C9F77EF41F16BA0B620B730B840B0C
:10462000BAF09150A1F0FF0FBB1F661F771F881FC4
:10463000C2F70EC0BA0F621F731F841F48F487951C
:1046400077956795B795F7959E3F08F0B3CF93950B
:10465000880F08F09927EE0F97958795089504D055
:104660006894B111D9C00895BCD088F09F5790F0DC
:10467000B92F9927B751A0F0D1F0660F771F881F87
:10468000991F1AF0BA95C9F712C0B13081F0C3D0A2
:10469000B1E00895C0C0672F782F8827B85F39F040
:1046A000B93FCCF3869577956795B395D9F73EF4E6
:1046B00090958095709561957F4F8F4F9F4F08958E
:1046C000E89409C097FB3EF49095809570956195AC
:1046D0007F4F8F4F9F4F9923A9F0F92F96E9BB2762
:1046E0009395F695879577956795B795F111F8CFDE
:1046F000FAF4BB0F11F460FF1BC06F5F7F4F8F4F49
:104700009F4F16C0882311F096E911C0772321F03E
:104710009EE8872F762F05C0662371F096E8862FD6
:1047200070E060E02AF09A95660F771F881FDAF72D
:10473000880F9695879597F90895990F0008550F5A
:10474000AA0BE0E8FEEF16161706E807F907C0F017
:1047500012161306E407F50798F0621B730B840B1F
:10476000950B39F40A2661F0232B242B252B21F4F9
:1047700008950A2609F4A140A6958FEF811D811D99
:10478000089597F99F6780E870E060E008959FEFD3
:1047900080EC089500240A941616170618060906D8
:1047A000089500240A9412161306140605060895A7
:1047B000092E0394000C11F4882352F0BB0F40F42F
:1047C000BF2B11F460FF04C06F5F7F4F8F4F9F4F6F
:1047D000089557FD9058440F551F59F05F3F71F0F1
:1047E0004795880F97FB991F61F09F3F79F0879558
:1047F0000895121613061406551FF2CF4695F1DFE1
:1048000008C0161617061806991FF1CF8695710570
:10481000610508940895E894BB2766277727CB01A4
:1048200097F908958ADF08F48FEF08950BD0C0CF71
:10483000B1DF28F0B6DF18F0952309F0A2CFA7CF9B
:104840001124EACFC6DFA0F3959FD1F3950F50E076
:10485000551F629FF001729FBB27F00DB11D639F32
:10486000AA27F00DB11DAA1F649F6627B00DA11DD8
:10487000661F829F2227B00DA11D621F739FB00D7E
:10488000A11D621F839FA00D611D221F749F3327EE
:10489000A00D611D231F849F600D211D822F762F87
:1048A0006A2F11249F5750408AF0E1F088234AF084
:1048B000EE0FFF1FBB1F661F771F881F91505040D0
:1048C000A9F79E3F510570F05CCFA6CF5F3FECF398
:1048D000983EDCF3869577956795B795F795E795BC
:1048E0009F5FC1F7FE2B880F911D9695879597F9CD
:1048F0000895629FD001739FF001829FE00DF11D2A
:10490000649FE00DF11D929FF00D839FF00D749F49
:10491000F00D659FF00D9927729FB00DE11DF91FF5
:10492000639FB00DE11DF91FBD01CF011124089552
:10493000AA1BBB1B51E107C0AA1FBB1FA617B707C5
:1049400010F0A61BB70B881F991F5A95A9F78095E1
:104950009095BC01CD01089597FB092E07260AD03A
:1049600077FD04D0E5DF06D000201AF4709561953C
:104970007F4F0895F6F7909581959F4F0895A1E296
:104980001A2EAA1BBB1BFD010DC0AA1FBB1FEE1FC9
:10499000FF1FA217B307E407F50720F0A21BB30B14
:1049A000E40BF50B661F771F881F991F1A9469F790
:1049B00060957095809590959B01AC01BD01CF01EC
:1049C0000895EE0FFF1F0590F491E02D09942F92AA
:1049D0003F924F925F926F927F928F929F92AF928F
:1049E000BF92CF92DF92EF92FF920F931F93CF93DC
:1049F000DF93CDB7DEB7CA1BDB0B0FB6F894DEBF73
:104A00000FBECDBF09942A88398848885F846E8498
:104A10007D848C849B84AA84B984C884DF80EE80E2
:104A2000FD800C811B81AA81B981CE0FD11D0FB6EB
:104A3000F894DEBF0FBECDBFED01089510E0C4EDC8
:104A4000D0E004C0FE010E94E3242296C63DD107B7
:064A5000C9F7F894FFCF46
:104A56000041530025303258003030003000433DCD
:104A6600004C4C3D004C483D00534C3D0053483DE6
:104A7600004D53003D00443D0043503D0053503D22
:104A8600004F00636F7079004D430050004D550094
:104A960053796E633A2000202D3E2053796E63468B
:104AA6006163743A20002C20436C6F636B3A2000DC
:104AB6002C20546F6C3A20002C20506174744C6585
:104AC6006E3A200020002C2050756C73653A200049
:104AD6002C20002C206D53746172743A20005369A7
:104AE600676E616C3A20002E2000205B005D00504E
:104AF60061747465726E3A20002050003A20002AD4
:104B06005B00005550442046696C746572003B4357
:104B16003D003B53463D003B004954506172616D78
:104B2600733A200020005620332E312E382D484669
:104B360032205349474E414C6475696E6F202D20D3
:104B4600636F6D70696C6564206174204E6F7620AA
:104B5600203820323031352032313A33363A333745
:104B66000000200058050000062C0100000000454A
:104B76000F6D076E07791000000000450F6D076E78
:104B860007560A0000000005076D076E076F07004D
:104B96000000000000020000000000211BDA1BB725
:084BA6001AE81AC81A111B00DD
:00000001FF
